{
	"data": {
		"bytecode": {
			"linkReferences": {},
			"object": "608060405260105f555f54600a62000018919062000269565b6001557306012c8cf97bead5deae237070f9587f8e7a266d60055f6101000a81548173ffffffffffffffffffffffffffffffffffffffff021916908373ffffffffffffffffffffffffffffffffffffffff16021790555060055f9054906101000a900473ffffffffffffffffffffffffffffffffffffffff1660065f6101000a81548173ffffffffffffffffffffffffffffffffffffffff021916908373ffffffffffffffffffffffffffffffffffffffff160217905550348015620000dc575f80fd5b50620002b9565b7f4e487b71000000000000000000000000000000000000000000000000000000005f52601160045260245ffd5b5f8160011c9050919050565b5f808291508390505b60018511156200016d57808604811115620001455762000144620000e3565b5b6001851615620001555780820291505b8081029050620001658562000110565b945062000125565b94509492505050565b5f8262000187576001905062000259565b8162000196575f905062000259565b8160018114620001af5760028114620001ba57620001f0565b600191505062000259565b60ff841115620001cf57620001ce620000e3565b5b8360020a915084821115620001e957620001e8620000e3565b5b5062000259565b5060208310610133831016604e8410600b84101617156200022a5782820a905083811115620002245762000223620000e3565b5b62000259565b6200023984848460016200011c565b92509050818404811115620002535762000252620000e3565b5b81810290505b9392505050565b5f819050919050565b5f620002758262000260565b9150620002828362000260565b9250620002b17fffffffffffffffffffffffffffffffffffffffffffffffffffffffffffffffff848462000176565b905092915050565b6110e280620002c75f395ff3fe608060405234801561000f575f80fd5b5060043610610055575f3560e01c806317a7f4cc146100595780632052465e14610075578063528b7b8f146100a65780636b0bfc80146100d65780637bff0a01146100f2575b5f80fd5b610073600480360381019061006e91906106c3565b61010e565b005b61008f600480360381019061008a9190610701565b610228565b60405161009d9291906107c5565b60405180910390f35b6100c060048036038101906100bb9190610701565b6102dd565b6040516100cd9190610832565b60405180910390f35b6100f060048036038101906100eb9190610977565b61030d565b005b61010c600480360381019061010791906109e3565b610484565b005b5f60065f9054906101000a900473ffffffffffffffffffffffffffffffffffffffff1673ffffffffffffffffffffffffffffffffffffffff1663e98b7f4d836040518263ffffffff1660e01b81526004016101699190610a2a565b61014060405180830381865afa158015610185573d5f803e3d5ffd5b505050506040513d601f19601f820116820180604052508101906101a99190610a8c565b9091929394959697985090919293949596975090919293949596509091929394955090919293945090919293509091925090915090508091505061022383826040518060400160405280600581526020017f6b6974747900000000000000000000000000000000000000000000000000000081525061030d565b505050565b60028181548110610237575f80fd5b905f5260205f2090600202015f91509050805f01805461025690610b92565b80601f016020809104026020016040519081016040528092919081815260200182805461028290610b92565b80156102cd5780601f106102a4576101008083540402835291602001916102cd565b820191905f5260205f20905b8154815290600101906020018083116102b057829003601f168201915b5050505050908060010154905082565b6003602052805f5260405f205f915054906101000a900473ffffffffffffffffffffffffffffffffffffffff1681565b60035f8481526020019081526020015f205f9054906101000a900473ffffffffffffffffffffffffffffffffffffffff1673ffffffffffffffffffffffffffffffffffffffff163373ffffffffffffffffffffffffffffffffffffffff1614610374575f80fd5b5f6002848154811061038957610388610bc2565b5b905f5260205f2090600202019050600154836103a59190610c1c565b92505f60028483600101546103ba9190610c79565b6103c49190610cac565b90506040516020016103d590610d30565b60405160208183030381529060405280519060200120836040516020016103fc9190610d74565b604051602081830303815290604052805190602001200361043e5760636064826104269190610c1c565b826104319190610d8a565b61043b9190610c79565b90505b61047d6040518060400160405280600681526020017f4e6f4e616d650000000000000000000000000000000000000000000000000000815250826104e6565b5050505050565b5f60045f3373ffffffffffffffffffffffffffffffffffffffff1673ffffffffffffffffffffffffffffffffffffffff1681526020019081526020015f2054146104cc575f80fd5b5f6104d682610639565b90506104e282826104e6565b5050565b6002604051806040016040528084815260200183815250908060018154018082558091505060019003905f5260205f2090600202015f909190919091505f820151815f0190816105369190610f5a565b506020820151816001015550505f60016002805490506105569190610d8a565b90503360035f8381526020019081526020015f205f6101000a81548173ffffffffffffffffffffffffffffffffffffffff021916908373ffffffffffffffffffffffffffffffffffffffff16021790555060045f3373ffffffffffffffffffffffffffffffffffffffff1673ffffffffffffffffffffffffffffffffffffffff1681526020019081526020015f205f8154809291906105f490611029565b91905055507f88f026aacbbecc90c18411df4b1185fd8d9be2470f1962f192bf84a27d0704b781848460405161062c93929190611070565b60405180910390a1505050565b5f808260405160200161064c9190610d74565b604051602081830303815290604052805190602001205f1c9050600154816106749190610c1c565b905080915050919050565b5f604051905090565b5f80fd5b5f80fd5b5f819050919050565b6106a281610690565b81146106ac575f80fd5b50565b5f813590506106bd81610699565b92915050565b5f80604083850312156106d9576106d8610688565b5b5f6106e6858286016106af565b92505060206106f7858286016106af565b9150509250929050565b5f6020828403121561071657610715610688565b5b5f610723848285016106af565b91505092915050565b5f81519050919050565b5f82825260208201905092915050565b5f5b83811015610763578082015181840152602081019050610748565b5f8484015250505050565b5f601f19601f8301169050919050565b5f6107888261072c565b6107928185610736565b93506107a2818560208601610746565b6107ab8161076e565b840191505092915050565b6107bf81610690565b82525050565b5f6040820190508181035f8301526107dd818561077e565b90506107ec60208301846107b6565b9392505050565b5f73ffffffffffffffffffffffffffffffffffffffff82169050919050565b5f61081c826107f3565b9050919050565b61082c81610812565b82525050565b5f6020820190506108455f830184610823565b92915050565b5f80fd5b5f80fd5b7f4e487b71000000000000000000000000000000000000000000000000000000005f52604160045260245ffd5b6108898261076e565b810181811067ffffffffffffffff821117156108a8576108a7610853565b5b80604052505050565b5f6108ba61067f565b90506108c68282610880565b919050565b5f67ffffffffffffffff8211156108e5576108e4610853565b5b6108ee8261076e565b9050602081019050919050565b828183375f83830152505050565b5f61091b610916846108cb565b6108b1565b9050828152602081018484840111156109375761093661084f565b5b6109428482856108fb565b509392505050565b5f82601f83011261095e5761095d61084b565b5b813561096e848260208601610909565b91505092915050565b5f805f6060848603121561098e5761098d610688565b5b5f61099b868287016106af565b93505060206109ac868287016106af565b925050604084013567ffffffffffffffff8111156109cd576109cc61068c565b5b6109d98682870161094a565b9150509250925092565b5f602082840312156109f8576109f7610688565b5b5f82013567ffffffffffffffff811115610a1557610a1461068c565b5b610a218482850161094a565b91505092915050565b5f602082019050610a3d5f8301846107b6565b92915050565b5f8115159050919050565b610a5781610a43565b8114610a61575f80fd5b50565b5f81519050610a7281610a4e565b92915050565b5f81519050610a8681610699565b92915050565b5f805f805f805f805f806101408b8d031215610aab57610aaa610688565b5b5f610ab88d828e01610a64565b9a50506020610ac98d828e01610a64565b9950506040610ada8d828e01610a78565b9850506060610aeb8d828e01610a78565b9750506080610afc8d828e01610a78565b96505060a0610b0d8d828e01610a78565b95505060c0610b1e8d828e01610a78565b94505060e0610b2f8d828e01610a78565b935050610100610b418d828e01610a78565b925050610120610b538d828e01610a78565b9150509295989b9194979a5092959850565b7f4e487b71000000000000000000000000000000000000000000000000000000005f52602260045260245ffd5b5f6002820490506001821680610ba957607f821691505b602082108103610bbc57610bbb610b65565b5b50919050565b7f4e487b71000000000000000000000000000000000000000000000000000000005f52603260045260245ffd5b7f4e487b71000000000000000000000000000000000000000000000000000000005f52601260045260245ffd5b5f610c2682610690565b9150610c3183610690565b925082610c4157610c40610bef565b5b828206905092915050565b7f4e487b71000000000000000000000000000000000000000000000000000000005f52601160045260245ffd5b5f610c8382610690565b9150610c8e83610690565b9250828201905080821115610ca657610ca5610c4c565b5b92915050565b5f610cb682610690565b9150610cc183610690565b925082610cd157610cd0610bef565b5b828204905092915050565b5f81905092915050565b7f6b697474790000000000000000000000000000000000000000000000000000005f82015250565b5f610d1a600583610cdc565b9150610d2582610ce6565b600582019050919050565b5f610d3a82610d0e565b9150819050919050565b5f610d4e8261072c565b610d588185610cdc565b9350610d68818560208601610746565b80840191505092915050565b5f610d7f8284610d44565b915081905092915050565b5f610d9482610690565b9150610d9f83610690565b9250828203905081811115610db757610db6610c4c565b5b92915050565b5f819050815f5260205f209050919050565b5f6020601f8301049050919050565b5f82821b905092915050565b5f60088302610e197fffffffffffffffffffffffffffffffffffffffffffffffffffffffffffffffff82610dde565b610e238683610dde565b95508019841693508086168417925050509392505050565b5f819050919050565b5f610e5e610e59610e5484610690565b610e3b565b610690565b9050919050565b5f819050919050565b610e7783610e44565b610e8b610e8382610e65565b848454610dea565b825550505050565b5f90565b610e9f610e93565b610eaa818484610e6e565b505050565b5b81811015610ecd57610ec25f82610e97565b600181019050610eb0565b5050565b601f821115610f1257610ee381610dbd565b610eec84610dcf565b81016020851015610efb578190505b610f0f610f0785610dcf565b830182610eaf565b50505b505050565b5f82821c905092915050565b5f610f325f1984600802610f17565b1980831691505092915050565b5f610f4a8383610f23565b9150826002028217905092915050565b610f638261072c565b67ffffffffffffffff811115610f7c57610f7b610853565b5b610f868254610b92565b610f91828285610ed1565b5f60209050601f831160018114610fc2575f8415610fb0578287015190505b610fba8582610f3f565b865550611021565b601f198416610fd086610dbd565b5f5b82811015610ff757848901518255600182019150602085019450602081019050610fd2565b868310156110145784890151611010601f891682610f23565b8355505b6001600288020188555050505b505050505050565b5f61103382610690565b91507fffffffffffffffffffffffffffffffffffffffffffffffffffffffffffffffff820361106557611064610c4c565b5b600182019050919050565b5f6060820190506110835f8301866107b6565b8181036020830152611095818561077e565b90506110a460408301846107b6565b94935050505056fea2646970667358221220e49f5b09731cbda471ade080e1c6cbb2b87e33b4238f16ecb2fb4d34671a247c64736f6c63430008180033",
			"opcodes": "PUSH1 0x80 PUSH1 0x40 MSTORE PUSH1 0x10 PUSH0 SSTORE PUSH0 SLOAD PUSH1 0xA PUSH3 0x18 SWAP2 SWAP1 PUSH3 0x269 JUMP JUMPDEST PUSH1 0x1 SSTORE PUSH20 0x6012C8CF97BEAD5DEAE237070F9587F8E7A266D PUSH1 0x5 PUSH0 PUSH2 0x100 EXP DUP2 SLOAD DUP2 PUSH20 0xFFFFFFFFFFFFFFFFFFFFFFFFFFFFFFFFFFFFFFFF MUL NOT AND SWAP1 DUP4 PUSH20 0xFFFFFFFFFFFFFFFFFFFFFFFFFFFFFFFFFFFFFFFF AND MUL OR SWAP1 SSTORE POP PUSH1 0x5 PUSH0 SWAP1 SLOAD SWAP1 PUSH2 0x100 EXP SWAP1 DIV PUSH20 0xFFFFFFFFFFFFFFFFFFFFFFFFFFFFFFFFFFFFFFFF AND PUSH1 0x6 PUSH0 PUSH2 0x100 EXP DUP2 SLOAD DUP2 PUSH20 0xFFFFFFFFFFFFFFFFFFFFFFFFFFFFFFFFFFFFFFFF MUL NOT AND SWAP1 DUP4 PUSH20 0xFFFFFFFFFFFFFFFFFFFFFFFFFFFFFFFFFFFFFFFF AND MUL OR SWAP1 SSTORE POP CALLVALUE DUP1 ISZERO PUSH3 0xDC JUMPI PUSH0 DUP1 REVERT JUMPDEST POP PUSH3 0x2B9 JUMP JUMPDEST PUSH32 0x4E487B7100000000000000000000000000000000000000000000000000000000 PUSH0 MSTORE PUSH1 0x11 PUSH1 0x4 MSTORE PUSH1 0x24 PUSH0 REVERT JUMPDEST PUSH0 DUP2 PUSH1 0x1 SHR SWAP1 POP SWAP2 SWAP1 POP JUMP JUMPDEST PUSH0 DUP1 DUP3 SWAP2 POP DUP4 SWAP1 POP JUMPDEST PUSH1 0x1 DUP6 GT ISZERO PUSH3 0x16D JUMPI DUP1 DUP7 DIV DUP2 GT ISZERO PUSH3 0x145 JUMPI PUSH3 0x144 PUSH3 0xE3 JUMP JUMPDEST JUMPDEST PUSH1 0x1 DUP6 AND ISZERO PUSH3 0x155 JUMPI DUP1 DUP3 MUL SWAP2 POP JUMPDEST DUP1 DUP2 MUL SWAP1 POP PUSH3 0x165 DUP6 PUSH3 0x110 JUMP JUMPDEST SWAP5 POP PUSH3 0x125 JUMP JUMPDEST SWAP5 POP SWAP5 SWAP3 POP POP POP JUMP JUMPDEST PUSH0 DUP3 PUSH3 0x187 JUMPI PUSH1 0x1 SWAP1 POP PUSH3 0x259 JUMP JUMPDEST DUP2 PUSH3 0x196 JUMPI PUSH0 SWAP1 POP PUSH3 0x259 JUMP JUMPDEST DUP2 PUSH1 0x1 DUP2 EQ PUSH3 0x1AF JUMPI PUSH1 0x2 DUP2 EQ PUSH3 0x1BA JUMPI PUSH3 0x1F0 JUMP JUMPDEST PUSH1 0x1 SWAP2 POP POP PUSH3 0x259 JUMP JUMPDEST PUSH1 0xFF DUP5 GT ISZERO PUSH3 0x1CF JUMPI PUSH3 0x1CE PUSH3 0xE3 JUMP JUMPDEST JUMPDEST DUP4 PUSH1 0x2 EXP SWAP2 POP DUP5 DUP3 GT ISZERO PUSH3 0x1E9 JUMPI PUSH3 0x1E8 PUSH3 0xE3 JUMP JUMPDEST JUMPDEST POP PUSH3 0x259 JUMP JUMPDEST POP PUSH1 0x20 DUP4 LT PUSH2 0x133 DUP4 LT AND PUSH1 0x4E DUP5 LT PUSH1 0xB DUP5 LT AND OR ISZERO PUSH3 0x22A JUMPI DUP3 DUP3 EXP SWAP1 POP DUP4 DUP2 GT ISZERO PUSH3 0x224 JUMPI PUSH3 0x223 PUSH3 0xE3 JUMP JUMPDEST JUMPDEST PUSH3 0x259 JUMP JUMPDEST PUSH3 0x239 DUP5 DUP5 DUP5 PUSH1 0x1 PUSH3 0x11C JUMP JUMPDEST SWAP3 POP SWAP1 POP DUP2 DUP5 DIV DUP2 GT ISZERO PUSH3 0x253 JUMPI PUSH3 0x252 PUSH3 0xE3 JUMP JUMPDEST JUMPDEST DUP2 DUP2 MUL SWAP1 POP JUMPDEST SWAP4 SWAP3 POP POP POP JUMP JUMPDEST PUSH0 DUP2 SWAP1 POP SWAP2 SWAP1 POP JUMP JUMPDEST PUSH0 PUSH3 0x275 DUP3 PUSH3 0x260 JUMP JUMPDEST SWAP2 POP PUSH3 0x282 DUP4 PUSH3 0x260 JUMP JUMPDEST SWAP3 POP PUSH3 0x2B1 PUSH32 0xFFFFFFFFFFFFFFFFFFFFFFFFFFFFFFFFFFFFFFFFFFFFFFFFFFFFFFFFFFFFFFFF DUP5 DUP5 PUSH3 0x176 JUMP JUMPDEST SWAP1 POP SWAP3 SWAP2 POP POP JUMP JUMPDEST PUSH2 0x10E2 DUP1 PUSH3 0x2C7 PUSH0 CODECOPY PUSH0 RETURN INVALID PUSH1 0x80 PUSH1 0x40 MSTORE CALLVALUE DUP1 ISZERO PUSH2 0xF JUMPI PUSH0 DUP1 REVERT JUMPDEST POP PUSH1 0x4 CALLDATASIZE LT PUSH2 0x55 JUMPI PUSH0 CALLDATALOAD PUSH1 0xE0 SHR DUP1 PUSH4 0x17A7F4CC EQ PUSH2 0x59 JUMPI DUP1 PUSH4 0x2052465E EQ PUSH2 0x75 JUMPI DUP1 PUSH4 0x528B7B8F EQ PUSH2 0xA6 JUMPI DUP1 PUSH4 0x6B0BFC80 EQ PUSH2 0xD6 JUMPI DUP1 PUSH4 0x7BFF0A01 EQ PUSH2 0xF2 JUMPI JUMPDEST PUSH0 DUP1 REVERT JUMPDEST PUSH2 0x73 PUSH1 0x4 DUP1 CALLDATASIZE SUB DUP2 ADD SWAP1 PUSH2 0x6E SWAP2 SWAP1 PUSH2 0x6C3 JUMP JUMPDEST PUSH2 0x10E JUMP JUMPDEST STOP JUMPDEST PUSH2 0x8F PUSH1 0x4 DUP1 CALLDATASIZE SUB DUP2 ADD SWAP1 PUSH2 0x8A SWAP2 SWAP1 PUSH2 0x701 JUMP JUMPDEST PUSH2 0x228 JUMP JUMPDEST PUSH1 0x40 MLOAD PUSH2 0x9D SWAP3 SWAP2 SWAP1 PUSH2 0x7C5 JUMP JUMPDEST PUSH1 0x40 MLOAD DUP1 SWAP2 SUB SWAP1 RETURN JUMPDEST PUSH2 0xC0 PUSH1 0x4 DUP1 CALLDATASIZE SUB DUP2 ADD SWAP1 PUSH2 0xBB SWAP2 SWAP1 PUSH2 0x701 JUMP JUMPDEST PUSH2 0x2DD JUMP JUMPDEST PUSH1 0x40 MLOAD PUSH2 0xCD SWAP2 SWAP1 PUSH2 0x832 JUMP JUMPDEST PUSH1 0x40 MLOAD DUP1 SWAP2 SUB SWAP1 RETURN JUMPDEST PUSH2 0xF0 PUSH1 0x4 DUP1 CALLDATASIZE SUB DUP2 ADD SWAP1 PUSH2 0xEB SWAP2 SWAP1 PUSH2 0x977 JUMP JUMPDEST PUSH2 0x30D JUMP JUMPDEST STOP JUMPDEST PUSH2 0x10C PUSH1 0x4 DUP1 CALLDATASIZE SUB DUP2 ADD SWAP1 PUSH2 0x107 SWAP2 SWAP1 PUSH2 0x9E3 JUMP JUMPDEST PUSH2 0x484 JUMP JUMPDEST STOP JUMPDEST PUSH0 PUSH1 0x6 PUSH0 SWAP1 SLOAD SWAP1 PUSH2 0x100 EXP SWAP1 DIV PUSH20 0xFFFFFFFFFFFFFFFFFFFFFFFFFFFFFFFFFFFFFFFF AND PUSH20 0xFFFFFFFFFFFFFFFFFFFFFFFFFFFFFFFFFFFFFFFF AND PUSH4 0xE98B7F4D DUP4 PUSH1 0x40 MLOAD DUP3 PUSH4 0xFFFFFFFF AND PUSH1 0xE0 SHL DUP2 MSTORE PUSH1 0x4 ADD PUSH2 0x169 SWAP2 SWAP1 PUSH2 0xA2A JUMP JUMPDEST PUSH2 0x140 PUSH1 0x40 MLOAD DUP1 DUP4 SUB DUP2 DUP7 GAS STATICCALL ISZERO DUP1 ISZERO PUSH2 0x185 JUMPI RETURNDATASIZE PUSH0 DUP1 RETURNDATACOPY RETURNDATASIZE PUSH0 REVERT JUMPDEST POP POP POP POP PUSH1 0x40 MLOAD RETURNDATASIZE PUSH1 0x1F NOT PUSH1 0x1F DUP3 ADD AND DUP3 ADD DUP1 PUSH1 0x40 MSTORE POP DUP2 ADD SWAP1 PUSH2 0x1A9 SWAP2 SWAP1 PUSH2 0xA8C JUMP JUMPDEST SWAP1 SWAP2 SWAP3 SWAP4 SWAP5 SWAP6 SWAP7 SWAP8 SWAP9 POP SWAP1 SWAP2 SWAP3 SWAP4 SWAP5 SWAP6 SWAP7 SWAP8 POP SWAP1 SWAP2 SWAP3 SWAP4 SWAP5 SWAP6 SWAP7 POP SWAP1 SWAP2 SWAP3 SWAP4 SWAP5 SWAP6 POP SWAP1 SWAP2 SWAP3 SWAP4 SWAP5 POP SWAP1 SWAP2 SWAP3 SWAP4 POP SWAP1 SWAP2 SWAP3 POP SWAP1 SWAP2 POP SWAP1 POP DUP1 SWAP2 POP POP PUSH2 0x223 DUP4 DUP3 PUSH1 0x40 MLOAD DUP1 PUSH1 0x40 ADD PUSH1 0x40 MSTORE DUP1 PUSH1 0x5 DUP2 MSTORE PUSH1 0x20 ADD PUSH32 0x6B69747479000000000000000000000000000000000000000000000000000000 DUP2 MSTORE POP PUSH2 0x30D JUMP JUMPDEST POP POP POP JUMP JUMPDEST PUSH1 0x2 DUP2 DUP2 SLOAD DUP2 LT PUSH2 0x237 JUMPI PUSH0 DUP1 REVERT JUMPDEST SWAP1 PUSH0 MSTORE PUSH1 0x20 PUSH0 KECCAK256 SWAP1 PUSH1 0x2 MUL ADD PUSH0 SWAP2 POP SWAP1 POP DUP1 PUSH0 ADD DUP1 SLOAD PUSH2 0x256 SWAP1 PUSH2 0xB92 JUMP JUMPDEST DUP1 PUSH1 0x1F ADD PUSH1 0x20 DUP1 SWAP2 DIV MUL PUSH1 0x20 ADD PUSH1 0x40 MLOAD SWAP1 DUP2 ADD PUSH1 0x40 MSTORE DUP1 SWAP3 SWAP2 SWAP1 DUP2 DUP2 MSTORE PUSH1 0x20 ADD DUP3 DUP1 SLOAD PUSH2 0x282 SWAP1 PUSH2 0xB92 JUMP JUMPDEST DUP1 ISZERO PUSH2 0x2CD JUMPI DUP1 PUSH1 0x1F LT PUSH2 0x2A4 JUMPI PUSH2 0x100 DUP1 DUP4 SLOAD DIV MUL DUP4 MSTORE SWAP2 PUSH1 0x20 ADD SWAP2 PUSH2 0x2CD JUMP JUMPDEST DUP3 ADD SWAP2 SWAP1 PUSH0 MSTORE PUSH1 0x20 PUSH0 KECCAK256 SWAP1 JUMPDEST DUP2 SLOAD DUP2 MSTORE SWAP1 PUSH1 0x1 ADD SWAP1 PUSH1 0x20 ADD DUP1 DUP4 GT PUSH2 0x2B0 JUMPI DUP3 SWAP1 SUB PUSH1 0x1F AND DUP3 ADD SWAP2 JUMPDEST POP POP POP POP POP SWAP1 DUP1 PUSH1 0x1 ADD SLOAD SWAP1 POP DUP3 JUMP JUMPDEST PUSH1 0x3 PUSH1 0x20 MSTORE DUP1 PUSH0 MSTORE PUSH1 0x40 PUSH0 KECCAK256 PUSH0 SWAP2 POP SLOAD SWAP1 PUSH2 0x100 EXP SWAP1 DIV PUSH20 0xFFFFFFFFFFFFFFFFFFFFFFFFFFFFFFFFFFFFFFFF AND DUP2 JUMP JUMPDEST PUSH1 0x3 PUSH0 DUP5 DUP2 MSTORE PUSH1 0x20 ADD SWAP1 DUP2 MSTORE PUSH1 0x20 ADD PUSH0 KECCAK256 PUSH0 SWAP1 SLOAD SWAP1 PUSH2 0x100 EXP SWAP1 DIV PUSH20 0xFFFFFFFFFFFFFFFFFFFFFFFFFFFFFFFFFFFFFFFF AND PUSH20 0xFFFFFFFFFFFFFFFFFFFFFFFFFFFFFFFFFFFFFFFF AND CALLER PUSH20 0xFFFFFFFFFFFFFFFFFFFFFFFFFFFFFFFFFFFFFFFF AND EQ PUSH2 0x374 JUMPI PUSH0 DUP1 REVERT JUMPDEST PUSH0 PUSH1 0x2 DUP5 DUP2 SLOAD DUP2 LT PUSH2 0x389 JUMPI PUSH2 0x388 PUSH2 0xBC2 JUMP JUMPDEST JUMPDEST SWAP1 PUSH0 MSTORE PUSH1 0x20 PUSH0 KECCAK256 SWAP1 PUSH1 0x2 MUL ADD SWAP1 POP PUSH1 0x1 SLOAD DUP4 PUSH2 0x3A5 SWAP2 SWAP1 PUSH2 0xC1C JUMP JUMPDEST SWAP3 POP PUSH0 PUSH1 0x2 DUP5 DUP4 PUSH1 0x1 ADD SLOAD PUSH2 0x3BA SWAP2 SWAP1 PUSH2 0xC79 JUMP JUMPDEST PUSH2 0x3C4 SWAP2 SWAP1 PUSH2 0xCAC JUMP JUMPDEST SWAP1 POP PUSH1 0x40 MLOAD PUSH1 0x20 ADD PUSH2 0x3D5 SWAP1 PUSH2 0xD30 JUMP JUMPDEST PUSH1 0x40 MLOAD PUSH1 0x20 DUP2 DUP4 SUB SUB DUP2 MSTORE SWAP1 PUSH1 0x40 MSTORE DUP1 MLOAD SWAP1 PUSH1 0x20 ADD KECCAK256 DUP4 PUSH1 0x40 MLOAD PUSH1 0x20 ADD PUSH2 0x3FC SWAP2 SWAP1 PUSH2 0xD74 JUMP JUMPDEST PUSH1 0x40 MLOAD PUSH1 0x20 DUP2 DUP4 SUB SUB DUP2 MSTORE SWAP1 PUSH1 0x40 MSTORE DUP1 MLOAD SWAP1 PUSH1 0x20 ADD KECCAK256 SUB PUSH2 0x43E JUMPI PUSH1 0x63 PUSH1 0x64 DUP3 PUSH2 0x426 SWAP2 SWAP1 PUSH2 0xC1C JUMP JUMPDEST DUP3 PUSH2 0x431 SWAP2 SWAP1 PUSH2 0xD8A JUMP JUMPDEST PUSH2 0x43B SWAP2 SWAP1 PUSH2 0xC79 JUMP JUMPDEST SWAP1 POP JUMPDEST PUSH2 0x47D PUSH1 0x40 MLOAD DUP1 PUSH1 0x40 ADD PUSH1 0x40 MSTORE DUP1 PUSH1 0x6 DUP2 MSTORE PUSH1 0x20 ADD PUSH32 0x4E6F4E616D650000000000000000000000000000000000000000000000000000 DUP2 MSTORE POP DUP3 PUSH2 0x4E6 JUMP JUMPDEST POP POP POP POP POP JUMP JUMPDEST PUSH0 PUSH1 0x4 PUSH0 CALLER PUSH20 0xFFFFFFFFFFFFFFFFFFFFFFFFFFFFFFFFFFFFFFFF AND PUSH20 0xFFFFFFFFFFFFFFFFFFFFFFFFFFFFFFFFFFFFFFFF AND DUP2 MSTORE PUSH1 0x20 ADD SWAP1 DUP2 MSTORE PUSH1 0x20 ADD PUSH0 KECCAK256 SLOAD EQ PUSH2 0x4CC JUMPI PUSH0 DUP1 REVERT JUMPDEST PUSH0 PUSH2 0x4D6 DUP3 PUSH2 0x639 JUMP JUMPDEST SWAP1 POP PUSH2 0x4E2 DUP3 DUP3 PUSH2 0x4E6 JUMP JUMPDEST POP POP JUMP JUMPDEST PUSH1 0x2 PUSH1 0x40 MLOAD DUP1 PUSH1 0x40 ADD PUSH1 0x40 MSTORE DUP1 DUP5 DUP2 MSTORE PUSH1 0x20 ADD DUP4 DUP2 MSTORE POP SWAP1 DUP1 PUSH1 0x1 DUP2 SLOAD ADD DUP1 DUP3 SSTORE DUP1 SWAP2 POP POP PUSH1 0x1 SWAP1 SUB SWAP1 PUSH0 MSTORE PUSH1 0x20 PUSH0 KECCAK256 SWAP1 PUSH1 0x2 MUL ADD PUSH0 SWAP1 SWAP2 SWAP1 SWAP2 SWAP1 SWAP2 POP PUSH0 DUP3 ADD MLOAD DUP2 PUSH0 ADD SWAP1 DUP2 PUSH2 0x536 SWAP2 SWAP1 PUSH2 0xF5A JUMP JUMPDEST POP PUSH1 0x20 DUP3 ADD MLOAD DUP2 PUSH1 0x1 ADD SSTORE POP POP PUSH0 PUSH1 0x1 PUSH1 0x2 DUP1 SLOAD SWAP1 POP PUSH2 0x556 SWAP2 SWAP1 PUSH2 0xD8A JUMP JUMPDEST SWAP1 POP CALLER PUSH1 0x3 PUSH0 DUP4 DUP2 MSTORE PUSH1 0x20 ADD SWAP1 DUP2 MSTORE PUSH1 0x20 ADD PUSH0 KECCAK256 PUSH0 PUSH2 0x100 EXP DUP2 SLOAD DUP2 PUSH20 0xFFFFFFFFFFFFFFFFFFFFFFFFFFFFFFFFFFFFFFFF MUL NOT AND SWAP1 DUP4 PUSH20 0xFFFFFFFFFFFFFFFFFFFFFFFFFFFFFFFFFFFFFFFF AND MUL OR SWAP1 SSTORE POP PUSH1 0x4 PUSH0 CALLER PUSH20 0xFFFFFFFFFFFFFFFFFFFFFFFFFFFFFFFFFFFFFFFF AND PUSH20 0xFFFFFFFFFFFFFFFFFFFFFFFFFFFFFFFFFFFFFFFF AND DUP2 MSTORE PUSH1 0x20 ADD SWAP1 DUP2 MSTORE PUSH1 0x20 ADD PUSH0 KECCAK256 PUSH0 DUP2 SLOAD DUP1 SWAP3 SWAP2 SWAP1 PUSH2 0x5F4 SWAP1 PUSH2 0x1029 JUMP JUMPDEST SWAP2 SWAP1 POP SSTORE POP PUSH32 0x88F026AACBBECC90C18411DF4B1185FD8D9BE2470F1962F192BF84A27D0704B7 DUP2 DUP5 DUP5 PUSH1 0x40 MLOAD PUSH2 0x62C SWAP4 SWAP3 SWAP2 SWAP1 PUSH2 0x1070 JUMP JUMPDEST PUSH1 0x40 MLOAD DUP1 SWAP2 SUB SWAP1 LOG1 POP POP POP JUMP JUMPDEST PUSH0 DUP1 DUP3 PUSH1 0x40 MLOAD PUSH1 0x20 ADD PUSH2 0x64C SWAP2 SWAP1 PUSH2 0xD74 JUMP JUMPDEST PUSH1 0x40 MLOAD PUSH1 0x20 DUP2 DUP4 SUB SUB DUP2 MSTORE SWAP1 PUSH1 0x40 MSTORE DUP1 MLOAD SWAP1 PUSH1 0x20 ADD KECCAK256 PUSH0 SHR SWAP1 POP PUSH1 0x1 SLOAD DUP2 PUSH2 0x674 SWAP2 SWAP1 PUSH2 0xC1C JUMP JUMPDEST SWAP1 POP DUP1 SWAP2 POP POP SWAP2 SWAP1 POP JUMP JUMPDEST PUSH0 PUSH1 0x40 MLOAD SWAP1 POP SWAP1 JUMP JUMPDEST PUSH0 DUP1 REVERT JUMPDEST PUSH0 DUP1 REVERT JUMPDEST PUSH0 DUP2 SWAP1 POP SWAP2 SWAP1 POP JUMP JUMPDEST PUSH2 0x6A2 DUP2 PUSH2 0x690 JUMP JUMPDEST DUP2 EQ PUSH2 0x6AC JUMPI PUSH0 DUP1 REVERT JUMPDEST POP JUMP JUMPDEST PUSH0 DUP2 CALLDATALOAD SWAP1 POP PUSH2 0x6BD DUP2 PUSH2 0x699 JUMP JUMPDEST SWAP3 SWAP2 POP POP JUMP JUMPDEST PUSH0 DUP1 PUSH1 0x40 DUP4 DUP6 SUB SLT ISZERO PUSH2 0x6D9 JUMPI PUSH2 0x6D8 PUSH2 0x688 JUMP JUMPDEST JUMPDEST PUSH0 PUSH2 0x6E6 DUP6 DUP3 DUP7 ADD PUSH2 0x6AF JUMP JUMPDEST SWAP3 POP POP PUSH1 0x20 PUSH2 0x6F7 DUP6 DUP3 DUP7 ADD PUSH2 0x6AF JUMP JUMPDEST SWAP2 POP POP SWAP3 POP SWAP3 SWAP1 POP JUMP JUMPDEST PUSH0 PUSH1 0x20 DUP3 DUP5 SUB SLT ISZERO PUSH2 0x716 JUMPI PUSH2 0x715 PUSH2 0x688 JUMP JUMPDEST JUMPDEST PUSH0 PUSH2 0x723 DUP5 DUP3 DUP6 ADD PUSH2 0x6AF JUMP JUMPDEST SWAP2 POP POP SWAP3 SWAP2 POP POP JUMP JUMPDEST PUSH0 DUP2 MLOAD SWAP1 POP SWAP2 SWAP1 POP JUMP JUMPDEST PUSH0 DUP3 DUP3 MSTORE PUSH1 0x20 DUP3 ADD SWAP1 POP SWAP3 SWAP2 POP POP JUMP JUMPDEST PUSH0 JUMPDEST DUP4 DUP2 LT ISZERO PUSH2 0x763 JUMPI DUP1 DUP3 ADD MLOAD DUP2 DUP5 ADD MSTORE PUSH1 0x20 DUP2 ADD SWAP1 POP PUSH2 0x748 JUMP JUMPDEST PUSH0 DUP5 DUP5 ADD MSTORE POP POP POP POP JUMP JUMPDEST PUSH0 PUSH1 0x1F NOT PUSH1 0x1F DUP4 ADD AND SWAP1 POP SWAP2 SWAP1 POP JUMP JUMPDEST PUSH0 PUSH2 0x788 DUP3 PUSH2 0x72C JUMP JUMPDEST PUSH2 0x792 DUP2 DUP6 PUSH2 0x736 JUMP JUMPDEST SWAP4 POP PUSH2 0x7A2 DUP2 DUP6 PUSH1 0x20 DUP7 ADD PUSH2 0x746 JUMP JUMPDEST PUSH2 0x7AB DUP2 PUSH2 0x76E JUMP JUMPDEST DUP5 ADD SWAP2 POP POP SWAP3 SWAP2 POP POP JUMP JUMPDEST PUSH2 0x7BF DUP2 PUSH2 0x690 JUMP JUMPDEST DUP3 MSTORE POP POP JUMP JUMPDEST PUSH0 PUSH1 0x40 DUP3 ADD SWAP1 POP DUP2 DUP2 SUB PUSH0 DUP4 ADD MSTORE PUSH2 0x7DD DUP2 DUP6 PUSH2 0x77E JUMP JUMPDEST SWAP1 POP PUSH2 0x7EC PUSH1 0x20 DUP4 ADD DUP5 PUSH2 0x7B6 JUMP JUMPDEST SWAP4 SWAP3 POP POP POP JUMP JUMPDEST PUSH0 PUSH20 0xFFFFFFFFFFFFFFFFFFFFFFFFFFFFFFFFFFFFFFFF DUP3 AND SWAP1 POP SWAP2 SWAP1 POP JUMP JUMPDEST PUSH0 PUSH2 0x81C DUP3 PUSH2 0x7F3 JUMP JUMPDEST SWAP1 POP SWAP2 SWAP1 POP JUMP JUMPDEST PUSH2 0x82C DUP2 PUSH2 0x812 JUMP JUMPDEST DUP3 MSTORE POP POP JUMP JUMPDEST PUSH0 PUSH1 0x20 DUP3 ADD SWAP1 POP PUSH2 0x845 PUSH0 DUP4 ADD DUP5 PUSH2 0x823 JUMP JUMPDEST SWAP3 SWAP2 POP POP JUMP JUMPDEST PUSH0 DUP1 REVERT JUMPDEST PUSH0 DUP1 REVERT JUMPDEST PUSH32 0x4E487B7100000000000000000000000000000000000000000000000000000000 PUSH0 MSTORE PUSH1 0x41 PUSH1 0x4 MSTORE PUSH1 0x24 PUSH0 REVERT JUMPDEST PUSH2 0x889 DUP3 PUSH2 0x76E JUMP JUMPDEST DUP2 ADD DUP2 DUP2 LT PUSH8 0xFFFFFFFFFFFFFFFF DUP3 GT OR ISZERO PUSH2 0x8A8 JUMPI PUSH2 0x8A7 PUSH2 0x853 JUMP JUMPDEST JUMPDEST DUP1 PUSH1 0x40 MSTORE POP POP POP JUMP JUMPDEST PUSH0 PUSH2 0x8BA PUSH2 0x67F JUMP JUMPDEST SWAP1 POP PUSH2 0x8C6 DUP3 DUP3 PUSH2 0x880 JUMP JUMPDEST SWAP2 SWAP1 POP JUMP JUMPDEST PUSH0 PUSH8 0xFFFFFFFFFFFFFFFF DUP3 GT ISZERO PUSH2 0x8E5 JUMPI PUSH2 0x8E4 PUSH2 0x853 JUMP JUMPDEST JUMPDEST PUSH2 0x8EE DUP3 PUSH2 0x76E JUMP JUMPDEST SWAP1 POP PUSH1 0x20 DUP2 ADD SWAP1 POP SWAP2 SWAP1 POP JUMP JUMPDEST DUP3 DUP2 DUP4 CALLDATACOPY PUSH0 DUP4 DUP4 ADD MSTORE POP POP POP JUMP JUMPDEST PUSH0 PUSH2 0x91B PUSH2 0x916 DUP5 PUSH2 0x8CB JUMP JUMPDEST PUSH2 0x8B1 JUMP JUMPDEST SWAP1 POP DUP3 DUP2 MSTORE PUSH1 0x20 DUP2 ADD DUP5 DUP5 DUP5 ADD GT ISZERO PUSH2 0x937 JUMPI PUSH2 0x936 PUSH2 0x84F JUMP JUMPDEST JUMPDEST PUSH2 0x942 DUP5 DUP3 DUP6 PUSH2 0x8FB JUMP JUMPDEST POP SWAP4 SWAP3 POP POP POP JUMP JUMPDEST PUSH0 DUP3 PUSH1 0x1F DUP4 ADD SLT PUSH2 0x95E JUMPI PUSH2 0x95D PUSH2 0x84B JUMP JUMPDEST JUMPDEST DUP2 CALLDATALOAD PUSH2 0x96E DUP5 DUP3 PUSH1 0x20 DUP7 ADD PUSH2 0x909 JUMP JUMPDEST SWAP2 POP POP SWAP3 SWAP2 POP POP JUMP JUMPDEST PUSH0 DUP1 PUSH0 PUSH1 0x60 DUP5 DUP7 SUB SLT ISZERO PUSH2 0x98E JUMPI PUSH2 0x98D PUSH2 0x688 JUMP JUMPDEST JUMPDEST PUSH0 PUSH2 0x99B DUP7 DUP3 DUP8 ADD PUSH2 0x6AF JUMP JUMPDEST SWAP4 POP POP PUSH1 0x20 PUSH2 0x9AC DUP7 DUP3 DUP8 ADD PUSH2 0x6AF JUMP JUMPDEST SWAP3 POP POP PUSH1 0x40 DUP5 ADD CALLDATALOAD PUSH8 0xFFFFFFFFFFFFFFFF DUP2 GT ISZERO PUSH2 0x9CD JUMPI PUSH2 0x9CC PUSH2 0x68C JUMP JUMPDEST JUMPDEST PUSH2 0x9D9 DUP7 DUP3 DUP8 ADD PUSH2 0x94A JUMP JUMPDEST SWAP2 POP POP SWAP3 POP SWAP3 POP SWAP3 JUMP JUMPDEST PUSH0 PUSH1 0x20 DUP3 DUP5 SUB SLT ISZERO PUSH2 0x9F8 JUMPI PUSH2 0x9F7 PUSH2 0x688 JUMP JUMPDEST JUMPDEST PUSH0 DUP3 ADD CALLDATALOAD PUSH8 0xFFFFFFFFFFFFFFFF DUP2 GT ISZERO PUSH2 0xA15 JUMPI PUSH2 0xA14 PUSH2 0x68C JUMP JUMPDEST JUMPDEST PUSH2 0xA21 DUP5 DUP3 DUP6 ADD PUSH2 0x94A JUMP JUMPDEST SWAP2 POP POP SWAP3 SWAP2 POP POP JUMP JUMPDEST PUSH0 PUSH1 0x20 DUP3 ADD SWAP1 POP PUSH2 0xA3D PUSH0 DUP4 ADD DUP5 PUSH2 0x7B6 JUMP JUMPDEST SWAP3 SWAP2 POP POP JUMP JUMPDEST PUSH0 DUP2 ISZERO ISZERO SWAP1 POP SWAP2 SWAP1 POP JUMP JUMPDEST PUSH2 0xA57 DUP2 PUSH2 0xA43 JUMP JUMPDEST DUP2 EQ PUSH2 0xA61 JUMPI PUSH0 DUP1 REVERT JUMPDEST POP JUMP JUMPDEST PUSH0 DUP2 MLOAD SWAP1 POP PUSH2 0xA72 DUP2 PUSH2 0xA4E JUMP JUMPDEST SWAP3 SWAP2 POP POP JUMP JUMPDEST PUSH0 DUP2 MLOAD SWAP1 POP PUSH2 0xA86 DUP2 PUSH2 0x699 JUMP JUMPDEST SWAP3 SWAP2 POP POP JUMP JUMPDEST PUSH0 DUP1 PUSH0 DUP1 PUSH0 DUP1 PUSH0 DUP1 PUSH0 DUP1 PUSH2 0x140 DUP12 DUP14 SUB SLT ISZERO PUSH2 0xAAB JUMPI PUSH2 0xAAA PUSH2 0x688 JUMP JUMPDEST JUMPDEST PUSH0 PUSH2 0xAB8 DUP14 DUP3 DUP15 ADD PUSH2 0xA64 JUMP JUMPDEST SWAP11 POP POP PUSH1 0x20 PUSH2 0xAC9 DUP14 DUP3 DUP15 ADD PUSH2 0xA64 JUMP JUMPDEST SWAP10 POP POP PUSH1 0x40 PUSH2 0xADA DUP14 DUP3 DUP15 ADD PUSH2 0xA78 JUMP JUMPDEST SWAP9 POP POP PUSH1 0x60 PUSH2 0xAEB DUP14 DUP3 DUP15 ADD PUSH2 0xA78 JUMP JUMPDEST SWAP8 POP POP PUSH1 0x80 PUSH2 0xAFC DUP14 DUP3 DUP15 ADD PUSH2 0xA78 JUMP JUMPDEST SWAP7 POP POP PUSH1 0xA0 PUSH2 0xB0D DUP14 DUP3 DUP15 ADD PUSH2 0xA78 JUMP JUMPDEST SWAP6 POP POP PUSH1 0xC0 PUSH2 0xB1E DUP14 DUP3 DUP15 ADD PUSH2 0xA78 JUMP JUMPDEST SWAP5 POP POP PUSH1 0xE0 PUSH2 0xB2F DUP14 DUP3 DUP15 ADD PUSH2 0xA78 JUMP JUMPDEST SWAP4 POP POP PUSH2 0x100 PUSH2 0xB41 DUP14 DUP3 DUP15 ADD PUSH2 0xA78 JUMP JUMPDEST SWAP3 POP POP PUSH2 0x120 PUSH2 0xB53 DUP14 DUP3 DUP15 ADD PUSH2 0xA78 JUMP JUMPDEST SWAP2 POP POP SWAP3 SWAP6 SWAP9 SWAP12 SWAP2 SWAP5 SWAP8 SWAP11 POP SWAP3 SWAP6 SWAP9 POP JUMP JUMPDEST PUSH32 0x4E487B7100000000000000000000000000000000000000000000000000000000 PUSH0 MSTORE PUSH1 0x22 PUSH1 0x4 MSTORE PUSH1 0x24 PUSH0 REVERT JUMPDEST PUSH0 PUSH1 0x2 DUP3 DIV SWAP1 POP PUSH1 0x1 DUP3 AND DUP1 PUSH2 0xBA9 JUMPI PUSH1 0x7F DUP3 AND SWAP2 POP JUMPDEST PUSH1 0x20 DUP3 LT DUP2 SUB PUSH2 0xBBC JUMPI PUSH2 0xBBB PUSH2 0xB65 JUMP JUMPDEST JUMPDEST POP SWAP2 SWAP1 POP JUMP JUMPDEST PUSH32 0x4E487B7100000000000000000000000000000000000000000000000000000000 PUSH0 MSTORE PUSH1 0x32 PUSH1 0x4 MSTORE PUSH1 0x24 PUSH0 REVERT JUMPDEST PUSH32 0x4E487B7100000000000000000000000000000000000000000000000000000000 PUSH0 MSTORE PUSH1 0x12 PUSH1 0x4 MSTORE PUSH1 0x24 PUSH0 REVERT JUMPDEST PUSH0 PUSH2 0xC26 DUP3 PUSH2 0x690 JUMP JUMPDEST SWAP2 POP PUSH2 0xC31 DUP4 PUSH2 0x690 JUMP JUMPDEST SWAP3 POP DUP3 PUSH2 0xC41 JUMPI PUSH2 0xC40 PUSH2 0xBEF JUMP JUMPDEST JUMPDEST DUP3 DUP3 MOD SWAP1 POP SWAP3 SWAP2 POP POP JUMP JUMPDEST PUSH32 0x4E487B7100000000000000000000000000000000000000000000000000000000 PUSH0 MSTORE PUSH1 0x11 PUSH1 0x4 MSTORE PUSH1 0x24 PUSH0 REVERT JUMPDEST PUSH0 PUSH2 0xC83 DUP3 PUSH2 0x690 JUMP JUMPDEST SWAP2 POP PUSH2 0xC8E DUP4 PUSH2 0x690 JUMP JUMPDEST SWAP3 POP DUP3 DUP3 ADD SWAP1 POP DUP1 DUP3 GT ISZERO PUSH2 0xCA6 JUMPI PUSH2 0xCA5 PUSH2 0xC4C JUMP JUMPDEST JUMPDEST SWAP3 SWAP2 POP POP JUMP JUMPDEST PUSH0 PUSH2 0xCB6 DUP3 PUSH2 0x690 JUMP JUMPDEST SWAP2 POP PUSH2 0xCC1 DUP4 PUSH2 0x690 JUMP JUMPDEST SWAP3 POP DUP3 PUSH2 0xCD1 JUMPI PUSH2 0xCD0 PUSH2 0xBEF JUMP JUMPDEST JUMPDEST DUP3 DUP3 DIV SWAP1 POP SWAP3 SWAP2 POP POP JUMP JUMPDEST PUSH0 DUP2 SWAP1 POP SWAP3 SWAP2 POP POP JUMP JUMPDEST PUSH32 0x6B69747479000000000000000000000000000000000000000000000000000000 PUSH0 DUP3 ADD MSTORE POP JUMP JUMPDEST PUSH0 PUSH2 0xD1A PUSH1 0x5 DUP4 PUSH2 0xCDC JUMP JUMPDEST SWAP2 POP PUSH2 0xD25 DUP3 PUSH2 0xCE6 JUMP JUMPDEST PUSH1 0x5 DUP3 ADD SWAP1 POP SWAP2 SWAP1 POP JUMP JUMPDEST PUSH0 PUSH2 0xD3A DUP3 PUSH2 0xD0E JUMP JUMPDEST SWAP2 POP DUP2 SWAP1 POP SWAP2 SWAP1 POP JUMP JUMPDEST PUSH0 PUSH2 0xD4E DUP3 PUSH2 0x72C JUMP JUMPDEST PUSH2 0xD58 DUP2 DUP6 PUSH2 0xCDC JUMP JUMPDEST SWAP4 POP PUSH2 0xD68 DUP2 DUP6 PUSH1 0x20 DUP7 ADD PUSH2 0x746 JUMP JUMPDEST DUP1 DUP5 ADD SWAP2 POP POP SWAP3 SWAP2 POP POP JUMP JUMPDEST PUSH0 PUSH2 0xD7F DUP3 DUP5 PUSH2 0xD44 JUMP JUMPDEST SWAP2 POP DUP2 SWAP1 POP SWAP3 SWAP2 POP POP JUMP JUMPDEST PUSH0 PUSH2 0xD94 DUP3 PUSH2 0x690 JUMP JUMPDEST SWAP2 POP PUSH2 0xD9F DUP4 PUSH2 0x690 JUMP JUMPDEST SWAP3 POP DUP3 DUP3 SUB SWAP1 POP DUP2 DUP2 GT ISZERO PUSH2 0xDB7 JUMPI PUSH2 0xDB6 PUSH2 0xC4C JUMP JUMPDEST JUMPDEST SWAP3 SWAP2 POP POP JUMP JUMPDEST PUSH0 DUP2 SWAP1 POP DUP2 PUSH0 MSTORE PUSH1 0x20 PUSH0 KECCAK256 SWAP1 POP SWAP2 SWAP1 POP JUMP JUMPDEST PUSH0 PUSH1 0x20 PUSH1 0x1F DUP4 ADD DIV SWAP1 POP SWAP2 SWAP1 POP JUMP JUMPDEST PUSH0 DUP3 DUP3 SHL SWAP1 POP SWAP3 SWAP2 POP POP JUMP JUMPDEST PUSH0 PUSH1 0x8 DUP4 MUL PUSH2 0xE19 PUSH32 0xFFFFFFFFFFFFFFFFFFFFFFFFFFFFFFFFFFFFFFFFFFFFFFFFFFFFFFFFFFFFFFFF DUP3 PUSH2 0xDDE JUMP JUMPDEST PUSH2 0xE23 DUP7 DUP4 PUSH2 0xDDE JUMP JUMPDEST SWAP6 POP DUP1 NOT DUP5 AND SWAP4 POP DUP1 DUP7 AND DUP5 OR SWAP3 POP POP POP SWAP4 SWAP3 POP POP POP JUMP JUMPDEST PUSH0 DUP2 SWAP1 POP SWAP2 SWAP1 POP JUMP JUMPDEST PUSH0 PUSH2 0xE5E PUSH2 0xE59 PUSH2 0xE54 DUP5 PUSH2 0x690 JUMP JUMPDEST PUSH2 0xE3B JUMP JUMPDEST PUSH2 0x690 JUMP JUMPDEST SWAP1 POP SWAP2 SWAP1 POP JUMP JUMPDEST PUSH0 DUP2 SWAP1 POP SWAP2 SWAP1 POP JUMP JUMPDEST PUSH2 0xE77 DUP4 PUSH2 0xE44 JUMP JUMPDEST PUSH2 0xE8B PUSH2 0xE83 DUP3 PUSH2 0xE65 JUMP JUMPDEST DUP5 DUP5 SLOAD PUSH2 0xDEA JUMP JUMPDEST DUP3 SSTORE POP POP POP POP JUMP JUMPDEST PUSH0 SWAP1 JUMP JUMPDEST PUSH2 0xE9F PUSH2 0xE93 JUMP JUMPDEST PUSH2 0xEAA DUP2 DUP5 DUP5 PUSH2 0xE6E JUMP JUMPDEST POP POP POP JUMP JUMPDEST JUMPDEST DUP2 DUP2 LT ISZERO PUSH2 0xECD JUMPI PUSH2 0xEC2 PUSH0 DUP3 PUSH2 0xE97 JUMP JUMPDEST PUSH1 0x1 DUP2 ADD SWAP1 POP PUSH2 0xEB0 JUMP JUMPDEST POP POP JUMP JUMPDEST PUSH1 0x1F DUP3 GT ISZERO PUSH2 0xF12 JUMPI PUSH2 0xEE3 DUP2 PUSH2 0xDBD JUMP JUMPDEST PUSH2 0xEEC DUP5 PUSH2 0xDCF JUMP JUMPDEST DUP2 ADD PUSH1 0x20 DUP6 LT ISZERO PUSH2 0xEFB JUMPI DUP2 SWAP1 POP JUMPDEST PUSH2 0xF0F PUSH2 0xF07 DUP6 PUSH2 0xDCF JUMP JUMPDEST DUP4 ADD DUP3 PUSH2 0xEAF JUMP JUMPDEST POP POP JUMPDEST POP POP POP JUMP JUMPDEST PUSH0 DUP3 DUP3 SHR SWAP1 POP SWAP3 SWAP2 POP POP JUMP JUMPDEST PUSH0 PUSH2 0xF32 PUSH0 NOT DUP5 PUSH1 0x8 MUL PUSH2 0xF17 JUMP JUMPDEST NOT DUP1 DUP4 AND SWAP2 POP POP SWAP3 SWAP2 POP POP JUMP JUMPDEST PUSH0 PUSH2 0xF4A DUP4 DUP4 PUSH2 0xF23 JUMP JUMPDEST SWAP2 POP DUP3 PUSH1 0x2 MUL DUP3 OR SWAP1 POP SWAP3 SWAP2 POP POP JUMP JUMPDEST PUSH2 0xF63 DUP3 PUSH2 0x72C JUMP JUMPDEST PUSH8 0xFFFFFFFFFFFFFFFF DUP2 GT ISZERO PUSH2 0xF7C JUMPI PUSH2 0xF7B PUSH2 0x853 JUMP JUMPDEST JUMPDEST PUSH2 0xF86 DUP3 SLOAD PUSH2 0xB92 JUMP JUMPDEST PUSH2 0xF91 DUP3 DUP3 DUP6 PUSH2 0xED1 JUMP JUMPDEST PUSH0 PUSH1 0x20 SWAP1 POP PUSH1 0x1F DUP4 GT PUSH1 0x1 DUP2 EQ PUSH2 0xFC2 JUMPI PUSH0 DUP5 ISZERO PUSH2 0xFB0 JUMPI DUP3 DUP8 ADD MLOAD SWAP1 POP JUMPDEST PUSH2 0xFBA DUP6 DUP3 PUSH2 0xF3F JUMP JUMPDEST DUP7 SSTORE POP PUSH2 0x1021 JUMP JUMPDEST PUSH1 0x1F NOT DUP5 AND PUSH2 0xFD0 DUP7 PUSH2 0xDBD JUMP JUMPDEST PUSH0 JUMPDEST DUP3 DUP2 LT ISZERO PUSH2 0xFF7 JUMPI DUP5 DUP10 ADD MLOAD DUP3 SSTORE PUSH1 0x1 DUP3 ADD SWAP2 POP PUSH1 0x20 DUP6 ADD SWAP5 POP PUSH1 0x20 DUP2 ADD SWAP1 POP PUSH2 0xFD2 JUMP JUMPDEST DUP7 DUP4 LT ISZERO PUSH2 0x1014 JUMPI DUP5 DUP10 ADD MLOAD PUSH2 0x1010 PUSH1 0x1F DUP10 AND DUP3 PUSH2 0xF23 JUMP JUMPDEST DUP4 SSTORE POP JUMPDEST PUSH1 0x1 PUSH1 0x2 DUP9 MUL ADD DUP9 SSTORE POP POP POP JUMPDEST POP POP POP POP POP POP JUMP JUMPDEST PUSH0 PUSH2 0x1033 DUP3 PUSH2 0x690 JUMP JUMPDEST SWAP2 POP PUSH32 0xFFFFFFFFFFFFFFFFFFFFFFFFFFFFFFFFFFFFFFFFFFFFFFFFFFFFFFFFFFFFFFFF DUP3 SUB PUSH2 0x1065 JUMPI PUSH2 0x1064 PUSH2 0xC4C JUMP JUMPDEST JUMPDEST PUSH1 0x1 DUP3 ADD SWAP1 POP SWAP2 SWAP1 POP JUMP JUMPDEST PUSH0 PUSH1 0x60 DUP3 ADD SWAP1 POP PUSH2 0x1083 PUSH0 DUP4 ADD DUP7 PUSH2 0x7B6 JUMP JUMPDEST DUP2 DUP2 SUB PUSH1 0x20 DUP4 ADD MSTORE PUSH2 0x1095 DUP2 DUP6 PUSH2 0x77E JUMP JUMPDEST SWAP1 POP PUSH2 0x10A4 PUSH1 0x40 DUP4 ADD DUP5 PUSH2 0x7B6 JUMP JUMPDEST SWAP5 SWAP4 POP POP POP POP JUMP INVALID LOG2 PUSH5 0x6970667358 0x22 SLT KECCAK256 0xE4 SWAP16 JUMPDEST MULMOD PUSH20 0x1CBDA471ADE080E1C6CBB2B87E33B4238F16ECB2 0xFB 0x4D CALLVALUE PUSH8 0x1A247C64736F6C63 NUMBER STOP ADDMOD XOR STOP CALLER "
		},
		"gasEstimates": {
			"creation": {
				"codeDepositCost": "864400",
				"executionCost": "infinite",
				"totalCost": "infinite"
			},
			"external": {
				"createRandomZombie(string)": "infinite",
				"feedAndMultiply(uint256,uint256,string)": "infinite",
				"feedOnKitty(uint256,uint256)": "infinite",
				"zombieToOwner(uint256)": "2849",
				"zombies(uint256)": "infinite"
			}
		},
		"methodIdentifiers": {
			"createRandomZombie(string)": "7bff0a01",
			"feedAndMultiply(uint256,uint256,string)": "6b0bfc80",
			"feedOnKitty(uint256,uint256)": "17a7f4cc",
			"zombieToOwner(uint256)": "528b7b8f",
			"zombies(uint256)": "2052465e"
		}
	},
	"abi": [
		{
			"anonymous": false,
			"inputs": [
				{
					"indexed": false,
					"internalType": "uint256",
					"name": "zombieId",
					"type": "uint256"
				},
				{
					"indexed": false,
					"internalType": "string",
					"name": "name",
					"type": "string"
				},
				{
					"indexed": false,
					"internalType": "uint256",
					"name": "dna",
					"type": "uint256"
				}
			],
			"name": "NewZombie",
			"type": "event"
		},
		{
			"inputs": [
				{
					"internalType": "string",
					"name": "_name",
					"type": "string"
				}
			],
			"name": "createRandomZombie",
			"outputs": [],
			"stateMutability": "nonpayable",
			"type": "function"
		},
		{
			"inputs": [
				{
					"internalType": "uint256",
					"name": "_zombieId",
					"type": "uint256"
				},
				{
					"internalType": "uint256",
					"name": "_targetDna",
					"type": "uint256"
				},
				{
					"internalType": "string",
					"name": "_species",
					"type": "string"
				}
			],
			"name": "feedAndMultiply",
			"outputs": [],
			"stateMutability": "nonpayable",
			"type": "function"
		},
		{
			"inputs": [
				{
					"internalType": "uint256",
					"name": "_zombieId",
					"type": "uint256"
				},
				{
					"internalType": "uint256",
					"name": "_kittyId",
					"type": "uint256"
				}
			],
			"name": "feedOnKitty",
			"outputs": [],
			"stateMutability": "nonpayable",
			"type": "function"
		},
		{
			"inputs": [
				{
					"internalType": "uint256",
					"name": "",
					"type": "uint256"
				}
			],
			"name": "zombieToOwner",
			"outputs": [
				{
					"internalType": "address",
					"name": "",
					"type": "address"
				}
			],
			"stateMutability": "view",
			"type": "function"
		},
		{
			"inputs": [
				{
					"internalType": "uint256",
					"name": "",
					"type": "uint256"
				}
			],
			"name": "zombies",
			"outputs": [
				{
					"internalType": "string",
					"name": "name",
					"type": "string"
				},
				{
					"internalType": "uint256",
					"name": "dna",
					"type": "uint256"
				}
			],
			"stateMutability": "view",
			"type": "function"
		}
	]
}