{
	"data": {
		"bytecode": {
			"linkReferences": {},
			"object": "608060405260105f555f54600a620000189190620001b4565b60015534801562000027575f80fd5b5062000204565b7f4e487b71000000000000000000000000000000000000000000000000000000005f52601160045260245ffd5b5f8160011c9050919050565b5f808291508390505b6001851115620000b85780860481111562000090576200008f6200002e565b5b6001851615620000a05780820291505b8081029050620000b0856200005b565b945062000070565b94509492505050565b5f82620000d25760019050620001a4565b81620000e1575f9050620001a4565b8160018114620000fa576002811462000105576200013b565b6001915050620001a4565b60ff8411156200011a57620001196200002e565b5b8360020a9150848211156200013457620001336200002e565b5b50620001a4565b5060208310610133831016604e8410600b8410161715620001755782820a9050838111156200016f576200016e6200002e565b5b620001a4565b62000184848484600162000067565b925090508184048111156200019e576200019d6200002e565b5b81810290505b9392505050565b5f819050919050565b5f620001c082620001ab565b9150620001cd83620001ab565b9250620001fc7fffffffffffffffffffffffffffffffffffffffffffffffffffffffffffffffff8484620000c1565b905092915050565b61093a80620002125f395ff3fe608060405234801561000f575f80fd5b5060043610610034575f3560e01c80632052465e146100385780637bff0a0114610069575b5f80fd5b610052600480360381019061004d919061028d565b610085565b604051610060929190610351565b60405180910390f35b610083600480360381019061007e91906104ab565b61013a565b005b60028181548110610094575f80fd5b905f5260205f2090600202015f91509050805f0180546100b39061051f565b80601f01602080910402602001604051908101604052809291908181526020018280546100df9061051f565b801561012a5780601f106101015761010080835404028352916020019161012a565b820191905f5260205f20905b81548152906001019060200180831161010d57829003601f168201915b5050505050908060010154905082565b5f61014482610154565b90506101508282610197565b5050565b5f80826040516020016101679190610589565b604051602081830303815290604052805190602001205f1c90506001548161018f91906105cc565b915050919050565b6002604051806040016040528084815260200183815250908060018154018082558091505060019003905f5260205f2090600202015f909190919091505f820151815f0190816101e79190610799565b506020820151816001015550505f60016002805490506102079190610895565b90507f88f026aacbbecc90c18411df4b1185fd8d9be2470f1962f192bf84a27d0704b781848460405161023c939291906108c8565b60405180910390a1505050565b5f604051905090565b5f80fd5b5f80fd5b5f819050919050565b61026c8161025a565b8114610276575f80fd5b50565b5f8135905061028781610263565b92915050565b5f602082840312156102a2576102a1610252565b5b5f6102af84828501610279565b91505092915050565b5f81519050919050565b5f82825260208201905092915050565b5f5b838110156102ef5780820151818401526020810190506102d4565b5f8484015250505050565b5f601f19601f8301169050919050565b5f610314826102b8565b61031e81856102c2565b935061032e8185602086016102d2565b610337816102fa565b840191505092915050565b61034b8161025a565b82525050565b5f6040820190508181035f830152610369818561030a565b90506103786020830184610342565b9392505050565b5f80fd5b5f80fd5b7f4e487b71000000000000000000000000000000000000000000000000000000005f52604160045260245ffd5b6103bd826102fa565b810181811067ffffffffffffffff821117156103dc576103db610387565b5b80604052505050565b5f6103ee610249565b90506103fa82826103b4565b919050565b5f67ffffffffffffffff82111561041957610418610387565b5b610422826102fa565b9050602081019050919050565b828183375f83830152505050565b5f61044f61044a846103ff565b6103e5565b90508281526020810184848401111561046b5761046a610383565b5b61047684828561042f565b509392505050565b5f82601f8301126104925761049161037f565b5b81356104a284826020860161043d565b91505092915050565b5f602082840312156104c0576104bf610252565b5b5f82013567ffffffffffffffff8111156104dd576104dc610256565b5b6104e98482850161047e565b91505092915050565b7f4e487b71000000000000000000000000000000000000000000000000000000005f52602260045260245ffd5b5f600282049050600182168061053657607f821691505b602082108103610549576105486104f2565b5b50919050565b5f81905092915050565b5f610563826102b8565b61056d818561054f565b935061057d8185602086016102d2565b80840191505092915050565b5f6105948284610559565b915081905092915050565b7f4e487b71000000000000000000000000000000000000000000000000000000005f52601260045260245ffd5b5f6105d68261025a565b91506105e18361025a565b9250826105f1576105f061059f565b5b828206905092915050565b5f819050815f5260205f209050919050565b5f6020601f8301049050919050565b5f82821b905092915050565b5f600883026106587fffffffffffffffffffffffffffffffffffffffffffffffffffffffffffffffff8261061d565b610662868361061d565b95508019841693508086168417925050509392505050565b5f819050919050565b5f61069d6106986106938461025a565b61067a565b61025a565b9050919050565b5f819050919050565b6106b683610683565b6106ca6106c2826106a4565b848454610629565b825550505050565b5f90565b6106de6106d2565b6106e98184846106ad565b505050565b5b8181101561070c576107015f826106d6565b6001810190506106ef565b5050565b601f82111561075157610722816105fc565b61072b8461060e565b8101602085101561073a578190505b61074e6107468561060e565b8301826106ee565b50505b505050565b5f82821c905092915050565b5f6107715f1984600802610756565b1980831691505092915050565b5f6107898383610762565b9150826002028217905092915050565b6107a2826102b8565b67ffffffffffffffff8111156107bb576107ba610387565b5b6107c5825461051f565b6107d0828285610710565b5f60209050601f831160018114610801575f84156107ef578287015190505b6107f9858261077e565b865550610860565b601f19841661080f866105fc565b5f5b8281101561083657848901518255600182019150602085019450602081019050610811565b86831015610853578489015161084f601f891682610762565b8355505b6001600288020188555050505b505050505050565b7f4e487b71000000000000000000000000000000000000000000000000000000005f52601160045260245ffd5b5f61089f8261025a565b91506108aa8361025a565b92508282039050818111156108c2576108c1610868565b5b92915050565b5f6060820190506108db5f830186610342565b81810360208301526108ed818561030a565b90506108fc6040830184610342565b94935050505056fea26469706673582212201e1bba26ec8011b21987aa4cfaf8730c24363aff2493de30b7fbcb1487d8e0b764736f6c63430008180033",
			"opcodes": "PUSH1 0x80 PUSH1 0x40 MSTORE PUSH1 0x10 PUSH0 SSTORE PUSH0 SLOAD PUSH1 0xA PUSH3 0x18 SWAP2 SWAP1 PUSH3 0x1B4 JUMP JUMPDEST PUSH1 0x1 SSTORE CALLVALUE DUP1 ISZERO PUSH3 0x27 JUMPI PUSH0 DUP1 REVERT JUMPDEST POP PUSH3 0x204 JUMP JUMPDEST PUSH32 0x4E487B7100000000000000000000000000000000000000000000000000000000 PUSH0 MSTORE PUSH1 0x11 PUSH1 0x4 MSTORE PUSH1 0x24 PUSH0 REVERT JUMPDEST PUSH0 DUP2 PUSH1 0x1 SHR SWAP1 POP SWAP2 SWAP1 POP JUMP JUMPDEST PUSH0 DUP1 DUP3 SWAP2 POP DUP4 SWAP1 POP JUMPDEST PUSH1 0x1 DUP6 GT ISZERO PUSH3 0xB8 JUMPI DUP1 DUP7 DIV DUP2 GT ISZERO PUSH3 0x90 JUMPI PUSH3 0x8F PUSH3 0x2E JUMP JUMPDEST JUMPDEST PUSH1 0x1 DUP6 AND ISZERO PUSH3 0xA0 JUMPI DUP1 DUP3 MUL SWAP2 POP JUMPDEST DUP1 DUP2 MUL SWAP1 POP PUSH3 0xB0 DUP6 PUSH3 0x5B JUMP JUMPDEST SWAP5 POP PUSH3 0x70 JUMP JUMPDEST SWAP5 POP SWAP5 SWAP3 POP POP POP JUMP JUMPDEST PUSH0 DUP3 PUSH3 0xD2 JUMPI PUSH1 0x1 SWAP1 POP PUSH3 0x1A4 JUMP JUMPDEST DUP2 PUSH3 0xE1 JUMPI PUSH0 SWAP1 POP PUSH3 0x1A4 JUMP JUMPDEST DUP2 PUSH1 0x1 DUP2 EQ PUSH3 0xFA JUMPI PUSH1 0x2 DUP2 EQ PUSH3 0x105 JUMPI PUSH3 0x13B JUMP JUMPDEST PUSH1 0x1 SWAP2 POP POP PUSH3 0x1A4 JUMP JUMPDEST PUSH1 0xFF DUP5 GT ISZERO PUSH3 0x11A JUMPI PUSH3 0x119 PUSH3 0x2E JUMP JUMPDEST JUMPDEST DUP4 PUSH1 0x2 EXP SWAP2 POP DUP5 DUP3 GT ISZERO PUSH3 0x134 JUMPI PUSH3 0x133 PUSH3 0x2E JUMP JUMPDEST JUMPDEST POP PUSH3 0x1A4 JUMP JUMPDEST POP PUSH1 0x20 DUP4 LT PUSH2 0x133 DUP4 LT AND PUSH1 0x4E DUP5 LT PUSH1 0xB DUP5 LT AND OR ISZERO PUSH3 0x175 JUMPI DUP3 DUP3 EXP SWAP1 POP DUP4 DUP2 GT ISZERO PUSH3 0x16F JUMPI PUSH3 0x16E PUSH3 0x2E JUMP JUMPDEST JUMPDEST PUSH3 0x1A4 JUMP JUMPDEST PUSH3 0x184 DUP5 DUP5 DUP5 PUSH1 0x1 PUSH3 0x67 JUMP JUMPDEST SWAP3 POP SWAP1 POP DUP2 DUP5 DIV DUP2 GT ISZERO PUSH3 0x19E JUMPI PUSH3 0x19D PUSH3 0x2E JUMP JUMPDEST JUMPDEST DUP2 DUP2 MUL SWAP1 POP JUMPDEST SWAP4 SWAP3 POP POP POP JUMP JUMPDEST PUSH0 DUP2 SWAP1 POP SWAP2 SWAP1 POP JUMP JUMPDEST PUSH0 PUSH3 0x1C0 DUP3 PUSH3 0x1AB JUMP JUMPDEST SWAP2 POP PUSH3 0x1CD DUP4 PUSH3 0x1AB JUMP JUMPDEST SWAP3 POP PUSH3 0x1FC PUSH32 0xFFFFFFFFFFFFFFFFFFFFFFFFFFFFFFFFFFFFFFFFFFFFFFFFFFFFFFFFFFFFFFFF DUP5 DUP5 PUSH3 0xC1 JUMP JUMPDEST SWAP1 POP SWAP3 SWAP2 POP POP JUMP JUMPDEST PUSH2 0x93A DUP1 PUSH3 0x212 PUSH0 CODECOPY PUSH0 RETURN INVALID PUSH1 0x80 PUSH1 0x40 MSTORE CALLVALUE DUP1 ISZERO PUSH2 0xF JUMPI PUSH0 DUP1 REVERT JUMPDEST POP PUSH1 0x4 CALLDATASIZE LT PUSH2 0x34 JUMPI PUSH0 CALLDATALOAD PUSH1 0xE0 SHR DUP1 PUSH4 0x2052465E EQ PUSH2 0x38 JUMPI DUP1 PUSH4 0x7BFF0A01 EQ PUSH2 0x69 JUMPI JUMPDEST PUSH0 DUP1 REVERT JUMPDEST PUSH2 0x52 PUSH1 0x4 DUP1 CALLDATASIZE SUB DUP2 ADD SWAP1 PUSH2 0x4D SWAP2 SWAP1 PUSH2 0x28D JUMP JUMPDEST PUSH2 0x85 JUMP JUMPDEST PUSH1 0x40 MLOAD PUSH2 0x60 SWAP3 SWAP2 SWAP1 PUSH2 0x351 JUMP JUMPDEST PUSH1 0x40 MLOAD DUP1 SWAP2 SUB SWAP1 RETURN JUMPDEST PUSH2 0x83 PUSH1 0x4 DUP1 CALLDATASIZE SUB DUP2 ADD SWAP1 PUSH2 0x7E SWAP2 SWAP1 PUSH2 0x4AB JUMP JUMPDEST PUSH2 0x13A JUMP JUMPDEST STOP JUMPDEST PUSH1 0x2 DUP2 DUP2 SLOAD DUP2 LT PUSH2 0x94 JUMPI PUSH0 DUP1 REVERT JUMPDEST SWAP1 PUSH0 MSTORE PUSH1 0x20 PUSH0 KECCAK256 SWAP1 PUSH1 0x2 MUL ADD PUSH0 SWAP2 POP SWAP1 POP DUP1 PUSH0 ADD DUP1 SLOAD PUSH2 0xB3 SWAP1 PUSH2 0x51F JUMP JUMPDEST DUP1 PUSH1 0x1F ADD PUSH1 0x20 DUP1 SWAP2 DIV MUL PUSH1 0x20 ADD PUSH1 0x40 MLOAD SWAP1 DUP2 ADD PUSH1 0x40 MSTORE DUP1 SWAP3 SWAP2 SWAP1 DUP2 DUP2 MSTORE PUSH1 0x20 ADD DUP3 DUP1 SLOAD PUSH2 0xDF SWAP1 PUSH2 0x51F JUMP JUMPDEST DUP1 ISZERO PUSH2 0x12A JUMPI DUP1 PUSH1 0x1F LT PUSH2 0x101 JUMPI PUSH2 0x100 DUP1 DUP4 SLOAD DIV MUL DUP4 MSTORE SWAP2 PUSH1 0x20 ADD SWAP2 PUSH2 0x12A JUMP JUMPDEST DUP3 ADD SWAP2 SWAP1 PUSH0 MSTORE PUSH1 0x20 PUSH0 KECCAK256 SWAP1 JUMPDEST DUP2 SLOAD DUP2 MSTORE SWAP1 PUSH1 0x1 ADD SWAP1 PUSH1 0x20 ADD DUP1 DUP4 GT PUSH2 0x10D JUMPI DUP3 SWAP1 SUB PUSH1 0x1F AND DUP3 ADD SWAP2 JUMPDEST POP POP POP POP POP SWAP1 DUP1 PUSH1 0x1 ADD SLOAD SWAP1 POP DUP3 JUMP JUMPDEST PUSH0 PUSH2 0x144 DUP3 PUSH2 0x154 JUMP JUMPDEST SWAP1 POP PUSH2 0x150 DUP3 DUP3 PUSH2 0x197 JUMP JUMPDEST POP POP JUMP JUMPDEST PUSH0 DUP1 DUP3 PUSH1 0x40 MLOAD PUSH1 0x20 ADD PUSH2 0x167 SWAP2 SWAP1 PUSH2 0x589 JUMP JUMPDEST PUSH1 0x40 MLOAD PUSH1 0x20 DUP2 DUP4 SUB SUB DUP2 MSTORE SWAP1 PUSH1 0x40 MSTORE DUP1 MLOAD SWAP1 PUSH1 0x20 ADD KECCAK256 PUSH0 SHR SWAP1 POP PUSH1 0x1 SLOAD DUP2 PUSH2 0x18F SWAP2 SWAP1 PUSH2 0x5CC JUMP JUMPDEST SWAP2 POP POP SWAP2 SWAP1 POP JUMP JUMPDEST PUSH1 0x2 PUSH1 0x40 MLOAD DUP1 PUSH1 0x40 ADD PUSH1 0x40 MSTORE DUP1 DUP5 DUP2 MSTORE PUSH1 0x20 ADD DUP4 DUP2 MSTORE POP SWAP1 DUP1 PUSH1 0x1 DUP2 SLOAD ADD DUP1 DUP3 SSTORE DUP1 SWAP2 POP POP PUSH1 0x1 SWAP1 SUB SWAP1 PUSH0 MSTORE PUSH1 0x20 PUSH0 KECCAK256 SWAP1 PUSH1 0x2 MUL ADD PUSH0 SWAP1 SWAP2 SWAP1 SWAP2 SWAP1 SWAP2 POP PUSH0 DUP3 ADD MLOAD DUP2 PUSH0 ADD SWAP1 DUP2 PUSH2 0x1E7 SWAP2 SWAP1 PUSH2 0x799 JUMP JUMPDEST POP PUSH1 0x20 DUP3 ADD MLOAD DUP2 PUSH1 0x1 ADD SSTORE POP POP PUSH0 PUSH1 0x1 PUSH1 0x2 DUP1 SLOAD SWAP1 POP PUSH2 0x207 SWAP2 SWAP1 PUSH2 0x895 JUMP JUMPDEST SWAP1 POP PUSH32 0x88F026AACBBECC90C18411DF4B1185FD8D9BE2470F1962F192BF84A27D0704B7 DUP2 DUP5 DUP5 PUSH1 0x40 MLOAD PUSH2 0x23C SWAP4 SWAP3 SWAP2 SWAP1 PUSH2 0x8C8 JUMP JUMPDEST PUSH1 0x40 MLOAD DUP1 SWAP2 SUB SWAP1 LOG1 POP POP POP JUMP JUMPDEST PUSH0 PUSH1 0x40 MLOAD SWAP1 POP SWAP1 JUMP JUMPDEST PUSH0 DUP1 REVERT JUMPDEST PUSH0 DUP1 REVERT JUMPDEST PUSH0 DUP2 SWAP1 POP SWAP2 SWAP1 POP JUMP JUMPDEST PUSH2 0x26C DUP2 PUSH2 0x25A JUMP JUMPDEST DUP2 EQ PUSH2 0x276 JUMPI PUSH0 DUP1 REVERT JUMPDEST POP JUMP JUMPDEST PUSH0 DUP2 CALLDATALOAD SWAP1 POP PUSH2 0x287 DUP2 PUSH2 0x263 JUMP JUMPDEST SWAP3 SWAP2 POP POP JUMP JUMPDEST PUSH0 PUSH1 0x20 DUP3 DUP5 SUB SLT ISZERO PUSH2 0x2A2 JUMPI PUSH2 0x2A1 PUSH2 0x252 JUMP JUMPDEST JUMPDEST PUSH0 PUSH2 0x2AF DUP5 DUP3 DUP6 ADD PUSH2 0x279 JUMP JUMPDEST SWAP2 POP POP SWAP3 SWAP2 POP POP JUMP JUMPDEST PUSH0 DUP2 MLOAD SWAP1 POP SWAP2 SWAP1 POP JUMP JUMPDEST PUSH0 DUP3 DUP3 MSTORE PUSH1 0x20 DUP3 ADD SWAP1 POP SWAP3 SWAP2 POP POP JUMP JUMPDEST PUSH0 JUMPDEST DUP4 DUP2 LT ISZERO PUSH2 0x2EF JUMPI DUP1 DUP3 ADD MLOAD DUP2 DUP5 ADD MSTORE PUSH1 0x20 DUP2 ADD SWAP1 POP PUSH2 0x2D4 JUMP JUMPDEST PUSH0 DUP5 DUP5 ADD MSTORE POP POP POP POP JUMP JUMPDEST PUSH0 PUSH1 0x1F NOT PUSH1 0x1F DUP4 ADD AND SWAP1 POP SWAP2 SWAP1 POP JUMP JUMPDEST PUSH0 PUSH2 0x314 DUP3 PUSH2 0x2B8 JUMP JUMPDEST PUSH2 0x31E DUP2 DUP6 PUSH2 0x2C2 JUMP JUMPDEST SWAP4 POP PUSH2 0x32E DUP2 DUP6 PUSH1 0x20 DUP7 ADD PUSH2 0x2D2 JUMP JUMPDEST PUSH2 0x337 DUP2 PUSH2 0x2FA JUMP JUMPDEST DUP5 ADD SWAP2 POP POP SWAP3 SWAP2 POP POP JUMP JUMPDEST PUSH2 0x34B DUP2 PUSH2 0x25A JUMP JUMPDEST DUP3 MSTORE POP POP JUMP JUMPDEST PUSH0 PUSH1 0x40 DUP3 ADD SWAP1 POP DUP2 DUP2 SUB PUSH0 DUP4 ADD MSTORE PUSH2 0x369 DUP2 DUP6 PUSH2 0x30A JUMP JUMPDEST SWAP1 POP PUSH2 0x378 PUSH1 0x20 DUP4 ADD DUP5 PUSH2 0x342 JUMP JUMPDEST SWAP4 SWAP3 POP POP POP JUMP JUMPDEST PUSH0 DUP1 REVERT JUMPDEST PUSH0 DUP1 REVERT JUMPDEST PUSH32 0x4E487B7100000000000000000000000000000000000000000000000000000000 PUSH0 MSTORE PUSH1 0x41 PUSH1 0x4 MSTORE PUSH1 0x24 PUSH0 REVERT JUMPDEST PUSH2 0x3BD DUP3 PUSH2 0x2FA JUMP JUMPDEST DUP2 ADD DUP2 DUP2 LT PUSH8 0xFFFFFFFFFFFFFFFF DUP3 GT OR ISZERO PUSH2 0x3DC JUMPI PUSH2 0x3DB PUSH2 0x387 JUMP JUMPDEST JUMPDEST DUP1 PUSH1 0x40 MSTORE POP POP POP JUMP JUMPDEST PUSH0 PUSH2 0x3EE PUSH2 0x249 JUMP JUMPDEST SWAP1 POP PUSH2 0x3FA DUP3 DUP3 PUSH2 0x3B4 JUMP JUMPDEST SWAP2 SWAP1 POP JUMP JUMPDEST PUSH0 PUSH8 0xFFFFFFFFFFFFFFFF DUP3 GT ISZERO PUSH2 0x419 JUMPI PUSH2 0x418 PUSH2 0x387 JUMP JUMPDEST JUMPDEST PUSH2 0x422 DUP3 PUSH2 0x2FA JUMP JUMPDEST SWAP1 POP PUSH1 0x20 DUP2 ADD SWAP1 POP SWAP2 SWAP1 POP JUMP JUMPDEST DUP3 DUP2 DUP4 CALLDATACOPY PUSH0 DUP4 DUP4 ADD MSTORE POP POP POP JUMP JUMPDEST PUSH0 PUSH2 0x44F PUSH2 0x44A DUP5 PUSH2 0x3FF JUMP JUMPDEST PUSH2 0x3E5 JUMP JUMPDEST SWAP1 POP DUP3 DUP2 MSTORE PUSH1 0x20 DUP2 ADD DUP5 DUP5 DUP5 ADD GT ISZERO PUSH2 0x46B JUMPI PUSH2 0x46A PUSH2 0x383 JUMP JUMPDEST JUMPDEST PUSH2 0x476 DUP5 DUP3 DUP6 PUSH2 0x42F JUMP JUMPDEST POP SWAP4 SWAP3 POP POP POP JUMP JUMPDEST PUSH0 DUP3 PUSH1 0x1F DUP4 ADD SLT PUSH2 0x492 JUMPI PUSH2 0x491 PUSH2 0x37F JUMP JUMPDEST JUMPDEST DUP2 CALLDATALOAD PUSH2 0x4A2 DUP5 DUP3 PUSH1 0x20 DUP7 ADD PUSH2 0x43D JUMP JUMPDEST SWAP2 POP POP SWAP3 SWAP2 POP POP JUMP JUMPDEST PUSH0 PUSH1 0x20 DUP3 DUP5 SUB SLT ISZERO PUSH2 0x4C0 JUMPI PUSH2 0x4BF PUSH2 0x252 JUMP JUMPDEST JUMPDEST PUSH0 DUP3 ADD CALLDATALOAD PUSH8 0xFFFFFFFFFFFFFFFF DUP2 GT ISZERO PUSH2 0x4DD JUMPI PUSH2 0x4DC PUSH2 0x256 JUMP JUMPDEST JUMPDEST PUSH2 0x4E9 DUP5 DUP3 DUP6 ADD PUSH2 0x47E JUMP JUMPDEST SWAP2 POP POP SWAP3 SWAP2 POP POP JUMP JUMPDEST PUSH32 0x4E487B7100000000000000000000000000000000000000000000000000000000 PUSH0 MSTORE PUSH1 0x22 PUSH1 0x4 MSTORE PUSH1 0x24 PUSH0 REVERT JUMPDEST PUSH0 PUSH1 0x2 DUP3 DIV SWAP1 POP PUSH1 0x1 DUP3 AND DUP1 PUSH2 0x536 JUMPI PUSH1 0x7F DUP3 AND SWAP2 POP JUMPDEST PUSH1 0x20 DUP3 LT DUP2 SUB PUSH2 0x549 JUMPI PUSH2 0x548 PUSH2 0x4F2 JUMP JUMPDEST JUMPDEST POP SWAP2 SWAP1 POP JUMP JUMPDEST PUSH0 DUP2 SWAP1 POP SWAP3 SWAP2 POP POP JUMP JUMPDEST PUSH0 PUSH2 0x563 DUP3 PUSH2 0x2B8 JUMP JUMPDEST PUSH2 0x56D DUP2 DUP6 PUSH2 0x54F JUMP JUMPDEST SWAP4 POP PUSH2 0x57D DUP2 DUP6 PUSH1 0x20 DUP7 ADD PUSH2 0x2D2 JUMP JUMPDEST DUP1 DUP5 ADD SWAP2 POP POP SWAP3 SWAP2 POP POP JUMP JUMPDEST PUSH0 PUSH2 0x594 DUP3 DUP5 PUSH2 0x559 JUMP JUMPDEST SWAP2 POP DUP2 SWAP1 POP SWAP3 SWAP2 POP POP JUMP JUMPDEST PUSH32 0x4E487B7100000000000000000000000000000000000000000000000000000000 PUSH0 MSTORE PUSH1 0x12 PUSH1 0x4 MSTORE PUSH1 0x24 PUSH0 REVERT JUMPDEST PUSH0 PUSH2 0x5D6 DUP3 PUSH2 0x25A JUMP JUMPDEST SWAP2 POP PUSH2 0x5E1 DUP4 PUSH2 0x25A JUMP JUMPDEST SWAP3 POP DUP3 PUSH2 0x5F1 JUMPI PUSH2 0x5F0 PUSH2 0x59F JUMP JUMPDEST JUMPDEST DUP3 DUP3 MOD SWAP1 POP SWAP3 SWAP2 POP POP JUMP JUMPDEST PUSH0 DUP2 SWAP1 POP DUP2 PUSH0 MSTORE PUSH1 0x20 PUSH0 KECCAK256 SWAP1 POP SWAP2 SWAP1 POP JUMP JUMPDEST PUSH0 PUSH1 0x20 PUSH1 0x1F DUP4 ADD DIV SWAP1 POP SWAP2 SWAP1 POP JUMP JUMPDEST PUSH0 DUP3 DUP3 SHL SWAP1 POP SWAP3 SWAP2 POP POP JUMP JUMPDEST PUSH0 PUSH1 0x8 DUP4 MUL PUSH2 0x658 PUSH32 0xFFFFFFFFFFFFFFFFFFFFFFFFFFFFFFFFFFFFFFFFFFFFFFFFFFFFFFFFFFFFFFFF DUP3 PUSH2 0x61D JUMP JUMPDEST PUSH2 0x662 DUP7 DUP4 PUSH2 0x61D JUMP JUMPDEST SWAP6 POP DUP1 NOT DUP5 AND SWAP4 POP DUP1 DUP7 AND DUP5 OR SWAP3 POP POP POP SWAP4 SWAP3 POP POP POP JUMP JUMPDEST PUSH0 DUP2 SWAP1 POP SWAP2 SWAP1 POP JUMP JUMPDEST PUSH0 PUSH2 0x69D PUSH2 0x698 PUSH2 0x693 DUP5 PUSH2 0x25A JUMP JUMPDEST PUSH2 0x67A JUMP JUMPDEST PUSH2 0x25A JUMP JUMPDEST SWAP1 POP SWAP2 SWAP1 POP JUMP JUMPDEST PUSH0 DUP2 SWAP1 POP SWAP2 SWAP1 POP JUMP JUMPDEST PUSH2 0x6B6 DUP4 PUSH2 0x683 JUMP JUMPDEST PUSH2 0x6CA PUSH2 0x6C2 DUP3 PUSH2 0x6A4 JUMP JUMPDEST DUP5 DUP5 SLOAD PUSH2 0x629 JUMP JUMPDEST DUP3 SSTORE POP POP POP POP JUMP JUMPDEST PUSH0 SWAP1 JUMP JUMPDEST PUSH2 0x6DE PUSH2 0x6D2 JUMP JUMPDEST PUSH2 0x6E9 DUP2 DUP5 DUP5 PUSH2 0x6AD JUMP JUMPDEST POP POP POP JUMP JUMPDEST JUMPDEST DUP2 DUP2 LT ISZERO PUSH2 0x70C JUMPI PUSH2 0x701 PUSH0 DUP3 PUSH2 0x6D6 JUMP JUMPDEST PUSH1 0x1 DUP2 ADD SWAP1 POP PUSH2 0x6EF JUMP JUMPDEST POP POP JUMP JUMPDEST PUSH1 0x1F DUP3 GT ISZERO PUSH2 0x751 JUMPI PUSH2 0x722 DUP2 PUSH2 0x5FC JUMP JUMPDEST PUSH2 0x72B DUP5 PUSH2 0x60E JUMP JUMPDEST DUP2 ADD PUSH1 0x20 DUP6 LT ISZERO PUSH2 0x73A JUMPI DUP2 SWAP1 POP JUMPDEST PUSH2 0x74E PUSH2 0x746 DUP6 PUSH2 0x60E JUMP JUMPDEST DUP4 ADD DUP3 PUSH2 0x6EE JUMP JUMPDEST POP POP JUMPDEST POP POP POP JUMP JUMPDEST PUSH0 DUP3 DUP3 SHR SWAP1 POP SWAP3 SWAP2 POP POP JUMP JUMPDEST PUSH0 PUSH2 0x771 PUSH0 NOT DUP5 PUSH1 0x8 MUL PUSH2 0x756 JUMP JUMPDEST NOT DUP1 DUP4 AND SWAP2 POP POP SWAP3 SWAP2 POP POP JUMP JUMPDEST PUSH0 PUSH2 0x789 DUP4 DUP4 PUSH2 0x762 JUMP JUMPDEST SWAP2 POP DUP3 PUSH1 0x2 MUL DUP3 OR SWAP1 POP SWAP3 SWAP2 POP POP JUMP JUMPDEST PUSH2 0x7A2 DUP3 PUSH2 0x2B8 JUMP JUMPDEST PUSH8 0xFFFFFFFFFFFFFFFF DUP2 GT ISZERO PUSH2 0x7BB JUMPI PUSH2 0x7BA PUSH2 0x387 JUMP JUMPDEST JUMPDEST PUSH2 0x7C5 DUP3 SLOAD PUSH2 0x51F JUMP JUMPDEST PUSH2 0x7D0 DUP3 DUP3 DUP6 PUSH2 0x710 JUMP JUMPDEST PUSH0 PUSH1 0x20 SWAP1 POP PUSH1 0x1F DUP4 GT PUSH1 0x1 DUP2 EQ PUSH2 0x801 JUMPI PUSH0 DUP5 ISZERO PUSH2 0x7EF JUMPI DUP3 DUP8 ADD MLOAD SWAP1 POP JUMPDEST PUSH2 0x7F9 DUP6 DUP3 PUSH2 0x77E JUMP JUMPDEST DUP7 SSTORE POP PUSH2 0x860 JUMP JUMPDEST PUSH1 0x1F NOT DUP5 AND PUSH2 0x80F DUP7 PUSH2 0x5FC JUMP JUMPDEST PUSH0 JUMPDEST DUP3 DUP2 LT ISZERO PUSH2 0x836 JUMPI DUP5 DUP10 ADD MLOAD DUP3 SSTORE PUSH1 0x1 DUP3 ADD SWAP2 POP PUSH1 0x20 DUP6 ADD SWAP5 POP PUSH1 0x20 DUP2 ADD SWAP1 POP PUSH2 0x811 JUMP JUMPDEST DUP7 DUP4 LT ISZERO PUSH2 0x853 JUMPI DUP5 DUP10 ADD MLOAD PUSH2 0x84F PUSH1 0x1F DUP10 AND DUP3 PUSH2 0x762 JUMP JUMPDEST DUP4 SSTORE POP JUMPDEST PUSH1 0x1 PUSH1 0x2 DUP9 MUL ADD DUP9 SSTORE POP POP POP JUMPDEST POP POP POP POP POP POP JUMP JUMPDEST PUSH32 0x4E487B7100000000000000000000000000000000000000000000000000000000 PUSH0 MSTORE PUSH1 0x11 PUSH1 0x4 MSTORE PUSH1 0x24 PUSH0 REVERT JUMPDEST PUSH0 PUSH2 0x89F DUP3 PUSH2 0x25A JUMP JUMPDEST SWAP2 POP PUSH2 0x8AA DUP4 PUSH2 0x25A JUMP JUMPDEST SWAP3 POP DUP3 DUP3 SUB SWAP1 POP DUP2 DUP2 GT ISZERO PUSH2 0x8C2 JUMPI PUSH2 0x8C1 PUSH2 0x868 JUMP JUMPDEST JUMPDEST SWAP3 SWAP2 POP POP JUMP JUMPDEST PUSH0 PUSH1 0x60 DUP3 ADD SWAP1 POP PUSH2 0x8DB PUSH0 DUP4 ADD DUP7 PUSH2 0x342 JUMP JUMPDEST DUP2 DUP2 SUB PUSH1 0x20 DUP4 ADD MSTORE PUSH2 0x8ED DUP2 DUP6 PUSH2 0x30A JUMP JUMPDEST SWAP1 POP PUSH2 0x8FC PUSH1 0x40 DUP4 ADD DUP5 PUSH2 0x342 JUMP JUMPDEST SWAP5 SWAP4 POP POP POP POP JUMP INVALID LOG2 PUSH5 0x6970667358 0x22 SLT KECCAK256 0x1E SHL 0xBA 0x26 0xEC DUP1 GT 0xB2 NOT DUP8 0xAA 0x4C STATICCALL 0xF8 PUSH20 0xC24363AFF2493DE30B7FBCB1487D8E0B764736F PUSH13 0x63430008180033000000000000 "
		},
		"gasEstimates": {
			"creation": {
				"codeDepositCost": "472400",
				"executionCost": "infinite",
				"totalCost": "infinite"
			},
			"external": {
				"createRandomZombie(string)": "infinite",
				"zombies(uint256)": "infinite"
			},
			"internal": {
				"_createZombie(string memory,uint256)": "infinite",
				"_generateRandomDna(string memory)": "infinite"
			}
		},
		"methodIdentifiers": {
			"createRandomZombie(string)": "7bff0a01",
			"zombies(uint256)": "2052465e"
		}
	},
	"abi": [
		{
			"anonymous": false,
			"inputs": [
				{
					"indexed": false,
					"internalType": "uint256",
					"name": "zombieId",
					"type": "uint256"
				},
				{
					"indexed": false,
					"internalType": "string",
					"name": "name",
					"type": "string"
				},
				{
					"indexed": false,
					"internalType": "uint256",
					"name": "dna",
					"type": "uint256"
				}
			],
			"name": "NewZombie",
			"type": "event"
		},
		{
			"inputs": [
				{
					"internalType": "string",
					"name": "_name",
					"type": "string"
				}
			],
			"name": "createRandomZombie",
			"outputs": [],
			"stateMutability": "nonpayable",
			"type": "function"
		},
		{
			"inputs": [
				{
					"internalType": "uint256",
					"name": "",
					"type": "uint256"
				}
			],
			"name": "zombies",
			"outputs": [
				{
					"internalType": "string",
					"name": "name",
					"type": "string"
				},
				{
					"internalType": "uint256",
					"name": "dna",
					"type": "uint256"
				}
			],
			"stateMutability": "view",
			"type": "function"
		}
	]
}