{
	"TestKnowledge/RedoZombieFactory.sol": {
		"RedoZombieFactory": {
			"abi": [
				{
					"anonymous": false,
					"inputs": [
						{
							"indexed": false,
							"internalType": "uint256",
							"name": "zombieId",
							"type": "uint256"
						},
						{
							"indexed": false,
							"internalType": "string",
							"name": "name",
							"type": "string"
						},
						{
							"indexed": false,
							"internalType": "uint256",
							"name": "dna",
							"type": "uint256"
						}
					],
					"name": "NewZombie",
					"type": "event"
				},
				{
					"inputs": [
						{
							"internalType": "string",
							"name": "_name",
							"type": "string"
						}
					],
					"name": "createRandomZombie",
					"outputs": [],
					"stateMutability": "nonpayable",
					"type": "function"
				},
				{
					"inputs": [
						{
							"internalType": "uint256",
							"name": "",
							"type": "uint256"
						}
					],
					"name": "zombieToOwner",
					"outputs": [
						{
							"internalType": "address",
							"name": "",
							"type": "address"
						}
					],
					"stateMutability": "view",
					"type": "function"
				},
				{
					"inputs": [
						{
							"internalType": "uint256",
							"name": "",
							"type": "uint256"
						}
					],
					"name": "zombies",
					"outputs": [
						{
							"internalType": "string",
							"name": "name",
							"type": "string"
						},
						{
							"internalType": "uint256",
							"name": "dna",
							"type": "uint256"
						}
					],
					"stateMutability": "view",
					"type": "function"
				}
			],
			"devdoc": {
				"kind": "dev",
				"methods": {},
				"version": 1
			},
			"evm": {
				"assembly": "    /* \"TestKnowledge/RedoZombieFactory.sol\":62:1135  contract RedoZombieFactory {... */\n  mstore(0x40, 0x80)\n    /* \"TestKnowledge/RedoZombieFactory.sol\":177:179  16 */\n  0x10\n    /* \"TestKnowledge/RedoZombieFactory.sol\":160:179  uint dnaDigits = 16 */\n  0x00\n  sstore\n    /* \"TestKnowledge/RedoZombieFactory.sol\":210:219  dnaDigits */\n  sload(0x00)\n    /* \"TestKnowledge/RedoZombieFactory.sol\":204:206  10 */\n  0x0a\n    /* \"TestKnowledge/RedoZombieFactory.sol\":204:219  10 ** dnaDigits */\n  tag_1\n  swap2\n  swap1\n  tag_2\n  jump\t// in\ntag_1:\n    /* \"TestKnowledge/RedoZombieFactory.sol\":186:219  uint dnaModulus = 10 ** dnaDigits */\n  0x01\n  sstore\n    /* \"TestKnowledge/RedoZombieFactory.sol\":62:1135  contract RedoZombieFactory {... */\n  callvalue\n  dup1\n  iszero\n  tag_3\n  jumpi\n  0x00\n  dup1\n  revert\ntag_3:\n  pop\n  jump(tag_4)\n    /* \"#utility.yul\":7:187   */\ntag_5:\n    /* \"#utility.yul\":55:132   */\n  0x4e487b7100000000000000000000000000000000000000000000000000000000\n    /* \"#utility.yul\":52:53   */\n  0x00\n    /* \"#utility.yul\":45:133   */\n  mstore\n    /* \"#utility.yul\":152:156   */\n  0x11\n    /* \"#utility.yul\":149:150   */\n  0x04\n    /* \"#utility.yul\":142:157   */\n  mstore\n    /* \"#utility.yul\":176:180   */\n  0x24\n    /* \"#utility.yul\":173:174   */\n  0x00\n    /* \"#utility.yul\":166:181   */\n  revert\n    /* \"#utility.yul\":193:295   */\ntag_6:\n    /* \"#utility.yul\":235:243   */\n  0x00\n    /* \"#utility.yul\":282:287   */\n  dup2\n    /* \"#utility.yul\":279:280   */\n  0x01\n    /* \"#utility.yul\":275:288   */\n  shr\n    /* \"#utility.yul\":254:288   */\n  swap1\n  pop\n    /* \"#utility.yul\":193:295   */\n  swap2\n  swap1\n  pop\n  jump\t// out\n    /* \"#utility.yul\":301:1149   */\ntag_7:\n    /* \"#utility.yul\":362:367   */\n  0x00\n    /* \"#utility.yul\":369:373   */\n  dup1\n    /* \"#utility.yul\":393:399   */\n  dup3\n    /* \"#utility.yul\":384:399   */\n  swap2\n  pop\n    /* \"#utility.yul\":417:422   */\n  dup4\n    /* \"#utility.yul\":408:422   */\n  swap1\n  pop\n    /* \"#utility.yul\":431:1143   */\ntag_14:\n    /* \"#utility.yul\":452:453   */\n  0x01\n    /* \"#utility.yul\":442:450   */\n  dup6\n    /* \"#utility.yul\":439:454   */\n  gt\n    /* \"#utility.yul\":431:1143   */\n  iszero\n  tag_16\n  jumpi\n    /* \"#utility.yul\":547:551   */\n  dup1\n    /* \"#utility.yul\":542:545   */\n  dup7\n    /* \"#utility.yul\":538:552   */\n  div\n    /* \"#utility.yul\":532:536   */\n  dup2\n    /* \"#utility.yul\":529:553   */\n  gt\n    /* \"#utility.yul\":526:576   */\n  iszero\n  tag_17\n  jumpi\n    /* \"#utility.yul\":556:574   */\n  tag_18\n  tag_5\n  jump\t// in\ntag_18:\n    /* \"#utility.yul\":526:576   */\ntag_17:\n    /* \"#utility.yul\":606:607   */\n  0x01\n    /* \"#utility.yul\":596:604   */\n  dup6\n    /* \"#utility.yul\":592:608   */\n  and\n    /* \"#utility.yul\":589:1040   */\n  iszero\n  tag_19\n  jumpi\n    /* \"#utility.yul\":1021:1025   */\n  dup1\n    /* \"#utility.yul\":1014:1019   */\n  dup3\n    /* \"#utility.yul\":1010:1026   */\n  mul\n    /* \"#utility.yul\":1001:1026   */\n  swap2\n  pop\n    /* \"#utility.yul\":589:1040   */\ntag_19:\n    /* \"#utility.yul\":1071:1075   */\n  dup1\n    /* \"#utility.yul\":1065:1069   */\n  dup2\n    /* \"#utility.yul\":1061:1076   */\n  mul\n    /* \"#utility.yul\":1053:1076   */\n  swap1\n  pop\n    /* \"#utility.yul\":1101:1133   */\n  tag_20\n    /* \"#utility.yul\":1124:1132   */\n  dup6\n    /* \"#utility.yul\":1101:1133   */\n  tag_6\n  jump\t// in\ntag_20:\n    /* \"#utility.yul\":1089:1133   */\n  swap5\n  pop\n    /* \"#utility.yul\":431:1143   */\n  jump(tag_14)\ntag_16:\n    /* \"#utility.yul\":301:1149   */\n  swap5\n  pop\n  swap5\n  swap3\n  pop\n  pop\n  pop\n  jump\t// out\n    /* \"#utility.yul\":1155:2228   */\ntag_8:\n    /* \"#utility.yul\":1209:1214   */\n  0x00\n    /* \"#utility.yul\":1400:1408   */\n  dup3\n    /* \"#utility.yul\":1390:1430   */\n  tag_22\n  jumpi\n    /* \"#utility.yul\":1421:1422   */\n  0x01\n    /* \"#utility.yul\":1412:1422   */\n  swap1\n  pop\n    /* \"#utility.yul\":1423:1428   */\n  jump(tag_21)\n    /* \"#utility.yul\":1390:1430   */\ntag_22:\n    /* \"#utility.yul\":1449:1453   */\n  dup2\n    /* \"#utility.yul\":1439:1475   */\n  tag_23\n  jumpi\n    /* \"#utility.yul\":1466:1467   */\n  0x00\n    /* \"#utility.yul\":1457:1467   */\n  swap1\n  pop\n    /* \"#utility.yul\":1468:1473   */\n  jump(tag_21)\n    /* \"#utility.yul\":1439:1475   */\ntag_23:\n    /* \"#utility.yul\":1535:1539   */\n  dup2\n    /* \"#utility.yul\":1583:1584   */\n  0x01\n    /* \"#utility.yul\":1578:1605   */\n  dup2\n  eq\n  tag_25\n  jumpi\n    /* \"#utility.yul\":1619:1620   */\n  0x02\n    /* \"#utility.yul\":1614:1805   */\n  dup2\n  eq\n  tag_26\n  jumpi\n    /* \"#utility.yul\":1528:1805   */\n  jump(tag_24)\n    /* \"#utility.yul\":1578:1605   */\ntag_25:\n    /* \"#utility.yul\":1596:1597   */\n  0x01\n    /* \"#utility.yul\":1587:1597   */\n  swap2\n  pop\n    /* \"#utility.yul\":1598:1603   */\n  pop\n  jump(tag_21)\n    /* \"#utility.yul\":1614:1805   */\ntag_26:\n    /* \"#utility.yul\":1659:1662   */\n  0xff\n    /* \"#utility.yul\":1649:1657   */\n  dup5\n    /* \"#utility.yul\":1646:1663   */\n  gt\n    /* \"#utility.yul\":1643:1686   */\n  iszero\n  tag_27\n  jumpi\n    /* \"#utility.yul\":1666:1684   */\n  tag_28\n  tag_5\n  jump\t// in\ntag_28:\n    /* \"#utility.yul\":1643:1686   */\ntag_27:\n    /* \"#utility.yul\":1715:1723   */\n  dup4\n    /* \"#utility.yul\":1712:1713   */\n  0x02\n    /* \"#utility.yul\":1708:1724   */\n  exp\n    /* \"#utility.yul\":1699:1724   */\n  swap2\n  pop\n    /* \"#utility.yul\":1750:1753   */\n  dup5\n    /* \"#utility.yul\":1743:1748   */\n  dup3\n    /* \"#utility.yul\":1740:1754   */\n  gt\n    /* \"#utility.yul\":1737:1777   */\n  iszero\n  tag_29\n  jumpi\n    /* \"#utility.yul\":1757:1775   */\n  tag_30\n  tag_5\n  jump\t// in\ntag_30:\n    /* \"#utility.yul\":1737:1777   */\ntag_29:\n    /* \"#utility.yul\":1790:1795   */\n  pop\n  jump(tag_21)\n    /* \"#utility.yul\":1528:1805   */\ntag_24:\n  pop\n    /* \"#utility.yul\":1914:1916   */\n  0x20\n    /* \"#utility.yul\":1904:1912   */\n  dup4\n    /* \"#utility.yul\":1901:1917   */\n  lt\n    /* \"#utility.yul\":1895:1898   */\n  0x0133\n    /* \"#utility.yul\":1889:1893   */\n  dup4\n    /* \"#utility.yul\":1886:1899   */\n  lt\n    /* \"#utility.yul\":1882:1918   */\n  and\n    /* \"#utility.yul\":1864:1866   */\n  0x4e\n    /* \"#utility.yul\":1854:1862   */\n  dup5\n    /* \"#utility.yul\":1851:1867   */\n  lt\n    /* \"#utility.yul\":1846:1848   */\n  0x0b\n    /* \"#utility.yul\":1840:1844   */\n  dup5\n    /* \"#utility.yul\":1837:1849   */\n  lt\n    /* \"#utility.yul\":1833:1868   */\n  and\n    /* \"#utility.yul\":1817:1928   */\n  or\n    /* \"#utility.yul\":1814:2060   */\n  iszero\n  tag_31\n  jumpi\n    /* \"#utility.yul\":1970:1978   */\n  dup3\n    /* \"#utility.yul\":1964:1968   */\n  dup3\n    /* \"#utility.yul\":1960:1979   */\n  exp\n    /* \"#utility.yul\":1951:1979   */\n  swap1\n  pop\n    /* \"#utility.yul\":2005:2008   */\n  dup4\n    /* \"#utility.yul\":1998:2003   */\n  dup2\n    /* \"#utility.yul\":1995:2009   */\n  gt\n    /* \"#utility.yul\":1992:2032   */\n  iszero\n  tag_32\n  jumpi\n    /* \"#utility.yul\":2012:2030   */\n  tag_33\n  tag_5\n  jump\t// in\ntag_33:\n    /* \"#utility.yul\":1992:2032   */\ntag_32:\n    /* \"#utility.yul\":2045:2050   */\n  jump(tag_21)\n    /* \"#utility.yul\":1814:2060   */\ntag_31:\n    /* \"#utility.yul\":2085:2127   */\n  tag_34\n    /* \"#utility.yul\":2123:2126   */\n  dup5\n    /* \"#utility.yul\":2113:2121   */\n  dup5\n    /* \"#utility.yul\":2107:2111   */\n  dup5\n    /* \"#utility.yul\":2104:2105   */\n  0x01\n    /* \"#utility.yul\":2085:2127   */\n  tag_7\n  jump\t// in\ntag_34:\n    /* \"#utility.yul\":2070:2127   */\n  swap3\n  pop\n  swap1\n  pop\n    /* \"#utility.yul\":2159:2163   */\n  dup2\n    /* \"#utility.yul\":2154:2157   */\n  dup5\n    /* \"#utility.yul\":2150:2164   */\n  div\n    /* \"#utility.yul\":2143:2148   */\n  dup2\n    /* \"#utility.yul\":2140:2165   */\n  gt\n    /* \"#utility.yul\":2137:2188   */\n  iszero\n  tag_35\n  jumpi\n    /* \"#utility.yul\":2168:2186   */\n  tag_36\n  tag_5\n  jump\t// in\ntag_36:\n    /* \"#utility.yul\":2137:2188   */\ntag_35:\n    /* \"#utility.yul\":2217:2221   */\n  dup2\n    /* \"#utility.yul\":2210:2215   */\n  dup2\n    /* \"#utility.yul\":2206:2222   */\n  mul\n    /* \"#utility.yul\":2197:2222   */\n  swap1\n  pop\n    /* \"#utility.yul\":1155:2228   */\ntag_21:\n  swap4\n  swap3\n  pop\n  pop\n  pop\n  jump\t// out\n    /* \"#utility.yul\":2234:2311   */\ntag_9:\n    /* \"#utility.yul\":2271:2278   */\n  0x00\n    /* \"#utility.yul\":2300:2305   */\n  dup2\n    /* \"#utility.yul\":2289:2305   */\n  swap1\n  pop\n    /* \"#utility.yul\":2234:2311   */\n  swap2\n  swap1\n  pop\n  jump\t// out\n    /* \"#utility.yul\":2317:2602   */\ntag_2:\n    /* \"#utility.yul\":2377:2382   */\n  0x00\n    /* \"#utility.yul\":2401:2424   */\n  tag_39\n    /* \"#utility.yul\":2419:2423   */\n  dup3\n    /* \"#utility.yul\":2401:2424   */\n  tag_9\n  jump\t// in\ntag_39:\n    /* \"#utility.yul\":2393:2424   */\n  swap2\n  pop\n    /* \"#utility.yul\":2445:2472   */\n  tag_40\n    /* \"#utility.yul\":2463:2471   */\n  dup4\n    /* \"#utility.yul\":2445:2472   */\n  tag_9\n  jump\t// in\ntag_40:\n    /* \"#utility.yul\":2433:2472   */\n  swap3\n  pop\n    /* \"#utility.yul\":2491:2595   */\n  tag_41\n    /* \"#utility.yul\":2528:2594   */\n  0xffffffffffffffffffffffffffffffffffffffffffffffffffffffffffffffff\n    /* \"#utility.yul\":2518:2526   */\n  dup5\n    /* \"#utility.yul\":2512:2516   */\n  dup5\n    /* \"#utility.yul\":2491:2595   */\n  tag_8\n  jump\t// in\ntag_41:\n    /* \"#utility.yul\":2482:2595   */\n  swap1\n  pop\n    /* \"#utility.yul\":2317:2602   */\n  swap3\n  swap2\n  pop\n  pop\n  jump\t// out\n    /* \"TestKnowledge/RedoZombieFactory.sol\":62:1135  contract RedoZombieFactory {... */\ntag_4:\n  dataSize(sub_0)\n  dup1\n  dataOffset(sub_0)\n  0x00\n  codecopy\n  0x00\n  return\nstop\n\nsub_0: assembly {\n        /* \"TestKnowledge/RedoZombieFactory.sol\":62:1135  contract RedoZombieFactory {... */\n      mstore(0x40, 0x80)\n      callvalue\n      dup1\n      iszero\n      tag_1\n      jumpi\n      0x00\n      dup1\n      revert\n    tag_1:\n      pop\n      jumpi(tag_2, lt(calldatasize, 0x04))\n      shr(0xe0, calldataload(0x00))\n      dup1\n      0x2052465e\n      eq\n      tag_3\n      jumpi\n      dup1\n      0x528b7b8f\n      eq\n      tag_4\n      jumpi\n      dup1\n      0x7bff0a01\n      eq\n      tag_5\n      jumpi\n    tag_2:\n      0x00\n      dup1\n      revert\n        /* \"TestKnowledge/RedoZombieFactory.sol\":228:251  Zombie[] public zombies */\n    tag_3:\n      tag_6\n      0x04\n      dup1\n      calldatasize\n      sub\n      dup2\n      add\n      swap1\n      tag_7\n      swap2\n      swap1\n      tag_8\n      jump\t// in\n    tag_7:\n      tag_9\n      jump\t// in\n    tag_6:\n      mload(0x40)\n      tag_10\n      swap3\n      swap2\n      swap1\n      tag_11\n      jump\t// in\n    tag_10:\n      mload(0x40)\n      dup1\n      swap2\n      sub\n      swap1\n      return\n        /* \"TestKnowledge/RedoZombieFactory.sol\":332:378  mapping (uint => address) public zombieToOwner */\n    tag_4:\n      tag_12\n      0x04\n      dup1\n      calldatasize\n      sub\n      dup2\n      add\n      swap1\n      tag_13\n      swap2\n      swap1\n      tag_8\n      jump\t// in\n    tag_13:\n      tag_14\n      jump\t// in\n    tag_12:\n      mload(0x40)\n      tag_15\n      swap2\n      swap1\n      tag_16\n      jump\t// in\n    tag_15:\n      mload(0x40)\n      dup1\n      swap2\n      sub\n      swap1\n      return\n        /* \"TestKnowledge/RedoZombieFactory.sol\":918:1132  function createRandomZombie(string memory _name) public {... */\n    tag_5:\n      tag_17\n      0x04\n      dup1\n      calldatasize\n      sub\n      dup2\n      add\n      swap1\n      tag_18\n      swap2\n      swap1\n      tag_19\n      jump\t// in\n    tag_18:\n      tag_20\n      jump\t// in\n    tag_17:\n      stop\n        /* \"TestKnowledge/RedoZombieFactory.sol\":228:251  Zombie[] public zombies */\n    tag_9:\n      0x02\n      dup2\n      dup2\n      sload\n      dup2\n      lt\n      tag_21\n      jumpi\n      0x00\n      dup1\n      revert\n    tag_21:\n      swap1\n      0x00\n      mstore\n      keccak256(0x00, 0x20)\n      swap1\n      0x02\n      mul\n      add\n      0x00\n      swap2\n      pop\n      swap1\n      pop\n      dup1\n      0x00\n      add\n      dup1\n      sload\n      tag_23\n      swap1\n      tag_24\n      jump\t// in\n    tag_23:\n      dup1\n      0x1f\n      add\n      0x20\n      dup1\n      swap2\n      div\n      mul\n      0x20\n      add\n      mload(0x40)\n      swap1\n      dup2\n      add\n      0x40\n      mstore\n      dup1\n      swap3\n      swap2\n      swap1\n      dup2\n      dup2\n      mstore\n      0x20\n      add\n      dup3\n      dup1\n      sload\n      tag_25\n      swap1\n      tag_24\n      jump\t// in\n    tag_25:\n      dup1\n      iszero\n      tag_26\n      jumpi\n      dup1\n      0x1f\n      lt\n      tag_27\n      jumpi\n      0x0100\n      dup1\n      dup4\n      sload\n      div\n      mul\n      dup4\n      mstore\n      swap2\n      0x20\n      add\n      swap2\n      jump(tag_26)\n    tag_27:\n      dup3\n      add\n      swap2\n      swap1\n      0x00\n      mstore\n      keccak256(0x00, 0x20)\n      swap1\n    tag_28:\n      dup2\n      sload\n      dup2\n      mstore\n      swap1\n      0x01\n      add\n      swap1\n      0x20\n      add\n      dup1\n      dup4\n      gt\n      tag_28\n      jumpi\n      dup3\n      swap1\n      sub\n      0x1f\n      and\n      dup3\n      add\n      swap2\n    tag_26:\n      pop\n      pop\n      pop\n      pop\n      pop\n      swap1\n      dup1\n      0x01\n      add\n      sload\n      swap1\n      pop\n      dup3\n      jump\t// out\n        /* \"TestKnowledge/RedoZombieFactory.sol\":332:378  mapping (uint => address) public zombieToOwner */\n    tag_14:\n      mstore(0x20, 0x03)\n      dup1\n      0x00\n      mstore\n      keccak256(0x00, 0x40)\n      0x00\n      swap2\n      pop\n      sload\n      swap1\n      0x0100\n      exp\n      swap1\n      div\n      0xffffffffffffffffffffffffffffffffffffffff\n      and\n      dup2\n      jump\t// out\n        /* \"TestKnowledge/RedoZombieFactory.sol\":918:1132  function createRandomZombie(string memory _name) public {... */\n    tag_20:\n        /* \"TestKnowledge/RedoZombieFactory.sol\":1025:1026  0 */\n      0x00\n        /* \"TestKnowledge/RedoZombieFactory.sol\":993:1009  ownerZombieCount */\n      0x04\n        /* \"TestKnowledge/RedoZombieFactory.sol\":993:1021  ownerZombieCount[msg.sender] */\n      0x00\n        /* \"TestKnowledge/RedoZombieFactory.sol\":1010:1020  msg.sender */\n      caller\n        /* \"TestKnowledge/RedoZombieFactory.sol\":993:1021  ownerZombieCount[msg.sender] */\n      0xffffffffffffffffffffffffffffffffffffffff\n      and\n      0xffffffffffffffffffffffffffffffffffffffff\n      and\n      dup2\n      mstore\n      0x20\n      add\n      swap1\n      dup2\n      mstore\n      0x20\n      add\n      0x00\n      keccak256\n      sload\n        /* \"TestKnowledge/RedoZombieFactory.sol\":993:1026  ownerZombieCount[msg.sender] == 0 */\n      eq\n        /* \"TestKnowledge/RedoZombieFactory.sol\":985:1027  require(ownerZombieCount[msg.sender] == 0) */\n      tag_30\n      jumpi\n      0x00\n      dup1\n      revert\n    tag_30:\n        /* \"TestKnowledge/RedoZombieFactory.sol\":1038:1050  uint randDna */\n      0x00\n        /* \"TestKnowledge/RedoZombieFactory.sol\":1058:1083  _generateRandomDna(_name) */\n      tag_31\n        /* \"TestKnowledge/RedoZombieFactory.sol\":1077:1082  _name */\n      dup3\n        /* \"TestKnowledge/RedoZombieFactory.sol\":1058:1076  _generateRandomDna */\n      tag_32\n        /* \"TestKnowledge/RedoZombieFactory.sol\":1058:1083  _generateRandomDna(_name) */\n      jump\t// in\n    tag_31:\n        /* \"TestKnowledge/RedoZombieFactory.sol\":1038:1084  uint randDna = uint(_generateRandomDna(_name)) */\n      swap1\n      pop\n        /* \"TestKnowledge/RedoZombieFactory.sol\":1095:1124  _createZombie(_name, randDna) */\n      tag_33\n        /* \"TestKnowledge/RedoZombieFactory.sol\":1109:1114  _name */\n      dup3\n        /* \"TestKnowledge/RedoZombieFactory.sol\":1116:1123  randDna */\n      dup3\n        /* \"TestKnowledge/RedoZombieFactory.sol\":1095:1108  _createZombie */\n      tag_34\n        /* \"TestKnowledge/RedoZombieFactory.sol\":1095:1124  _createZombie(_name, randDna) */\n      jump\t// in\n    tag_33:\n        /* \"TestKnowledge/RedoZombieFactory.sol\":974:1132  {... */\n      pop\n        /* \"TestKnowledge/RedoZombieFactory.sol\":918:1132  function createRandomZombie(string memory _name) public {... */\n      pop\n      jump\t// out\n        /* \"TestKnowledge/RedoZombieFactory.sol\":723:910  function _generateRandomDna(string memory _str) private view returns(uint) {... */\n    tag_32:\n        /* \"TestKnowledge/RedoZombieFactory.sol\":792:796  uint */\n      0x00\n        /* \"TestKnowledge/RedoZombieFactory.sol\":809:818  uint rand */\n      dup1\n        /* \"TestKnowledge/RedoZombieFactory.sol\":853:857  _str */\n      dup3\n        /* \"TestKnowledge/RedoZombieFactory.sol\":836:858  abi.encodePacked(_str) */\n      add(0x20, mload(0x40))\n      tag_36\n      swap2\n      swap1\n      tag_37\n      jump\t// in\n    tag_36:\n      mload(0x40)\n      0x20\n      dup2\n      dup4\n      sub\n      sub\n      dup2\n      mstore\n      swap1\n      0x40\n      mstore\n        /* \"TestKnowledge/RedoZombieFactory.sol\":826:859  keccak256(abi.encodePacked(_str)) */\n      dup1\n      mload\n      swap1\n      0x20\n      add\n      keccak256\n        /* \"TestKnowledge/RedoZombieFactory.sol\":821:860  uint(keccak256(abi.encodePacked(_str))) */\n      0x00\n      shr\n        /* \"TestKnowledge/RedoZombieFactory.sol\":809:860  uint rand = uint(keccak256(abi.encodePacked(_str))) */\n      swap1\n      pop\n        /* \"TestKnowledge/RedoZombieFactory.sol\":892:902  dnaModulus */\n      sload(0x01)\n        /* \"TestKnowledge/RedoZombieFactory.sol\":885:889  rand */\n      dup2\n        /* \"TestKnowledge/RedoZombieFactory.sol\":885:902  rand % dnaModulus */\n      tag_38\n      swap2\n      swap1\n      tag_39\n      jump\t// in\n    tag_38:\n        /* \"TestKnowledge/RedoZombieFactory.sol\":878:902  rand = rand % dnaModulus */\n      swap1\n      pop\n      dup1\n        /* \"TestKnowledge/RedoZombieFactory.sol\":871:902  return rand = rand % dnaModulus */\n      swap2\n      pop\n      pop\n        /* \"TestKnowledge/RedoZombieFactory.sol\":723:910  function _generateRandomDna(string memory _str) private view returns(uint) {... */\n      swap2\n      swap1\n      pop\n      jump\t// out\n        /* \"TestKnowledge/RedoZombieFactory.sol\":436:715  function _createZombie(string memory _name, uint _dna) internal {... */\n    tag_34:\n        /* \"TestKnowledge/RedoZombieFactory.sol\":511:518  zombies */\n      0x02\n        /* \"TestKnowledge/RedoZombieFactory.sol\":524:543  Zombie(_name, _dna) */\n      mload(0x40)\n      dup1\n      0x40\n      add\n      0x40\n      mstore\n      dup1\n        /* \"TestKnowledge/RedoZombieFactory.sol\":531:536  _name */\n      dup5\n        /* \"TestKnowledge/RedoZombieFactory.sol\":524:543  Zombie(_name, _dna) */\n      dup2\n      mstore\n      0x20\n      add\n        /* \"TestKnowledge/RedoZombieFactory.sol\":538:542  _dna */\n      dup4\n        /* \"TestKnowledge/RedoZombieFactory.sol\":524:543  Zombie(_name, _dna) */\n      dup2\n      mstore\n      pop\n        /* \"TestKnowledge/RedoZombieFactory.sol\":511:544  zombies.push(Zombie(_name, _dna)) */\n      swap1\n      dup1\n      0x01\n      dup2\n      sload\n      add\n      dup1\n      dup3\n      sstore\n      dup1\n      swap2\n      pop\n      pop\n      0x01\n      swap1\n      sub\n      swap1\n      0x00\n      mstore\n      keccak256(0x00, 0x20)\n      swap1\n      0x02\n      mul\n      add\n      0x00\n      swap1\n      swap2\n      swap1\n      swap2\n      swap1\n      swap2\n      pop\n      0x00\n      dup3\n      add\n      mload\n      dup2\n      0x00\n      add\n      swap1\n      dup2\n      tag_42\n      swap2\n      swap1\n      tag_43\n      jump\t// in\n    tag_42:\n      pop\n      0x20\n      dup3\n      add\n      mload\n      dup2\n      0x01\n      add\n      sstore\n      pop\n      pop\n        /* \"TestKnowledge/RedoZombieFactory.sol\":555:562  uint id */\n      0x00\n        /* \"TestKnowledge/RedoZombieFactory.sol\":582:583  1 */\n      0x01\n        /* \"TestKnowledge/RedoZombieFactory.sol\":565:572  zombies */\n      0x02\n        /* \"TestKnowledge/RedoZombieFactory.sol\":565:579  zombies.length */\n      dup1\n      sload\n      swap1\n      pop\n        /* \"TestKnowledge/RedoZombieFactory.sol\":565:583  zombies.length - 1 */\n      tag_44\n      swap2\n      swap1\n      tag_45\n      jump\t// in\n    tag_44:\n        /* \"TestKnowledge/RedoZombieFactory.sol\":555:583  uint id = zombies.length - 1 */\n      swap1\n      pop\n        /* \"TestKnowledge/RedoZombieFactory.sol\":614:624  msg.sender */\n      caller\n        /* \"TestKnowledge/RedoZombieFactory.sol\":594:607  zombieToOwner */\n      0x03\n        /* \"TestKnowledge/RedoZombieFactory.sol\":594:611  zombieToOwner[id] */\n      0x00\n        /* \"TestKnowledge/RedoZombieFactory.sol\":608:610  id */\n      dup4\n        /* \"TestKnowledge/RedoZombieFactory.sol\":594:611  zombieToOwner[id] */\n      dup2\n      mstore\n      0x20\n      add\n      swap1\n      dup2\n      mstore\n      0x20\n      add\n      0x00\n      keccak256\n      0x00\n        /* \"TestKnowledge/RedoZombieFactory.sol\":594:624  zombieToOwner[id] = msg.sender */\n      0x0100\n      exp\n      dup2\n      sload\n      dup2\n      0xffffffffffffffffffffffffffffffffffffffff\n      mul\n      not\n      and\n      swap1\n      dup4\n      0xffffffffffffffffffffffffffffffffffffffff\n      and\n      mul\n      or\n      swap1\n      sstore\n      pop\n        /* \"TestKnowledge/RedoZombieFactory.sol\":635:651  ownerZombieCount */\n      0x04\n        /* \"TestKnowledge/RedoZombieFactory.sol\":635:663  ownerZombieCount[msg.sender] */\n      0x00\n        /* \"TestKnowledge/RedoZombieFactory.sol\":652:662  msg.sender */\n      caller\n        /* \"TestKnowledge/RedoZombieFactory.sol\":635:663  ownerZombieCount[msg.sender] */\n      0xffffffffffffffffffffffffffffffffffffffff\n      and\n      0xffffffffffffffffffffffffffffffffffffffff\n      and\n      dup2\n      mstore\n      0x20\n      add\n      swap1\n      dup2\n      mstore\n      0x20\n      add\n      0x00\n      keccak256\n      0x00\n        /* \"TestKnowledge/RedoZombieFactory.sol\":635:665  ownerZombieCount[msg.sender]++ */\n      dup2\n      sload\n      dup1\n      swap3\n      swap2\n      swap1\n      tag_46\n      swap1\n      tag_47\n      jump\t// in\n    tag_46:\n      swap2\n      swap1\n      pop\n      sstore\n      pop\n        /* \"TestKnowledge/RedoZombieFactory.sol\":681:707  NewZombie(id, _name, _dna) */\n      0x88f026aacbbecc90c18411df4b1185fd8d9be2470f1962f192bf84a27d0704b7\n        /* \"TestKnowledge/RedoZombieFactory.sol\":691:693  id */\n      dup2\n        /* \"TestKnowledge/RedoZombieFactory.sol\":695:700  _name */\n      dup5\n        /* \"TestKnowledge/RedoZombieFactory.sol\":702:706  _dna */\n      dup5\n        /* \"TestKnowledge/RedoZombieFactory.sol\":681:707  NewZombie(id, _name, _dna) */\n      mload(0x40)\n      tag_48\n      swap4\n      swap3\n      swap2\n      swap1\n      tag_49\n      jump\t// in\n    tag_48:\n      mload(0x40)\n      dup1\n      swap2\n      sub\n      swap1\n      log1\n        /* \"TestKnowledge/RedoZombieFactory.sol\":500:715  {... */\n      pop\n        /* \"TestKnowledge/RedoZombieFactory.sol\":436:715  function _createZombie(string memory _name, uint _dna) internal {... */\n      pop\n      pop\n      jump\t// out\n        /* \"#utility.yul\":7:82   */\n    tag_50:\n        /* \"#utility.yul\":40:46   */\n      0x00\n        /* \"#utility.yul\":73:75   */\n      0x40\n        /* \"#utility.yul\":67:76   */\n      mload\n        /* \"#utility.yul\":57:76   */\n      swap1\n      pop\n        /* \"#utility.yul\":7:82   */\n      swap1\n      jump\t// out\n        /* \"#utility.yul\":88:205   */\n    tag_51:\n        /* \"#utility.yul\":197:198   */\n      0x00\n        /* \"#utility.yul\":194:195   */\n      dup1\n        /* \"#utility.yul\":187:199   */\n      revert\n        /* \"#utility.yul\":211:328   */\n    tag_52:\n        /* \"#utility.yul\":320:321   */\n      0x00\n        /* \"#utility.yul\":317:318   */\n      dup1\n        /* \"#utility.yul\":310:322   */\n      revert\n        /* \"#utility.yul\":334:411   */\n    tag_53:\n        /* \"#utility.yul\":371:378   */\n      0x00\n        /* \"#utility.yul\":400:405   */\n      dup2\n        /* \"#utility.yul\":389:405   */\n      swap1\n      pop\n        /* \"#utility.yul\":334:411   */\n      swap2\n      swap1\n      pop\n      jump\t// out\n        /* \"#utility.yul\":417:539   */\n    tag_54:\n        /* \"#utility.yul\":490:514   */\n      tag_100\n        /* \"#utility.yul\":508:513   */\n      dup2\n        /* \"#utility.yul\":490:514   */\n      tag_53\n      jump\t// in\n    tag_100:\n        /* \"#utility.yul\":483:488   */\n      dup2\n        /* \"#utility.yul\":480:515   */\n      eq\n        /* \"#utility.yul\":470:533   */\n      tag_101\n      jumpi\n        /* \"#utility.yul\":529:530   */\n      0x00\n        /* \"#utility.yul\":526:527   */\n      dup1\n        /* \"#utility.yul\":519:531   */\n      revert\n        /* \"#utility.yul\":470:533   */\n    tag_101:\n        /* \"#utility.yul\":417:539   */\n      pop\n      jump\t// out\n        /* \"#utility.yul\":545:684   */\n    tag_55:\n        /* \"#utility.yul\":591:596   */\n      0x00\n        /* \"#utility.yul\":629:635   */\n      dup2\n        /* \"#utility.yul\":616:636   */\n      calldataload\n        /* \"#utility.yul\":607:636   */\n      swap1\n      pop\n        /* \"#utility.yul\":645:678   */\n      tag_103\n        /* \"#utility.yul\":672:677   */\n      dup2\n        /* \"#utility.yul\":645:678   */\n      tag_54\n      jump\t// in\n    tag_103:\n        /* \"#utility.yul\":545:684   */\n      swap3\n      swap2\n      pop\n      pop\n      jump\t// out\n        /* \"#utility.yul\":690:1019   */\n    tag_8:\n        /* \"#utility.yul\":749:755   */\n      0x00\n        /* \"#utility.yul\":798:800   */\n      0x20\n        /* \"#utility.yul\":786:795   */\n      dup3\n        /* \"#utility.yul\":777:784   */\n      dup5\n        /* \"#utility.yul\":773:796   */\n      sub\n        /* \"#utility.yul\":769:801   */\n      slt\n        /* \"#utility.yul\":766:885   */\n      iszero\n      tag_105\n      jumpi\n        /* \"#utility.yul\":804:883   */\n      tag_106\n      tag_51\n      jump\t// in\n    tag_106:\n        /* \"#utility.yul\":766:885   */\n    tag_105:\n        /* \"#utility.yul\":924:925   */\n      0x00\n        /* \"#utility.yul\":949:1002   */\n      tag_107\n        /* \"#utility.yul\":994:1001   */\n      dup5\n        /* \"#utility.yul\":985:991   */\n      dup3\n        /* \"#utility.yul\":974:983   */\n      dup6\n        /* \"#utility.yul\":970:992   */\n      add\n        /* \"#utility.yul\":949:1002   */\n      tag_55\n      jump\t// in\n    tag_107:\n        /* \"#utility.yul\":939:1002   */\n      swap2\n      pop\n        /* \"#utility.yul\":895:1012   */\n      pop\n        /* \"#utility.yul\":690:1019   */\n      swap3\n      swap2\n      pop\n      pop\n      jump\t// out\n        /* \"#utility.yul\":1025:1124   */\n    tag_56:\n        /* \"#utility.yul\":1077:1083   */\n      0x00\n        /* \"#utility.yul\":1111:1116   */\n      dup2\n        /* \"#utility.yul\":1105:1117   */\n      mload\n        /* \"#utility.yul\":1095:1117   */\n      swap1\n      pop\n        /* \"#utility.yul\":1025:1124   */\n      swap2\n      swap1\n      pop\n      jump\t// out\n        /* \"#utility.yul\":1130:1299   */\n    tag_57:\n        /* \"#utility.yul\":1214:1225   */\n      0x00\n        /* \"#utility.yul\":1248:1254   */\n      dup3\n        /* \"#utility.yul\":1243:1246   */\n      dup3\n        /* \"#utility.yul\":1236:1255   */\n      mstore\n        /* \"#utility.yul\":1288:1292   */\n      0x20\n        /* \"#utility.yul\":1283:1286   */\n      dup3\n        /* \"#utility.yul\":1279:1293   */\n      add\n        /* \"#utility.yul\":1264:1293   */\n      swap1\n      pop\n        /* \"#utility.yul\":1130:1299   */\n      swap3\n      swap2\n      pop\n      pop\n      jump\t// out\n        /* \"#utility.yul\":1305:1551   */\n    tag_58:\n        /* \"#utility.yul\":1386:1387   */\n      0x00\n        /* \"#utility.yul\":1396:1509   */\n    tag_111:\n        /* \"#utility.yul\":1410:1416   */\n      dup4\n        /* \"#utility.yul\":1407:1408   */\n      dup2\n        /* \"#utility.yul\":1404:1417   */\n      lt\n        /* \"#utility.yul\":1396:1509   */\n      iszero\n      tag_113\n      jumpi\n        /* \"#utility.yul\":1495:1496   */\n      dup1\n        /* \"#utility.yul\":1490:1493   */\n      dup3\n        /* \"#utility.yul\":1486:1497   */\n      add\n        /* \"#utility.yul\":1480:1498   */\n      mload\n        /* \"#utility.yul\":1476:1477   */\n      dup2\n        /* \"#utility.yul\":1471:1474   */\n      dup5\n        /* \"#utility.yul\":1467:1478   */\n      add\n        /* \"#utility.yul\":1460:1499   */\n      mstore\n        /* \"#utility.yul\":1432:1434   */\n      0x20\n        /* \"#utility.yul\":1429:1430   */\n      dup2\n        /* \"#utility.yul\":1425:1435   */\n      add\n        /* \"#utility.yul\":1420:1435   */\n      swap1\n      pop\n        /* \"#utility.yul\":1396:1509   */\n      jump(tag_111)\n    tag_113:\n        /* \"#utility.yul\":1543:1544   */\n      0x00\n        /* \"#utility.yul\":1534:1540   */\n      dup5\n        /* \"#utility.yul\":1529:1532   */\n      dup5\n        /* \"#utility.yul\":1525:1541   */\n      add\n        /* \"#utility.yul\":1518:1545   */\n      mstore\n        /* \"#utility.yul\":1367:1551   */\n      pop\n        /* \"#utility.yul\":1305:1551   */\n      pop\n      pop\n      pop\n      jump\t// out\n        /* \"#utility.yul\":1557:1659   */\n    tag_59:\n        /* \"#utility.yul\":1598:1604   */\n      0x00\n        /* \"#utility.yul\":1649:1651   */\n      0x1f\n        /* \"#utility.yul\":1645:1652   */\n      not\n        /* \"#utility.yul\":1640:1642   */\n      0x1f\n        /* \"#utility.yul\":1633:1638   */\n      dup4\n        /* \"#utility.yul\":1629:1643   */\n      add\n        /* \"#utility.yul\":1625:1653   */\n      and\n        /* \"#utility.yul\":1615:1653   */\n      swap1\n      pop\n        /* \"#utility.yul\":1557:1659   */\n      swap2\n      swap1\n      pop\n      jump\t// out\n        /* \"#utility.yul\":1665:2042   */\n    tag_60:\n        /* \"#utility.yul\":1753:1756   */\n      0x00\n        /* \"#utility.yul\":1781:1820   */\n      tag_116\n        /* \"#utility.yul\":1814:1819   */\n      dup3\n        /* \"#utility.yul\":1781:1820   */\n      tag_56\n      jump\t// in\n    tag_116:\n        /* \"#utility.yul\":1836:1907   */\n      tag_117\n        /* \"#utility.yul\":1900:1906   */\n      dup2\n        /* \"#utility.yul\":1895:1898   */\n      dup6\n        /* \"#utility.yul\":1836:1907   */\n      tag_57\n      jump\t// in\n    tag_117:\n        /* \"#utility.yul\":1829:1907   */\n      swap4\n      pop\n        /* \"#utility.yul\":1916:1981   */\n      tag_118\n        /* \"#utility.yul\":1974:1980   */\n      dup2\n        /* \"#utility.yul\":1969:1972   */\n      dup6\n        /* \"#utility.yul\":1962:1966   */\n      0x20\n        /* \"#utility.yul\":1955:1960   */\n      dup7\n        /* \"#utility.yul\":1951:1967   */\n      add\n        /* \"#utility.yul\":1916:1981   */\n      tag_58\n      jump\t// in\n    tag_118:\n        /* \"#utility.yul\":2006:2035   */\n      tag_119\n        /* \"#utility.yul\":2028:2034   */\n      dup2\n        /* \"#utility.yul\":2006:2035   */\n      tag_59\n      jump\t// in\n    tag_119:\n        /* \"#utility.yul\":2001:2004   */\n      dup5\n        /* \"#utility.yul\":1997:2036   */\n      add\n        /* \"#utility.yul\":1990:2036   */\n      swap2\n      pop\n        /* \"#utility.yul\":1757:2042   */\n      pop\n        /* \"#utility.yul\":1665:2042   */\n      swap3\n      swap2\n      pop\n      pop\n      jump\t// out\n        /* \"#utility.yul\":2048:2166   */\n    tag_61:\n        /* \"#utility.yul\":2135:2159   */\n      tag_121\n        /* \"#utility.yul\":2153:2158   */\n      dup2\n        /* \"#utility.yul\":2135:2159   */\n      tag_53\n      jump\t// in\n    tag_121:\n        /* \"#utility.yul\":2130:2133   */\n      dup3\n        /* \"#utility.yul\":2123:2160   */\n      mstore\n        /* \"#utility.yul\":2048:2166   */\n      pop\n      pop\n      jump\t// out\n        /* \"#utility.yul\":2172:2595   */\n    tag_11:\n        /* \"#utility.yul\":2313:2317   */\n      0x00\n        /* \"#utility.yul\":2351:2353   */\n      0x40\n        /* \"#utility.yul\":2340:2349   */\n      dup3\n        /* \"#utility.yul\":2336:2354   */\n      add\n        /* \"#utility.yul\":2328:2354   */\n      swap1\n      pop\n        /* \"#utility.yul\":2400:2409   */\n      dup2\n        /* \"#utility.yul\":2394:2398   */\n      dup2\n        /* \"#utility.yul\":2390:2410   */\n      sub\n        /* \"#utility.yul\":2386:2387   */\n      0x00\n        /* \"#utility.yul\":2375:2384   */\n      dup4\n        /* \"#utility.yul\":2371:2388   */\n      add\n        /* \"#utility.yul\":2364:2411   */\n      mstore\n        /* \"#utility.yul\":2428:2506   */\n      tag_123\n        /* \"#utility.yul\":2501:2505   */\n      dup2\n        /* \"#utility.yul\":2492:2498   */\n      dup6\n        /* \"#utility.yul\":2428:2506   */\n      tag_60\n      jump\t// in\n    tag_123:\n        /* \"#utility.yul\":2420:2506   */\n      swap1\n      pop\n        /* \"#utility.yul\":2516:2588   */\n      tag_124\n        /* \"#utility.yul\":2584:2586   */\n      0x20\n        /* \"#utility.yul\":2573:2582   */\n      dup4\n        /* \"#utility.yul\":2569:2587   */\n      add\n        /* \"#utility.yul\":2560:2566   */\n      dup5\n        /* \"#utility.yul\":2516:2588   */\n      tag_61\n      jump\t// in\n    tag_124:\n        /* \"#utility.yul\":2172:2595   */\n      swap4\n      swap3\n      pop\n      pop\n      pop\n      jump\t// out\n        /* \"#utility.yul\":2601:2727   */\n    tag_62:\n        /* \"#utility.yul\":2638:2645   */\n      0x00\n        /* \"#utility.yul\":2678:2720   */\n      0xffffffffffffffffffffffffffffffffffffffff\n        /* \"#utility.yul\":2671:2676   */\n      dup3\n        /* \"#utility.yul\":2667:2721   */\n      and\n        /* \"#utility.yul\":2656:2721   */\n      swap1\n      pop\n        /* \"#utility.yul\":2601:2727   */\n      swap2\n      swap1\n      pop\n      jump\t// out\n        /* \"#utility.yul\":2733:2829   */\n    tag_63:\n        /* \"#utility.yul\":2770:2777   */\n      0x00\n        /* \"#utility.yul\":2799:2823   */\n      tag_127\n        /* \"#utility.yul\":2817:2822   */\n      dup3\n        /* \"#utility.yul\":2799:2823   */\n      tag_62\n      jump\t// in\n    tag_127:\n        /* \"#utility.yul\":2788:2823   */\n      swap1\n      pop\n        /* \"#utility.yul\":2733:2829   */\n      swap2\n      swap1\n      pop\n      jump\t// out\n        /* \"#utility.yul\":2835:2953   */\n    tag_64:\n        /* \"#utility.yul\":2922:2946   */\n      tag_129\n        /* \"#utility.yul\":2940:2945   */\n      dup2\n        /* \"#utility.yul\":2922:2946   */\n      tag_63\n      jump\t// in\n    tag_129:\n        /* \"#utility.yul\":2917:2920   */\n      dup3\n        /* \"#utility.yul\":2910:2947   */\n      mstore\n        /* \"#utility.yul\":2835:2953   */\n      pop\n      pop\n      jump\t// out\n        /* \"#utility.yul\":2959:3181   */\n    tag_16:\n        /* \"#utility.yul\":3052:3056   */\n      0x00\n        /* \"#utility.yul\":3090:3092   */\n      0x20\n        /* \"#utility.yul\":3079:3088   */\n      dup3\n        /* \"#utility.yul\":3075:3093   */\n      add\n        /* \"#utility.yul\":3067:3093   */\n      swap1\n      pop\n        /* \"#utility.yul\":3103:3174   */\n      tag_131\n        /* \"#utility.yul\":3171:3172   */\n      0x00\n        /* \"#utility.yul\":3160:3169   */\n      dup4\n        /* \"#utility.yul\":3156:3173   */\n      add\n        /* \"#utility.yul\":3147:3153   */\n      dup5\n        /* \"#utility.yul\":3103:3174   */\n      tag_64\n      jump\t// in\n    tag_131:\n        /* \"#utility.yul\":2959:3181   */\n      swap3\n      swap2\n      pop\n      pop\n      jump\t// out\n        /* \"#utility.yul\":3187:3304   */\n    tag_65:\n        /* \"#utility.yul\":3296:3297   */\n      0x00\n        /* \"#utility.yul\":3293:3294   */\n      dup1\n        /* \"#utility.yul\":3286:3298   */\n      revert\n        /* \"#utility.yul\":3310:3427   */\n    tag_66:\n        /* \"#utility.yul\":3419:3420   */\n      0x00\n        /* \"#utility.yul\":3416:3417   */\n      dup1\n        /* \"#utility.yul\":3409:3421   */\n      revert\n        /* \"#utility.yul\":3433:3613   */\n    tag_67:\n        /* \"#utility.yul\":3481:3558   */\n      0x4e487b7100000000000000000000000000000000000000000000000000000000\n        /* \"#utility.yul\":3478:3479   */\n      0x00\n        /* \"#utility.yul\":3471:3559   */\n      mstore\n        /* \"#utility.yul\":3578:3582   */\n      0x41\n        /* \"#utility.yul\":3575:3576   */\n      0x04\n        /* \"#utility.yul\":3568:3583   */\n      mstore\n        /* \"#utility.yul\":3602:3606   */\n      0x24\n        /* \"#utility.yul\":3599:3600   */\n      0x00\n        /* \"#utility.yul\":3592:3607   */\n      revert\n        /* \"#utility.yul\":3619:3900   */\n    tag_68:\n        /* \"#utility.yul\":3702:3729   */\n      tag_136\n        /* \"#utility.yul\":3724:3728   */\n      dup3\n        /* \"#utility.yul\":3702:3729   */\n      tag_59\n      jump\t// in\n    tag_136:\n        /* \"#utility.yul\":3694:3700   */\n      dup2\n        /* \"#utility.yul\":3690:3730   */\n      add\n        /* \"#utility.yul\":3832:3838   */\n      dup2\n        /* \"#utility.yul\":3820:3830   */\n      dup2\n        /* \"#utility.yul\":3817:3839   */\n      lt\n        /* \"#utility.yul\":3796:3814   */\n      0xffffffffffffffff\n        /* \"#utility.yul\":3784:3794   */\n      dup3\n        /* \"#utility.yul\":3781:3815   */\n      gt\n        /* \"#utility.yul\":3778:3840   */\n      or\n        /* \"#utility.yul\":3775:3863   */\n      iszero\n      tag_137\n      jumpi\n        /* \"#utility.yul\":3843:3861   */\n      tag_138\n      tag_67\n      jump\t// in\n    tag_138:\n        /* \"#utility.yul\":3775:3863   */\n    tag_137:\n        /* \"#utility.yul\":3883:3893   */\n      dup1\n        /* \"#utility.yul\":3879:3881   */\n      0x40\n        /* \"#utility.yul\":3872:3894   */\n      mstore\n        /* \"#utility.yul\":3662:3900   */\n      pop\n        /* \"#utility.yul\":3619:3900   */\n      pop\n      pop\n      jump\t// out\n        /* \"#utility.yul\":3906:4035   */\n    tag_69:\n        /* \"#utility.yul\":3940:3946   */\n      0x00\n        /* \"#utility.yul\":3967:3987   */\n      tag_140\n      tag_50\n      jump\t// in\n    tag_140:\n        /* \"#utility.yul\":3957:3987   */\n      swap1\n      pop\n        /* \"#utility.yul\":3996:4029   */\n      tag_141\n        /* \"#utility.yul\":4024:4028   */\n      dup3\n        /* \"#utility.yul\":4016:4022   */\n      dup3\n        /* \"#utility.yul\":3996:4029   */\n      tag_68\n      jump\t// in\n    tag_141:\n        /* \"#utility.yul\":3906:4035   */\n      swap2\n      swap1\n      pop\n      jump\t// out\n        /* \"#utility.yul\":4041:4349   */\n    tag_70:\n        /* \"#utility.yul\":4103:4107   */\n      0x00\n        /* \"#utility.yul\":4193:4211   */\n      0xffffffffffffffff\n        /* \"#utility.yul\":4185:4191   */\n      dup3\n        /* \"#utility.yul\":4182:4212   */\n      gt\n        /* \"#utility.yul\":4179:4235   */\n      iszero\n      tag_143\n      jumpi\n        /* \"#utility.yul\":4215:4233   */\n      tag_144\n      tag_67\n      jump\t// in\n    tag_144:\n        /* \"#utility.yul\":4179:4235   */\n    tag_143:\n        /* \"#utility.yul\":4253:4282   */\n      tag_145\n        /* \"#utility.yul\":4275:4281   */\n      dup3\n        /* \"#utility.yul\":4253:4282   */\n      tag_59\n      jump\t// in\n    tag_145:\n        /* \"#utility.yul\":4245:4282   */\n      swap1\n      pop\n        /* \"#utility.yul\":4337:4341   */\n      0x20\n        /* \"#utility.yul\":4331:4335   */\n      dup2\n        /* \"#utility.yul\":4327:4342   */\n      add\n        /* \"#utility.yul\":4319:4342   */\n      swap1\n      pop\n        /* \"#utility.yul\":4041:4349   */\n      swap2\n      swap1\n      pop\n      jump\t// out\n        /* \"#utility.yul\":4355:4501   */\n    tag_71:\n        /* \"#utility.yul\":4452:4458   */\n      dup3\n        /* \"#utility.yul\":4447:4450   */\n      dup2\n        /* \"#utility.yul\":4442:4445   */\n      dup4\n        /* \"#utility.yul\":4429:4459   */\n      calldatacopy\n        /* \"#utility.yul\":4493:4494   */\n      0x00\n        /* \"#utility.yul\":4484:4490   */\n      dup4\n        /* \"#utility.yul\":4479:4482   */\n      dup4\n        /* \"#utility.yul\":4475:4491   */\n      add\n        /* \"#utility.yul\":4468:4495   */\n      mstore\n        /* \"#utility.yul\":4355:4501   */\n      pop\n      pop\n      pop\n      jump\t// out\n        /* \"#utility.yul\":4507:4932   */\n    tag_72:\n        /* \"#utility.yul\":4585:4590   */\n      0x00\n        /* \"#utility.yul\":4610:4676   */\n      tag_148\n        /* \"#utility.yul\":4626:4675   */\n      tag_149\n        /* \"#utility.yul\":4668:4674   */\n      dup5\n        /* \"#utility.yul\":4626:4675   */\n      tag_70\n      jump\t// in\n    tag_149:\n        /* \"#utility.yul\":4610:4676   */\n      tag_69\n      jump\t// in\n    tag_148:\n        /* \"#utility.yul\":4601:4676   */\n      swap1\n      pop\n        /* \"#utility.yul\":4699:4705   */\n      dup3\n        /* \"#utility.yul\":4692:4697   */\n      dup2\n        /* \"#utility.yul\":4685:4706   */\n      mstore\n        /* \"#utility.yul\":4737:4741   */\n      0x20\n        /* \"#utility.yul\":4730:4735   */\n      dup2\n        /* \"#utility.yul\":4726:4742   */\n      add\n        /* \"#utility.yul\":4775:4778   */\n      dup5\n        /* \"#utility.yul\":4766:4772   */\n      dup5\n        /* \"#utility.yul\":4761:4764   */\n      dup5\n        /* \"#utility.yul\":4757:4773   */\n      add\n        /* \"#utility.yul\":4754:4779   */\n      gt\n        /* \"#utility.yul\":4751:4863   */\n      iszero\n      tag_150\n      jumpi\n        /* \"#utility.yul\":4782:4861   */\n      tag_151\n      tag_66\n      jump\t// in\n    tag_151:\n        /* \"#utility.yul\":4751:4863   */\n    tag_150:\n        /* \"#utility.yul\":4872:4926   */\n      tag_152\n        /* \"#utility.yul\":4919:4925   */\n      dup5\n        /* \"#utility.yul\":4914:4917   */\n      dup3\n        /* \"#utility.yul\":4909:4912   */\n      dup6\n        /* \"#utility.yul\":4872:4926   */\n      tag_71\n      jump\t// in\n    tag_152:\n        /* \"#utility.yul\":4591:4932   */\n      pop\n        /* \"#utility.yul\":4507:4932   */\n      swap4\n      swap3\n      pop\n      pop\n      pop\n      jump\t// out\n        /* \"#utility.yul\":4952:5292   */\n    tag_73:\n        /* \"#utility.yul\":5008:5013   */\n      0x00\n        /* \"#utility.yul\":5057:5060   */\n      dup3\n        /* \"#utility.yul\":5050:5054   */\n      0x1f\n        /* \"#utility.yul\":5042:5048   */\n      dup4\n        /* \"#utility.yul\":5038:5055   */\n      add\n        /* \"#utility.yul\":5034:5061   */\n      slt\n        /* \"#utility.yul\":5024:5146   */\n      tag_154\n      jumpi\n        /* \"#utility.yul\":5065:5144   */\n      tag_155\n      tag_65\n      jump\t// in\n    tag_155:\n        /* \"#utility.yul\":5024:5146   */\n    tag_154:\n        /* \"#utility.yul\":5182:5188   */\n      dup2\n        /* \"#utility.yul\":5169:5189   */\n      calldataload\n        /* \"#utility.yul\":5207:5286   */\n      tag_156\n        /* \"#utility.yul\":5282:5285   */\n      dup5\n        /* \"#utility.yul\":5274:5280   */\n      dup3\n        /* \"#utility.yul\":5267:5271   */\n      0x20\n        /* \"#utility.yul\":5259:5265   */\n      dup7\n        /* \"#utility.yul\":5255:5272   */\n      add\n        /* \"#utility.yul\":5207:5286   */\n      tag_72\n      jump\t// in\n    tag_156:\n        /* \"#utility.yul\":5198:5286   */\n      swap2\n      pop\n        /* \"#utility.yul\":5014:5292   */\n      pop\n        /* \"#utility.yul\":4952:5292   */\n      swap3\n      swap2\n      pop\n      pop\n      jump\t// out\n        /* \"#utility.yul\":5298:5807   */\n    tag_19:\n        /* \"#utility.yul\":5367:5373   */\n      0x00\n        /* \"#utility.yul\":5416:5418   */\n      0x20\n        /* \"#utility.yul\":5404:5413   */\n      dup3\n        /* \"#utility.yul\":5395:5402   */\n      dup5\n        /* \"#utility.yul\":5391:5414   */\n      sub\n        /* \"#utility.yul\":5387:5419   */\n      slt\n        /* \"#utility.yul\":5384:5503   */\n      iszero\n      tag_158\n      jumpi\n        /* \"#utility.yul\":5422:5501   */\n      tag_159\n      tag_51\n      jump\t// in\n    tag_159:\n        /* \"#utility.yul\":5384:5503   */\n    tag_158:\n        /* \"#utility.yul\":5570:5571   */\n      0x00\n        /* \"#utility.yul\":5559:5568   */\n      dup3\n        /* \"#utility.yul\":5555:5572   */\n      add\n        /* \"#utility.yul\":5542:5573   */\n      calldataload\n        /* \"#utility.yul\":5600:5618   */\n      0xffffffffffffffff\n        /* \"#utility.yul\":5592:5598   */\n      dup2\n        /* \"#utility.yul\":5589:5619   */\n      gt\n        /* \"#utility.yul\":5586:5703   */\n      iszero\n      tag_160\n      jumpi\n        /* \"#utility.yul\":5622:5701   */\n      tag_161\n      tag_52\n      jump\t// in\n    tag_161:\n        /* \"#utility.yul\":5586:5703   */\n    tag_160:\n        /* \"#utility.yul\":5727:5790   */\n      tag_162\n        /* \"#utility.yul\":5782:5789   */\n      dup5\n        /* \"#utility.yul\":5773:5779   */\n      dup3\n        /* \"#utility.yul\":5762:5771   */\n      dup6\n        /* \"#utility.yul\":5758:5780   */\n      add\n        /* \"#utility.yul\":5727:5790   */\n      tag_73\n      jump\t// in\n    tag_162:\n        /* \"#utility.yul\":5717:5790   */\n      swap2\n      pop\n        /* \"#utility.yul\":5513:5800   */\n      pop\n        /* \"#utility.yul\":5298:5807   */\n      swap3\n      swap2\n      pop\n      pop\n      jump\t// out\n        /* \"#utility.yul\":5813:5993   */\n    tag_74:\n        /* \"#utility.yul\":5861:5938   */\n      0x4e487b7100000000000000000000000000000000000000000000000000000000\n        /* \"#utility.yul\":5858:5859   */\n      0x00\n        /* \"#utility.yul\":5851:5939   */\n      mstore\n        /* \"#utility.yul\":5958:5962   */\n      0x22\n        /* \"#utility.yul\":5955:5956   */\n      0x04\n        /* \"#utility.yul\":5948:5963   */\n      mstore\n        /* \"#utility.yul\":5982:5986   */\n      0x24\n        /* \"#utility.yul\":5979:5980   */\n      0x00\n        /* \"#utility.yul\":5972:5987   */\n      revert\n        /* \"#utility.yul\":5999:6319   */\n    tag_24:\n        /* \"#utility.yul\":6043:6049   */\n      0x00\n        /* \"#utility.yul\":6080:6081   */\n      0x02\n        /* \"#utility.yul\":6074:6078   */\n      dup3\n        /* \"#utility.yul\":6070:6082   */\n      div\n        /* \"#utility.yul\":6060:6082   */\n      swap1\n      pop\n        /* \"#utility.yul\":6127:6128   */\n      0x01\n        /* \"#utility.yul\":6121:6125   */\n      dup3\n        /* \"#utility.yul\":6117:6129   */\n      and\n        /* \"#utility.yul\":6148:6166   */\n      dup1\n        /* \"#utility.yul\":6138:6219   */\n      tag_165\n      jumpi\n        /* \"#utility.yul\":6204:6208   */\n      0x7f\n        /* \"#utility.yul\":6196:6202   */\n      dup3\n        /* \"#utility.yul\":6192:6209   */\n      and\n        /* \"#utility.yul\":6182:6209   */\n      swap2\n      pop\n        /* \"#utility.yul\":6138:6219   */\n    tag_165:\n        /* \"#utility.yul\":6266:6268   */\n      0x20\n        /* \"#utility.yul\":6258:6264   */\n      dup3\n        /* \"#utility.yul\":6255:6269   */\n      lt\n        /* \"#utility.yul\":6235:6253   */\n      dup2\n        /* \"#utility.yul\":6232:6270   */\n      sub\n        /* \"#utility.yul\":6229:6313   */\n      tag_166\n      jumpi\n        /* \"#utility.yul\":6285:6303   */\n      tag_167\n      tag_74\n      jump\t// in\n    tag_167:\n        /* \"#utility.yul\":6229:6313   */\n    tag_166:\n        /* \"#utility.yul\":6050:6319   */\n      pop\n        /* \"#utility.yul\":5999:6319   */\n      swap2\n      swap1\n      pop\n      jump\t// out\n        /* \"#utility.yul\":6325:6473   */\n    tag_75:\n        /* \"#utility.yul\":6427:6438   */\n      0x00\n        /* \"#utility.yul\":6464:6467   */\n      dup2\n        /* \"#utility.yul\":6449:6467   */\n      swap1\n      pop\n        /* \"#utility.yul\":6325:6473   */\n      swap3\n      swap2\n      pop\n      pop\n      jump\t// out\n        /* \"#utility.yul\":6479:6869   */\n    tag_76:\n        /* \"#utility.yul\":6585:6588   */\n      0x00\n        /* \"#utility.yul\":6613:6652   */\n      tag_170\n        /* \"#utility.yul\":6646:6651   */\n      dup3\n        /* \"#utility.yul\":6613:6652   */\n      tag_56\n      jump\t// in\n    tag_170:\n        /* \"#utility.yul\":6668:6757   */\n      tag_171\n        /* \"#utility.yul\":6750:6756   */\n      dup2\n        /* \"#utility.yul\":6745:6748   */\n      dup6\n        /* \"#utility.yul\":6668:6757   */\n      tag_75\n      jump\t// in\n    tag_171:\n        /* \"#utility.yul\":6661:6757   */\n      swap4\n      pop\n        /* \"#utility.yul\":6766:6831   */\n      tag_172\n        /* \"#utility.yul\":6824:6830   */\n      dup2\n        /* \"#utility.yul\":6819:6822   */\n      dup6\n        /* \"#utility.yul\":6812:6816   */\n      0x20\n        /* \"#utility.yul\":6805:6810   */\n      dup7\n        /* \"#utility.yul\":6801:6817   */\n      add\n        /* \"#utility.yul\":6766:6831   */\n      tag_58\n      jump\t// in\n    tag_172:\n        /* \"#utility.yul\":6856:6862   */\n      dup1\n        /* \"#utility.yul\":6851:6854   */\n      dup5\n        /* \"#utility.yul\":6847:6863   */\n      add\n        /* \"#utility.yul\":6840:6863   */\n      swap2\n      pop\n        /* \"#utility.yul\":6589:6869   */\n      pop\n        /* \"#utility.yul\":6479:6869   */\n      swap3\n      swap2\n      pop\n      pop\n      jump\t// out\n        /* \"#utility.yul\":6875:7150   */\n    tag_37:\n        /* \"#utility.yul\":7007:7010   */\n      0x00\n        /* \"#utility.yul\":7029:7124   */\n      tag_174\n        /* \"#utility.yul\":7120:7123   */\n      dup3\n        /* \"#utility.yul\":7111:7117   */\n      dup5\n        /* \"#utility.yul\":7029:7124   */\n      tag_76\n      jump\t// in\n    tag_174:\n        /* \"#utility.yul\":7022:7124   */\n      swap2\n      pop\n        /* \"#utility.yul\":7141:7144   */\n      dup2\n        /* \"#utility.yul\":7134:7144   */\n      swap1\n      pop\n        /* \"#utility.yul\":6875:7150   */\n      swap3\n      swap2\n      pop\n      pop\n      jump\t// out\n        /* \"#utility.yul\":7156:7336   */\n    tag_77:\n        /* \"#utility.yul\":7204:7281   */\n      0x4e487b7100000000000000000000000000000000000000000000000000000000\n        /* \"#utility.yul\":7201:7202   */\n      0x00\n        /* \"#utility.yul\":7194:7282   */\n      mstore\n        /* \"#utility.yul\":7301:7305   */\n      0x12\n        /* \"#utility.yul\":7298:7299   */\n      0x04\n        /* \"#utility.yul\":7291:7306   */\n      mstore\n        /* \"#utility.yul\":7325:7329   */\n      0x24\n        /* \"#utility.yul\":7322:7323   */\n      0x00\n        /* \"#utility.yul\":7315:7330   */\n      revert\n        /* \"#utility.yul\":7342:7518   */\n    tag_39:\n        /* \"#utility.yul\":7374:7375   */\n      0x00\n        /* \"#utility.yul\":7391:7411   */\n      tag_177\n        /* \"#utility.yul\":7409:7410   */\n      dup3\n        /* \"#utility.yul\":7391:7411   */\n      tag_53\n      jump\t// in\n    tag_177:\n        /* \"#utility.yul\":7386:7411   */\n      swap2\n      pop\n        /* \"#utility.yul\":7425:7445   */\n      tag_178\n        /* \"#utility.yul\":7443:7444   */\n      dup4\n        /* \"#utility.yul\":7425:7445   */\n      tag_53\n      jump\t// in\n    tag_178:\n        /* \"#utility.yul\":7420:7445   */\n      swap3\n      pop\n        /* \"#utility.yul\":7464:7465   */\n      dup3\n        /* \"#utility.yul\":7454:7489   */\n      tag_179\n      jumpi\n        /* \"#utility.yul\":7469:7487   */\n      tag_180\n      tag_77\n      jump\t// in\n    tag_180:\n        /* \"#utility.yul\":7454:7489   */\n    tag_179:\n        /* \"#utility.yul\":7510:7511   */\n      dup3\n        /* \"#utility.yul\":7507:7508   */\n      dup3\n        /* \"#utility.yul\":7503:7512   */\n      mod\n        /* \"#utility.yul\":7498:7512   */\n      swap1\n      pop\n        /* \"#utility.yul\":7342:7518   */\n      swap3\n      swap2\n      pop\n      pop\n      jump\t// out\n        /* \"#utility.yul\":7524:7665   */\n    tag_78:\n        /* \"#utility.yul\":7573:7577   */\n      0x00\n        /* \"#utility.yul\":7596:7599   */\n      dup2\n        /* \"#utility.yul\":7588:7599   */\n      swap1\n      pop\n        /* \"#utility.yul\":7619:7622   */\n      dup2\n        /* \"#utility.yul\":7616:7617   */\n      0x00\n        /* \"#utility.yul\":7609:7623   */\n      mstore\n        /* \"#utility.yul\":7653:7657   */\n      0x20\n        /* \"#utility.yul\":7650:7651   */\n      0x00\n        /* \"#utility.yul\":7640:7658   */\n      keccak256\n        /* \"#utility.yul\":7632:7658   */\n      swap1\n      pop\n        /* \"#utility.yul\":7524:7665   */\n      swap2\n      swap1\n      pop\n      jump\t// out\n        /* \"#utility.yul\":7671:7764   */\n    tag_79:\n        /* \"#utility.yul\":7708:7714   */\n      0x00\n        /* \"#utility.yul\":7755:7757   */\n      0x20\n        /* \"#utility.yul\":7750:7752   */\n      0x1f\n        /* \"#utility.yul\":7743:7748   */\n      dup4\n        /* \"#utility.yul\":7739:7753   */\n      add\n        /* \"#utility.yul\":7735:7758   */\n      div\n        /* \"#utility.yul\":7725:7758   */\n      swap1\n      pop\n        /* \"#utility.yul\":7671:7764   */\n      swap2\n      swap1\n      pop\n      jump\t// out\n        /* \"#utility.yul\":7770:7877   */\n    tag_80:\n        /* \"#utility.yul\":7814:7822   */\n      0x00\n        /* \"#utility.yul\":7864:7869   */\n      dup3\n        /* \"#utility.yul\":7858:7862   */\n      dup3\n        /* \"#utility.yul\":7854:7870   */\n      shl\n        /* \"#utility.yul\":7833:7870   */\n      swap1\n      pop\n        /* \"#utility.yul\":7770:7877   */\n      swap3\n      swap2\n      pop\n      pop\n      jump\t// out\n        /* \"#utility.yul\":7883:8276   */\n    tag_81:\n        /* \"#utility.yul\":7952:7958   */\n      0x00\n        /* \"#utility.yul\":8002:8003   */\n      0x08\n        /* \"#utility.yul\":7990:8000   */\n      dup4\n        /* \"#utility.yul\":7986:8004   */\n      mul\n        /* \"#utility.yul\":8025:8122   */\n      tag_185\n        /* \"#utility.yul\":8055:8121   */\n      0xffffffffffffffffffffffffffffffffffffffffffffffffffffffffffffffff\n        /* \"#utility.yul\":8044:8053   */\n      dup3\n        /* \"#utility.yul\":8025:8122   */\n      tag_80\n      jump\t// in\n    tag_185:\n        /* \"#utility.yul\":8143:8182   */\n      tag_186\n        /* \"#utility.yul\":8173:8181   */\n      dup7\n        /* \"#utility.yul\":8162:8171   */\n      dup4\n        /* \"#utility.yul\":8143:8182   */\n      tag_80\n      jump\t// in\n    tag_186:\n        /* \"#utility.yul\":8131:8182   */\n      swap6\n      pop\n        /* \"#utility.yul\":8215:8219   */\n      dup1\n        /* \"#utility.yul\":8211:8220   */\n      not\n        /* \"#utility.yul\":8204:8209   */\n      dup5\n        /* \"#utility.yul\":8200:8221   */\n      and\n        /* \"#utility.yul\":8191:8221   */\n      swap4\n      pop\n        /* \"#utility.yul\":8264:8268   */\n      dup1\n        /* \"#utility.yul\":8254:8262   */\n      dup7\n        /* \"#utility.yul\":8250:8269   */\n      and\n        /* \"#utility.yul\":8243:8248   */\n      dup5\n        /* \"#utility.yul\":8240:8270   */\n      or\n        /* \"#utility.yul\":8230:8270   */\n      swap3\n      pop\n        /* \"#utility.yul\":7959:8276   */\n      pop\n      pop\n        /* \"#utility.yul\":7883:8276   */\n      swap4\n      swap3\n      pop\n      pop\n      pop\n      jump\t// out\n        /* \"#utility.yul\":8282:8342   */\n    tag_82:\n        /* \"#utility.yul\":8310:8313   */\n      0x00\n        /* \"#utility.yul\":8331:8336   */\n      dup2\n        /* \"#utility.yul\":8324:8336   */\n      swap1\n      pop\n        /* \"#utility.yul\":8282:8342   */\n      swap2\n      swap1\n      pop\n      jump\t// out\n        /* \"#utility.yul\":8348:8490   */\n    tag_83:\n        /* \"#utility.yul\":8398:8407   */\n      0x00\n        /* \"#utility.yul\":8431:8484   */\n      tag_189\n        /* \"#utility.yul\":8449:8483   */\n      tag_190\n        /* \"#utility.yul\":8458:8482   */\n      tag_191\n        /* \"#utility.yul\":8476:8481   */\n      dup5\n        /* \"#utility.yul\":8458:8482   */\n      tag_53\n      jump\t// in\n    tag_191:\n        /* \"#utility.yul\":8449:8483   */\n      tag_82\n      jump\t// in\n    tag_190:\n        /* \"#utility.yul\":8431:8484   */\n      tag_53\n      jump\t// in\n    tag_189:\n        /* \"#utility.yul\":8418:8484   */\n      swap1\n      pop\n        /* \"#utility.yul\":8348:8490   */\n      swap2\n      swap1\n      pop\n      jump\t// out\n        /* \"#utility.yul\":8496:8571   */\n    tag_84:\n        /* \"#utility.yul\":8539:8542   */\n      0x00\n        /* \"#utility.yul\":8560:8565   */\n      dup2\n        /* \"#utility.yul\":8553:8565   */\n      swap1\n      pop\n        /* \"#utility.yul\":8496:8571   */\n      swap2\n      swap1\n      pop\n      jump\t// out\n        /* \"#utility.yul\":8577:8846   */\n    tag_85:\n        /* \"#utility.yul\":8687:8726   */\n      tag_194\n        /* \"#utility.yul\":8718:8725   */\n      dup4\n        /* \"#utility.yul\":8687:8726   */\n      tag_83\n      jump\t// in\n    tag_194:\n        /* \"#utility.yul\":8748:8839   */\n      tag_195\n        /* \"#utility.yul\":8797:8838   */\n      tag_196\n        /* \"#utility.yul\":8821:8837   */\n      dup3\n        /* \"#utility.yul\":8797:8838   */\n      tag_84\n      jump\t// in\n    tag_196:\n        /* \"#utility.yul\":8789:8795   */\n      dup5\n        /* \"#utility.yul\":8782:8786   */\n      dup5\n        /* \"#utility.yul\":8776:8787   */\n      sload\n        /* \"#utility.yul\":8748:8839   */\n      tag_81\n      jump\t// in\n    tag_195:\n        /* \"#utility.yul\":8742:8746   */\n      dup3\n        /* \"#utility.yul\":8735:8840   */\n      sstore\n        /* \"#utility.yul\":8653:8846   */\n      pop\n        /* \"#utility.yul\":8577:8846   */\n      pop\n      pop\n      pop\n      jump\t// out\n        /* \"#utility.yul\":8852:8925   */\n    tag_86:\n        /* \"#utility.yul\":8897:8900   */\n      0x00\n        /* \"#utility.yul\":8852:8925   */\n      swap1\n      jump\t// out\n        /* \"#utility.yul\":8931:9120   */\n    tag_87:\n        /* \"#utility.yul\":9008:9040   */\n      tag_199\n      tag_86\n      jump\t// in\n    tag_199:\n        /* \"#utility.yul\":9049:9114   */\n      tag_200\n        /* \"#utility.yul\":9107:9113   */\n      dup2\n        /* \"#utility.yul\":9099:9105   */\n      dup5\n        /* \"#utility.yul\":9093:9097   */\n      dup5\n        /* \"#utility.yul\":9049:9114   */\n      tag_85\n      jump\t// in\n    tag_200:\n        /* \"#utility.yul\":8984:9120   */\n      pop\n        /* \"#utility.yul\":8931:9120   */\n      pop\n      pop\n      jump\t// out\n        /* \"#utility.yul\":9126:9312   */\n    tag_88:\n        /* \"#utility.yul\":9186:9306   */\n    tag_202:\n        /* \"#utility.yul\":9203:9206   */\n      dup2\n        /* \"#utility.yul\":9196:9201   */\n      dup2\n        /* \"#utility.yul\":9193:9207   */\n      lt\n        /* \"#utility.yul\":9186:9306   */\n      iszero\n      tag_204\n      jumpi\n        /* \"#utility.yul\":9257:9296   */\n      tag_205\n        /* \"#utility.yul\":9294:9295   */\n      0x00\n        /* \"#utility.yul\":9287:9292   */\n      dup3\n        /* \"#utility.yul\":9257:9296   */\n      tag_87\n      jump\t// in\n    tag_205:\n        /* \"#utility.yul\":9230:9231   */\n      0x01\n        /* \"#utility.yul\":9223:9228   */\n      dup2\n        /* \"#utility.yul\":9219:9232   */\n      add\n        /* \"#utility.yul\":9210:9232   */\n      swap1\n      pop\n        /* \"#utility.yul\":9186:9306   */\n      jump(tag_202)\n    tag_204:\n        /* \"#utility.yul\":9126:9312   */\n      pop\n      pop\n      jump\t// out\n        /* \"#utility.yul\":9318:9861   */\n    tag_89:\n        /* \"#utility.yul\":9419:9421   */\n      0x1f\n        /* \"#utility.yul\":9414:9417   */\n      dup3\n        /* \"#utility.yul\":9411:9422   */\n      gt\n        /* \"#utility.yul\":9408:9854   */\n      iszero\n      tag_207\n      jumpi\n        /* \"#utility.yul\":9453:9491   */\n      tag_208\n        /* \"#utility.yul\":9485:9490   */\n      dup2\n        /* \"#utility.yul\":9453:9491   */\n      tag_78\n      jump\t// in\n    tag_208:\n        /* \"#utility.yul\":9537:9566   */\n      tag_209\n        /* \"#utility.yul\":9555:9565   */\n      dup5\n        /* \"#utility.yul\":9537:9566   */\n      tag_79\n      jump\t// in\n    tag_209:\n        /* \"#utility.yul\":9527:9535   */\n      dup2\n        /* \"#utility.yul\":9523:9567   */\n      add\n        /* \"#utility.yul\":9720:9722   */\n      0x20\n        /* \"#utility.yul\":9708:9718   */\n      dup6\n        /* \"#utility.yul\":9705:9723   */\n      lt\n        /* \"#utility.yul\":9702:9751   */\n      iszero\n      tag_210\n      jumpi\n        /* \"#utility.yul\":9741:9749   */\n      dup2\n        /* \"#utility.yul\":9726:9749   */\n      swap1\n      pop\n        /* \"#utility.yul\":9702:9751   */\n    tag_210:\n        /* \"#utility.yul\":9764:9844   */\n      tag_211\n        /* \"#utility.yul\":9820:9842   */\n      tag_212\n        /* \"#utility.yul\":9838:9841   */\n      dup6\n        /* \"#utility.yul\":9820:9842   */\n      tag_79\n      jump\t// in\n    tag_212:\n        /* \"#utility.yul\":9810:9818   */\n      dup4\n        /* \"#utility.yul\":9806:9843   */\n      add\n        /* \"#utility.yul\":9793:9804   */\n      dup3\n        /* \"#utility.yul\":9764:9844   */\n      tag_88\n      jump\t// in\n    tag_211:\n        /* \"#utility.yul\":9423:9854   */\n      pop\n      pop\n        /* \"#utility.yul\":9408:9854   */\n    tag_207:\n        /* \"#utility.yul\":9318:9861   */\n      pop\n      pop\n      pop\n      jump\t// out\n        /* \"#utility.yul\":9867:9984   */\n    tag_90:\n        /* \"#utility.yul\":9921:9929   */\n      0x00\n        /* \"#utility.yul\":9971:9976   */\n      dup3\n        /* \"#utility.yul\":9965:9969   */\n      dup3\n        /* \"#utility.yul\":9961:9977   */\n      shr\n        /* \"#utility.yul\":9940:9977   */\n      swap1\n      pop\n        /* \"#utility.yul\":9867:9984   */\n      swap3\n      swap2\n      pop\n      pop\n      jump\t// out\n        /* \"#utility.yul\":9990:10159   */\n    tag_91:\n        /* \"#utility.yul\":10034:10040   */\n      0x00\n        /* \"#utility.yul\":10067:10118   */\n      tag_215\n        /* \"#utility.yul\":10115:10116   */\n      0x00\n        /* \"#utility.yul\":10111:10117   */\n      not\n        /* \"#utility.yul\":10103:10108   */\n      dup5\n        /* \"#utility.yul\":10100:10101   */\n      0x08\n        /* \"#utility.yul\":10096:10109   */\n      mul\n        /* \"#utility.yul\":10067:10118   */\n      tag_90\n      jump\t// in\n    tag_215:\n        /* \"#utility.yul\":10063:10119   */\n      not\n        /* \"#utility.yul\":10148:10152   */\n      dup1\n        /* \"#utility.yul\":10142:10146   */\n      dup4\n        /* \"#utility.yul\":10138:10153   */\n      and\n        /* \"#utility.yul\":10128:10153   */\n      swap2\n      pop\n        /* \"#utility.yul\":10041:10159   */\n      pop\n        /* \"#utility.yul\":9990:10159   */\n      swap3\n      swap2\n      pop\n      pop\n      jump\t// out\n        /* \"#utility.yul\":10164:10459   */\n    tag_92:\n        /* \"#utility.yul\":10240:10244   */\n      0x00\n        /* \"#utility.yul\":10386:10415   */\n      tag_217\n        /* \"#utility.yul\":10411:10414   */\n      dup4\n        /* \"#utility.yul\":10405:10409   */\n      dup4\n        /* \"#utility.yul\":10386:10415   */\n      tag_91\n      jump\t// in\n    tag_217:\n        /* \"#utility.yul\":10378:10415   */\n      swap2\n      pop\n        /* \"#utility.yul\":10448:10451   */\n      dup3\n        /* \"#utility.yul\":10445:10446   */\n      0x02\n        /* \"#utility.yul\":10441:10452   */\n      mul\n        /* \"#utility.yul\":10435:10439   */\n      dup3\n        /* \"#utility.yul\":10432:10453   */\n      or\n        /* \"#utility.yul\":10424:10453   */\n      swap1\n      pop\n        /* \"#utility.yul\":10164:10459   */\n      swap3\n      swap2\n      pop\n      pop\n      jump\t// out\n        /* \"#utility.yul\":10464:11859   */\n    tag_43:\n        /* \"#utility.yul\":10581:10618   */\n      tag_219\n        /* \"#utility.yul\":10614:10617   */\n      dup3\n        /* \"#utility.yul\":10581:10618   */\n      tag_56\n      jump\t// in\n    tag_219:\n        /* \"#utility.yul\":10683:10701   */\n      0xffffffffffffffff\n        /* \"#utility.yul\":10675:10681   */\n      dup2\n        /* \"#utility.yul\":10672:10702   */\n      gt\n        /* \"#utility.yul\":10669:10725   */\n      iszero\n      tag_220\n      jumpi\n        /* \"#utility.yul\":10705:10723   */\n      tag_221\n      tag_67\n      jump\t// in\n    tag_221:\n        /* \"#utility.yul\":10669:10725   */\n    tag_220:\n        /* \"#utility.yul\":10749:10787   */\n      tag_222\n        /* \"#utility.yul\":10781:10785   */\n      dup3\n        /* \"#utility.yul\":10775:10786   */\n      sload\n        /* \"#utility.yul\":10749:10787   */\n      tag_24\n      jump\t// in\n    tag_222:\n        /* \"#utility.yul\":10834:10901   */\n      tag_223\n        /* \"#utility.yul\":10894:10900   */\n      dup3\n        /* \"#utility.yul\":10886:10892   */\n      dup3\n        /* \"#utility.yul\":10880:10884   */\n      dup6\n        /* \"#utility.yul\":10834:10901   */\n      tag_89\n      jump\t// in\n    tag_223:\n        /* \"#utility.yul\":10928:10929   */\n      0x00\n        /* \"#utility.yul\":10952:10956   */\n      0x20\n        /* \"#utility.yul\":10939:10956   */\n      swap1\n      pop\n        /* \"#utility.yul\":10984:10986   */\n      0x1f\n        /* \"#utility.yul\":10976:10982   */\n      dup4\n        /* \"#utility.yul\":10973:10987   */\n      gt\n        /* \"#utility.yul\":11001:11002   */\n      0x01\n        /* \"#utility.yul\":10996:11614   */\n      dup2\n      eq\n      tag_225\n      jumpi\n        /* \"#utility.yul\":11658:11659   */\n      0x00\n        /* \"#utility.yul\":11675:11681   */\n      dup5\n        /* \"#utility.yul\":11672:11749   */\n      iszero\n      tag_226\n      jumpi\n        /* \"#utility.yul\":11724:11733   */\n      dup3\n        /* \"#utility.yul\":11719:11722   */\n      dup8\n        /* \"#utility.yul\":11715:11734   */\n      add\n        /* \"#utility.yul\":11709:11735   */\n      mload\n        /* \"#utility.yul\":11700:11735   */\n      swap1\n      pop\n        /* \"#utility.yul\":11672:11749   */\n    tag_226:\n        /* \"#utility.yul\":11775:11842   */\n      tag_227\n        /* \"#utility.yul\":11835:11841   */\n      dup6\n        /* \"#utility.yul\":11828:11833   */\n      dup3\n        /* \"#utility.yul\":11775:11842   */\n      tag_92\n      jump\t// in\n    tag_227:\n        /* \"#utility.yul\":11769:11773   */\n      dup7\n        /* \"#utility.yul\":11762:11843   */\n      sstore\n        /* \"#utility.yul\":11631:11853   */\n      pop\n        /* \"#utility.yul\":10966:11853   */\n      jump(tag_224)\n        /* \"#utility.yul\":10996:11614   */\n    tag_225:\n        /* \"#utility.yul\":11048:11052   */\n      0x1f\n        /* \"#utility.yul\":11044:11053   */\n      not\n        /* \"#utility.yul\":11036:11042   */\n      dup5\n        /* \"#utility.yul\":11032:11054   */\n      and\n        /* \"#utility.yul\":11082:11119   */\n      tag_228\n        /* \"#utility.yul\":11114:11118   */\n      dup7\n        /* \"#utility.yul\":11082:11119   */\n      tag_78\n      jump\t// in\n    tag_228:\n        /* \"#utility.yul\":11141:11142   */\n      0x00\n        /* \"#utility.yul\":11155:11363   */\n    tag_229:\n        /* \"#utility.yul\":11169:11176   */\n      dup3\n        /* \"#utility.yul\":11166:11167   */\n      dup2\n        /* \"#utility.yul\":11163:11177   */\n      lt\n        /* \"#utility.yul\":11155:11363   */\n      iszero\n      tag_231\n      jumpi\n        /* \"#utility.yul\":11248:11257   */\n      dup5\n        /* \"#utility.yul\":11243:11246   */\n      dup10\n        /* \"#utility.yul\":11239:11258   */\n      add\n        /* \"#utility.yul\":11233:11259   */\n      mload\n        /* \"#utility.yul\":11225:11231   */\n      dup3\n        /* \"#utility.yul\":11218:11260   */\n      sstore\n        /* \"#utility.yul\":11299:11300   */\n      0x01\n        /* \"#utility.yul\":11291:11297   */\n      dup3\n        /* \"#utility.yul\":11287:11301   */\n      add\n        /* \"#utility.yul\":11277:11301   */\n      swap2\n      pop\n        /* \"#utility.yul\":11346:11348   */\n      0x20\n        /* \"#utility.yul\":11335:11344   */\n      dup6\n        /* \"#utility.yul\":11331:11349   */\n      add\n        /* \"#utility.yul\":11318:11349   */\n      swap5\n      pop\n        /* \"#utility.yul\":11192:11196   */\n      0x20\n        /* \"#utility.yul\":11189:11190   */\n      dup2\n        /* \"#utility.yul\":11185:11197   */\n      add\n        /* \"#utility.yul\":11180:11197   */\n      swap1\n      pop\n        /* \"#utility.yul\":11155:11363   */\n      jump(tag_229)\n    tag_231:\n        /* \"#utility.yul\":11391:11397   */\n      dup7\n        /* \"#utility.yul\":11382:11389   */\n      dup4\n        /* \"#utility.yul\":11379:11398   */\n      lt\n        /* \"#utility.yul\":11376:11555   */\n      iszero\n      tag_232\n      jumpi\n        /* \"#utility.yul\":11449:11458   */\n      dup5\n        /* \"#utility.yul\":11444:11447   */\n      dup10\n        /* \"#utility.yul\":11440:11459   */\n      add\n        /* \"#utility.yul\":11434:11460   */\n      mload\n        /* \"#utility.yul\":11492:11540   */\n      tag_233\n        /* \"#utility.yul\":11534:11538   */\n      0x1f\n        /* \"#utility.yul\":11526:11532   */\n      dup10\n        /* \"#utility.yul\":11522:11539   */\n      and\n        /* \"#utility.yul\":11511:11520   */\n      dup3\n        /* \"#utility.yul\":11492:11540   */\n      tag_91\n      jump\t// in\n    tag_233:\n        /* \"#utility.yul\":11484:11490   */\n      dup4\n        /* \"#utility.yul\":11477:11541   */\n      sstore\n        /* \"#utility.yul\":11399:11555   */\n      pop\n        /* \"#utility.yul\":11376:11555   */\n    tag_232:\n        /* \"#utility.yul\":11601:11602   */\n      0x01\n        /* \"#utility.yul\":11597:11598   */\n      0x02\n        /* \"#utility.yul\":11589:11595   */\n      dup9\n        /* \"#utility.yul\":11585:11599   */\n      mul\n        /* \"#utility.yul\":11581:11603   */\n      add\n        /* \"#utility.yul\":11575:11579   */\n      dup9\n        /* \"#utility.yul\":11568:11604   */\n      sstore\n        /* \"#utility.yul\":11003:11614   */\n      pop\n      pop\n      pop\n        /* \"#utility.yul\":10966:11853   */\n    tag_224:\n      pop\n        /* \"#utility.yul\":10556:11859   */\n      pop\n      pop\n      pop\n        /* \"#utility.yul\":10464:11859   */\n      pop\n      pop\n      jump\t// out\n        /* \"#utility.yul\":11865:12045   */\n    tag_93:\n        /* \"#utility.yul\":11913:11990   */\n      0x4e487b7100000000000000000000000000000000000000000000000000000000\n        /* \"#utility.yul\":11910:11911   */\n      0x00\n        /* \"#utility.yul\":11903:11991   */\n      mstore\n        /* \"#utility.yul\":12010:12014   */\n      0x11\n        /* \"#utility.yul\":12007:12008   */\n      0x04\n        /* \"#utility.yul\":12000:12015   */\n      mstore\n        /* \"#utility.yul\":12034:12038   */\n      0x24\n        /* \"#utility.yul\":12031:12032   */\n      0x00\n        /* \"#utility.yul\":12024:12039   */\n      revert\n        /* \"#utility.yul\":12051:12245   */\n    tag_45:\n        /* \"#utility.yul\":12091:12095   */\n      0x00\n        /* \"#utility.yul\":12111:12131   */\n      tag_236\n        /* \"#utility.yul\":12129:12130   */\n      dup3\n        /* \"#utility.yul\":12111:12131   */\n      tag_53\n      jump\t// in\n    tag_236:\n        /* \"#utility.yul\":12106:12131   */\n      swap2\n      pop\n        /* \"#utility.yul\":12145:12165   */\n      tag_237\n        /* \"#utility.yul\":12163:12164   */\n      dup4\n        /* \"#utility.yul\":12145:12165   */\n      tag_53\n      jump\t// in\n    tag_237:\n        /* \"#utility.yul\":12140:12165   */\n      swap3\n      pop\n        /* \"#utility.yul\":12189:12190   */\n      dup3\n        /* \"#utility.yul\":12186:12187   */\n      dup3\n        /* \"#utility.yul\":12182:12191   */\n      sub\n        /* \"#utility.yul\":12174:12191   */\n      swap1\n      pop\n        /* \"#utility.yul\":12213:12214   */\n      dup2\n        /* \"#utility.yul\":12207:12211   */\n      dup2\n        /* \"#utility.yul\":12204:12215   */\n      gt\n        /* \"#utility.yul\":12201:12238   */\n      iszero\n      tag_238\n      jumpi\n        /* \"#utility.yul\":12218:12236   */\n      tag_239\n      tag_93\n      jump\t// in\n    tag_239:\n        /* \"#utility.yul\":12201:12238   */\n    tag_238:\n        /* \"#utility.yul\":12051:12245   */\n      swap3\n      swap2\n      pop\n      pop\n      jump\t// out\n        /* \"#utility.yul\":12251:12484   */\n    tag_47:\n        /* \"#utility.yul\":12290:12293   */\n      0x00\n        /* \"#utility.yul\":12313:12337   */\n      tag_241\n        /* \"#utility.yul\":12331:12336   */\n      dup3\n        /* \"#utility.yul\":12313:12337   */\n      tag_53\n      jump\t// in\n    tag_241:\n        /* \"#utility.yul\":12304:12337   */\n      swap2\n      pop\n        /* \"#utility.yul\":12359:12425   */\n      0xffffffffffffffffffffffffffffffffffffffffffffffffffffffffffffffff\n        /* \"#utility.yul\":12352:12357   */\n      dup3\n        /* \"#utility.yul\":12349:12426   */\n      sub\n        /* \"#utility.yul\":12346:12449   */\n      tag_242\n      jumpi\n        /* \"#utility.yul\":12429:12447   */\n      tag_243\n      tag_93\n      jump\t// in\n    tag_243:\n        /* \"#utility.yul\":12346:12449   */\n    tag_242:\n        /* \"#utility.yul\":12476:12477   */\n      0x01\n        /* \"#utility.yul\":12469:12474   */\n      dup3\n        /* \"#utility.yul\":12465:12478   */\n      add\n        /* \"#utility.yul\":12458:12478   */\n      swap1\n      pop\n        /* \"#utility.yul\":12251:12484   */\n      swap2\n      swap1\n      pop\n      jump\t// out\n        /* \"#utility.yul\":12490:13023   */\n    tag_49:\n        /* \"#utility.yul\":12659:12663   */\n      0x00\n        /* \"#utility.yul\":12697:12699   */\n      0x60\n        /* \"#utility.yul\":12686:12695   */\n      dup3\n        /* \"#utility.yul\":12682:12700   */\n      add\n        /* \"#utility.yul\":12674:12700   */\n      swap1\n      pop\n        /* \"#utility.yul\":12710:12781   */\n      tag_245\n        /* \"#utility.yul\":12778:12779   */\n      0x00\n        /* \"#utility.yul\":12767:12776   */\n      dup4\n        /* \"#utility.yul\":12763:12780   */\n      add\n        /* \"#utility.yul\":12754:12760   */\n      dup7\n        /* \"#utility.yul\":12710:12781   */\n      tag_61\n      jump\t// in\n    tag_245:\n        /* \"#utility.yul\":12828:12837   */\n      dup2\n        /* \"#utility.yul\":12822:12826   */\n      dup2\n        /* \"#utility.yul\":12818:12838   */\n      sub\n        /* \"#utility.yul\":12813:12815   */\n      0x20\n        /* \"#utility.yul\":12802:12811   */\n      dup4\n        /* \"#utility.yul\":12798:12816   */\n      add\n        /* \"#utility.yul\":12791:12839   */\n      mstore\n        /* \"#utility.yul\":12856:12934   */\n      tag_246\n        /* \"#utility.yul\":12929:12933   */\n      dup2\n        /* \"#utility.yul\":12920:12926   */\n      dup6\n        /* \"#utility.yul\":12856:12934   */\n      tag_60\n      jump\t// in\n    tag_246:\n        /* \"#utility.yul\":12848:12934   */\n      swap1\n      pop\n        /* \"#utility.yul\":12944:13016   */\n      tag_247\n        /* \"#utility.yul\":13012:13014   */\n      0x40\n        /* \"#utility.yul\":13001:13010   */\n      dup4\n        /* \"#utility.yul\":12997:13015   */\n      add\n        /* \"#utility.yul\":12988:12994   */\n      dup5\n        /* \"#utility.yul\":12944:13016   */\n      tag_61\n      jump\t// in\n    tag_247:\n        /* \"#utility.yul\":12490:13023   */\n      swap5\n      swap4\n      pop\n      pop\n      pop\n      pop\n      jump\t// out\n\n    auxdata: 0xa2646970667358221220ad678a854035a2680fd6190891c7d89c150f70b39b9450a1707381ef58716ff264736f6c63430008180033\n}\n",
				"bytecode": {
					"linkReferences": {},
					"object": "608060405260105f555f54600a620000189190620001b4565b60015534801562000027575f80fd5b5062000204565b7f4e487b71000000000000000000000000000000000000000000000000000000005f52601160045260245ffd5b5f8160011c9050919050565b5f808291508390505b6001851115620000b85780860481111562000090576200008f6200002e565b5b6001851615620000a05780820291505b8081029050620000b0856200005b565b945062000070565b94509492505050565b5f82620000d25760019050620001a4565b81620000e1575f9050620001a4565b8160018114620000fa576002811462000105576200013b565b6001915050620001a4565b60ff8411156200011a57620001196200002e565b5b8360020a9150848211156200013457620001336200002e565b5b50620001a4565b5060208310610133831016604e8410600b8410161715620001755782820a9050838111156200016f576200016e6200002e565b5b620001a4565b62000184848484600162000067565b925090508184048111156200019e576200019d6200002e565b5b81810290505b9392505050565b5f819050919050565b5f620001c082620001ab565b9150620001cd83620001ab565b9250620001fc7fffffffffffffffffffffffffffffffffffffffffffffffffffffffffffffffff8484620000c1565b905092915050565b610b3080620002125f395ff3fe608060405234801561000f575f80fd5b506004361061003f575f3560e01c80632052465e14610043578063528b7b8f146100745780637bff0a01146100a4575b5f80fd5b61005d600480360381019061005891906103e4565b6100c0565b60405161006b9291906104a8565b60405180910390f35b61008e600480360381019061008991906103e4565b610175565b60405161009b9190610515565b60405180910390f35b6100be60048036038101906100b9919061065a565b6101a5565b005b600281815481106100cf575f80fd5b905f5260205f2090600202015f91509050805f0180546100ee906106ce565b80601f016020809104026020016040519081016040528092919081815260200182805461011a906106ce565b80156101655780601f1061013c57610100808354040283529160200191610165565b820191905f5260205f20905b81548152906001019060200180831161014857829003601f168201915b5050505050908060010154905082565b6003602052805f5260405f205f915054906101000a900473ffffffffffffffffffffffffffffffffffffffff1681565b5f60045f3373ffffffffffffffffffffffffffffffffffffffff1673ffffffffffffffffffffffffffffffffffffffff1681526020019081526020015f2054146101ed575f80fd5b5f6101f782610207565b9050610203828261024d565b5050565b5f808260405160200161021a9190610738565b604051602081830303815290604052805190602001205f1c905060015481610242919061077b565b905080915050919050565b6002604051806040016040528084815260200183815250908060018154018082558091505060019003905f5260205f2090600202015f909190919091505f820151815f01908161029d9190610948565b506020820151816001015550505f60016002805490506102bd9190610a44565b90503360035f8381526020019081526020015f205f6101000a81548173ffffffffffffffffffffffffffffffffffffffff021916908373ffffffffffffffffffffffffffffffffffffffff16021790555060045f3373ffffffffffffffffffffffffffffffffffffffff1673ffffffffffffffffffffffffffffffffffffffff1681526020019081526020015f205f81548092919061035b90610a77565b91905055507f88f026aacbbecc90c18411df4b1185fd8d9be2470f1962f192bf84a27d0704b781848460405161039393929190610abe565b60405180910390a1505050565b5f604051905090565b5f80fd5b5f80fd5b5f819050919050565b6103c3816103b1565b81146103cd575f80fd5b50565b5f813590506103de816103ba565b92915050565b5f602082840312156103f9576103f86103a9565b5b5f610406848285016103d0565b91505092915050565b5f81519050919050565b5f82825260208201905092915050565b5f5b8381101561044657808201518184015260208101905061042b565b5f8484015250505050565b5f601f19601f8301169050919050565b5f61046b8261040f565b6104758185610419565b9350610485818560208601610429565b61048e81610451565b840191505092915050565b6104a2816103b1565b82525050565b5f6040820190508181035f8301526104c08185610461565b90506104cf6020830184610499565b9392505050565b5f73ffffffffffffffffffffffffffffffffffffffff82169050919050565b5f6104ff826104d6565b9050919050565b61050f816104f5565b82525050565b5f6020820190506105285f830184610506565b92915050565b5f80fd5b5f80fd5b7f4e487b71000000000000000000000000000000000000000000000000000000005f52604160045260245ffd5b61056c82610451565b810181811067ffffffffffffffff8211171561058b5761058a610536565b5b80604052505050565b5f61059d6103a0565b90506105a98282610563565b919050565b5f67ffffffffffffffff8211156105c8576105c7610536565b5b6105d182610451565b9050602081019050919050565b828183375f83830152505050565b5f6105fe6105f9846105ae565b610594565b90508281526020810184848401111561061a57610619610532565b5b6106258482856105de565b509392505050565b5f82601f8301126106415761064061052e565b5b81356106518482602086016105ec565b91505092915050565b5f6020828403121561066f5761066e6103a9565b5b5f82013567ffffffffffffffff81111561068c5761068b6103ad565b5b6106988482850161062d565b91505092915050565b7f4e487b71000000000000000000000000000000000000000000000000000000005f52602260045260245ffd5b5f60028204905060018216806106e557607f821691505b6020821081036106f8576106f76106a1565b5b50919050565b5f81905092915050565b5f6107128261040f565b61071c81856106fe565b935061072c818560208601610429565b80840191505092915050565b5f6107438284610708565b915081905092915050565b7f4e487b71000000000000000000000000000000000000000000000000000000005f52601260045260245ffd5b5f610785826103b1565b9150610790836103b1565b9250826107a05761079f61074e565b5b828206905092915050565b5f819050815f5260205f209050919050565b5f6020601f8301049050919050565b5f82821b905092915050565b5f600883026108077fffffffffffffffffffffffffffffffffffffffffffffffffffffffffffffffff826107cc565b61081186836107cc565b95508019841693508086168417925050509392505050565b5f819050919050565b5f61084c610847610842846103b1565b610829565b6103b1565b9050919050565b5f819050919050565b61086583610832565b61087961087182610853565b8484546107d8565b825550505050565b5f90565b61088d610881565b61089881848461085c565b505050565b5b818110156108bb576108b05f82610885565b60018101905061089e565b5050565b601f821115610900576108d1816107ab565b6108da846107bd565b810160208510156108e9578190505b6108fd6108f5856107bd565b83018261089d565b50505b505050565b5f82821c905092915050565b5f6109205f1984600802610905565b1980831691505092915050565b5f6109388383610911565b9150826002028217905092915050565b6109518261040f565b67ffffffffffffffff81111561096a57610969610536565b5b61097482546106ce565b61097f8282856108bf565b5f60209050601f8311600181146109b0575f841561099e578287015190505b6109a8858261092d565b865550610a0f565b601f1984166109be866107ab565b5f5b828110156109e5578489015182556001820191506020850194506020810190506109c0565b86831015610a0257848901516109fe601f891682610911565b8355505b6001600288020188555050505b505050505050565b7f4e487b71000000000000000000000000000000000000000000000000000000005f52601160045260245ffd5b5f610a4e826103b1565b9150610a59836103b1565b9250828203905081811115610a7157610a70610a17565b5b92915050565b5f610a81826103b1565b91507fffffffffffffffffffffffffffffffffffffffffffffffffffffffffffffffff8203610ab357610ab2610a17565b5b600182019050919050565b5f606082019050610ad15f830186610499565b8181036020830152610ae38185610461565b9050610af26040830184610499565b94935050505056fea2646970667358221220ad678a854035a2680fd6190891c7d89c150f70b39b9450a1707381ef58716ff264736f6c63430008180033",
					"opcodes": "PUSH1 0x80 PUSH1 0x40 MSTORE PUSH1 0x10 PUSH0 SSTORE PUSH0 SLOAD PUSH1 0xA PUSH3 0x18 SWAP2 SWAP1 PUSH3 0x1B4 JUMP JUMPDEST PUSH1 0x1 SSTORE CALLVALUE DUP1 ISZERO PUSH3 0x27 JUMPI PUSH0 DUP1 REVERT JUMPDEST POP PUSH3 0x204 JUMP JUMPDEST PUSH32 0x4E487B7100000000000000000000000000000000000000000000000000000000 PUSH0 MSTORE PUSH1 0x11 PUSH1 0x4 MSTORE PUSH1 0x24 PUSH0 REVERT JUMPDEST PUSH0 DUP2 PUSH1 0x1 SHR SWAP1 POP SWAP2 SWAP1 POP JUMP JUMPDEST PUSH0 DUP1 DUP3 SWAP2 POP DUP4 SWAP1 POP JUMPDEST PUSH1 0x1 DUP6 GT ISZERO PUSH3 0xB8 JUMPI DUP1 DUP7 DIV DUP2 GT ISZERO PUSH3 0x90 JUMPI PUSH3 0x8F PUSH3 0x2E JUMP JUMPDEST JUMPDEST PUSH1 0x1 DUP6 AND ISZERO PUSH3 0xA0 JUMPI DUP1 DUP3 MUL SWAP2 POP JUMPDEST DUP1 DUP2 MUL SWAP1 POP PUSH3 0xB0 DUP6 PUSH3 0x5B JUMP JUMPDEST SWAP5 POP PUSH3 0x70 JUMP JUMPDEST SWAP5 POP SWAP5 SWAP3 POP POP POP JUMP JUMPDEST PUSH0 DUP3 PUSH3 0xD2 JUMPI PUSH1 0x1 SWAP1 POP PUSH3 0x1A4 JUMP JUMPDEST DUP2 PUSH3 0xE1 JUMPI PUSH0 SWAP1 POP PUSH3 0x1A4 JUMP JUMPDEST DUP2 PUSH1 0x1 DUP2 EQ PUSH3 0xFA JUMPI PUSH1 0x2 DUP2 EQ PUSH3 0x105 JUMPI PUSH3 0x13B JUMP JUMPDEST PUSH1 0x1 SWAP2 POP POP PUSH3 0x1A4 JUMP JUMPDEST PUSH1 0xFF DUP5 GT ISZERO PUSH3 0x11A JUMPI PUSH3 0x119 PUSH3 0x2E JUMP JUMPDEST JUMPDEST DUP4 PUSH1 0x2 EXP SWAP2 POP DUP5 DUP3 GT ISZERO PUSH3 0x134 JUMPI PUSH3 0x133 PUSH3 0x2E JUMP JUMPDEST JUMPDEST POP PUSH3 0x1A4 JUMP JUMPDEST POP PUSH1 0x20 DUP4 LT PUSH2 0x133 DUP4 LT AND PUSH1 0x4E DUP5 LT PUSH1 0xB DUP5 LT AND OR ISZERO PUSH3 0x175 JUMPI DUP3 DUP3 EXP SWAP1 POP DUP4 DUP2 GT ISZERO PUSH3 0x16F JUMPI PUSH3 0x16E PUSH3 0x2E JUMP JUMPDEST JUMPDEST PUSH3 0x1A4 JUMP JUMPDEST PUSH3 0x184 DUP5 DUP5 DUP5 PUSH1 0x1 PUSH3 0x67 JUMP JUMPDEST SWAP3 POP SWAP1 POP DUP2 DUP5 DIV DUP2 GT ISZERO PUSH3 0x19E JUMPI PUSH3 0x19D PUSH3 0x2E JUMP JUMPDEST JUMPDEST DUP2 DUP2 MUL SWAP1 POP JUMPDEST SWAP4 SWAP3 POP POP POP JUMP JUMPDEST PUSH0 DUP2 SWAP1 POP SWAP2 SWAP1 POP JUMP JUMPDEST PUSH0 PUSH3 0x1C0 DUP3 PUSH3 0x1AB JUMP JUMPDEST SWAP2 POP PUSH3 0x1CD DUP4 PUSH3 0x1AB JUMP JUMPDEST SWAP3 POP PUSH3 0x1FC PUSH32 0xFFFFFFFFFFFFFFFFFFFFFFFFFFFFFFFFFFFFFFFFFFFFFFFFFFFFFFFFFFFFFFFF DUP5 DUP5 PUSH3 0xC1 JUMP JUMPDEST SWAP1 POP SWAP3 SWAP2 POP POP JUMP JUMPDEST PUSH2 0xB30 DUP1 PUSH3 0x212 PUSH0 CODECOPY PUSH0 RETURN INVALID PUSH1 0x80 PUSH1 0x40 MSTORE CALLVALUE DUP1 ISZERO PUSH2 0xF JUMPI PUSH0 DUP1 REVERT JUMPDEST POP PUSH1 0x4 CALLDATASIZE LT PUSH2 0x3F JUMPI PUSH0 CALLDATALOAD PUSH1 0xE0 SHR DUP1 PUSH4 0x2052465E EQ PUSH2 0x43 JUMPI DUP1 PUSH4 0x528B7B8F EQ PUSH2 0x74 JUMPI DUP1 PUSH4 0x7BFF0A01 EQ PUSH2 0xA4 JUMPI JUMPDEST PUSH0 DUP1 REVERT JUMPDEST PUSH2 0x5D PUSH1 0x4 DUP1 CALLDATASIZE SUB DUP2 ADD SWAP1 PUSH2 0x58 SWAP2 SWAP1 PUSH2 0x3E4 JUMP JUMPDEST PUSH2 0xC0 JUMP JUMPDEST PUSH1 0x40 MLOAD PUSH2 0x6B SWAP3 SWAP2 SWAP1 PUSH2 0x4A8 JUMP JUMPDEST PUSH1 0x40 MLOAD DUP1 SWAP2 SUB SWAP1 RETURN JUMPDEST PUSH2 0x8E PUSH1 0x4 DUP1 CALLDATASIZE SUB DUP2 ADD SWAP1 PUSH2 0x89 SWAP2 SWAP1 PUSH2 0x3E4 JUMP JUMPDEST PUSH2 0x175 JUMP JUMPDEST PUSH1 0x40 MLOAD PUSH2 0x9B SWAP2 SWAP1 PUSH2 0x515 JUMP JUMPDEST PUSH1 0x40 MLOAD DUP1 SWAP2 SUB SWAP1 RETURN JUMPDEST PUSH2 0xBE PUSH1 0x4 DUP1 CALLDATASIZE SUB DUP2 ADD SWAP1 PUSH2 0xB9 SWAP2 SWAP1 PUSH2 0x65A JUMP JUMPDEST PUSH2 0x1A5 JUMP JUMPDEST STOP JUMPDEST PUSH1 0x2 DUP2 DUP2 SLOAD DUP2 LT PUSH2 0xCF JUMPI PUSH0 DUP1 REVERT JUMPDEST SWAP1 PUSH0 MSTORE PUSH1 0x20 PUSH0 KECCAK256 SWAP1 PUSH1 0x2 MUL ADD PUSH0 SWAP2 POP SWAP1 POP DUP1 PUSH0 ADD DUP1 SLOAD PUSH2 0xEE SWAP1 PUSH2 0x6CE JUMP JUMPDEST DUP1 PUSH1 0x1F ADD PUSH1 0x20 DUP1 SWAP2 DIV MUL PUSH1 0x20 ADD PUSH1 0x40 MLOAD SWAP1 DUP2 ADD PUSH1 0x40 MSTORE DUP1 SWAP3 SWAP2 SWAP1 DUP2 DUP2 MSTORE PUSH1 0x20 ADD DUP3 DUP1 SLOAD PUSH2 0x11A SWAP1 PUSH2 0x6CE JUMP JUMPDEST DUP1 ISZERO PUSH2 0x165 JUMPI DUP1 PUSH1 0x1F LT PUSH2 0x13C JUMPI PUSH2 0x100 DUP1 DUP4 SLOAD DIV MUL DUP4 MSTORE SWAP2 PUSH1 0x20 ADD SWAP2 PUSH2 0x165 JUMP JUMPDEST DUP3 ADD SWAP2 SWAP1 PUSH0 MSTORE PUSH1 0x20 PUSH0 KECCAK256 SWAP1 JUMPDEST DUP2 SLOAD DUP2 MSTORE SWAP1 PUSH1 0x1 ADD SWAP1 PUSH1 0x20 ADD DUP1 DUP4 GT PUSH2 0x148 JUMPI DUP3 SWAP1 SUB PUSH1 0x1F AND DUP3 ADD SWAP2 JUMPDEST POP POP POP POP POP SWAP1 DUP1 PUSH1 0x1 ADD SLOAD SWAP1 POP DUP3 JUMP JUMPDEST PUSH1 0x3 PUSH1 0x20 MSTORE DUP1 PUSH0 MSTORE PUSH1 0x40 PUSH0 KECCAK256 PUSH0 SWAP2 POP SLOAD SWAP1 PUSH2 0x100 EXP SWAP1 DIV PUSH20 0xFFFFFFFFFFFFFFFFFFFFFFFFFFFFFFFFFFFFFFFF AND DUP2 JUMP JUMPDEST PUSH0 PUSH1 0x4 PUSH0 CALLER PUSH20 0xFFFFFFFFFFFFFFFFFFFFFFFFFFFFFFFFFFFFFFFF AND PUSH20 0xFFFFFFFFFFFFFFFFFFFFFFFFFFFFFFFFFFFFFFFF AND DUP2 MSTORE PUSH1 0x20 ADD SWAP1 DUP2 MSTORE PUSH1 0x20 ADD PUSH0 KECCAK256 SLOAD EQ PUSH2 0x1ED JUMPI PUSH0 DUP1 REVERT JUMPDEST PUSH0 PUSH2 0x1F7 DUP3 PUSH2 0x207 JUMP JUMPDEST SWAP1 POP PUSH2 0x203 DUP3 DUP3 PUSH2 0x24D JUMP JUMPDEST POP POP JUMP JUMPDEST PUSH0 DUP1 DUP3 PUSH1 0x40 MLOAD PUSH1 0x20 ADD PUSH2 0x21A SWAP2 SWAP1 PUSH2 0x738 JUMP JUMPDEST PUSH1 0x40 MLOAD PUSH1 0x20 DUP2 DUP4 SUB SUB DUP2 MSTORE SWAP1 PUSH1 0x40 MSTORE DUP1 MLOAD SWAP1 PUSH1 0x20 ADD KECCAK256 PUSH0 SHR SWAP1 POP PUSH1 0x1 SLOAD DUP2 PUSH2 0x242 SWAP2 SWAP1 PUSH2 0x77B JUMP JUMPDEST SWAP1 POP DUP1 SWAP2 POP POP SWAP2 SWAP1 POP JUMP JUMPDEST PUSH1 0x2 PUSH1 0x40 MLOAD DUP1 PUSH1 0x40 ADD PUSH1 0x40 MSTORE DUP1 DUP5 DUP2 MSTORE PUSH1 0x20 ADD DUP4 DUP2 MSTORE POP SWAP1 DUP1 PUSH1 0x1 DUP2 SLOAD ADD DUP1 DUP3 SSTORE DUP1 SWAP2 POP POP PUSH1 0x1 SWAP1 SUB SWAP1 PUSH0 MSTORE PUSH1 0x20 PUSH0 KECCAK256 SWAP1 PUSH1 0x2 MUL ADD PUSH0 SWAP1 SWAP2 SWAP1 SWAP2 SWAP1 SWAP2 POP PUSH0 DUP3 ADD MLOAD DUP2 PUSH0 ADD SWAP1 DUP2 PUSH2 0x29D SWAP2 SWAP1 PUSH2 0x948 JUMP JUMPDEST POP PUSH1 0x20 DUP3 ADD MLOAD DUP2 PUSH1 0x1 ADD SSTORE POP POP PUSH0 PUSH1 0x1 PUSH1 0x2 DUP1 SLOAD SWAP1 POP PUSH2 0x2BD SWAP2 SWAP1 PUSH2 0xA44 JUMP JUMPDEST SWAP1 POP CALLER PUSH1 0x3 PUSH0 DUP4 DUP2 MSTORE PUSH1 0x20 ADD SWAP1 DUP2 MSTORE PUSH1 0x20 ADD PUSH0 KECCAK256 PUSH0 PUSH2 0x100 EXP DUP2 SLOAD DUP2 PUSH20 0xFFFFFFFFFFFFFFFFFFFFFFFFFFFFFFFFFFFFFFFF MUL NOT AND SWAP1 DUP4 PUSH20 0xFFFFFFFFFFFFFFFFFFFFFFFFFFFFFFFFFFFFFFFF AND MUL OR SWAP1 SSTORE POP PUSH1 0x4 PUSH0 CALLER PUSH20 0xFFFFFFFFFFFFFFFFFFFFFFFFFFFFFFFFFFFFFFFF AND PUSH20 0xFFFFFFFFFFFFFFFFFFFFFFFFFFFFFFFFFFFFFFFF AND DUP2 MSTORE PUSH1 0x20 ADD SWAP1 DUP2 MSTORE PUSH1 0x20 ADD PUSH0 KECCAK256 PUSH0 DUP2 SLOAD DUP1 SWAP3 SWAP2 SWAP1 PUSH2 0x35B SWAP1 PUSH2 0xA77 JUMP JUMPDEST SWAP2 SWAP1 POP SSTORE POP PUSH32 0x88F026AACBBECC90C18411DF4B1185FD8D9BE2470F1962F192BF84A27D0704B7 DUP2 DUP5 DUP5 PUSH1 0x40 MLOAD PUSH2 0x393 SWAP4 SWAP3 SWAP2 SWAP1 PUSH2 0xABE JUMP JUMPDEST PUSH1 0x40 MLOAD DUP1 SWAP2 SUB SWAP1 LOG1 POP POP POP JUMP JUMPDEST PUSH0 PUSH1 0x40 MLOAD SWAP1 POP SWAP1 JUMP JUMPDEST PUSH0 DUP1 REVERT JUMPDEST PUSH0 DUP1 REVERT JUMPDEST PUSH0 DUP2 SWAP1 POP SWAP2 SWAP1 POP JUMP JUMPDEST PUSH2 0x3C3 DUP2 PUSH2 0x3B1 JUMP JUMPDEST DUP2 EQ PUSH2 0x3CD JUMPI PUSH0 DUP1 REVERT JUMPDEST POP JUMP JUMPDEST PUSH0 DUP2 CALLDATALOAD SWAP1 POP PUSH2 0x3DE DUP2 PUSH2 0x3BA JUMP JUMPDEST SWAP3 SWAP2 POP POP JUMP JUMPDEST PUSH0 PUSH1 0x20 DUP3 DUP5 SUB SLT ISZERO PUSH2 0x3F9 JUMPI PUSH2 0x3F8 PUSH2 0x3A9 JUMP JUMPDEST JUMPDEST PUSH0 PUSH2 0x406 DUP5 DUP3 DUP6 ADD PUSH2 0x3D0 JUMP JUMPDEST SWAP2 POP POP SWAP3 SWAP2 POP POP JUMP JUMPDEST PUSH0 DUP2 MLOAD SWAP1 POP SWAP2 SWAP1 POP JUMP JUMPDEST PUSH0 DUP3 DUP3 MSTORE PUSH1 0x20 DUP3 ADD SWAP1 POP SWAP3 SWAP2 POP POP JUMP JUMPDEST PUSH0 JUMPDEST DUP4 DUP2 LT ISZERO PUSH2 0x446 JUMPI DUP1 DUP3 ADD MLOAD DUP2 DUP5 ADD MSTORE PUSH1 0x20 DUP2 ADD SWAP1 POP PUSH2 0x42B JUMP JUMPDEST PUSH0 DUP5 DUP5 ADD MSTORE POP POP POP POP JUMP JUMPDEST PUSH0 PUSH1 0x1F NOT PUSH1 0x1F DUP4 ADD AND SWAP1 POP SWAP2 SWAP1 POP JUMP JUMPDEST PUSH0 PUSH2 0x46B DUP3 PUSH2 0x40F JUMP JUMPDEST PUSH2 0x475 DUP2 DUP6 PUSH2 0x419 JUMP JUMPDEST SWAP4 POP PUSH2 0x485 DUP2 DUP6 PUSH1 0x20 DUP7 ADD PUSH2 0x429 JUMP JUMPDEST PUSH2 0x48E DUP2 PUSH2 0x451 JUMP JUMPDEST DUP5 ADD SWAP2 POP POP SWAP3 SWAP2 POP POP JUMP JUMPDEST PUSH2 0x4A2 DUP2 PUSH2 0x3B1 JUMP JUMPDEST DUP3 MSTORE POP POP JUMP JUMPDEST PUSH0 PUSH1 0x40 DUP3 ADD SWAP1 POP DUP2 DUP2 SUB PUSH0 DUP4 ADD MSTORE PUSH2 0x4C0 DUP2 DUP6 PUSH2 0x461 JUMP JUMPDEST SWAP1 POP PUSH2 0x4CF PUSH1 0x20 DUP4 ADD DUP5 PUSH2 0x499 JUMP JUMPDEST SWAP4 SWAP3 POP POP POP JUMP JUMPDEST PUSH0 PUSH20 0xFFFFFFFFFFFFFFFFFFFFFFFFFFFFFFFFFFFFFFFF DUP3 AND SWAP1 POP SWAP2 SWAP1 POP JUMP JUMPDEST PUSH0 PUSH2 0x4FF DUP3 PUSH2 0x4D6 JUMP JUMPDEST SWAP1 POP SWAP2 SWAP1 POP JUMP JUMPDEST PUSH2 0x50F DUP2 PUSH2 0x4F5 JUMP JUMPDEST DUP3 MSTORE POP POP JUMP JUMPDEST PUSH0 PUSH1 0x20 DUP3 ADD SWAP1 POP PUSH2 0x528 PUSH0 DUP4 ADD DUP5 PUSH2 0x506 JUMP JUMPDEST SWAP3 SWAP2 POP POP JUMP JUMPDEST PUSH0 DUP1 REVERT JUMPDEST PUSH0 DUP1 REVERT JUMPDEST PUSH32 0x4E487B7100000000000000000000000000000000000000000000000000000000 PUSH0 MSTORE PUSH1 0x41 PUSH1 0x4 MSTORE PUSH1 0x24 PUSH0 REVERT JUMPDEST PUSH2 0x56C DUP3 PUSH2 0x451 JUMP JUMPDEST DUP2 ADD DUP2 DUP2 LT PUSH8 0xFFFFFFFFFFFFFFFF DUP3 GT OR ISZERO PUSH2 0x58B JUMPI PUSH2 0x58A PUSH2 0x536 JUMP JUMPDEST JUMPDEST DUP1 PUSH1 0x40 MSTORE POP POP POP JUMP JUMPDEST PUSH0 PUSH2 0x59D PUSH2 0x3A0 JUMP JUMPDEST SWAP1 POP PUSH2 0x5A9 DUP3 DUP3 PUSH2 0x563 JUMP JUMPDEST SWAP2 SWAP1 POP JUMP JUMPDEST PUSH0 PUSH8 0xFFFFFFFFFFFFFFFF DUP3 GT ISZERO PUSH2 0x5C8 JUMPI PUSH2 0x5C7 PUSH2 0x536 JUMP JUMPDEST JUMPDEST PUSH2 0x5D1 DUP3 PUSH2 0x451 JUMP JUMPDEST SWAP1 POP PUSH1 0x20 DUP2 ADD SWAP1 POP SWAP2 SWAP1 POP JUMP JUMPDEST DUP3 DUP2 DUP4 CALLDATACOPY PUSH0 DUP4 DUP4 ADD MSTORE POP POP POP JUMP JUMPDEST PUSH0 PUSH2 0x5FE PUSH2 0x5F9 DUP5 PUSH2 0x5AE JUMP JUMPDEST PUSH2 0x594 JUMP JUMPDEST SWAP1 POP DUP3 DUP2 MSTORE PUSH1 0x20 DUP2 ADD DUP5 DUP5 DUP5 ADD GT ISZERO PUSH2 0x61A JUMPI PUSH2 0x619 PUSH2 0x532 JUMP JUMPDEST JUMPDEST PUSH2 0x625 DUP5 DUP3 DUP6 PUSH2 0x5DE JUMP JUMPDEST POP SWAP4 SWAP3 POP POP POP JUMP JUMPDEST PUSH0 DUP3 PUSH1 0x1F DUP4 ADD SLT PUSH2 0x641 JUMPI PUSH2 0x640 PUSH2 0x52E JUMP JUMPDEST JUMPDEST DUP2 CALLDATALOAD PUSH2 0x651 DUP5 DUP3 PUSH1 0x20 DUP7 ADD PUSH2 0x5EC JUMP JUMPDEST SWAP2 POP POP SWAP3 SWAP2 POP POP JUMP JUMPDEST PUSH0 PUSH1 0x20 DUP3 DUP5 SUB SLT ISZERO PUSH2 0x66F JUMPI PUSH2 0x66E PUSH2 0x3A9 JUMP JUMPDEST JUMPDEST PUSH0 DUP3 ADD CALLDATALOAD PUSH8 0xFFFFFFFFFFFFFFFF DUP2 GT ISZERO PUSH2 0x68C JUMPI PUSH2 0x68B PUSH2 0x3AD JUMP JUMPDEST JUMPDEST PUSH2 0x698 DUP5 DUP3 DUP6 ADD PUSH2 0x62D JUMP JUMPDEST SWAP2 POP POP SWAP3 SWAP2 POP POP JUMP JUMPDEST PUSH32 0x4E487B7100000000000000000000000000000000000000000000000000000000 PUSH0 MSTORE PUSH1 0x22 PUSH1 0x4 MSTORE PUSH1 0x24 PUSH0 REVERT JUMPDEST PUSH0 PUSH1 0x2 DUP3 DIV SWAP1 POP PUSH1 0x1 DUP3 AND DUP1 PUSH2 0x6E5 JUMPI PUSH1 0x7F DUP3 AND SWAP2 POP JUMPDEST PUSH1 0x20 DUP3 LT DUP2 SUB PUSH2 0x6F8 JUMPI PUSH2 0x6F7 PUSH2 0x6A1 JUMP JUMPDEST JUMPDEST POP SWAP2 SWAP1 POP JUMP JUMPDEST PUSH0 DUP2 SWAP1 POP SWAP3 SWAP2 POP POP JUMP JUMPDEST PUSH0 PUSH2 0x712 DUP3 PUSH2 0x40F JUMP JUMPDEST PUSH2 0x71C DUP2 DUP6 PUSH2 0x6FE JUMP JUMPDEST SWAP4 POP PUSH2 0x72C DUP2 DUP6 PUSH1 0x20 DUP7 ADD PUSH2 0x429 JUMP JUMPDEST DUP1 DUP5 ADD SWAP2 POP POP SWAP3 SWAP2 POP POP JUMP JUMPDEST PUSH0 PUSH2 0x743 DUP3 DUP5 PUSH2 0x708 JUMP JUMPDEST SWAP2 POP DUP2 SWAP1 POP SWAP3 SWAP2 POP POP JUMP JUMPDEST PUSH32 0x4E487B7100000000000000000000000000000000000000000000000000000000 PUSH0 MSTORE PUSH1 0x12 PUSH1 0x4 MSTORE PUSH1 0x24 PUSH0 REVERT JUMPDEST PUSH0 PUSH2 0x785 DUP3 PUSH2 0x3B1 JUMP JUMPDEST SWAP2 POP PUSH2 0x790 DUP4 PUSH2 0x3B1 JUMP JUMPDEST SWAP3 POP DUP3 PUSH2 0x7A0 JUMPI PUSH2 0x79F PUSH2 0x74E JUMP JUMPDEST JUMPDEST DUP3 DUP3 MOD SWAP1 POP SWAP3 SWAP2 POP POP JUMP JUMPDEST PUSH0 DUP2 SWAP1 POP DUP2 PUSH0 MSTORE PUSH1 0x20 PUSH0 KECCAK256 SWAP1 POP SWAP2 SWAP1 POP JUMP JUMPDEST PUSH0 PUSH1 0x20 PUSH1 0x1F DUP4 ADD DIV SWAP1 POP SWAP2 SWAP1 POP JUMP JUMPDEST PUSH0 DUP3 DUP3 SHL SWAP1 POP SWAP3 SWAP2 POP POP JUMP JUMPDEST PUSH0 PUSH1 0x8 DUP4 MUL PUSH2 0x807 PUSH32 0xFFFFFFFFFFFFFFFFFFFFFFFFFFFFFFFFFFFFFFFFFFFFFFFFFFFFFFFFFFFFFFFF DUP3 PUSH2 0x7CC JUMP JUMPDEST PUSH2 0x811 DUP7 DUP4 PUSH2 0x7CC JUMP JUMPDEST SWAP6 POP DUP1 NOT DUP5 AND SWAP4 POP DUP1 DUP7 AND DUP5 OR SWAP3 POP POP POP SWAP4 SWAP3 POP POP POP JUMP JUMPDEST PUSH0 DUP2 SWAP1 POP SWAP2 SWAP1 POP JUMP JUMPDEST PUSH0 PUSH2 0x84C PUSH2 0x847 PUSH2 0x842 DUP5 PUSH2 0x3B1 JUMP JUMPDEST PUSH2 0x829 JUMP JUMPDEST PUSH2 0x3B1 JUMP JUMPDEST SWAP1 POP SWAP2 SWAP1 POP JUMP JUMPDEST PUSH0 DUP2 SWAP1 POP SWAP2 SWAP1 POP JUMP JUMPDEST PUSH2 0x865 DUP4 PUSH2 0x832 JUMP JUMPDEST PUSH2 0x879 PUSH2 0x871 DUP3 PUSH2 0x853 JUMP JUMPDEST DUP5 DUP5 SLOAD PUSH2 0x7D8 JUMP JUMPDEST DUP3 SSTORE POP POP POP POP JUMP JUMPDEST PUSH0 SWAP1 JUMP JUMPDEST PUSH2 0x88D PUSH2 0x881 JUMP JUMPDEST PUSH2 0x898 DUP2 DUP5 DUP5 PUSH2 0x85C JUMP JUMPDEST POP POP POP JUMP JUMPDEST JUMPDEST DUP2 DUP2 LT ISZERO PUSH2 0x8BB JUMPI PUSH2 0x8B0 PUSH0 DUP3 PUSH2 0x885 JUMP JUMPDEST PUSH1 0x1 DUP2 ADD SWAP1 POP PUSH2 0x89E JUMP JUMPDEST POP POP JUMP JUMPDEST PUSH1 0x1F DUP3 GT ISZERO PUSH2 0x900 JUMPI PUSH2 0x8D1 DUP2 PUSH2 0x7AB JUMP JUMPDEST PUSH2 0x8DA DUP5 PUSH2 0x7BD JUMP JUMPDEST DUP2 ADD PUSH1 0x20 DUP6 LT ISZERO PUSH2 0x8E9 JUMPI DUP2 SWAP1 POP JUMPDEST PUSH2 0x8FD PUSH2 0x8F5 DUP6 PUSH2 0x7BD JUMP JUMPDEST DUP4 ADD DUP3 PUSH2 0x89D JUMP JUMPDEST POP POP JUMPDEST POP POP POP JUMP JUMPDEST PUSH0 DUP3 DUP3 SHR SWAP1 POP SWAP3 SWAP2 POP POP JUMP JUMPDEST PUSH0 PUSH2 0x920 PUSH0 NOT DUP5 PUSH1 0x8 MUL PUSH2 0x905 JUMP JUMPDEST NOT DUP1 DUP4 AND SWAP2 POP POP SWAP3 SWAP2 POP POP JUMP JUMPDEST PUSH0 PUSH2 0x938 DUP4 DUP4 PUSH2 0x911 JUMP JUMPDEST SWAP2 POP DUP3 PUSH1 0x2 MUL DUP3 OR SWAP1 POP SWAP3 SWAP2 POP POP JUMP JUMPDEST PUSH2 0x951 DUP3 PUSH2 0x40F JUMP JUMPDEST PUSH8 0xFFFFFFFFFFFFFFFF DUP2 GT ISZERO PUSH2 0x96A JUMPI PUSH2 0x969 PUSH2 0x536 JUMP JUMPDEST JUMPDEST PUSH2 0x974 DUP3 SLOAD PUSH2 0x6CE JUMP JUMPDEST PUSH2 0x97F DUP3 DUP3 DUP6 PUSH2 0x8BF JUMP JUMPDEST PUSH0 PUSH1 0x20 SWAP1 POP PUSH1 0x1F DUP4 GT PUSH1 0x1 DUP2 EQ PUSH2 0x9B0 JUMPI PUSH0 DUP5 ISZERO PUSH2 0x99E JUMPI DUP3 DUP8 ADD MLOAD SWAP1 POP JUMPDEST PUSH2 0x9A8 DUP6 DUP3 PUSH2 0x92D JUMP JUMPDEST DUP7 SSTORE POP PUSH2 0xA0F JUMP JUMPDEST PUSH1 0x1F NOT DUP5 AND PUSH2 0x9BE DUP7 PUSH2 0x7AB JUMP JUMPDEST PUSH0 JUMPDEST DUP3 DUP2 LT ISZERO PUSH2 0x9E5 JUMPI DUP5 DUP10 ADD MLOAD DUP3 SSTORE PUSH1 0x1 DUP3 ADD SWAP2 POP PUSH1 0x20 DUP6 ADD SWAP5 POP PUSH1 0x20 DUP2 ADD SWAP1 POP PUSH2 0x9C0 JUMP JUMPDEST DUP7 DUP4 LT ISZERO PUSH2 0xA02 JUMPI DUP5 DUP10 ADD MLOAD PUSH2 0x9FE PUSH1 0x1F DUP10 AND DUP3 PUSH2 0x911 JUMP JUMPDEST DUP4 SSTORE POP JUMPDEST PUSH1 0x1 PUSH1 0x2 DUP9 MUL ADD DUP9 SSTORE POP POP POP JUMPDEST POP POP POP POP POP POP JUMP JUMPDEST PUSH32 0x4E487B7100000000000000000000000000000000000000000000000000000000 PUSH0 MSTORE PUSH1 0x11 PUSH1 0x4 MSTORE PUSH1 0x24 PUSH0 REVERT JUMPDEST PUSH0 PUSH2 0xA4E DUP3 PUSH2 0x3B1 JUMP JUMPDEST SWAP2 POP PUSH2 0xA59 DUP4 PUSH2 0x3B1 JUMP JUMPDEST SWAP3 POP DUP3 DUP3 SUB SWAP1 POP DUP2 DUP2 GT ISZERO PUSH2 0xA71 JUMPI PUSH2 0xA70 PUSH2 0xA17 JUMP JUMPDEST JUMPDEST SWAP3 SWAP2 POP POP JUMP JUMPDEST PUSH0 PUSH2 0xA81 DUP3 PUSH2 0x3B1 JUMP JUMPDEST SWAP2 POP PUSH32 0xFFFFFFFFFFFFFFFFFFFFFFFFFFFFFFFFFFFFFFFFFFFFFFFFFFFFFFFFFFFFFFFF DUP3 SUB PUSH2 0xAB3 JUMPI PUSH2 0xAB2 PUSH2 0xA17 JUMP JUMPDEST JUMPDEST PUSH1 0x1 DUP3 ADD SWAP1 POP SWAP2 SWAP1 POP JUMP JUMPDEST PUSH0 PUSH1 0x60 DUP3 ADD SWAP1 POP PUSH2 0xAD1 PUSH0 DUP4 ADD DUP7 PUSH2 0x499 JUMP JUMPDEST DUP2 DUP2 SUB PUSH1 0x20 DUP4 ADD MSTORE PUSH2 0xAE3 DUP2 DUP6 PUSH2 0x461 JUMP JUMPDEST SWAP1 POP PUSH2 0xAF2 PUSH1 0x40 DUP4 ADD DUP5 PUSH2 0x499 JUMP JUMPDEST SWAP5 SWAP4 POP POP POP POP JUMP INVALID LOG2 PUSH5 0x6970667358 0x22 SLT KECCAK256 0xAD PUSH8 0x8A854035A2680FD6 NOT ADDMOD SWAP2 0xC7 0xD8 SWAP13 ISZERO 0xF PUSH17 0xB39B9450A1707381EF58716FF264736F6C PUSH4 0x43000818 STOP CALLER "
				},
				"gasEstimates": {
					"creation": {
						"codeDepositCost": "572800",
						"executionCost": "infinite",
						"totalCost": "infinite"
					},
					"external": {
						"createRandomZombie(string)": "infinite",
						"zombieToOwner(uint256)": "2827",
						"zombies(uint256)": "infinite"
					},
					"internal": {
						"_createZombie(string memory,uint256)": "infinite",
						"_generateRandomDna(string memory)": "infinite"
					}
				},
				"methodIdentifiers": {
					"createRandomZombie(string)": "7bff0a01",
					"zombieToOwner(uint256)": "528b7b8f",
					"zombies(uint256)": "2052465e"
				}
			},
			"storageLayout": {
				"storage": [
					{
						"astId": 12,
						"contract": "TestKnowledge/RedoZombieFactory.sol:RedoZombieFactory",
						"label": "dnaDigits",
						"offset": 0,
						"slot": "0",
						"type": "t_uint256"
					},
					{
						"astId": 17,
						"contract": "TestKnowledge/RedoZombieFactory.sol:RedoZombieFactory",
						"label": "dnaModulus",
						"offset": 0,
						"slot": "1",
						"type": "t_uint256"
					},
					{
						"astId": 21,
						"contract": "TestKnowledge/RedoZombieFactory.sol:RedoZombieFactory",
						"label": "zombies",
						"offset": 0,
						"slot": "2",
						"type": "t_array(t_struct(Zombie)26_storage)dyn_storage"
					},
					{
						"astId": 30,
						"contract": "TestKnowledge/RedoZombieFactory.sol:RedoZombieFactory",
						"label": "zombieToOwner",
						"offset": 0,
						"slot": "3",
						"type": "t_mapping(t_uint256,t_address)"
					},
					{
						"astId": 34,
						"contract": "TestKnowledge/RedoZombieFactory.sol:RedoZombieFactory",
						"label": "ownerZombieCount",
						"offset": 0,
						"slot": "4",
						"type": "t_mapping(t_address,t_uint256)"
					}
				],
				"types": {
					"t_address": {
						"encoding": "inplace",
						"label": "address",
						"numberOfBytes": "20"
					},
					"t_array(t_struct(Zombie)26_storage)dyn_storage": {
						"base": "t_struct(Zombie)26_storage",
						"encoding": "dynamic_array",
						"label": "struct RedoZombieFactory.Zombie[]",
						"numberOfBytes": "32"
					},
					"t_mapping(t_address,t_uint256)": {
						"encoding": "mapping",
						"key": "t_address",
						"label": "mapping(address => uint256)",
						"numberOfBytes": "32",
						"value": "t_uint256"
					},
					"t_mapping(t_uint256,t_address)": {
						"encoding": "mapping",
						"key": "t_uint256",
						"label": "mapping(uint256 => address)",
						"numberOfBytes": "32",
						"value": "t_address"
					},
					"t_string_storage": {
						"encoding": "bytes",
						"label": "string",
						"numberOfBytes": "32"
					},
					"t_struct(Zombie)26_storage": {
						"encoding": "inplace",
						"label": "struct RedoZombieFactory.Zombie",
						"members": [
							{
								"astId": 23,
								"contract": "TestKnowledge/RedoZombieFactory.sol:RedoZombieFactory",
								"label": "name",
								"offset": 0,
								"slot": "0",
								"type": "t_string_storage"
							},
							{
								"astId": 25,
								"contract": "TestKnowledge/RedoZombieFactory.sol:RedoZombieFactory",
								"label": "dna",
								"offset": 0,
								"slot": "1",
								"type": "t_uint256"
							}
						],
						"numberOfBytes": "64"
					},
					"t_uint256": {
						"encoding": "inplace",
						"label": "uint256",
						"numberOfBytes": "32"
					}
				}
			},
			"userdoc": {
				"kind": "user",
				"methods": {},
				"version": 1
			}
		}
	}
}