{
	"TestKnowledge/ZombieFactory.sol": {
		"ZombieFactory": {
			"abi": [
				{
					"anonymous": false,
					"inputs": [
						{
							"indexed": false,
							"internalType": "uint256",
							"name": "zombieId",
							"type": "uint256"
						},
						{
							"indexed": false,
							"internalType": "string",
							"name": "name",
							"type": "string"
						},
						{
							"indexed": false,
							"internalType": "uint256",
							"name": "dna",
							"type": "uint256"
						}
					],
					"name": "NewZombie",
					"type": "event"
				},
				{
					"inputs": [
						{
							"internalType": "string",
							"name": "_name",
							"type": "string"
						}
					],
					"name": "createRandomZombie",
					"outputs": [],
					"stateMutability": "nonpayable",
					"type": "function"
				},
				{
					"inputs": [
						{
							"internalType": "uint256",
							"name": "",
							"type": "uint256"
						}
					],
					"name": "zombieToOwner",
					"outputs": [
						{
							"internalType": "address",
							"name": "",
							"type": "address"
						}
					],
					"stateMutability": "view",
					"type": "function"
				},
				{
					"inputs": [
						{
							"internalType": "uint256",
							"name": "",
							"type": "uint256"
						}
					],
					"name": "zombies",
					"outputs": [
						{
							"internalType": "string",
							"name": "name",
							"type": "string"
						},
						{
							"internalType": "uint256",
							"name": "dna",
							"type": "uint256"
						}
					],
					"stateMutability": "view",
					"type": "function"
				}
			],
			"devdoc": {
				"kind": "dev",
				"methods": {},
				"version": 1
			},
			"evm": {
				"assembly": "    /* \"TestKnowledge/ZombieFactory.sol\":62:1145  contract ZombieFactory {... */\n  mstore(0x40, 0x80)\n    /* \"TestKnowledge/ZombieFactory.sol\":173:175  16 */\n  0x10\n    /* \"TestKnowledge/ZombieFactory.sol\":156:175  uint dnaDigits = 16 */\n  0x00\n  sstore\n    /* \"TestKnowledge/ZombieFactory.sol\":206:215  dnaDigits */\n  sload(0x00)\n    /* \"TestKnowledge/ZombieFactory.sol\":200:202  10 */\n  0x0a\n    /* \"TestKnowledge/ZombieFactory.sol\":200:215  10 ** dnaDigits */\n  tag_1\n  swap2\n  swap1\n  tag_2\n  jump\t// in\ntag_1:\n    /* \"TestKnowledge/ZombieFactory.sol\":182:215  uint dnaModulus = 10 ** dnaDigits */\n  0x01\n  sstore\n    /* \"TestKnowledge/ZombieFactory.sol\":62:1145  contract ZombieFactory {... */\n  callvalue\n  dup1\n  iszero\n  tag_3\n  jumpi\n  0x00\n  dup1\n  revert\ntag_3:\n  pop\n  jump(tag_4)\n    /* \"#utility.yul\":7:187   */\ntag_5:\n    /* \"#utility.yul\":55:132   */\n  0x4e487b7100000000000000000000000000000000000000000000000000000000\n    /* \"#utility.yul\":52:53   */\n  0x00\n    /* \"#utility.yul\":45:133   */\n  mstore\n    /* \"#utility.yul\":152:156   */\n  0x11\n    /* \"#utility.yul\":149:150   */\n  0x04\n    /* \"#utility.yul\":142:157   */\n  mstore\n    /* \"#utility.yul\":176:180   */\n  0x24\n    /* \"#utility.yul\":173:174   */\n  0x00\n    /* \"#utility.yul\":166:181   */\n  revert\n    /* \"#utility.yul\":193:295   */\ntag_6:\n    /* \"#utility.yul\":235:243   */\n  0x00\n    /* \"#utility.yul\":282:287   */\n  dup2\n    /* \"#utility.yul\":279:280   */\n  0x01\n    /* \"#utility.yul\":275:288   */\n  shr\n    /* \"#utility.yul\":254:288   */\n  swap1\n  pop\n    /* \"#utility.yul\":193:295   */\n  swap2\n  swap1\n  pop\n  jump\t// out\n    /* \"#utility.yul\":301:1149   */\ntag_7:\n    /* \"#utility.yul\":362:367   */\n  0x00\n    /* \"#utility.yul\":369:373   */\n  dup1\n    /* \"#utility.yul\":393:399   */\n  dup3\n    /* \"#utility.yul\":384:399   */\n  swap2\n  pop\n    /* \"#utility.yul\":417:422   */\n  dup4\n    /* \"#utility.yul\":408:422   */\n  swap1\n  pop\n    /* \"#utility.yul\":431:1143   */\ntag_14:\n    /* \"#utility.yul\":452:453   */\n  0x01\n    /* \"#utility.yul\":442:450   */\n  dup6\n    /* \"#utility.yul\":439:454   */\n  gt\n    /* \"#utility.yul\":431:1143   */\n  iszero\n  tag_16\n  jumpi\n    /* \"#utility.yul\":547:551   */\n  dup1\n    /* \"#utility.yul\":542:545   */\n  dup7\n    /* \"#utility.yul\":538:552   */\n  div\n    /* \"#utility.yul\":532:536   */\n  dup2\n    /* \"#utility.yul\":529:553   */\n  gt\n    /* \"#utility.yul\":526:576   */\n  iszero\n  tag_17\n  jumpi\n    /* \"#utility.yul\":556:574   */\n  tag_18\n  tag_5\n  jump\t// in\ntag_18:\n    /* \"#utility.yul\":526:576   */\ntag_17:\n    /* \"#utility.yul\":606:607   */\n  0x01\n    /* \"#utility.yul\":596:604   */\n  dup6\n    /* \"#utility.yul\":592:608   */\n  and\n    /* \"#utility.yul\":589:1040   */\n  iszero\n  tag_19\n  jumpi\n    /* \"#utility.yul\":1021:1025   */\n  dup1\n    /* \"#utility.yul\":1014:1019   */\n  dup3\n    /* \"#utility.yul\":1010:1026   */\n  mul\n    /* \"#utility.yul\":1001:1026   */\n  swap2\n  pop\n    /* \"#utility.yul\":589:1040   */\ntag_19:\n    /* \"#utility.yul\":1071:1075   */\n  dup1\n    /* \"#utility.yul\":1065:1069   */\n  dup2\n    /* \"#utility.yul\":1061:1076   */\n  mul\n    /* \"#utility.yul\":1053:1076   */\n  swap1\n  pop\n    /* \"#utility.yul\":1101:1133   */\n  tag_20\n    /* \"#utility.yul\":1124:1132   */\n  dup6\n    /* \"#utility.yul\":1101:1133   */\n  tag_6\n  jump\t// in\ntag_20:\n    /* \"#utility.yul\":1089:1133   */\n  swap5\n  pop\n    /* \"#utility.yul\":431:1143   */\n  jump(tag_14)\ntag_16:\n    /* \"#utility.yul\":301:1149   */\n  swap5\n  pop\n  swap5\n  swap3\n  pop\n  pop\n  pop\n  jump\t// out\n    /* \"#utility.yul\":1155:2228   */\ntag_8:\n    /* \"#utility.yul\":1209:1214   */\n  0x00\n    /* \"#utility.yul\":1400:1408   */\n  dup3\n    /* \"#utility.yul\":1390:1430   */\n  tag_22\n  jumpi\n    /* \"#utility.yul\":1421:1422   */\n  0x01\n    /* \"#utility.yul\":1412:1422   */\n  swap1\n  pop\n    /* \"#utility.yul\":1423:1428   */\n  jump(tag_21)\n    /* \"#utility.yul\":1390:1430   */\ntag_22:\n    /* \"#utility.yul\":1449:1453   */\n  dup2\n    /* \"#utility.yul\":1439:1475   */\n  tag_23\n  jumpi\n    /* \"#utility.yul\":1466:1467   */\n  0x00\n    /* \"#utility.yul\":1457:1467   */\n  swap1\n  pop\n    /* \"#utility.yul\":1468:1473   */\n  jump(tag_21)\n    /* \"#utility.yul\":1439:1475   */\ntag_23:\n    /* \"#utility.yul\":1535:1539   */\n  dup2\n    /* \"#utility.yul\":1583:1584   */\n  0x01\n    /* \"#utility.yul\":1578:1605   */\n  dup2\n  eq\n  tag_25\n  jumpi\n    /* \"#utility.yul\":1619:1620   */\n  0x02\n    /* \"#utility.yul\":1614:1805   */\n  dup2\n  eq\n  tag_26\n  jumpi\n    /* \"#utility.yul\":1528:1805   */\n  jump(tag_24)\n    /* \"#utility.yul\":1578:1605   */\ntag_25:\n    /* \"#utility.yul\":1596:1597   */\n  0x01\n    /* \"#utility.yul\":1587:1597   */\n  swap2\n  pop\n    /* \"#utility.yul\":1598:1603   */\n  pop\n  jump(tag_21)\n    /* \"#utility.yul\":1614:1805   */\ntag_26:\n    /* \"#utility.yul\":1659:1662   */\n  0xff\n    /* \"#utility.yul\":1649:1657   */\n  dup5\n    /* \"#utility.yul\":1646:1663   */\n  gt\n    /* \"#utility.yul\":1643:1686   */\n  iszero\n  tag_27\n  jumpi\n    /* \"#utility.yul\":1666:1684   */\n  tag_28\n  tag_5\n  jump\t// in\ntag_28:\n    /* \"#utility.yul\":1643:1686   */\ntag_27:\n    /* \"#utility.yul\":1715:1723   */\n  dup4\n    /* \"#utility.yul\":1712:1713   */\n  0x02\n    /* \"#utility.yul\":1708:1724   */\n  exp\n    /* \"#utility.yul\":1699:1724   */\n  swap2\n  pop\n    /* \"#utility.yul\":1750:1753   */\n  dup5\n    /* \"#utility.yul\":1743:1748   */\n  dup3\n    /* \"#utility.yul\":1740:1754   */\n  gt\n    /* \"#utility.yul\":1737:1777   */\n  iszero\n  tag_29\n  jumpi\n    /* \"#utility.yul\":1757:1775   */\n  tag_30\n  tag_5\n  jump\t// in\ntag_30:\n    /* \"#utility.yul\":1737:1777   */\ntag_29:\n    /* \"#utility.yul\":1790:1795   */\n  pop\n  jump(tag_21)\n    /* \"#utility.yul\":1528:1805   */\ntag_24:\n  pop\n    /* \"#utility.yul\":1914:1916   */\n  0x20\n    /* \"#utility.yul\":1904:1912   */\n  dup4\n    /* \"#utility.yul\":1901:1917   */\n  lt\n    /* \"#utility.yul\":1895:1898   */\n  0x0133\n    /* \"#utility.yul\":1889:1893   */\n  dup4\n    /* \"#utility.yul\":1886:1899   */\n  lt\n    /* \"#utility.yul\":1882:1918   */\n  and\n    /* \"#utility.yul\":1864:1866   */\n  0x4e\n    /* \"#utility.yul\":1854:1862   */\n  dup5\n    /* \"#utility.yul\":1851:1867   */\n  lt\n    /* \"#utility.yul\":1846:1848   */\n  0x0b\n    /* \"#utility.yul\":1840:1844   */\n  dup5\n    /* \"#utility.yul\":1837:1849   */\n  lt\n    /* \"#utility.yul\":1833:1868   */\n  and\n    /* \"#utility.yul\":1817:1928   */\n  or\n    /* \"#utility.yul\":1814:2060   */\n  iszero\n  tag_31\n  jumpi\n    /* \"#utility.yul\":1970:1978   */\n  dup3\n    /* \"#utility.yul\":1964:1968   */\n  dup3\n    /* \"#utility.yul\":1960:1979   */\n  exp\n    /* \"#utility.yul\":1951:1979   */\n  swap1\n  pop\n    /* \"#utility.yul\":2005:2008   */\n  dup4\n    /* \"#utility.yul\":1998:2003   */\n  dup2\n    /* \"#utility.yul\":1995:2009   */\n  gt\n    /* \"#utility.yul\":1992:2032   */\n  iszero\n  tag_32\n  jumpi\n    /* \"#utility.yul\":2012:2030   */\n  tag_33\n  tag_5\n  jump\t// in\ntag_33:\n    /* \"#utility.yul\":1992:2032   */\ntag_32:\n    /* \"#utility.yul\":2045:2050   */\n  jump(tag_21)\n    /* \"#utility.yul\":1814:2060   */\ntag_31:\n    /* \"#utility.yul\":2085:2127   */\n  tag_34\n    /* \"#utility.yul\":2123:2126   */\n  dup5\n    /* \"#utility.yul\":2113:2121   */\n  dup5\n    /* \"#utility.yul\":2107:2111   */\n  dup5\n    /* \"#utility.yul\":2104:2105   */\n  0x01\n    /* \"#utility.yul\":2085:2127   */\n  tag_7\n  jump\t// in\ntag_34:\n    /* \"#utility.yul\":2070:2127   */\n  swap3\n  pop\n  swap1\n  pop\n    /* \"#utility.yul\":2159:2163   */\n  dup2\n    /* \"#utility.yul\":2154:2157   */\n  dup5\n    /* \"#utility.yul\":2150:2164   */\n  div\n    /* \"#utility.yul\":2143:2148   */\n  dup2\n    /* \"#utility.yul\":2140:2165   */\n  gt\n    /* \"#utility.yul\":2137:2188   */\n  iszero\n  tag_35\n  jumpi\n    /* \"#utility.yul\":2168:2186   */\n  tag_36\n  tag_5\n  jump\t// in\ntag_36:\n    /* \"#utility.yul\":2137:2188   */\ntag_35:\n    /* \"#utility.yul\":2217:2221   */\n  dup2\n    /* \"#utility.yul\":2210:2215   */\n  dup2\n    /* \"#utility.yul\":2206:2222   */\n  mul\n    /* \"#utility.yul\":2197:2222   */\n  swap1\n  pop\n    /* \"#utility.yul\":1155:2228   */\ntag_21:\n  swap4\n  swap3\n  pop\n  pop\n  pop\n  jump\t// out\n    /* \"#utility.yul\":2234:2311   */\ntag_9:\n    /* \"#utility.yul\":2271:2278   */\n  0x00\n    /* \"#utility.yul\":2300:2305   */\n  dup2\n    /* \"#utility.yul\":2289:2305   */\n  swap1\n  pop\n    /* \"#utility.yul\":2234:2311   */\n  swap2\n  swap1\n  pop\n  jump\t// out\n    /* \"#utility.yul\":2317:2602   */\ntag_2:\n    /* \"#utility.yul\":2377:2382   */\n  0x00\n    /* \"#utility.yul\":2401:2424   */\n  tag_39\n    /* \"#utility.yul\":2419:2423   */\n  dup3\n    /* \"#utility.yul\":2401:2424   */\n  tag_9\n  jump\t// in\ntag_39:\n    /* \"#utility.yul\":2393:2424   */\n  swap2\n  pop\n    /* \"#utility.yul\":2445:2472   */\n  tag_40\n    /* \"#utility.yul\":2463:2471   */\n  dup4\n    /* \"#utility.yul\":2445:2472   */\n  tag_9\n  jump\t// in\ntag_40:\n    /* \"#utility.yul\":2433:2472   */\n  swap3\n  pop\n    /* \"#utility.yul\":2491:2595   */\n  tag_41\n    /* \"#utility.yul\":2528:2594   */\n  0xffffffffffffffffffffffffffffffffffffffffffffffffffffffffffffffff\n    /* \"#utility.yul\":2518:2526   */\n  dup5\n    /* \"#utility.yul\":2512:2516   */\n  dup5\n    /* \"#utility.yul\":2491:2595   */\n  tag_8\n  jump\t// in\ntag_41:\n    /* \"#utility.yul\":2482:2595   */\n  swap1\n  pop\n    /* \"#utility.yul\":2317:2602   */\n  swap3\n  swap2\n  pop\n  pop\n  jump\t// out\n    /* \"TestKnowledge/ZombieFactory.sol\":62:1145  contract ZombieFactory {... */\ntag_4:\n  dataSize(sub_0)\n  dup1\n  dataOffset(sub_0)\n  0x00\n  codecopy\n  0x00\n  return\nstop\n\nsub_0: assembly {\n        /* \"TestKnowledge/ZombieFactory.sol\":62:1145  contract ZombieFactory {... */\n      mstore(0x40, 0x80)\n      callvalue\n      dup1\n      iszero\n      tag_1\n      jumpi\n      0x00\n      dup1\n      revert\n    tag_1:\n      pop\n      jumpi(tag_2, lt(calldatasize, 0x04))\n      shr(0xe0, calldataload(0x00))\n      dup1\n      0x2052465e\n      eq\n      tag_3\n      jumpi\n      dup1\n      0x528b7b8f\n      eq\n      tag_4\n      jumpi\n      dup1\n      0x7bff0a01\n      eq\n      tag_5\n      jumpi\n    tag_2:\n      0x00\n      dup1\n      revert\n        /* \"TestKnowledge/ZombieFactory.sol\":295:318  Zombie[] public zombies */\n    tag_3:\n      tag_6\n      0x04\n      dup1\n      calldatasize\n      sub\n      dup2\n      add\n      swap1\n      tag_7\n      swap2\n      swap1\n      tag_8\n      jump\t// in\n    tag_7:\n      tag_9\n      jump\t// in\n    tag_6:\n      mload(0x40)\n      tag_10\n      swap3\n      swap2\n      swap1\n      tag_11\n      jump\t// in\n    tag_10:\n      mload(0x40)\n      dup1\n      swap2\n      sub\n      swap1\n      return\n        /* \"TestKnowledge/ZombieFactory.sol\":327:373  mapping (uint => address) public zombieToOwner */\n    tag_4:\n      tag_12\n      0x04\n      dup1\n      calldatasize\n      sub\n      dup2\n      add\n      swap1\n      tag_13\n      swap2\n      swap1\n      tag_8\n      jump\t// in\n    tag_13:\n      tag_14\n      jump\t// in\n    tag_12:\n      mload(0x40)\n      tag_15\n      swap2\n      swap1\n      tag_16\n      jump\t// in\n    tag_15:\n      mload(0x40)\n      dup1\n      swap2\n      sub\n      swap1\n      return\n        /* \"TestKnowledge/ZombieFactory.sol\":888:1140  function createRandomZombie(string memory _name) public {... */\n    tag_5:\n      tag_17\n      0x04\n      dup1\n      calldatasize\n      sub\n      dup2\n      add\n      swap1\n      tag_18\n      swap2\n      swap1\n      tag_19\n      jump\t// in\n    tag_18:\n      tag_20\n      jump\t// in\n    tag_17:\n      stop\n        /* \"TestKnowledge/ZombieFactory.sol\":295:318  Zombie[] public zombies */\n    tag_9:\n      0x02\n      dup2\n      dup2\n      sload\n      dup2\n      lt\n      tag_21\n      jumpi\n      0x00\n      dup1\n      revert\n    tag_21:\n      swap1\n      0x00\n      mstore\n      keccak256(0x00, 0x20)\n      swap1\n      0x02\n      mul\n      add\n      0x00\n      swap2\n      pop\n      swap1\n      pop\n      dup1\n      0x00\n      add\n      dup1\n      sload\n      tag_23\n      swap1\n      tag_24\n      jump\t// in\n    tag_23:\n      dup1\n      0x1f\n      add\n      0x20\n      dup1\n      swap2\n      div\n      mul\n      0x20\n      add\n      mload(0x40)\n      swap1\n      dup2\n      add\n      0x40\n      mstore\n      dup1\n      swap3\n      swap2\n      swap1\n      dup2\n      dup2\n      mstore\n      0x20\n      add\n      dup3\n      dup1\n      sload\n      tag_25\n      swap1\n      tag_24\n      jump\t// in\n    tag_25:\n      dup1\n      iszero\n      tag_26\n      jumpi\n      dup1\n      0x1f\n      lt\n      tag_27\n      jumpi\n      0x0100\n      dup1\n      dup4\n      sload\n      div\n      mul\n      dup4\n      mstore\n      swap2\n      0x20\n      add\n      swap2\n      jump(tag_26)\n    tag_27:\n      dup3\n      add\n      swap2\n      swap1\n      0x00\n      mstore\n      keccak256(0x00, 0x20)\n      swap1\n    tag_28:\n      dup2\n      sload\n      dup2\n      mstore\n      swap1\n      0x01\n      add\n      swap1\n      0x20\n      add\n      dup1\n      dup4\n      gt\n      tag_28\n      jumpi\n      dup3\n      swap1\n      sub\n      0x1f\n      and\n      dup3\n      add\n      swap2\n    tag_26:\n      pop\n      pop\n      pop\n      pop\n      pop\n      swap1\n      dup1\n      0x01\n      add\n      sload\n      swap1\n      pop\n      dup3\n      jump\t// out\n        /* \"TestKnowledge/ZombieFactory.sol\":327:373  mapping (uint => address) public zombieToOwner */\n    tag_14:\n      mstore(0x20, 0x03)\n      dup1\n      0x00\n      mstore\n      keccak256(0x00, 0x40)\n      0x00\n      swap2\n      pop\n      sload\n      swap1\n      0x0100\n      exp\n      swap1\n      div\n      0xffffffffffffffffffffffffffffffffffffffff\n      and\n      dup2\n      jump\t// out\n        /* \"TestKnowledge/ZombieFactory.sol\":888:1140  function createRandomZombie(string memory _name) public {... */\n    tag_20:\n        /* \"TestKnowledge/ZombieFactory.sol\":995:996  0 */\n      0x00\n        /* \"TestKnowledge/ZombieFactory.sol\":963:979  ownerZombieCount */\n      0x04\n        /* \"TestKnowledge/ZombieFactory.sol\":963:991  ownerZombieCount[msg.sender] */\n      0x00\n        /* \"TestKnowledge/ZombieFactory.sol\":980:990  msg.sender */\n      caller\n        /* \"TestKnowledge/ZombieFactory.sol\":963:991  ownerZombieCount[msg.sender] */\n      0xffffffffffffffffffffffffffffffffffffffff\n      and\n      0xffffffffffffffffffffffffffffffffffffffff\n      and\n      dup2\n      mstore\n      0x20\n      add\n      swap1\n      dup2\n      mstore\n      0x20\n      add\n      0x00\n      keccak256\n      sload\n        /* \"TestKnowledge/ZombieFactory.sol\":963:996  ownerZombieCount[msg.sender] == 0 */\n      eq\n        /* \"TestKnowledge/ZombieFactory.sol\":955:997  require(ownerZombieCount[msg.sender] == 0) */\n      tag_30\n      jumpi\n      0x00\n      dup1\n      revert\n    tag_30:\n        /* \"TestKnowledge/ZombieFactory.sol\":1008:1020  uint randDna */\n      0x00\n        /* \"TestKnowledge/ZombieFactory.sol\":1023:1048  _generateRandomDna(_name) */\n      tag_31\n        /* \"TestKnowledge/ZombieFactory.sol\":1042:1047  _name */\n      dup3\n        /* \"TestKnowledge/ZombieFactory.sol\":1023:1041  _generateRandomDna */\n      tag_32\n        /* \"TestKnowledge/ZombieFactory.sol\":1023:1048  _generateRandomDna(_name) */\n      jump\t// in\n    tag_31:\n        /* \"TestKnowledge/ZombieFactory.sol\":1008:1048  uint randDna = _generateRandomDna(_name) */\n      swap1\n      pop\n        /* \"TestKnowledge/ZombieFactory.sol\":1089:1092  100 */\n      0x64\n        /* \"TestKnowledge/ZombieFactory.sol\":1079:1086  randDna */\n      dup2\n        /* \"TestKnowledge/ZombieFactory.sol\":1079:1092  randDna % 100 */\n      tag_33\n      swap2\n      swap1\n      tag_34\n      jump\t// in\n    tag_33:\n        /* \"TestKnowledge/ZombieFactory.sol\":1069:1076  randDna */\n      dup2\n        /* \"TestKnowledge/ZombieFactory.sol\":1069:1092  randDna - randDna % 100 */\n      tag_35\n      swap2\n      swap1\n      tag_36\n      jump\t// in\n    tag_35:\n        /* \"TestKnowledge/ZombieFactory.sol\":1059:1092  randDna = randDna - randDna % 100 */\n      swap1\n      pop\n        /* \"TestKnowledge/ZombieFactory.sol\":1103:1132  _createZombie(_name, randDna) */\n      tag_37\n        /* \"TestKnowledge/ZombieFactory.sol\":1117:1122  _name */\n      dup3\n        /* \"TestKnowledge/ZombieFactory.sol\":1124:1131  randDna */\n      dup3\n        /* \"TestKnowledge/ZombieFactory.sol\":1103:1116  _createZombie */\n      tag_38\n        /* \"TestKnowledge/ZombieFactory.sol\":1103:1132  _createZombie(_name, randDna) */\n      jump\t// in\n    tag_37:\n        /* \"TestKnowledge/ZombieFactory.sol\":944:1140  {... */\n      pop\n        /* \"TestKnowledge/ZombieFactory.sol\":888:1140  function createRandomZombie(string memory _name) public {... */\n      pop\n      jump\t// out\n        /* \"TestKnowledge/ZombieFactory.sol\":699:880  function _generateRandomDna(string memory _str) private view returns (uint) {... */\n    tag_32:\n        /* \"TestKnowledge/ZombieFactory.sol\":769:773  uint */\n      0x00\n        /* \"TestKnowledge/ZombieFactory.sol\":786:795  uint rand */\n      dup1\n        /* \"TestKnowledge/ZombieFactory.sol\":830:834  _str */\n      dup3\n        /* \"TestKnowledge/ZombieFactory.sol\":813:835  abi.encodePacked(_str) */\n      add(0x20, mload(0x40))\n      tag_40\n      swap2\n      swap1\n      tag_41\n      jump\t// in\n    tag_40:\n      mload(0x40)\n      0x20\n      dup2\n      dup4\n      sub\n      sub\n      dup2\n      mstore\n      swap1\n      0x40\n      mstore\n        /* \"TestKnowledge/ZombieFactory.sol\":803:836  keccak256(abi.encodePacked(_str)) */\n      dup1\n      mload\n      swap1\n      0x20\n      add\n      keccak256\n        /* \"TestKnowledge/ZombieFactory.sol\":798:837  uint(keccak256(abi.encodePacked(_str))) */\n      0x00\n      shr\n        /* \"TestKnowledge/ZombieFactory.sol\":786:837  uint rand = uint(keccak256(abi.encodePacked(_str))) */\n      swap1\n      pop\n        /* \"TestKnowledge/ZombieFactory.sol\":862:872  dnaModulus */\n      sload(0x01)\n        /* \"TestKnowledge/ZombieFactory.sol\":855:859  rand */\n      dup2\n        /* \"TestKnowledge/ZombieFactory.sol\":855:872  rand % dnaModulus */\n      tag_42\n      swap2\n      swap1\n      tag_34\n      jump\t// in\n    tag_42:\n        /* \"TestKnowledge/ZombieFactory.sol\":848:872  return rand % dnaModulus */\n      swap2\n      pop\n      pop\n        /* \"TestKnowledge/ZombieFactory.sol\":699:880  function _generateRandomDna(string memory _str) private view returns (uint) {... */\n      swap2\n      swap1\n      pop\n      jump\t// out\n        /* \"TestKnowledge/ZombieFactory.sol\":431:691  function _createZombie(string memory _name, uint _dna) internal {... */\n    tag_38:\n        /* \"TestKnowledge/ZombieFactory.sol\":506:513  uint id */\n      0x00\n        /* \"TestKnowledge/ZombieFactory.sol\":516:523  zombies */\n      0x02\n        /* \"TestKnowledge/ZombieFactory.sol\":516:530  zombies.length */\n      dup1\n      sload\n      swap1\n      pop\n        /* \"TestKnowledge/ZombieFactory.sol\":506:530  uint id = zombies.length */\n      swap1\n      pop\n        /* \"TestKnowledge/ZombieFactory.sol\":558:559  1 */\n      0x01\n        /* \"TestKnowledge/ZombieFactory.sol\":541:548  zombies */\n      0x02\n        /* \"TestKnowledge/ZombieFactory.sol\":541:555  zombies.length */\n      dup1\n      sload\n      swap1\n      pop\n        /* \"TestKnowledge/ZombieFactory.sol\":541:559  zombies.length - 1 */\n      tag_44\n      swap2\n      swap1\n      tag_36\n      jump\t// in\n    tag_44:\n      pop\n        /* \"TestKnowledge/ZombieFactory.sol\":590:600  msg.sender */\n      caller\n        /* \"TestKnowledge/ZombieFactory.sol\":570:583  zombieToOwner */\n      0x03\n        /* \"TestKnowledge/ZombieFactory.sol\":570:587  zombieToOwner[id] */\n      0x00\n        /* \"TestKnowledge/ZombieFactory.sol\":584:586  id */\n      dup4\n        /* \"TestKnowledge/ZombieFactory.sol\":570:587  zombieToOwner[id] */\n      dup2\n      mstore\n      0x20\n      add\n      swap1\n      dup2\n      mstore\n      0x20\n      add\n      0x00\n      keccak256\n      0x00\n        /* \"TestKnowledge/ZombieFactory.sol\":570:600  zombieToOwner[id] = msg.sender */\n      0x0100\n      exp\n      dup2\n      sload\n      dup2\n      0xffffffffffffffffffffffffffffffffffffffff\n      mul\n      not\n      and\n      swap1\n      dup4\n      0xffffffffffffffffffffffffffffffffffffffff\n      and\n      mul\n      or\n      swap1\n      sstore\n      pop\n        /* \"TestKnowledge/ZombieFactory.sol\":611:627  ownerZombieCount */\n      0x04\n        /* \"TestKnowledge/ZombieFactory.sol\":611:639  ownerZombieCount[msg.sender] */\n      0x00\n        /* \"TestKnowledge/ZombieFactory.sol\":628:638  msg.sender */\n      caller\n        /* \"TestKnowledge/ZombieFactory.sol\":611:639  ownerZombieCount[msg.sender] */\n      0xffffffffffffffffffffffffffffffffffffffff\n      and\n      0xffffffffffffffffffffffffffffffffffffffff\n      and\n      dup2\n      mstore\n      0x20\n      add\n      swap1\n      dup2\n      mstore\n      0x20\n      add\n      0x00\n      keccak256\n      0x00\n        /* \"TestKnowledge/ZombieFactory.sol\":611:641  ownerZombieCount[msg.sender]++ */\n      dup2\n      sload\n      dup1\n      swap3\n      swap2\n      swap1\n      tag_45\n      swap1\n      tag_46\n      jump\t// in\n    tag_45:\n      swap2\n      swap1\n      pop\n      sstore\n      pop\n        /* \"TestKnowledge/ZombieFactory.sol\":657:683  NewZombie(id, _name, _dna) */\n      0x88f026aacbbecc90c18411df4b1185fd8d9be2470f1962f192bf84a27d0704b7\n        /* \"TestKnowledge/ZombieFactory.sol\":667:669  id */\n      dup2\n        /* \"TestKnowledge/ZombieFactory.sol\":671:676  _name */\n      dup5\n        /* \"TestKnowledge/ZombieFactory.sol\":678:682  _dna */\n      dup5\n        /* \"TestKnowledge/ZombieFactory.sol\":657:683  NewZombie(id, _name, _dna) */\n      mload(0x40)\n      tag_47\n      swap4\n      swap3\n      swap2\n      swap1\n      tag_48\n      jump\t// in\n    tag_47:\n      mload(0x40)\n      dup1\n      swap2\n      sub\n      swap1\n      log1\n        /* \"TestKnowledge/ZombieFactory.sol\":495:691  {... */\n      pop\n        /* \"TestKnowledge/ZombieFactory.sol\":431:691  function _createZombie(string memory _name, uint _dna) internal {... */\n      pop\n      pop\n      jump\t// out\n        /* \"#utility.yul\":7:82   */\n    tag_49:\n        /* \"#utility.yul\":40:46   */\n      0x00\n        /* \"#utility.yul\":73:75   */\n      0x40\n        /* \"#utility.yul\":67:76   */\n      mload\n        /* \"#utility.yul\":57:76   */\n      swap1\n      pop\n        /* \"#utility.yul\":7:82   */\n      swap1\n      jump\t// out\n        /* \"#utility.yul\":88:205   */\n    tag_50:\n        /* \"#utility.yul\":197:198   */\n      0x00\n        /* \"#utility.yul\":194:195   */\n      dup1\n        /* \"#utility.yul\":187:199   */\n      revert\n        /* \"#utility.yul\":211:328   */\n    tag_51:\n        /* \"#utility.yul\":320:321   */\n      0x00\n        /* \"#utility.yul\":317:318   */\n      dup1\n        /* \"#utility.yul\":310:322   */\n      revert\n        /* \"#utility.yul\":334:411   */\n    tag_52:\n        /* \"#utility.yul\":371:378   */\n      0x00\n        /* \"#utility.yul\":400:405   */\n      dup2\n        /* \"#utility.yul\":389:405   */\n      swap1\n      pop\n        /* \"#utility.yul\":334:411   */\n      swap2\n      swap1\n      pop\n      jump\t// out\n        /* \"#utility.yul\":417:539   */\n    tag_53:\n        /* \"#utility.yul\":490:514   */\n      tag_84\n        /* \"#utility.yul\":508:513   */\n      dup2\n        /* \"#utility.yul\":490:514   */\n      tag_52\n      jump\t// in\n    tag_84:\n        /* \"#utility.yul\":483:488   */\n      dup2\n        /* \"#utility.yul\":480:515   */\n      eq\n        /* \"#utility.yul\":470:533   */\n      tag_85\n      jumpi\n        /* \"#utility.yul\":529:530   */\n      0x00\n        /* \"#utility.yul\":526:527   */\n      dup1\n        /* \"#utility.yul\":519:531   */\n      revert\n        /* \"#utility.yul\":470:533   */\n    tag_85:\n        /* \"#utility.yul\":417:539   */\n      pop\n      jump\t// out\n        /* \"#utility.yul\":545:684   */\n    tag_54:\n        /* \"#utility.yul\":591:596   */\n      0x00\n        /* \"#utility.yul\":629:635   */\n      dup2\n        /* \"#utility.yul\":616:636   */\n      calldataload\n        /* \"#utility.yul\":607:636   */\n      swap1\n      pop\n        /* \"#utility.yul\":645:678   */\n      tag_87\n        /* \"#utility.yul\":672:677   */\n      dup2\n        /* \"#utility.yul\":645:678   */\n      tag_53\n      jump\t// in\n    tag_87:\n        /* \"#utility.yul\":545:684   */\n      swap3\n      swap2\n      pop\n      pop\n      jump\t// out\n        /* \"#utility.yul\":690:1019   */\n    tag_8:\n        /* \"#utility.yul\":749:755   */\n      0x00\n        /* \"#utility.yul\":798:800   */\n      0x20\n        /* \"#utility.yul\":786:795   */\n      dup3\n        /* \"#utility.yul\":777:784   */\n      dup5\n        /* \"#utility.yul\":773:796   */\n      sub\n        /* \"#utility.yul\":769:801   */\n      slt\n        /* \"#utility.yul\":766:885   */\n      iszero\n      tag_89\n      jumpi\n        /* \"#utility.yul\":804:883   */\n      tag_90\n      tag_50\n      jump\t// in\n    tag_90:\n        /* \"#utility.yul\":766:885   */\n    tag_89:\n        /* \"#utility.yul\":924:925   */\n      0x00\n        /* \"#utility.yul\":949:1002   */\n      tag_91\n        /* \"#utility.yul\":994:1001   */\n      dup5\n        /* \"#utility.yul\":985:991   */\n      dup3\n        /* \"#utility.yul\":974:983   */\n      dup6\n        /* \"#utility.yul\":970:992   */\n      add\n        /* \"#utility.yul\":949:1002   */\n      tag_54\n      jump\t// in\n    tag_91:\n        /* \"#utility.yul\":939:1002   */\n      swap2\n      pop\n        /* \"#utility.yul\":895:1012   */\n      pop\n        /* \"#utility.yul\":690:1019   */\n      swap3\n      swap2\n      pop\n      pop\n      jump\t// out\n        /* \"#utility.yul\":1025:1124   */\n    tag_55:\n        /* \"#utility.yul\":1077:1083   */\n      0x00\n        /* \"#utility.yul\":1111:1116   */\n      dup2\n        /* \"#utility.yul\":1105:1117   */\n      mload\n        /* \"#utility.yul\":1095:1117   */\n      swap1\n      pop\n        /* \"#utility.yul\":1025:1124   */\n      swap2\n      swap1\n      pop\n      jump\t// out\n        /* \"#utility.yul\":1130:1299   */\n    tag_56:\n        /* \"#utility.yul\":1214:1225   */\n      0x00\n        /* \"#utility.yul\":1248:1254   */\n      dup3\n        /* \"#utility.yul\":1243:1246   */\n      dup3\n        /* \"#utility.yul\":1236:1255   */\n      mstore\n        /* \"#utility.yul\":1288:1292   */\n      0x20\n        /* \"#utility.yul\":1283:1286   */\n      dup3\n        /* \"#utility.yul\":1279:1293   */\n      add\n        /* \"#utility.yul\":1264:1293   */\n      swap1\n      pop\n        /* \"#utility.yul\":1130:1299   */\n      swap3\n      swap2\n      pop\n      pop\n      jump\t// out\n        /* \"#utility.yul\":1305:1551   */\n    tag_57:\n        /* \"#utility.yul\":1386:1387   */\n      0x00\n        /* \"#utility.yul\":1396:1509   */\n    tag_95:\n        /* \"#utility.yul\":1410:1416   */\n      dup4\n        /* \"#utility.yul\":1407:1408   */\n      dup2\n        /* \"#utility.yul\":1404:1417   */\n      lt\n        /* \"#utility.yul\":1396:1509   */\n      iszero\n      tag_97\n      jumpi\n        /* \"#utility.yul\":1495:1496   */\n      dup1\n        /* \"#utility.yul\":1490:1493   */\n      dup3\n        /* \"#utility.yul\":1486:1497   */\n      add\n        /* \"#utility.yul\":1480:1498   */\n      mload\n        /* \"#utility.yul\":1476:1477   */\n      dup2\n        /* \"#utility.yul\":1471:1474   */\n      dup5\n        /* \"#utility.yul\":1467:1478   */\n      add\n        /* \"#utility.yul\":1460:1499   */\n      mstore\n        /* \"#utility.yul\":1432:1434   */\n      0x20\n        /* \"#utility.yul\":1429:1430   */\n      dup2\n        /* \"#utility.yul\":1425:1435   */\n      add\n        /* \"#utility.yul\":1420:1435   */\n      swap1\n      pop\n        /* \"#utility.yul\":1396:1509   */\n      jump(tag_95)\n    tag_97:\n        /* \"#utility.yul\":1543:1544   */\n      0x00\n        /* \"#utility.yul\":1534:1540   */\n      dup5\n        /* \"#utility.yul\":1529:1532   */\n      dup5\n        /* \"#utility.yul\":1525:1541   */\n      add\n        /* \"#utility.yul\":1518:1545   */\n      mstore\n        /* \"#utility.yul\":1367:1551   */\n      pop\n        /* \"#utility.yul\":1305:1551   */\n      pop\n      pop\n      pop\n      jump\t// out\n        /* \"#utility.yul\":1557:1659   */\n    tag_58:\n        /* \"#utility.yul\":1598:1604   */\n      0x00\n        /* \"#utility.yul\":1649:1651   */\n      0x1f\n        /* \"#utility.yul\":1645:1652   */\n      not\n        /* \"#utility.yul\":1640:1642   */\n      0x1f\n        /* \"#utility.yul\":1633:1638   */\n      dup4\n        /* \"#utility.yul\":1629:1643   */\n      add\n        /* \"#utility.yul\":1625:1653   */\n      and\n        /* \"#utility.yul\":1615:1653   */\n      swap1\n      pop\n        /* \"#utility.yul\":1557:1659   */\n      swap2\n      swap1\n      pop\n      jump\t// out\n        /* \"#utility.yul\":1665:2042   */\n    tag_59:\n        /* \"#utility.yul\":1753:1756   */\n      0x00\n        /* \"#utility.yul\":1781:1820   */\n      tag_100\n        /* \"#utility.yul\":1814:1819   */\n      dup3\n        /* \"#utility.yul\":1781:1820   */\n      tag_55\n      jump\t// in\n    tag_100:\n        /* \"#utility.yul\":1836:1907   */\n      tag_101\n        /* \"#utility.yul\":1900:1906   */\n      dup2\n        /* \"#utility.yul\":1895:1898   */\n      dup6\n        /* \"#utility.yul\":1836:1907   */\n      tag_56\n      jump\t// in\n    tag_101:\n        /* \"#utility.yul\":1829:1907   */\n      swap4\n      pop\n        /* \"#utility.yul\":1916:1981   */\n      tag_102\n        /* \"#utility.yul\":1974:1980   */\n      dup2\n        /* \"#utility.yul\":1969:1972   */\n      dup6\n        /* \"#utility.yul\":1962:1966   */\n      0x20\n        /* \"#utility.yul\":1955:1960   */\n      dup7\n        /* \"#utility.yul\":1951:1967   */\n      add\n        /* \"#utility.yul\":1916:1981   */\n      tag_57\n      jump\t// in\n    tag_102:\n        /* \"#utility.yul\":2006:2035   */\n      tag_103\n        /* \"#utility.yul\":2028:2034   */\n      dup2\n        /* \"#utility.yul\":2006:2035   */\n      tag_58\n      jump\t// in\n    tag_103:\n        /* \"#utility.yul\":2001:2004   */\n      dup5\n        /* \"#utility.yul\":1997:2036   */\n      add\n        /* \"#utility.yul\":1990:2036   */\n      swap2\n      pop\n        /* \"#utility.yul\":1757:2042   */\n      pop\n        /* \"#utility.yul\":1665:2042   */\n      swap3\n      swap2\n      pop\n      pop\n      jump\t// out\n        /* \"#utility.yul\":2048:2166   */\n    tag_60:\n        /* \"#utility.yul\":2135:2159   */\n      tag_105\n        /* \"#utility.yul\":2153:2158   */\n      dup2\n        /* \"#utility.yul\":2135:2159   */\n      tag_52\n      jump\t// in\n    tag_105:\n        /* \"#utility.yul\":2130:2133   */\n      dup3\n        /* \"#utility.yul\":2123:2160   */\n      mstore\n        /* \"#utility.yul\":2048:2166   */\n      pop\n      pop\n      jump\t// out\n        /* \"#utility.yul\":2172:2595   */\n    tag_11:\n        /* \"#utility.yul\":2313:2317   */\n      0x00\n        /* \"#utility.yul\":2351:2353   */\n      0x40\n        /* \"#utility.yul\":2340:2349   */\n      dup3\n        /* \"#utility.yul\":2336:2354   */\n      add\n        /* \"#utility.yul\":2328:2354   */\n      swap1\n      pop\n        /* \"#utility.yul\":2400:2409   */\n      dup2\n        /* \"#utility.yul\":2394:2398   */\n      dup2\n        /* \"#utility.yul\":2390:2410   */\n      sub\n        /* \"#utility.yul\":2386:2387   */\n      0x00\n        /* \"#utility.yul\":2375:2384   */\n      dup4\n        /* \"#utility.yul\":2371:2388   */\n      add\n        /* \"#utility.yul\":2364:2411   */\n      mstore\n        /* \"#utility.yul\":2428:2506   */\n      tag_107\n        /* \"#utility.yul\":2501:2505   */\n      dup2\n        /* \"#utility.yul\":2492:2498   */\n      dup6\n        /* \"#utility.yul\":2428:2506   */\n      tag_59\n      jump\t// in\n    tag_107:\n        /* \"#utility.yul\":2420:2506   */\n      swap1\n      pop\n        /* \"#utility.yul\":2516:2588   */\n      tag_108\n        /* \"#utility.yul\":2584:2586   */\n      0x20\n        /* \"#utility.yul\":2573:2582   */\n      dup4\n        /* \"#utility.yul\":2569:2587   */\n      add\n        /* \"#utility.yul\":2560:2566   */\n      dup5\n        /* \"#utility.yul\":2516:2588   */\n      tag_60\n      jump\t// in\n    tag_108:\n        /* \"#utility.yul\":2172:2595   */\n      swap4\n      swap3\n      pop\n      pop\n      pop\n      jump\t// out\n        /* \"#utility.yul\":2601:2727   */\n    tag_61:\n        /* \"#utility.yul\":2638:2645   */\n      0x00\n        /* \"#utility.yul\":2678:2720   */\n      0xffffffffffffffffffffffffffffffffffffffff\n        /* \"#utility.yul\":2671:2676   */\n      dup3\n        /* \"#utility.yul\":2667:2721   */\n      and\n        /* \"#utility.yul\":2656:2721   */\n      swap1\n      pop\n        /* \"#utility.yul\":2601:2727   */\n      swap2\n      swap1\n      pop\n      jump\t// out\n        /* \"#utility.yul\":2733:2829   */\n    tag_62:\n        /* \"#utility.yul\":2770:2777   */\n      0x00\n        /* \"#utility.yul\":2799:2823   */\n      tag_111\n        /* \"#utility.yul\":2817:2822   */\n      dup3\n        /* \"#utility.yul\":2799:2823   */\n      tag_61\n      jump\t// in\n    tag_111:\n        /* \"#utility.yul\":2788:2823   */\n      swap1\n      pop\n        /* \"#utility.yul\":2733:2829   */\n      swap2\n      swap1\n      pop\n      jump\t// out\n        /* \"#utility.yul\":2835:2953   */\n    tag_63:\n        /* \"#utility.yul\":2922:2946   */\n      tag_113\n        /* \"#utility.yul\":2940:2945   */\n      dup2\n        /* \"#utility.yul\":2922:2946   */\n      tag_62\n      jump\t// in\n    tag_113:\n        /* \"#utility.yul\":2917:2920   */\n      dup3\n        /* \"#utility.yul\":2910:2947   */\n      mstore\n        /* \"#utility.yul\":2835:2953   */\n      pop\n      pop\n      jump\t// out\n        /* \"#utility.yul\":2959:3181   */\n    tag_16:\n        /* \"#utility.yul\":3052:3056   */\n      0x00\n        /* \"#utility.yul\":3090:3092   */\n      0x20\n        /* \"#utility.yul\":3079:3088   */\n      dup3\n        /* \"#utility.yul\":3075:3093   */\n      add\n        /* \"#utility.yul\":3067:3093   */\n      swap1\n      pop\n        /* \"#utility.yul\":3103:3174   */\n      tag_115\n        /* \"#utility.yul\":3171:3172   */\n      0x00\n        /* \"#utility.yul\":3160:3169   */\n      dup4\n        /* \"#utility.yul\":3156:3173   */\n      add\n        /* \"#utility.yul\":3147:3153   */\n      dup5\n        /* \"#utility.yul\":3103:3174   */\n      tag_63\n      jump\t// in\n    tag_115:\n        /* \"#utility.yul\":2959:3181   */\n      swap3\n      swap2\n      pop\n      pop\n      jump\t// out\n        /* \"#utility.yul\":3187:3304   */\n    tag_64:\n        /* \"#utility.yul\":3296:3297   */\n      0x00\n        /* \"#utility.yul\":3293:3294   */\n      dup1\n        /* \"#utility.yul\":3286:3298   */\n      revert\n        /* \"#utility.yul\":3310:3427   */\n    tag_65:\n        /* \"#utility.yul\":3419:3420   */\n      0x00\n        /* \"#utility.yul\":3416:3417   */\n      dup1\n        /* \"#utility.yul\":3409:3421   */\n      revert\n        /* \"#utility.yul\":3433:3613   */\n    tag_66:\n        /* \"#utility.yul\":3481:3558   */\n      0x4e487b7100000000000000000000000000000000000000000000000000000000\n        /* \"#utility.yul\":3478:3479   */\n      0x00\n        /* \"#utility.yul\":3471:3559   */\n      mstore\n        /* \"#utility.yul\":3578:3582   */\n      0x41\n        /* \"#utility.yul\":3575:3576   */\n      0x04\n        /* \"#utility.yul\":3568:3583   */\n      mstore\n        /* \"#utility.yul\":3602:3606   */\n      0x24\n        /* \"#utility.yul\":3599:3600   */\n      0x00\n        /* \"#utility.yul\":3592:3607   */\n      revert\n        /* \"#utility.yul\":3619:3900   */\n    tag_67:\n        /* \"#utility.yul\":3702:3729   */\n      tag_120\n        /* \"#utility.yul\":3724:3728   */\n      dup3\n        /* \"#utility.yul\":3702:3729   */\n      tag_58\n      jump\t// in\n    tag_120:\n        /* \"#utility.yul\":3694:3700   */\n      dup2\n        /* \"#utility.yul\":3690:3730   */\n      add\n        /* \"#utility.yul\":3832:3838   */\n      dup2\n        /* \"#utility.yul\":3820:3830   */\n      dup2\n        /* \"#utility.yul\":3817:3839   */\n      lt\n        /* \"#utility.yul\":3796:3814   */\n      0xffffffffffffffff\n        /* \"#utility.yul\":3784:3794   */\n      dup3\n        /* \"#utility.yul\":3781:3815   */\n      gt\n        /* \"#utility.yul\":3778:3840   */\n      or\n        /* \"#utility.yul\":3775:3863   */\n      iszero\n      tag_121\n      jumpi\n        /* \"#utility.yul\":3843:3861   */\n      tag_122\n      tag_66\n      jump\t// in\n    tag_122:\n        /* \"#utility.yul\":3775:3863   */\n    tag_121:\n        /* \"#utility.yul\":3883:3893   */\n      dup1\n        /* \"#utility.yul\":3879:3881   */\n      0x40\n        /* \"#utility.yul\":3872:3894   */\n      mstore\n        /* \"#utility.yul\":3662:3900   */\n      pop\n        /* \"#utility.yul\":3619:3900   */\n      pop\n      pop\n      jump\t// out\n        /* \"#utility.yul\":3906:4035   */\n    tag_68:\n        /* \"#utility.yul\":3940:3946   */\n      0x00\n        /* \"#utility.yul\":3967:3987   */\n      tag_124\n      tag_49\n      jump\t// in\n    tag_124:\n        /* \"#utility.yul\":3957:3987   */\n      swap1\n      pop\n        /* \"#utility.yul\":3996:4029   */\n      tag_125\n        /* \"#utility.yul\":4024:4028   */\n      dup3\n        /* \"#utility.yul\":4016:4022   */\n      dup3\n        /* \"#utility.yul\":3996:4029   */\n      tag_67\n      jump\t// in\n    tag_125:\n        /* \"#utility.yul\":3906:4035   */\n      swap2\n      swap1\n      pop\n      jump\t// out\n        /* \"#utility.yul\":4041:4349   */\n    tag_69:\n        /* \"#utility.yul\":4103:4107   */\n      0x00\n        /* \"#utility.yul\":4193:4211   */\n      0xffffffffffffffff\n        /* \"#utility.yul\":4185:4191   */\n      dup3\n        /* \"#utility.yul\":4182:4212   */\n      gt\n        /* \"#utility.yul\":4179:4235   */\n      iszero\n      tag_127\n      jumpi\n        /* \"#utility.yul\":4215:4233   */\n      tag_128\n      tag_66\n      jump\t// in\n    tag_128:\n        /* \"#utility.yul\":4179:4235   */\n    tag_127:\n        /* \"#utility.yul\":4253:4282   */\n      tag_129\n        /* \"#utility.yul\":4275:4281   */\n      dup3\n        /* \"#utility.yul\":4253:4282   */\n      tag_58\n      jump\t// in\n    tag_129:\n        /* \"#utility.yul\":4245:4282   */\n      swap1\n      pop\n        /* \"#utility.yul\":4337:4341   */\n      0x20\n        /* \"#utility.yul\":4331:4335   */\n      dup2\n        /* \"#utility.yul\":4327:4342   */\n      add\n        /* \"#utility.yul\":4319:4342   */\n      swap1\n      pop\n        /* \"#utility.yul\":4041:4349   */\n      swap2\n      swap1\n      pop\n      jump\t// out\n        /* \"#utility.yul\":4355:4501   */\n    tag_70:\n        /* \"#utility.yul\":4452:4458   */\n      dup3\n        /* \"#utility.yul\":4447:4450   */\n      dup2\n        /* \"#utility.yul\":4442:4445   */\n      dup4\n        /* \"#utility.yul\":4429:4459   */\n      calldatacopy\n        /* \"#utility.yul\":4493:4494   */\n      0x00\n        /* \"#utility.yul\":4484:4490   */\n      dup4\n        /* \"#utility.yul\":4479:4482   */\n      dup4\n        /* \"#utility.yul\":4475:4491   */\n      add\n        /* \"#utility.yul\":4468:4495   */\n      mstore\n        /* \"#utility.yul\":4355:4501   */\n      pop\n      pop\n      pop\n      jump\t// out\n        /* \"#utility.yul\":4507:4932   */\n    tag_71:\n        /* \"#utility.yul\":4585:4590   */\n      0x00\n        /* \"#utility.yul\":4610:4676   */\n      tag_132\n        /* \"#utility.yul\":4626:4675   */\n      tag_133\n        /* \"#utility.yul\":4668:4674   */\n      dup5\n        /* \"#utility.yul\":4626:4675   */\n      tag_69\n      jump\t// in\n    tag_133:\n        /* \"#utility.yul\":4610:4676   */\n      tag_68\n      jump\t// in\n    tag_132:\n        /* \"#utility.yul\":4601:4676   */\n      swap1\n      pop\n        /* \"#utility.yul\":4699:4705   */\n      dup3\n        /* \"#utility.yul\":4692:4697   */\n      dup2\n        /* \"#utility.yul\":4685:4706   */\n      mstore\n        /* \"#utility.yul\":4737:4741   */\n      0x20\n        /* \"#utility.yul\":4730:4735   */\n      dup2\n        /* \"#utility.yul\":4726:4742   */\n      add\n        /* \"#utility.yul\":4775:4778   */\n      dup5\n        /* \"#utility.yul\":4766:4772   */\n      dup5\n        /* \"#utility.yul\":4761:4764   */\n      dup5\n        /* \"#utility.yul\":4757:4773   */\n      add\n        /* \"#utility.yul\":4754:4779   */\n      gt\n        /* \"#utility.yul\":4751:4863   */\n      iszero\n      tag_134\n      jumpi\n        /* \"#utility.yul\":4782:4861   */\n      tag_135\n      tag_65\n      jump\t// in\n    tag_135:\n        /* \"#utility.yul\":4751:4863   */\n    tag_134:\n        /* \"#utility.yul\":4872:4926   */\n      tag_136\n        /* \"#utility.yul\":4919:4925   */\n      dup5\n        /* \"#utility.yul\":4914:4917   */\n      dup3\n        /* \"#utility.yul\":4909:4912   */\n      dup6\n        /* \"#utility.yul\":4872:4926   */\n      tag_70\n      jump\t// in\n    tag_136:\n        /* \"#utility.yul\":4591:4932   */\n      pop\n        /* \"#utility.yul\":4507:4932   */\n      swap4\n      swap3\n      pop\n      pop\n      pop\n      jump\t// out\n        /* \"#utility.yul\":4952:5292   */\n    tag_72:\n        /* \"#utility.yul\":5008:5013   */\n      0x00\n        /* \"#utility.yul\":5057:5060   */\n      dup3\n        /* \"#utility.yul\":5050:5054   */\n      0x1f\n        /* \"#utility.yul\":5042:5048   */\n      dup4\n        /* \"#utility.yul\":5038:5055   */\n      add\n        /* \"#utility.yul\":5034:5061   */\n      slt\n        /* \"#utility.yul\":5024:5146   */\n      tag_138\n      jumpi\n        /* \"#utility.yul\":5065:5144   */\n      tag_139\n      tag_64\n      jump\t// in\n    tag_139:\n        /* \"#utility.yul\":5024:5146   */\n    tag_138:\n        /* \"#utility.yul\":5182:5188   */\n      dup2\n        /* \"#utility.yul\":5169:5189   */\n      calldataload\n        /* \"#utility.yul\":5207:5286   */\n      tag_140\n        /* \"#utility.yul\":5282:5285   */\n      dup5\n        /* \"#utility.yul\":5274:5280   */\n      dup3\n        /* \"#utility.yul\":5267:5271   */\n      0x20\n        /* \"#utility.yul\":5259:5265   */\n      dup7\n        /* \"#utility.yul\":5255:5272   */\n      add\n        /* \"#utility.yul\":5207:5286   */\n      tag_71\n      jump\t// in\n    tag_140:\n        /* \"#utility.yul\":5198:5286   */\n      swap2\n      pop\n        /* \"#utility.yul\":5014:5292   */\n      pop\n        /* \"#utility.yul\":4952:5292   */\n      swap3\n      swap2\n      pop\n      pop\n      jump\t// out\n        /* \"#utility.yul\":5298:5807   */\n    tag_19:\n        /* \"#utility.yul\":5367:5373   */\n      0x00\n        /* \"#utility.yul\":5416:5418   */\n      0x20\n        /* \"#utility.yul\":5404:5413   */\n      dup3\n        /* \"#utility.yul\":5395:5402   */\n      dup5\n        /* \"#utility.yul\":5391:5414   */\n      sub\n        /* \"#utility.yul\":5387:5419   */\n      slt\n        /* \"#utility.yul\":5384:5503   */\n      iszero\n      tag_142\n      jumpi\n        /* \"#utility.yul\":5422:5501   */\n      tag_143\n      tag_50\n      jump\t// in\n    tag_143:\n        /* \"#utility.yul\":5384:5503   */\n    tag_142:\n        /* \"#utility.yul\":5570:5571   */\n      0x00\n        /* \"#utility.yul\":5559:5568   */\n      dup3\n        /* \"#utility.yul\":5555:5572   */\n      add\n        /* \"#utility.yul\":5542:5573   */\n      calldataload\n        /* \"#utility.yul\":5600:5618   */\n      0xffffffffffffffff\n        /* \"#utility.yul\":5592:5598   */\n      dup2\n        /* \"#utility.yul\":5589:5619   */\n      gt\n        /* \"#utility.yul\":5586:5703   */\n      iszero\n      tag_144\n      jumpi\n        /* \"#utility.yul\":5622:5701   */\n      tag_145\n      tag_51\n      jump\t// in\n    tag_145:\n        /* \"#utility.yul\":5586:5703   */\n    tag_144:\n        /* \"#utility.yul\":5727:5790   */\n      tag_146\n        /* \"#utility.yul\":5782:5789   */\n      dup5\n        /* \"#utility.yul\":5773:5779   */\n      dup3\n        /* \"#utility.yul\":5762:5771   */\n      dup6\n        /* \"#utility.yul\":5758:5780   */\n      add\n        /* \"#utility.yul\":5727:5790   */\n      tag_72\n      jump\t// in\n    tag_146:\n        /* \"#utility.yul\":5717:5790   */\n      swap2\n      pop\n        /* \"#utility.yul\":5513:5800   */\n      pop\n        /* \"#utility.yul\":5298:5807   */\n      swap3\n      swap2\n      pop\n      pop\n      jump\t// out\n        /* \"#utility.yul\":5813:5993   */\n    tag_73:\n        /* \"#utility.yul\":5861:5938   */\n      0x4e487b7100000000000000000000000000000000000000000000000000000000\n        /* \"#utility.yul\":5858:5859   */\n      0x00\n        /* \"#utility.yul\":5851:5939   */\n      mstore\n        /* \"#utility.yul\":5958:5962   */\n      0x22\n        /* \"#utility.yul\":5955:5956   */\n      0x04\n        /* \"#utility.yul\":5948:5963   */\n      mstore\n        /* \"#utility.yul\":5982:5986   */\n      0x24\n        /* \"#utility.yul\":5979:5980   */\n      0x00\n        /* \"#utility.yul\":5972:5987   */\n      revert\n        /* \"#utility.yul\":5999:6319   */\n    tag_24:\n        /* \"#utility.yul\":6043:6049   */\n      0x00\n        /* \"#utility.yul\":6080:6081   */\n      0x02\n        /* \"#utility.yul\":6074:6078   */\n      dup3\n        /* \"#utility.yul\":6070:6082   */\n      div\n        /* \"#utility.yul\":6060:6082   */\n      swap1\n      pop\n        /* \"#utility.yul\":6127:6128   */\n      0x01\n        /* \"#utility.yul\":6121:6125   */\n      dup3\n        /* \"#utility.yul\":6117:6129   */\n      and\n        /* \"#utility.yul\":6148:6166   */\n      dup1\n        /* \"#utility.yul\":6138:6219   */\n      tag_149\n      jumpi\n        /* \"#utility.yul\":6204:6208   */\n      0x7f\n        /* \"#utility.yul\":6196:6202   */\n      dup3\n        /* \"#utility.yul\":6192:6209   */\n      and\n        /* \"#utility.yul\":6182:6209   */\n      swap2\n      pop\n        /* \"#utility.yul\":6138:6219   */\n    tag_149:\n        /* \"#utility.yul\":6266:6268   */\n      0x20\n        /* \"#utility.yul\":6258:6264   */\n      dup3\n        /* \"#utility.yul\":6255:6269   */\n      lt\n        /* \"#utility.yul\":6235:6253   */\n      dup2\n        /* \"#utility.yul\":6232:6270   */\n      sub\n        /* \"#utility.yul\":6229:6313   */\n      tag_150\n      jumpi\n        /* \"#utility.yul\":6285:6303   */\n      tag_151\n      tag_73\n      jump\t// in\n    tag_151:\n        /* \"#utility.yul\":6229:6313   */\n    tag_150:\n        /* \"#utility.yul\":6050:6319   */\n      pop\n        /* \"#utility.yul\":5999:6319   */\n      swap2\n      swap1\n      pop\n      jump\t// out\n        /* \"#utility.yul\":6325:6505   */\n    tag_74:\n        /* \"#utility.yul\":6373:6450   */\n      0x4e487b7100000000000000000000000000000000000000000000000000000000\n        /* \"#utility.yul\":6370:6371   */\n      0x00\n        /* \"#utility.yul\":6363:6451   */\n      mstore\n        /* \"#utility.yul\":6470:6474   */\n      0x12\n        /* \"#utility.yul\":6467:6468   */\n      0x04\n        /* \"#utility.yul\":6460:6475   */\n      mstore\n        /* \"#utility.yul\":6494:6498   */\n      0x24\n        /* \"#utility.yul\":6491:6492   */\n      0x00\n        /* \"#utility.yul\":6484:6499   */\n      revert\n        /* \"#utility.yul\":6511:6687   */\n    tag_34:\n        /* \"#utility.yul\":6543:6544   */\n      0x00\n        /* \"#utility.yul\":6560:6580   */\n      tag_154\n        /* \"#utility.yul\":6578:6579   */\n      dup3\n        /* \"#utility.yul\":6560:6580   */\n      tag_52\n      jump\t// in\n    tag_154:\n        /* \"#utility.yul\":6555:6580   */\n      swap2\n      pop\n        /* \"#utility.yul\":6594:6614   */\n      tag_155\n        /* \"#utility.yul\":6612:6613   */\n      dup4\n        /* \"#utility.yul\":6594:6614   */\n      tag_52\n      jump\t// in\n    tag_155:\n        /* \"#utility.yul\":6589:6614   */\n      swap3\n      pop\n        /* \"#utility.yul\":6633:6634   */\n      dup3\n        /* \"#utility.yul\":6623:6658   */\n      tag_156\n      jumpi\n        /* \"#utility.yul\":6638:6656   */\n      tag_157\n      tag_74\n      jump\t// in\n    tag_157:\n        /* \"#utility.yul\":6623:6658   */\n    tag_156:\n        /* \"#utility.yul\":6679:6680   */\n      dup3\n        /* \"#utility.yul\":6676:6677   */\n      dup3\n        /* \"#utility.yul\":6672:6681   */\n      mod\n        /* \"#utility.yul\":6667:6681   */\n      swap1\n      pop\n        /* \"#utility.yul\":6511:6687   */\n      swap3\n      swap2\n      pop\n      pop\n      jump\t// out\n        /* \"#utility.yul\":6693:6873   */\n    tag_75:\n        /* \"#utility.yul\":6741:6818   */\n      0x4e487b7100000000000000000000000000000000000000000000000000000000\n        /* \"#utility.yul\":6738:6739   */\n      0x00\n        /* \"#utility.yul\":6731:6819   */\n      mstore\n        /* \"#utility.yul\":6838:6842   */\n      0x11\n        /* \"#utility.yul\":6835:6836   */\n      0x04\n        /* \"#utility.yul\":6828:6843   */\n      mstore\n        /* \"#utility.yul\":6862:6866   */\n      0x24\n        /* \"#utility.yul\":6859:6860   */\n      0x00\n        /* \"#utility.yul\":6852:6867   */\n      revert\n        /* \"#utility.yul\":6879:7073   */\n    tag_36:\n        /* \"#utility.yul\":6919:6923   */\n      0x00\n        /* \"#utility.yul\":6939:6959   */\n      tag_160\n        /* \"#utility.yul\":6957:6958   */\n      dup3\n        /* \"#utility.yul\":6939:6959   */\n      tag_52\n      jump\t// in\n    tag_160:\n        /* \"#utility.yul\":6934:6959   */\n      swap2\n      pop\n        /* \"#utility.yul\":6973:6993   */\n      tag_161\n        /* \"#utility.yul\":6991:6992   */\n      dup4\n        /* \"#utility.yul\":6973:6993   */\n      tag_52\n      jump\t// in\n    tag_161:\n        /* \"#utility.yul\":6968:6993   */\n      swap3\n      pop\n        /* \"#utility.yul\":7017:7018   */\n      dup3\n        /* \"#utility.yul\":7014:7015   */\n      dup3\n        /* \"#utility.yul\":7010:7019   */\n      sub\n        /* \"#utility.yul\":7002:7019   */\n      swap1\n      pop\n        /* \"#utility.yul\":7041:7042   */\n      dup2\n        /* \"#utility.yul\":7035:7039   */\n      dup2\n        /* \"#utility.yul\":7032:7043   */\n      gt\n        /* \"#utility.yul\":7029:7066   */\n      iszero\n      tag_162\n      jumpi\n        /* \"#utility.yul\":7046:7064   */\n      tag_163\n      tag_75\n      jump\t// in\n    tag_163:\n        /* \"#utility.yul\":7029:7066   */\n    tag_162:\n        /* \"#utility.yul\":6879:7073   */\n      swap3\n      swap2\n      pop\n      pop\n      jump\t// out\n        /* \"#utility.yul\":7079:7227   */\n    tag_76:\n        /* \"#utility.yul\":7181:7192   */\n      0x00\n        /* \"#utility.yul\":7218:7221   */\n      dup2\n        /* \"#utility.yul\":7203:7221   */\n      swap1\n      pop\n        /* \"#utility.yul\":7079:7227   */\n      swap3\n      swap2\n      pop\n      pop\n      jump\t// out\n        /* \"#utility.yul\":7233:7623   */\n    tag_77:\n        /* \"#utility.yul\":7339:7342   */\n      0x00\n        /* \"#utility.yul\":7367:7406   */\n      tag_166\n        /* \"#utility.yul\":7400:7405   */\n      dup3\n        /* \"#utility.yul\":7367:7406   */\n      tag_55\n      jump\t// in\n    tag_166:\n        /* \"#utility.yul\":7422:7511   */\n      tag_167\n        /* \"#utility.yul\":7504:7510   */\n      dup2\n        /* \"#utility.yul\":7499:7502   */\n      dup6\n        /* \"#utility.yul\":7422:7511   */\n      tag_76\n      jump\t// in\n    tag_167:\n        /* \"#utility.yul\":7415:7511   */\n      swap4\n      pop\n        /* \"#utility.yul\":7520:7585   */\n      tag_168\n        /* \"#utility.yul\":7578:7584   */\n      dup2\n        /* \"#utility.yul\":7573:7576   */\n      dup6\n        /* \"#utility.yul\":7566:7570   */\n      0x20\n        /* \"#utility.yul\":7559:7564   */\n      dup7\n        /* \"#utility.yul\":7555:7571   */\n      add\n        /* \"#utility.yul\":7520:7585   */\n      tag_57\n      jump\t// in\n    tag_168:\n        /* \"#utility.yul\":7610:7616   */\n      dup1\n        /* \"#utility.yul\":7605:7608   */\n      dup5\n        /* \"#utility.yul\":7601:7617   */\n      add\n        /* \"#utility.yul\":7594:7617   */\n      swap2\n      pop\n        /* \"#utility.yul\":7343:7623   */\n      pop\n        /* \"#utility.yul\":7233:7623   */\n      swap3\n      swap2\n      pop\n      pop\n      jump\t// out\n        /* \"#utility.yul\":7629:7904   */\n    tag_41:\n        /* \"#utility.yul\":7761:7764   */\n      0x00\n        /* \"#utility.yul\":7783:7878   */\n      tag_170\n        /* \"#utility.yul\":7874:7877   */\n      dup3\n        /* \"#utility.yul\":7865:7871   */\n      dup5\n        /* \"#utility.yul\":7783:7878   */\n      tag_77\n      jump\t// in\n    tag_170:\n        /* \"#utility.yul\":7776:7878   */\n      swap2\n      pop\n        /* \"#utility.yul\":7895:7898   */\n      dup2\n        /* \"#utility.yul\":7888:7898   */\n      swap1\n      pop\n        /* \"#utility.yul\":7629:7904   */\n      swap3\n      swap2\n      pop\n      pop\n      jump\t// out\n        /* \"#utility.yul\":7910:8143   */\n    tag_46:\n        /* \"#utility.yul\":7949:7952   */\n      0x00\n        /* \"#utility.yul\":7972:7996   */\n      tag_172\n        /* \"#utility.yul\":7990:7995   */\n      dup3\n        /* \"#utility.yul\":7972:7996   */\n      tag_52\n      jump\t// in\n    tag_172:\n        /* \"#utility.yul\":7963:7996   */\n      swap2\n      pop\n        /* \"#utility.yul\":8018:8084   */\n      0xffffffffffffffffffffffffffffffffffffffffffffffffffffffffffffffff\n        /* \"#utility.yul\":8011:8016   */\n      dup3\n        /* \"#utility.yul\":8008:8085   */\n      sub\n        /* \"#utility.yul\":8005:8108   */\n      tag_173\n      jumpi\n        /* \"#utility.yul\":8088:8106   */\n      tag_174\n      tag_75\n      jump\t// in\n    tag_174:\n        /* \"#utility.yul\":8005:8108   */\n    tag_173:\n        /* \"#utility.yul\":8135:8136   */\n      0x01\n        /* \"#utility.yul\":8128:8133   */\n      dup3\n        /* \"#utility.yul\":8124:8137   */\n      add\n        /* \"#utility.yul\":8117:8137   */\n      swap1\n      pop\n        /* \"#utility.yul\":7910:8143   */\n      swap2\n      swap1\n      pop\n      jump\t// out\n        /* \"#utility.yul\":8149:8682   */\n    tag_48:\n        /* \"#utility.yul\":8318:8322   */\n      0x00\n        /* \"#utility.yul\":8356:8358   */\n      0x60\n        /* \"#utility.yul\":8345:8354   */\n      dup3\n        /* \"#utility.yul\":8341:8359   */\n      add\n        /* \"#utility.yul\":8333:8359   */\n      swap1\n      pop\n        /* \"#utility.yul\":8369:8440   */\n      tag_176\n        /* \"#utility.yul\":8437:8438   */\n      0x00\n        /* \"#utility.yul\":8426:8435   */\n      dup4\n        /* \"#utility.yul\":8422:8439   */\n      add\n        /* \"#utility.yul\":8413:8419   */\n      dup7\n        /* \"#utility.yul\":8369:8440   */\n      tag_60\n      jump\t// in\n    tag_176:\n        /* \"#utility.yul\":8487:8496   */\n      dup2\n        /* \"#utility.yul\":8481:8485   */\n      dup2\n        /* \"#utility.yul\":8477:8497   */\n      sub\n        /* \"#utility.yul\":8472:8474   */\n      0x20\n        /* \"#utility.yul\":8461:8470   */\n      dup4\n        /* \"#utility.yul\":8457:8475   */\n      add\n        /* \"#utility.yul\":8450:8498   */\n      mstore\n        /* \"#utility.yul\":8515:8593   */\n      tag_177\n        /* \"#utility.yul\":8588:8592   */\n      dup2\n        /* \"#utility.yul\":8579:8585   */\n      dup6\n        /* \"#utility.yul\":8515:8593   */\n      tag_59\n      jump\t// in\n    tag_177:\n        /* \"#utility.yul\":8507:8593   */\n      swap1\n      pop\n        /* \"#utility.yul\":8603:8675   */\n      tag_178\n        /* \"#utility.yul\":8671:8673   */\n      0x40\n        /* \"#utility.yul\":8660:8669   */\n      dup4\n        /* \"#utility.yul\":8656:8674   */\n      add\n        /* \"#utility.yul\":8647:8653   */\n      dup5\n        /* \"#utility.yul\":8603:8675   */\n      tag_60\n      jump\t// in\n    tag_178:\n        /* \"#utility.yul\":8149:8682   */\n      swap5\n      swap4\n      pop\n      pop\n      pop\n      pop\n      jump\t// out\n\n    auxdata: 0xa2646970667358221220803447c92e56d2e0d99b5779313be85c6f33301314ec981db58288284d4b75c464736f6c63430008180033\n}\n",
				"bytecode": {
					"linkReferences": {},
					"object": "608060405260105f555f54600a620000189190620001b4565b60015534801562000027575f80fd5b5062000204565b7f4e487b71000000000000000000000000000000000000000000000000000000005f52601160045260245ffd5b5f8160011c9050919050565b5f808291508390505b6001851115620000b85780860481111562000090576200008f6200002e565b5b6001851615620000a05780820291505b8081029050620000b0856200005b565b945062000070565b94509492505050565b5f82620000d25760019050620001a4565b81620000e1575f9050620001a4565b8160018114620000fa576002811462000105576200013b565b6001915050620001a4565b60ff8411156200011a57620001196200002e565b5b8360020a9150848211156200013457620001336200002e565b5b50620001a4565b5060208310610133831016604e8410600b8410161715620001755782820a9050838111156200016f576200016e6200002e565b5b620001a4565b62000184848484600162000067565b925090508184048111156200019e576200019d6200002e565b5b81810290505b9392505050565b5f819050919050565b5f620001c082620001ab565b9150620001cd83620001ab565b9250620001fc7fffffffffffffffffffffffffffffffffffffffffffffffffffffffffffffffff8484620000c1565b905092915050565b61088580620002125f395ff3fe608060405234801561000f575f80fd5b506004361061003f575f3560e01c80632052465e14610043578063528b7b8f146100745780637bff0a01146100a4575b5f80fd5b61005d600480360381019061005891906103a5565b6100c0565b60405161006b929190610469565b60405180910390f35b61008e600480360381019061008991906103a5565b610175565b60405161009b91906104d6565b60405180910390f35b6100be60048036038101906100b9919061061b565b6101a5565b005b600281815481106100cf575f80fd5b905f5260205f2090600202015f91509050805f0180546100ee9061068f565b80601f016020809104026020016040519081016040528092919081815260200182805461011a9061068f565b80156101655780601f1061013c57610100808354040283529160200191610165565b820191905f5260205f20905b81548152906001019060200180831161014857829003601f168201915b5050505050908060010154905082565b6003602052805f5260405f205f915054906101000a900473ffffffffffffffffffffffffffffffffffffffff1681565b5f60045f3373ffffffffffffffffffffffffffffffffffffffff1673ffffffffffffffffffffffffffffffffffffffff1681526020019081526020015f2054146101ed575f80fd5b5f6101f782610221565b905060648161020691906106ec565b816102119190610749565b905061021d8282610264565b5050565b5f808260405160200161023491906107b6565b604051602081830303815290604052805190602001205f1c90506001548161025c91906106ec565b915050919050565b5f6002805490509050600160028054905061027f9190610749565b503360035f8381526020019081526020015f205f6101000a81548173ffffffffffffffffffffffffffffffffffffffff021916908373ffffffffffffffffffffffffffffffffffffffff16021790555060045f3373ffffffffffffffffffffffffffffffffffffffff1673ffffffffffffffffffffffffffffffffffffffff1681526020019081526020015f205f81548092919061031c906107cc565b91905055507f88f026aacbbecc90c18411df4b1185fd8d9be2470f1962f192bf84a27d0704b781848460405161035493929190610813565b60405180910390a1505050565b5f604051905090565b5f80fd5b5f80fd5b5f819050919050565b61038481610372565b811461038e575f80fd5b50565b5f8135905061039f8161037b565b92915050565b5f602082840312156103ba576103b961036a565b5b5f6103c784828501610391565b91505092915050565b5f81519050919050565b5f82825260208201905092915050565b5f5b838110156104075780820151818401526020810190506103ec565b5f8484015250505050565b5f601f19601f8301169050919050565b5f61042c826103d0565b61043681856103da565b93506104468185602086016103ea565b61044f81610412565b840191505092915050565b61046381610372565b82525050565b5f6040820190508181035f8301526104818185610422565b9050610490602083018461045a565b9392505050565b5f73ffffffffffffffffffffffffffffffffffffffff82169050919050565b5f6104c082610497565b9050919050565b6104d0816104b6565b82525050565b5f6020820190506104e95f8301846104c7565b92915050565b5f80fd5b5f80fd5b7f4e487b71000000000000000000000000000000000000000000000000000000005f52604160045260245ffd5b61052d82610412565b810181811067ffffffffffffffff8211171561054c5761054b6104f7565b5b80604052505050565b5f61055e610361565b905061056a8282610524565b919050565b5f67ffffffffffffffff821115610589576105886104f7565b5b61059282610412565b9050602081019050919050565b828183375f83830152505050565b5f6105bf6105ba8461056f565b610555565b9050828152602081018484840111156105db576105da6104f3565b5b6105e684828561059f565b509392505050565b5f82601f830112610602576106016104ef565b5b81356106128482602086016105ad565b91505092915050565b5f602082840312156106305761062f61036a565b5b5f82013567ffffffffffffffff81111561064d5761064c61036e565b5b610659848285016105ee565b91505092915050565b7f4e487b71000000000000000000000000000000000000000000000000000000005f52602260045260245ffd5b5f60028204905060018216806106a657607f821691505b6020821081036106b9576106b8610662565b5b50919050565b7f4e487b71000000000000000000000000000000000000000000000000000000005f52601260045260245ffd5b5f6106f682610372565b915061070183610372565b925082610711576107106106bf565b5b828206905092915050565b7f4e487b71000000000000000000000000000000000000000000000000000000005f52601160045260245ffd5b5f61075382610372565b915061075e83610372565b92508282039050818111156107765761077561071c565b5b92915050565b5f81905092915050565b5f610790826103d0565b61079a818561077c565b93506107aa8185602086016103ea565b80840191505092915050565b5f6107c18284610786565b915081905092915050565b5f6107d682610372565b91507fffffffffffffffffffffffffffffffffffffffffffffffffffffffffffffffff82036108085761080761071c565b5b600182019050919050565b5f6060820190506108265f83018661045a565b81810360208301526108388185610422565b9050610847604083018461045a565b94935050505056fea2646970667358221220803447c92e56d2e0d99b5779313be85c6f33301314ec981db58288284d4b75c464736f6c63430008180033",
					"opcodes": "PUSH1 0x80 PUSH1 0x40 MSTORE PUSH1 0x10 PUSH0 SSTORE PUSH0 SLOAD PUSH1 0xA PUSH3 0x18 SWAP2 SWAP1 PUSH3 0x1B4 JUMP JUMPDEST PUSH1 0x1 SSTORE CALLVALUE DUP1 ISZERO PUSH3 0x27 JUMPI PUSH0 DUP1 REVERT JUMPDEST POP PUSH3 0x204 JUMP JUMPDEST PUSH32 0x4E487B7100000000000000000000000000000000000000000000000000000000 PUSH0 MSTORE PUSH1 0x11 PUSH1 0x4 MSTORE PUSH1 0x24 PUSH0 REVERT JUMPDEST PUSH0 DUP2 PUSH1 0x1 SHR SWAP1 POP SWAP2 SWAP1 POP JUMP JUMPDEST PUSH0 DUP1 DUP3 SWAP2 POP DUP4 SWAP1 POP JUMPDEST PUSH1 0x1 DUP6 GT ISZERO PUSH3 0xB8 JUMPI DUP1 DUP7 DIV DUP2 GT ISZERO PUSH3 0x90 JUMPI PUSH3 0x8F PUSH3 0x2E JUMP JUMPDEST JUMPDEST PUSH1 0x1 DUP6 AND ISZERO PUSH3 0xA0 JUMPI DUP1 DUP3 MUL SWAP2 POP JUMPDEST DUP1 DUP2 MUL SWAP1 POP PUSH3 0xB0 DUP6 PUSH3 0x5B JUMP JUMPDEST SWAP5 POP PUSH3 0x70 JUMP JUMPDEST SWAP5 POP SWAP5 SWAP3 POP POP POP JUMP JUMPDEST PUSH0 DUP3 PUSH3 0xD2 JUMPI PUSH1 0x1 SWAP1 POP PUSH3 0x1A4 JUMP JUMPDEST DUP2 PUSH3 0xE1 JUMPI PUSH0 SWAP1 POP PUSH3 0x1A4 JUMP JUMPDEST DUP2 PUSH1 0x1 DUP2 EQ PUSH3 0xFA JUMPI PUSH1 0x2 DUP2 EQ PUSH3 0x105 JUMPI PUSH3 0x13B JUMP JUMPDEST PUSH1 0x1 SWAP2 POP POP PUSH3 0x1A4 JUMP JUMPDEST PUSH1 0xFF DUP5 GT ISZERO PUSH3 0x11A JUMPI PUSH3 0x119 PUSH3 0x2E JUMP JUMPDEST JUMPDEST DUP4 PUSH1 0x2 EXP SWAP2 POP DUP5 DUP3 GT ISZERO PUSH3 0x134 JUMPI PUSH3 0x133 PUSH3 0x2E JUMP JUMPDEST JUMPDEST POP PUSH3 0x1A4 JUMP JUMPDEST POP PUSH1 0x20 DUP4 LT PUSH2 0x133 DUP4 LT AND PUSH1 0x4E DUP5 LT PUSH1 0xB DUP5 LT AND OR ISZERO PUSH3 0x175 JUMPI DUP3 DUP3 EXP SWAP1 POP DUP4 DUP2 GT ISZERO PUSH3 0x16F JUMPI PUSH3 0x16E PUSH3 0x2E JUMP JUMPDEST JUMPDEST PUSH3 0x1A4 JUMP JUMPDEST PUSH3 0x184 DUP5 DUP5 DUP5 PUSH1 0x1 PUSH3 0x67 JUMP JUMPDEST SWAP3 POP SWAP1 POP DUP2 DUP5 DIV DUP2 GT ISZERO PUSH3 0x19E JUMPI PUSH3 0x19D PUSH3 0x2E JUMP JUMPDEST JUMPDEST DUP2 DUP2 MUL SWAP1 POP JUMPDEST SWAP4 SWAP3 POP POP POP JUMP JUMPDEST PUSH0 DUP2 SWAP1 POP SWAP2 SWAP1 POP JUMP JUMPDEST PUSH0 PUSH3 0x1C0 DUP3 PUSH3 0x1AB JUMP JUMPDEST SWAP2 POP PUSH3 0x1CD DUP4 PUSH3 0x1AB JUMP JUMPDEST SWAP3 POP PUSH3 0x1FC PUSH32 0xFFFFFFFFFFFFFFFFFFFFFFFFFFFFFFFFFFFFFFFFFFFFFFFFFFFFFFFFFFFFFFFF DUP5 DUP5 PUSH3 0xC1 JUMP JUMPDEST SWAP1 POP SWAP3 SWAP2 POP POP JUMP JUMPDEST PUSH2 0x885 DUP1 PUSH3 0x212 PUSH0 CODECOPY PUSH0 RETURN INVALID PUSH1 0x80 PUSH1 0x40 MSTORE CALLVALUE DUP1 ISZERO PUSH2 0xF JUMPI PUSH0 DUP1 REVERT JUMPDEST POP PUSH1 0x4 CALLDATASIZE LT PUSH2 0x3F JUMPI PUSH0 CALLDATALOAD PUSH1 0xE0 SHR DUP1 PUSH4 0x2052465E EQ PUSH2 0x43 JUMPI DUP1 PUSH4 0x528B7B8F EQ PUSH2 0x74 JUMPI DUP1 PUSH4 0x7BFF0A01 EQ PUSH2 0xA4 JUMPI JUMPDEST PUSH0 DUP1 REVERT JUMPDEST PUSH2 0x5D PUSH1 0x4 DUP1 CALLDATASIZE SUB DUP2 ADD SWAP1 PUSH2 0x58 SWAP2 SWAP1 PUSH2 0x3A5 JUMP JUMPDEST PUSH2 0xC0 JUMP JUMPDEST PUSH1 0x40 MLOAD PUSH2 0x6B SWAP3 SWAP2 SWAP1 PUSH2 0x469 JUMP JUMPDEST PUSH1 0x40 MLOAD DUP1 SWAP2 SUB SWAP1 RETURN JUMPDEST PUSH2 0x8E PUSH1 0x4 DUP1 CALLDATASIZE SUB DUP2 ADD SWAP1 PUSH2 0x89 SWAP2 SWAP1 PUSH2 0x3A5 JUMP JUMPDEST PUSH2 0x175 JUMP JUMPDEST PUSH1 0x40 MLOAD PUSH2 0x9B SWAP2 SWAP1 PUSH2 0x4D6 JUMP JUMPDEST PUSH1 0x40 MLOAD DUP1 SWAP2 SUB SWAP1 RETURN JUMPDEST PUSH2 0xBE PUSH1 0x4 DUP1 CALLDATASIZE SUB DUP2 ADD SWAP1 PUSH2 0xB9 SWAP2 SWAP1 PUSH2 0x61B JUMP JUMPDEST PUSH2 0x1A5 JUMP JUMPDEST STOP JUMPDEST PUSH1 0x2 DUP2 DUP2 SLOAD DUP2 LT PUSH2 0xCF JUMPI PUSH0 DUP1 REVERT JUMPDEST SWAP1 PUSH0 MSTORE PUSH1 0x20 PUSH0 KECCAK256 SWAP1 PUSH1 0x2 MUL ADD PUSH0 SWAP2 POP SWAP1 POP DUP1 PUSH0 ADD DUP1 SLOAD PUSH2 0xEE SWAP1 PUSH2 0x68F JUMP JUMPDEST DUP1 PUSH1 0x1F ADD PUSH1 0x20 DUP1 SWAP2 DIV MUL PUSH1 0x20 ADD PUSH1 0x40 MLOAD SWAP1 DUP2 ADD PUSH1 0x40 MSTORE DUP1 SWAP3 SWAP2 SWAP1 DUP2 DUP2 MSTORE PUSH1 0x20 ADD DUP3 DUP1 SLOAD PUSH2 0x11A SWAP1 PUSH2 0x68F JUMP JUMPDEST DUP1 ISZERO PUSH2 0x165 JUMPI DUP1 PUSH1 0x1F LT PUSH2 0x13C JUMPI PUSH2 0x100 DUP1 DUP4 SLOAD DIV MUL DUP4 MSTORE SWAP2 PUSH1 0x20 ADD SWAP2 PUSH2 0x165 JUMP JUMPDEST DUP3 ADD SWAP2 SWAP1 PUSH0 MSTORE PUSH1 0x20 PUSH0 KECCAK256 SWAP1 JUMPDEST DUP2 SLOAD DUP2 MSTORE SWAP1 PUSH1 0x1 ADD SWAP1 PUSH1 0x20 ADD DUP1 DUP4 GT PUSH2 0x148 JUMPI DUP3 SWAP1 SUB PUSH1 0x1F AND DUP3 ADD SWAP2 JUMPDEST POP POP POP POP POP SWAP1 DUP1 PUSH1 0x1 ADD SLOAD SWAP1 POP DUP3 JUMP JUMPDEST PUSH1 0x3 PUSH1 0x20 MSTORE DUP1 PUSH0 MSTORE PUSH1 0x40 PUSH0 KECCAK256 PUSH0 SWAP2 POP SLOAD SWAP1 PUSH2 0x100 EXP SWAP1 DIV PUSH20 0xFFFFFFFFFFFFFFFFFFFFFFFFFFFFFFFFFFFFFFFF AND DUP2 JUMP JUMPDEST PUSH0 PUSH1 0x4 PUSH0 CALLER PUSH20 0xFFFFFFFFFFFFFFFFFFFFFFFFFFFFFFFFFFFFFFFF AND PUSH20 0xFFFFFFFFFFFFFFFFFFFFFFFFFFFFFFFFFFFFFFFF AND DUP2 MSTORE PUSH1 0x20 ADD SWAP1 DUP2 MSTORE PUSH1 0x20 ADD PUSH0 KECCAK256 SLOAD EQ PUSH2 0x1ED JUMPI PUSH0 DUP1 REVERT JUMPDEST PUSH0 PUSH2 0x1F7 DUP3 PUSH2 0x221 JUMP JUMPDEST SWAP1 POP PUSH1 0x64 DUP2 PUSH2 0x206 SWAP2 SWAP1 PUSH2 0x6EC JUMP JUMPDEST DUP2 PUSH2 0x211 SWAP2 SWAP1 PUSH2 0x749 JUMP JUMPDEST SWAP1 POP PUSH2 0x21D DUP3 DUP3 PUSH2 0x264 JUMP JUMPDEST POP POP JUMP JUMPDEST PUSH0 DUP1 DUP3 PUSH1 0x40 MLOAD PUSH1 0x20 ADD PUSH2 0x234 SWAP2 SWAP1 PUSH2 0x7B6 JUMP JUMPDEST PUSH1 0x40 MLOAD PUSH1 0x20 DUP2 DUP4 SUB SUB DUP2 MSTORE SWAP1 PUSH1 0x40 MSTORE DUP1 MLOAD SWAP1 PUSH1 0x20 ADD KECCAK256 PUSH0 SHR SWAP1 POP PUSH1 0x1 SLOAD DUP2 PUSH2 0x25C SWAP2 SWAP1 PUSH2 0x6EC JUMP JUMPDEST SWAP2 POP POP SWAP2 SWAP1 POP JUMP JUMPDEST PUSH0 PUSH1 0x2 DUP1 SLOAD SWAP1 POP SWAP1 POP PUSH1 0x1 PUSH1 0x2 DUP1 SLOAD SWAP1 POP PUSH2 0x27F SWAP2 SWAP1 PUSH2 0x749 JUMP JUMPDEST POP CALLER PUSH1 0x3 PUSH0 DUP4 DUP2 MSTORE PUSH1 0x20 ADD SWAP1 DUP2 MSTORE PUSH1 0x20 ADD PUSH0 KECCAK256 PUSH0 PUSH2 0x100 EXP DUP2 SLOAD DUP2 PUSH20 0xFFFFFFFFFFFFFFFFFFFFFFFFFFFFFFFFFFFFFFFF MUL NOT AND SWAP1 DUP4 PUSH20 0xFFFFFFFFFFFFFFFFFFFFFFFFFFFFFFFFFFFFFFFF AND MUL OR SWAP1 SSTORE POP PUSH1 0x4 PUSH0 CALLER PUSH20 0xFFFFFFFFFFFFFFFFFFFFFFFFFFFFFFFFFFFFFFFF AND PUSH20 0xFFFFFFFFFFFFFFFFFFFFFFFFFFFFFFFFFFFFFFFF AND DUP2 MSTORE PUSH1 0x20 ADD SWAP1 DUP2 MSTORE PUSH1 0x20 ADD PUSH0 KECCAK256 PUSH0 DUP2 SLOAD DUP1 SWAP3 SWAP2 SWAP1 PUSH2 0x31C SWAP1 PUSH2 0x7CC JUMP JUMPDEST SWAP2 SWAP1 POP SSTORE POP PUSH32 0x88F026AACBBECC90C18411DF4B1185FD8D9BE2470F1962F192BF84A27D0704B7 DUP2 DUP5 DUP5 PUSH1 0x40 MLOAD PUSH2 0x354 SWAP4 SWAP3 SWAP2 SWAP1 PUSH2 0x813 JUMP JUMPDEST PUSH1 0x40 MLOAD DUP1 SWAP2 SUB SWAP1 LOG1 POP POP POP JUMP JUMPDEST PUSH0 PUSH1 0x40 MLOAD SWAP1 POP SWAP1 JUMP JUMPDEST PUSH0 DUP1 REVERT JUMPDEST PUSH0 DUP1 REVERT JUMPDEST PUSH0 DUP2 SWAP1 POP SWAP2 SWAP1 POP JUMP JUMPDEST PUSH2 0x384 DUP2 PUSH2 0x372 JUMP JUMPDEST DUP2 EQ PUSH2 0x38E JUMPI PUSH0 DUP1 REVERT JUMPDEST POP JUMP JUMPDEST PUSH0 DUP2 CALLDATALOAD SWAP1 POP PUSH2 0x39F DUP2 PUSH2 0x37B JUMP JUMPDEST SWAP3 SWAP2 POP POP JUMP JUMPDEST PUSH0 PUSH1 0x20 DUP3 DUP5 SUB SLT ISZERO PUSH2 0x3BA JUMPI PUSH2 0x3B9 PUSH2 0x36A JUMP JUMPDEST JUMPDEST PUSH0 PUSH2 0x3C7 DUP5 DUP3 DUP6 ADD PUSH2 0x391 JUMP JUMPDEST SWAP2 POP POP SWAP3 SWAP2 POP POP JUMP JUMPDEST PUSH0 DUP2 MLOAD SWAP1 POP SWAP2 SWAP1 POP JUMP JUMPDEST PUSH0 DUP3 DUP3 MSTORE PUSH1 0x20 DUP3 ADD SWAP1 POP SWAP3 SWAP2 POP POP JUMP JUMPDEST PUSH0 JUMPDEST DUP4 DUP2 LT ISZERO PUSH2 0x407 JUMPI DUP1 DUP3 ADD MLOAD DUP2 DUP5 ADD MSTORE PUSH1 0x20 DUP2 ADD SWAP1 POP PUSH2 0x3EC JUMP JUMPDEST PUSH0 DUP5 DUP5 ADD MSTORE POP POP POP POP JUMP JUMPDEST PUSH0 PUSH1 0x1F NOT PUSH1 0x1F DUP4 ADD AND SWAP1 POP SWAP2 SWAP1 POP JUMP JUMPDEST PUSH0 PUSH2 0x42C DUP3 PUSH2 0x3D0 JUMP JUMPDEST PUSH2 0x436 DUP2 DUP6 PUSH2 0x3DA JUMP JUMPDEST SWAP4 POP PUSH2 0x446 DUP2 DUP6 PUSH1 0x20 DUP7 ADD PUSH2 0x3EA JUMP JUMPDEST PUSH2 0x44F DUP2 PUSH2 0x412 JUMP JUMPDEST DUP5 ADD SWAP2 POP POP SWAP3 SWAP2 POP POP JUMP JUMPDEST PUSH2 0x463 DUP2 PUSH2 0x372 JUMP JUMPDEST DUP3 MSTORE POP POP JUMP JUMPDEST PUSH0 PUSH1 0x40 DUP3 ADD SWAP1 POP DUP2 DUP2 SUB PUSH0 DUP4 ADD MSTORE PUSH2 0x481 DUP2 DUP6 PUSH2 0x422 JUMP JUMPDEST SWAP1 POP PUSH2 0x490 PUSH1 0x20 DUP4 ADD DUP5 PUSH2 0x45A JUMP JUMPDEST SWAP4 SWAP3 POP POP POP JUMP JUMPDEST PUSH0 PUSH20 0xFFFFFFFFFFFFFFFFFFFFFFFFFFFFFFFFFFFFFFFF DUP3 AND SWAP1 POP SWAP2 SWAP1 POP JUMP JUMPDEST PUSH0 PUSH2 0x4C0 DUP3 PUSH2 0x497 JUMP JUMPDEST SWAP1 POP SWAP2 SWAP1 POP JUMP JUMPDEST PUSH2 0x4D0 DUP2 PUSH2 0x4B6 JUMP JUMPDEST DUP3 MSTORE POP POP JUMP JUMPDEST PUSH0 PUSH1 0x20 DUP3 ADD SWAP1 POP PUSH2 0x4E9 PUSH0 DUP4 ADD DUP5 PUSH2 0x4C7 JUMP JUMPDEST SWAP3 SWAP2 POP POP JUMP JUMPDEST PUSH0 DUP1 REVERT JUMPDEST PUSH0 DUP1 REVERT JUMPDEST PUSH32 0x4E487B7100000000000000000000000000000000000000000000000000000000 PUSH0 MSTORE PUSH1 0x41 PUSH1 0x4 MSTORE PUSH1 0x24 PUSH0 REVERT JUMPDEST PUSH2 0x52D DUP3 PUSH2 0x412 JUMP JUMPDEST DUP2 ADD DUP2 DUP2 LT PUSH8 0xFFFFFFFFFFFFFFFF DUP3 GT OR ISZERO PUSH2 0x54C JUMPI PUSH2 0x54B PUSH2 0x4F7 JUMP JUMPDEST JUMPDEST DUP1 PUSH1 0x40 MSTORE POP POP POP JUMP JUMPDEST PUSH0 PUSH2 0x55E PUSH2 0x361 JUMP JUMPDEST SWAP1 POP PUSH2 0x56A DUP3 DUP3 PUSH2 0x524 JUMP JUMPDEST SWAP2 SWAP1 POP JUMP JUMPDEST PUSH0 PUSH8 0xFFFFFFFFFFFFFFFF DUP3 GT ISZERO PUSH2 0x589 JUMPI PUSH2 0x588 PUSH2 0x4F7 JUMP JUMPDEST JUMPDEST PUSH2 0x592 DUP3 PUSH2 0x412 JUMP JUMPDEST SWAP1 POP PUSH1 0x20 DUP2 ADD SWAP1 POP SWAP2 SWAP1 POP JUMP JUMPDEST DUP3 DUP2 DUP4 CALLDATACOPY PUSH0 DUP4 DUP4 ADD MSTORE POP POP POP JUMP JUMPDEST PUSH0 PUSH2 0x5BF PUSH2 0x5BA DUP5 PUSH2 0x56F JUMP JUMPDEST PUSH2 0x555 JUMP JUMPDEST SWAP1 POP DUP3 DUP2 MSTORE PUSH1 0x20 DUP2 ADD DUP5 DUP5 DUP5 ADD GT ISZERO PUSH2 0x5DB JUMPI PUSH2 0x5DA PUSH2 0x4F3 JUMP JUMPDEST JUMPDEST PUSH2 0x5E6 DUP5 DUP3 DUP6 PUSH2 0x59F JUMP JUMPDEST POP SWAP4 SWAP3 POP POP POP JUMP JUMPDEST PUSH0 DUP3 PUSH1 0x1F DUP4 ADD SLT PUSH2 0x602 JUMPI PUSH2 0x601 PUSH2 0x4EF JUMP JUMPDEST JUMPDEST DUP2 CALLDATALOAD PUSH2 0x612 DUP5 DUP3 PUSH1 0x20 DUP7 ADD PUSH2 0x5AD JUMP JUMPDEST SWAP2 POP POP SWAP3 SWAP2 POP POP JUMP JUMPDEST PUSH0 PUSH1 0x20 DUP3 DUP5 SUB SLT ISZERO PUSH2 0x630 JUMPI PUSH2 0x62F PUSH2 0x36A JUMP JUMPDEST JUMPDEST PUSH0 DUP3 ADD CALLDATALOAD PUSH8 0xFFFFFFFFFFFFFFFF DUP2 GT ISZERO PUSH2 0x64D JUMPI PUSH2 0x64C PUSH2 0x36E JUMP JUMPDEST JUMPDEST PUSH2 0x659 DUP5 DUP3 DUP6 ADD PUSH2 0x5EE JUMP JUMPDEST SWAP2 POP POP SWAP3 SWAP2 POP POP JUMP JUMPDEST PUSH32 0x4E487B7100000000000000000000000000000000000000000000000000000000 PUSH0 MSTORE PUSH1 0x22 PUSH1 0x4 MSTORE PUSH1 0x24 PUSH0 REVERT JUMPDEST PUSH0 PUSH1 0x2 DUP3 DIV SWAP1 POP PUSH1 0x1 DUP3 AND DUP1 PUSH2 0x6A6 JUMPI PUSH1 0x7F DUP3 AND SWAP2 POP JUMPDEST PUSH1 0x20 DUP3 LT DUP2 SUB PUSH2 0x6B9 JUMPI PUSH2 0x6B8 PUSH2 0x662 JUMP JUMPDEST JUMPDEST POP SWAP2 SWAP1 POP JUMP JUMPDEST PUSH32 0x4E487B7100000000000000000000000000000000000000000000000000000000 PUSH0 MSTORE PUSH1 0x12 PUSH1 0x4 MSTORE PUSH1 0x24 PUSH0 REVERT JUMPDEST PUSH0 PUSH2 0x6F6 DUP3 PUSH2 0x372 JUMP JUMPDEST SWAP2 POP PUSH2 0x701 DUP4 PUSH2 0x372 JUMP JUMPDEST SWAP3 POP DUP3 PUSH2 0x711 JUMPI PUSH2 0x710 PUSH2 0x6BF JUMP JUMPDEST JUMPDEST DUP3 DUP3 MOD SWAP1 POP SWAP3 SWAP2 POP POP JUMP JUMPDEST PUSH32 0x4E487B7100000000000000000000000000000000000000000000000000000000 PUSH0 MSTORE PUSH1 0x11 PUSH1 0x4 MSTORE PUSH1 0x24 PUSH0 REVERT JUMPDEST PUSH0 PUSH2 0x753 DUP3 PUSH2 0x372 JUMP JUMPDEST SWAP2 POP PUSH2 0x75E DUP4 PUSH2 0x372 JUMP JUMPDEST SWAP3 POP DUP3 DUP3 SUB SWAP1 POP DUP2 DUP2 GT ISZERO PUSH2 0x776 JUMPI PUSH2 0x775 PUSH2 0x71C JUMP JUMPDEST JUMPDEST SWAP3 SWAP2 POP POP JUMP JUMPDEST PUSH0 DUP2 SWAP1 POP SWAP3 SWAP2 POP POP JUMP JUMPDEST PUSH0 PUSH2 0x790 DUP3 PUSH2 0x3D0 JUMP JUMPDEST PUSH2 0x79A DUP2 DUP6 PUSH2 0x77C JUMP JUMPDEST SWAP4 POP PUSH2 0x7AA DUP2 DUP6 PUSH1 0x20 DUP7 ADD PUSH2 0x3EA JUMP JUMPDEST DUP1 DUP5 ADD SWAP2 POP POP SWAP3 SWAP2 POP POP JUMP JUMPDEST PUSH0 PUSH2 0x7C1 DUP3 DUP5 PUSH2 0x786 JUMP JUMPDEST SWAP2 POP DUP2 SWAP1 POP SWAP3 SWAP2 POP POP JUMP JUMPDEST PUSH0 PUSH2 0x7D6 DUP3 PUSH2 0x372 JUMP JUMPDEST SWAP2 POP PUSH32 0xFFFFFFFFFFFFFFFFFFFFFFFFFFFFFFFFFFFFFFFFFFFFFFFFFFFFFFFFFFFFFFFF DUP3 SUB PUSH2 0x808 JUMPI PUSH2 0x807 PUSH2 0x71C JUMP JUMPDEST JUMPDEST PUSH1 0x1 DUP3 ADD SWAP1 POP SWAP2 SWAP1 POP JUMP JUMPDEST PUSH0 PUSH1 0x60 DUP3 ADD SWAP1 POP PUSH2 0x826 PUSH0 DUP4 ADD DUP7 PUSH2 0x45A JUMP JUMPDEST DUP2 DUP2 SUB PUSH1 0x20 DUP4 ADD MSTORE PUSH2 0x838 DUP2 DUP6 PUSH2 0x422 JUMP JUMPDEST SWAP1 POP PUSH2 0x847 PUSH1 0x40 DUP4 ADD DUP5 PUSH2 0x45A JUMP JUMPDEST SWAP5 SWAP4 POP POP POP POP JUMP INVALID LOG2 PUSH5 0x6970667358 0x22 SLT KECCAK256 DUP1 CALLVALUE SELFBALANCE 0xC9 0x2E JUMP 0xD2 0xE0 0xD9 SWAP12 JUMPI PUSH26 0x313BE85C6F33301314EC981DB58288284D4B75C464736F6C6343 STOP ADDMOD XOR STOP CALLER "
				},
				"gasEstimates": {
					"creation": {
						"codeDepositCost": "436200",
						"executionCost": "infinite",
						"totalCost": "infinite"
					},
					"external": {
						"createRandomZombie(string)": "infinite",
						"zombieToOwner(uint256)": "2827",
						"zombies(uint256)": "infinite"
					},
					"internal": {
						"_createZombie(string memory,uint256)": "infinite",
						"_generateRandomDna(string memory)": "infinite"
					}
				},
				"methodIdentifiers": {
					"createRandomZombie(string)": "7bff0a01",
					"zombieToOwner(uint256)": "528b7b8f",
					"zombies(uint256)": "2052465e"
				}
			},
			"storageLayout": {
				"storage": [
					{
						"astId": 12,
						"contract": "TestKnowledge/ZombieFactory.sol:ZombieFactory",
						"label": "dnaDigits",
						"offset": 0,
						"slot": "0",
						"type": "t_uint256"
					},
					{
						"astId": 17,
						"contract": "TestKnowledge/ZombieFactory.sol:ZombieFactory",
						"label": "dnaModulus",
						"offset": 0,
						"slot": "1",
						"type": "t_uint256"
					},
					{
						"astId": 26,
						"contract": "TestKnowledge/ZombieFactory.sol:ZombieFactory",
						"label": "zombies",
						"offset": 0,
						"slot": "2",
						"type": "t_array(t_struct(Zombie)22_storage)dyn_storage"
					},
					{
						"astId": 30,
						"contract": "TestKnowledge/ZombieFactory.sol:ZombieFactory",
						"label": "zombieToOwner",
						"offset": 0,
						"slot": "3",
						"type": "t_mapping(t_uint256,t_address)"
					},
					{
						"astId": 34,
						"contract": "TestKnowledge/ZombieFactory.sol:ZombieFactory",
						"label": "ownerZombieCount",
						"offset": 0,
						"slot": "4",
						"type": "t_mapping(t_address,t_uint256)"
					}
				],
				"types": {
					"t_address": {
						"encoding": "inplace",
						"label": "address",
						"numberOfBytes": "20"
					},
					"t_array(t_struct(Zombie)22_storage)dyn_storage": {
						"base": "t_struct(Zombie)22_storage",
						"encoding": "dynamic_array",
						"label": "struct ZombieFactory.Zombie[]",
						"numberOfBytes": "32"
					},
					"t_mapping(t_address,t_uint256)": {
						"encoding": "mapping",
						"key": "t_address",
						"label": "mapping(address => uint256)",
						"numberOfBytes": "32",
						"value": "t_uint256"
					},
					"t_mapping(t_uint256,t_address)": {
						"encoding": "mapping",
						"key": "t_uint256",
						"label": "mapping(uint256 => address)",
						"numberOfBytes": "32",
						"value": "t_address"
					},
					"t_string_storage": {
						"encoding": "bytes",
						"label": "string",
						"numberOfBytes": "32"
					},
					"t_struct(Zombie)22_storage": {
						"encoding": "inplace",
						"label": "struct ZombieFactory.Zombie",
						"members": [
							{
								"astId": 19,
								"contract": "TestKnowledge/ZombieFactory.sol:ZombieFactory",
								"label": "name",
								"offset": 0,
								"slot": "0",
								"type": "t_string_storage"
							},
							{
								"astId": 21,
								"contract": "TestKnowledge/ZombieFactory.sol:ZombieFactory",
								"label": "dna",
								"offset": 0,
								"slot": "1",
								"type": "t_uint256"
							}
						],
						"numberOfBytes": "64"
					},
					"t_uint256": {
						"encoding": "inplace",
						"label": "uint256",
						"numberOfBytes": "32"
					}
				}
			},
			"userdoc": {
				"kind": "user",
				"methods": {},
				"version": 1
			}
		}
	}
}