{
	"TestKnowledge/ZombieFeeding.sol": {
		"ZombieFeeding": {
			"abi": [
				{
					"anonymous": false,
					"inputs": [
						{
							"indexed": false,
							"internalType": "uint256",
							"name": "zombieId",
							"type": "uint256"
						},
						{
							"indexed": false,
							"internalType": "string",
							"name": "name",
							"type": "string"
						},
						{
							"indexed": false,
							"internalType": "uint256",
							"name": "dna",
							"type": "uint256"
						}
					],
					"name": "NewZombie",
					"type": "event"
				},
				{
					"inputs": [
						{
							"internalType": "string",
							"name": "_name",
							"type": "string"
						}
					],
					"name": "createRandomZombie",
					"outputs": [],
					"stateMutability": "nonpayable",
					"type": "function"
				},
				{
					"inputs": [
						{
							"internalType": "uint256",
							"name": "_zombieId",
							"type": "uint256"
						},
						{
							"internalType": "uint256",
							"name": "_targetDna",
							"type": "uint256"
						}
					],
					"name": "feedAndMultiply",
					"outputs": [],
					"stateMutability": "nonpayable",
					"type": "function"
				},
				{
					"inputs": [
						{
							"internalType": "uint256",
							"name": "_zombieId",
							"type": "uint256"
						},
						{
							"internalType": "uint256",
							"name": "_kittyId",
							"type": "uint256"
						}
					],
					"name": "feedOnKitty",
					"outputs": [],
					"stateMutability": "nonpayable",
					"type": "function"
				},
				{
					"inputs": [
						{
							"internalType": "uint256",
							"name": "",
							"type": "uint256"
						}
					],
					"name": "zombieToOwner",
					"outputs": [
						{
							"internalType": "address",
							"name": "",
							"type": "address"
						}
					],
					"stateMutability": "view",
					"type": "function"
				},
				{
					"inputs": [
						{
							"internalType": "uint256",
							"name": "",
							"type": "uint256"
						}
					],
					"name": "zombies",
					"outputs": [
						{
							"internalType": "string",
							"name": "name",
							"type": "string"
						},
						{
							"internalType": "uint256",
							"name": "dna",
							"type": "uint256"
						}
					],
					"stateMutability": "view",
					"type": "function"
				}
			],
			"devdoc": {
				"kind": "dev",
				"methods": {},
				"version": 1
			},
			"evm": {
				"assembly": "    /* \"TestKnowledge/ZombieFeeding.sol\":444:1241  contract ZombieFeeding is ZombieFactory {... */\n  mstore(0x40, 0x80)\n    /* \"TestKnowledge/ZombieFactory.sol\":173:175  16 */\n  0x10\n    /* \"TestKnowledge/ZombieFactory.sol\":156:175  uint dnaDigits = 16 */\n  0x00\n  sstore\n    /* \"TestKnowledge/ZombieFactory.sol\":206:215  dnaDigits */\n  sload(0x00)\n    /* \"TestKnowledge/ZombieFactory.sol\":200:202  10 */\n  0x0a\n    /* \"TestKnowledge/ZombieFactory.sol\":200:215  10 ** dnaDigits */\n  tag_1\n  swap2\n  swap1\n  tag_2\n  jump\t// in\ntag_1:\n    /* \"TestKnowledge/ZombieFactory.sol\":182:215  uint dnaModulus = 10 ** dnaDigits */\n  0x01\n  sstore\n    /* \"TestKnowledge/ZombieFeeding.sol\":511:553  0x06012c8cf97BEaD5deAe237070F9587f8E7A266d */\n  0x06012c8cf97bead5deae237070f9587f8e7a266d\n    /* \"TestKnowledge/ZombieFeeding.sol\":491:553  address ckAddress = 0x06012c8cf97BEaD5deAe237070F9587f8E7A266d */\n  0x05\n  exp(0x0100, 0x00)\n  dup2\n  sload\n  dup2\n  0xffffffffffffffffffffffffffffffffffffffff\n  mul\n  not\n  and\n  swap1\n  dup4\n  0xffffffffffffffffffffffffffffffffffffffff\n  and\n  mul\n  or\n  swap1\n  sstore\n  pop\n    /* \"TestKnowledge/ZombieFeeding.sol\":604:613  ckAddress */\n  0x05\n  0x00\n  swap1\n  sload\n  swap1\n  0x0100\n  exp\n  swap1\n  div\n  0xffffffffffffffffffffffffffffffffffffffff\n  and\n    /* \"TestKnowledge/ZombieFeeding.sol\":558:614  KittyInterface kittyContract = KittyInterface(ckAddress) */\n  0x06\n  exp(0x0100, 0x00)\n  dup2\n  sload\n  dup2\n  0xffffffffffffffffffffffffffffffffffffffff\n  mul\n  not\n  and\n  swap1\n  dup4\n  0xffffffffffffffffffffffffffffffffffffffff\n  and\n  mul\n  or\n  swap1\n  sstore\n  pop\n    /* \"TestKnowledge/ZombieFeeding.sol\":444:1241  contract ZombieFeeding is ZombieFactory {... */\n  callvalue\n  dup1\n  iszero\n  tag_3\n  jumpi\n  0x00\n  dup1\n  revert\ntag_3:\n  pop\n  jump(tag_4)\n    /* \"#utility.yul\":7:187   */\ntag_5:\n    /* \"#utility.yul\":55:132   */\n  0x4e487b7100000000000000000000000000000000000000000000000000000000\n    /* \"#utility.yul\":52:53   */\n  0x00\n    /* \"#utility.yul\":45:133   */\n  mstore\n    /* \"#utility.yul\":152:156   */\n  0x11\n    /* \"#utility.yul\":149:150   */\n  0x04\n    /* \"#utility.yul\":142:157   */\n  mstore\n    /* \"#utility.yul\":176:180   */\n  0x24\n    /* \"#utility.yul\":173:174   */\n  0x00\n    /* \"#utility.yul\":166:181   */\n  revert\n    /* \"#utility.yul\":193:295   */\ntag_6:\n    /* \"#utility.yul\":235:243   */\n  0x00\n    /* \"#utility.yul\":282:287   */\n  dup2\n    /* \"#utility.yul\":279:280   */\n  0x01\n    /* \"#utility.yul\":275:288   */\n  shr\n    /* \"#utility.yul\":254:288   */\n  swap1\n  pop\n    /* \"#utility.yul\":193:295   */\n  swap2\n  swap1\n  pop\n  jump\t// out\n    /* \"#utility.yul\":301:1149   */\ntag_7:\n    /* \"#utility.yul\":362:367   */\n  0x00\n    /* \"#utility.yul\":369:373   */\n  dup1\n    /* \"#utility.yul\":393:399   */\n  dup3\n    /* \"#utility.yul\":384:399   */\n  swap2\n  pop\n    /* \"#utility.yul\":417:422   */\n  dup4\n    /* \"#utility.yul\":408:422   */\n  swap1\n  pop\n    /* \"#utility.yul\":431:1143   */\ntag_14:\n    /* \"#utility.yul\":452:453   */\n  0x01\n    /* \"#utility.yul\":442:450   */\n  dup6\n    /* \"#utility.yul\":439:454   */\n  gt\n    /* \"#utility.yul\":431:1143   */\n  iszero\n  tag_16\n  jumpi\n    /* \"#utility.yul\":547:551   */\n  dup1\n    /* \"#utility.yul\":542:545   */\n  dup7\n    /* \"#utility.yul\":538:552   */\n  div\n    /* \"#utility.yul\":532:536   */\n  dup2\n    /* \"#utility.yul\":529:553   */\n  gt\n    /* \"#utility.yul\":526:576   */\n  iszero\n  tag_17\n  jumpi\n    /* \"#utility.yul\":556:574   */\n  tag_18\n  tag_5\n  jump\t// in\ntag_18:\n    /* \"#utility.yul\":526:576   */\ntag_17:\n    /* \"#utility.yul\":606:607   */\n  0x01\n    /* \"#utility.yul\":596:604   */\n  dup6\n    /* \"#utility.yul\":592:608   */\n  and\n    /* \"#utility.yul\":589:1040   */\n  iszero\n  tag_19\n  jumpi\n    /* \"#utility.yul\":1021:1025   */\n  dup1\n    /* \"#utility.yul\":1014:1019   */\n  dup3\n    /* \"#utility.yul\":1010:1026   */\n  mul\n    /* \"#utility.yul\":1001:1026   */\n  swap2\n  pop\n    /* \"#utility.yul\":589:1040   */\ntag_19:\n    /* \"#utility.yul\":1071:1075   */\n  dup1\n    /* \"#utility.yul\":1065:1069   */\n  dup2\n    /* \"#utility.yul\":1061:1076   */\n  mul\n    /* \"#utility.yul\":1053:1076   */\n  swap1\n  pop\n    /* \"#utility.yul\":1101:1133   */\n  tag_20\n    /* \"#utility.yul\":1124:1132   */\n  dup6\n    /* \"#utility.yul\":1101:1133   */\n  tag_6\n  jump\t// in\ntag_20:\n    /* \"#utility.yul\":1089:1133   */\n  swap5\n  pop\n    /* \"#utility.yul\":431:1143   */\n  jump(tag_14)\ntag_16:\n    /* \"#utility.yul\":301:1149   */\n  swap5\n  pop\n  swap5\n  swap3\n  pop\n  pop\n  pop\n  jump\t// out\n    /* \"#utility.yul\":1155:2228   */\ntag_8:\n    /* \"#utility.yul\":1209:1214   */\n  0x00\n    /* \"#utility.yul\":1400:1408   */\n  dup3\n    /* \"#utility.yul\":1390:1430   */\n  tag_22\n  jumpi\n    /* \"#utility.yul\":1421:1422   */\n  0x01\n    /* \"#utility.yul\":1412:1422   */\n  swap1\n  pop\n    /* \"#utility.yul\":1423:1428   */\n  jump(tag_21)\n    /* \"#utility.yul\":1390:1430   */\ntag_22:\n    /* \"#utility.yul\":1449:1453   */\n  dup2\n    /* \"#utility.yul\":1439:1475   */\n  tag_23\n  jumpi\n    /* \"#utility.yul\":1466:1467   */\n  0x00\n    /* \"#utility.yul\":1457:1467   */\n  swap1\n  pop\n    /* \"#utility.yul\":1468:1473   */\n  jump(tag_21)\n    /* \"#utility.yul\":1439:1475   */\ntag_23:\n    /* \"#utility.yul\":1535:1539   */\n  dup2\n    /* \"#utility.yul\":1583:1584   */\n  0x01\n    /* \"#utility.yul\":1578:1605   */\n  dup2\n  eq\n  tag_25\n  jumpi\n    /* \"#utility.yul\":1619:1620   */\n  0x02\n    /* \"#utility.yul\":1614:1805   */\n  dup2\n  eq\n  tag_26\n  jumpi\n    /* \"#utility.yul\":1528:1805   */\n  jump(tag_24)\n    /* \"#utility.yul\":1578:1605   */\ntag_25:\n    /* \"#utility.yul\":1596:1597   */\n  0x01\n    /* \"#utility.yul\":1587:1597   */\n  swap2\n  pop\n    /* \"#utility.yul\":1598:1603   */\n  pop\n  jump(tag_21)\n    /* \"#utility.yul\":1614:1805   */\ntag_26:\n    /* \"#utility.yul\":1659:1662   */\n  0xff\n    /* \"#utility.yul\":1649:1657   */\n  dup5\n    /* \"#utility.yul\":1646:1663   */\n  gt\n    /* \"#utility.yul\":1643:1686   */\n  iszero\n  tag_27\n  jumpi\n    /* \"#utility.yul\":1666:1684   */\n  tag_28\n  tag_5\n  jump\t// in\ntag_28:\n    /* \"#utility.yul\":1643:1686   */\ntag_27:\n    /* \"#utility.yul\":1715:1723   */\n  dup4\n    /* \"#utility.yul\":1712:1713   */\n  0x02\n    /* \"#utility.yul\":1708:1724   */\n  exp\n    /* \"#utility.yul\":1699:1724   */\n  swap2\n  pop\n    /* \"#utility.yul\":1750:1753   */\n  dup5\n    /* \"#utility.yul\":1743:1748   */\n  dup3\n    /* \"#utility.yul\":1740:1754   */\n  gt\n    /* \"#utility.yul\":1737:1777   */\n  iszero\n  tag_29\n  jumpi\n    /* \"#utility.yul\":1757:1775   */\n  tag_30\n  tag_5\n  jump\t// in\ntag_30:\n    /* \"#utility.yul\":1737:1777   */\ntag_29:\n    /* \"#utility.yul\":1790:1795   */\n  pop\n  jump(tag_21)\n    /* \"#utility.yul\":1528:1805   */\ntag_24:\n  pop\n    /* \"#utility.yul\":1914:1916   */\n  0x20\n    /* \"#utility.yul\":1904:1912   */\n  dup4\n    /* \"#utility.yul\":1901:1917   */\n  lt\n    /* \"#utility.yul\":1895:1898   */\n  0x0133\n    /* \"#utility.yul\":1889:1893   */\n  dup4\n    /* \"#utility.yul\":1886:1899   */\n  lt\n    /* \"#utility.yul\":1882:1918   */\n  and\n    /* \"#utility.yul\":1864:1866   */\n  0x4e\n    /* \"#utility.yul\":1854:1862   */\n  dup5\n    /* \"#utility.yul\":1851:1867   */\n  lt\n    /* \"#utility.yul\":1846:1848   */\n  0x0b\n    /* \"#utility.yul\":1840:1844   */\n  dup5\n    /* \"#utility.yul\":1837:1849   */\n  lt\n    /* \"#utility.yul\":1833:1868   */\n  and\n    /* \"#utility.yul\":1817:1928   */\n  or\n    /* \"#utility.yul\":1814:2060   */\n  iszero\n  tag_31\n  jumpi\n    /* \"#utility.yul\":1970:1978   */\n  dup3\n    /* \"#utility.yul\":1964:1968   */\n  dup3\n    /* \"#utility.yul\":1960:1979   */\n  exp\n    /* \"#utility.yul\":1951:1979   */\n  swap1\n  pop\n    /* \"#utility.yul\":2005:2008   */\n  dup4\n    /* \"#utility.yul\":1998:2003   */\n  dup2\n    /* \"#utility.yul\":1995:2009   */\n  gt\n    /* \"#utility.yul\":1992:2032   */\n  iszero\n  tag_32\n  jumpi\n    /* \"#utility.yul\":2012:2030   */\n  tag_33\n  tag_5\n  jump\t// in\ntag_33:\n    /* \"#utility.yul\":1992:2032   */\ntag_32:\n    /* \"#utility.yul\":2045:2050   */\n  jump(tag_21)\n    /* \"#utility.yul\":1814:2060   */\ntag_31:\n    /* \"#utility.yul\":2085:2127   */\n  tag_34\n    /* \"#utility.yul\":2123:2126   */\n  dup5\n    /* \"#utility.yul\":2113:2121   */\n  dup5\n    /* \"#utility.yul\":2107:2111   */\n  dup5\n    /* \"#utility.yul\":2104:2105   */\n  0x01\n    /* \"#utility.yul\":2085:2127   */\n  tag_7\n  jump\t// in\ntag_34:\n    /* \"#utility.yul\":2070:2127   */\n  swap3\n  pop\n  swap1\n  pop\n    /* \"#utility.yul\":2159:2163   */\n  dup2\n    /* \"#utility.yul\":2154:2157   */\n  dup5\n    /* \"#utility.yul\":2150:2164   */\n  div\n    /* \"#utility.yul\":2143:2148   */\n  dup2\n    /* \"#utility.yul\":2140:2165   */\n  gt\n    /* \"#utility.yul\":2137:2188   */\n  iszero\n  tag_35\n  jumpi\n    /* \"#utility.yul\":2168:2186   */\n  tag_36\n  tag_5\n  jump\t// in\ntag_36:\n    /* \"#utility.yul\":2137:2188   */\ntag_35:\n    /* \"#utility.yul\":2217:2221   */\n  dup2\n    /* \"#utility.yul\":2210:2215   */\n  dup2\n    /* \"#utility.yul\":2206:2222   */\n  mul\n    /* \"#utility.yul\":2197:2222   */\n  swap1\n  pop\n    /* \"#utility.yul\":1155:2228   */\ntag_21:\n  swap4\n  swap3\n  pop\n  pop\n  pop\n  jump\t// out\n    /* \"#utility.yul\":2234:2311   */\ntag_9:\n    /* \"#utility.yul\":2271:2278   */\n  0x00\n    /* \"#utility.yul\":2300:2305   */\n  dup2\n    /* \"#utility.yul\":2289:2305   */\n  swap1\n  pop\n    /* \"#utility.yul\":2234:2311   */\n  swap2\n  swap1\n  pop\n  jump\t// out\n    /* \"#utility.yul\":2317:2602   */\ntag_2:\n    /* \"#utility.yul\":2377:2382   */\n  0x00\n    /* \"#utility.yul\":2401:2424   */\n  tag_39\n    /* \"#utility.yul\":2419:2423   */\n  dup3\n    /* \"#utility.yul\":2401:2424   */\n  tag_9\n  jump\t// in\ntag_39:\n    /* \"#utility.yul\":2393:2424   */\n  swap2\n  pop\n    /* \"#utility.yul\":2445:2472   */\n  tag_40\n    /* \"#utility.yul\":2463:2471   */\n  dup4\n    /* \"#utility.yul\":2445:2472   */\n  tag_9\n  jump\t// in\ntag_40:\n    /* \"#utility.yul\":2433:2472   */\n  swap3\n  pop\n    /* \"#utility.yul\":2491:2595   */\n  tag_41\n    /* \"#utility.yul\":2528:2594   */\n  0xffffffffffffffffffffffffffffffffffffffffffffffffffffffffffffffff\n    /* \"#utility.yul\":2518:2526   */\n  dup5\n    /* \"#utility.yul\":2512:2516   */\n  dup5\n    /* \"#utility.yul\":2491:2595   */\n  tag_8\n  jump\t// in\ntag_41:\n    /* \"#utility.yul\":2482:2595   */\n  swap1\n  pop\n    /* \"#utility.yul\":2317:2602   */\n  swap3\n  swap2\n  pop\n  pop\n  jump\t// out\n    /* \"TestKnowledge/ZombieFeeding.sol\":444:1241  contract ZombieFeeding is ZombieFactory {... */\ntag_4:\n  dataSize(sub_0)\n  dup1\n  dataOffset(sub_0)\n  0x00\n  codecopy\n  0x00\n  return\nstop\n\nsub_0: assembly {\n        /* \"TestKnowledge/ZombieFeeding.sol\":444:1241  contract ZombieFeeding is ZombieFactory {... */\n      mstore(0x40, 0x80)\n      callvalue\n      dup1\n      iszero\n      tag_1\n      jumpi\n      0x00\n      dup1\n      revert\n    tag_1:\n      pop\n      jumpi(tag_2, lt(calldatasize, 0x04))\n      shr(0xe0, calldataload(0x00))\n      dup1\n      0x0dedffb8\n      eq\n      tag_3\n      jumpi\n      dup1\n      0x17a7f4cc\n      eq\n      tag_4\n      jumpi\n      dup1\n      0x2052465e\n      eq\n      tag_5\n      jumpi\n      dup1\n      0x528b7b8f\n      eq\n      tag_6\n      jumpi\n      dup1\n      0x7bff0a01\n      eq\n      tag_7\n      jumpi\n    tag_2:\n      0x00\n      dup1\n      revert\n        /* \"TestKnowledge/ZombieFeeding.sol\":660:1002  function feedAndMultiply(uint _zombieId, uint _targetDna) public {... */\n    tag_3:\n      tag_8\n      0x04\n      dup1\n      calldatasize\n      sub\n      dup2\n      add\n      swap1\n      tag_9\n      swap2\n      swap1\n      tag_10\n      jump\t// in\n    tag_9:\n      tag_11\n      jump\t// in\n    tag_8:\n      stop\n        /* \"TestKnowledge/ZombieFeeding.sol\":1008:1236  function feedOnKitty(uint _zombieId, uint _kittyId) public {... */\n    tag_4:\n      tag_12\n      0x04\n      dup1\n      calldatasize\n      sub\n      dup2\n      add\n      swap1\n      tag_13\n      swap2\n      swap1\n      tag_10\n      jump\t// in\n    tag_13:\n      tag_14\n      jump\t// in\n    tag_12:\n      stop\n        /* \"TestKnowledge/ZombieFactory.sol\":295:318  Zombie[] public zombies */\n    tag_5:\n      tag_15\n      0x04\n      dup1\n      calldatasize\n      sub\n      dup2\n      add\n      swap1\n      tag_16\n      swap2\n      swap1\n      tag_17\n      jump\t// in\n    tag_16:\n      tag_18\n      jump\t// in\n    tag_15:\n      mload(0x40)\n      tag_19\n      swap3\n      swap2\n      swap1\n      tag_20\n      jump\t// in\n    tag_19:\n      mload(0x40)\n      dup1\n      swap2\n      sub\n      swap1\n      return\n        /* \"TestKnowledge/ZombieFactory.sol\":327:373  mapping (uint => address) public zombieToOwner */\n    tag_6:\n      tag_21\n      0x04\n      dup1\n      calldatasize\n      sub\n      dup2\n      add\n      swap1\n      tag_22\n      swap2\n      swap1\n      tag_17\n      jump\t// in\n    tag_22:\n      tag_23\n      jump\t// in\n    tag_21:\n      mload(0x40)\n      tag_24\n      swap2\n      swap1\n      tag_25\n      jump\t// in\n    tag_24:\n      mload(0x40)\n      dup1\n      swap2\n      sub\n      swap1\n      return\n        /* \"TestKnowledge/ZombieFactory.sol\":888:1140  function createRandomZombie(string memory _name) public {... */\n    tag_7:\n      tag_26\n      0x04\n      dup1\n      calldatasize\n      sub\n      dup2\n      add\n      swap1\n      tag_27\n      swap2\n      swap1\n      tag_28\n      jump\t// in\n    tag_27:\n      tag_29\n      jump\t// in\n    tag_26:\n      stop\n        /* \"TestKnowledge/ZombieFeeding.sol\":660:1002  function feedAndMultiply(uint _zombieId, uint _targetDna) public {... */\n    tag_11:\n        /* \"TestKnowledge/ZombieFeeding.sol\":754:767  zombieToOwner */\n      0x03\n        /* \"TestKnowledge/ZombieFeeding.sol\":754:778  zombieToOwner[_zombieId] */\n      0x00\n        /* \"TestKnowledge/ZombieFeeding.sol\":768:777  _zombieId */\n      dup4\n        /* \"TestKnowledge/ZombieFeeding.sol\":754:778  zombieToOwner[_zombieId] */\n      dup2\n      mstore\n      0x20\n      add\n      swap1\n      dup2\n      mstore\n      0x20\n      add\n      0x00\n      keccak256\n      0x00\n      swap1\n      sload\n      swap1\n      0x0100\n      exp\n      swap1\n      div\n      0xffffffffffffffffffffffffffffffffffffffff\n      and\n        /* \"TestKnowledge/ZombieFeeding.sol\":740:778  msg.sender == zombieToOwner[_zombieId] */\n      0xffffffffffffffffffffffffffffffffffffffff\n      and\n        /* \"TestKnowledge/ZombieFeeding.sol\":740:750  msg.sender */\n      caller\n        /* \"TestKnowledge/ZombieFeeding.sol\":740:778  msg.sender == zombieToOwner[_zombieId] */\n      0xffffffffffffffffffffffffffffffffffffffff\n      and\n      eq\n        /* \"TestKnowledge/ZombieFeeding.sol\":732:779  require(msg.sender == zombieToOwner[_zombieId]) */\n      tag_31\n      jumpi\n      0x00\n      dup1\n      revert\n    tag_31:\n        /* \"TestKnowledge/ZombieFeeding.sol\":786:809  Zombie storage myZombie */\n      0x00\n        /* \"TestKnowledge/ZombieFeeding.sol\":812:819  zombies */\n      0x02\n        /* \"TestKnowledge/ZombieFeeding.sol\":820:829  _zombieId */\n      dup4\n        /* \"TestKnowledge/ZombieFeeding.sol\":812:830  zombies[_zombieId] */\n      dup2\n      sload\n      dup2\n      lt\n      tag_32\n      jumpi\n      tag_33\n      tag_34\n      jump\t// in\n    tag_33:\n    tag_32:\n      swap1\n      0x00\n      mstore\n      keccak256(0x00, 0x20)\n      swap1\n      0x02\n      mul\n      add\n        /* \"TestKnowledge/ZombieFeeding.sol\":786:830  Zombie storage myZombie = zombies[_zombieId] */\n      swap1\n      pop\n        /* \"TestKnowledge/ZombieFeeding.sol\":863:873  dnaModulus */\n      sload(0x01)\n        /* \"TestKnowledge/ZombieFeeding.sol\":850:860  _targetDna */\n      dup3\n        /* \"TestKnowledge/ZombieFeeding.sol\":850:873  _targetDna % dnaModulus */\n      tag_36\n      swap2\n      swap1\n      tag_37\n      jump\t// in\n    tag_36:\n        /* \"TestKnowledge/ZombieFeeding.sol\":837:873  _targetDna = _targetDna % dnaModulus */\n      swap2\n      pop\n        /* \"TestKnowledge/ZombieFeeding.sol\":880:891  uint newDna */\n      0x00\n        /* \"TestKnowledge/ZombieFeeding.sol\":924:925  2 */\n      0x02\n        /* \"TestKnowledge/ZombieFeeding.sol\":910:920  _targetDna */\n      dup4\n        /* \"TestKnowledge/ZombieFeeding.sol\":895:903  myZombie */\n      dup4\n        /* \"TestKnowledge/ZombieFeeding.sol\":895:907  myZombie.dna */\n      0x01\n      add\n      sload\n        /* \"TestKnowledge/ZombieFeeding.sol\":895:920  myZombie.dna + _targetDna */\n      tag_38\n      swap2\n      swap1\n      tag_39\n      jump\t// in\n    tag_38:\n        /* \"TestKnowledge/ZombieFeeding.sol\":894:925  (myZombie.dna + _targetDna) / 2 */\n      tag_40\n      swap2\n      swap1\n      tag_41\n      jump\t// in\n    tag_40:\n        /* \"TestKnowledge/ZombieFeeding.sol\":880:925  uint newDna = (myZombie.dna + _targetDna) / 2 */\n      swap1\n      pop\n        /* \"TestKnowledge/ZombieFeeding.sol\":965:996  _createZombie(\"NoName\", newDna) */\n      tag_42\n      mload(0x40)\n      dup1\n      0x40\n      add\n      0x40\n      mstore\n      dup1\n      0x06\n      dup2\n      mstore\n      0x20\n      add\n      0x4e6f4e616d650000000000000000000000000000000000000000000000000000\n      dup2\n      mstore\n      pop\n        /* \"TestKnowledge/ZombieFeeding.sol\":989:995  newDna */\n      dup3\n        /* \"TestKnowledge/ZombieFeeding.sol\":965:978  _createZombie */\n      tag_43\n        /* \"TestKnowledge/ZombieFeeding.sol\":965:996  _createZombie(\"NoName\", newDna) */\n      jump\t// in\n    tag_42:\n        /* \"TestKnowledge/ZombieFeeding.sol\":725:1002  {... */\n      pop\n      pop\n        /* \"TestKnowledge/ZombieFeeding.sol\":660:1002  function feedAndMultiply(uint _zombieId, uint _targetDna) public {... */\n      pop\n      pop\n      jump\t// out\n        /* \"TestKnowledge/ZombieFeeding.sol\":1008:1236  function feedOnKitty(uint _zombieId, uint _kittyId) public {... */\n    tag_14:\n        /* \"TestKnowledge/ZombieFeeding.sol\":1074:1087  uint kittyDna */\n      0x00\n        /* \"TestKnowledge/ZombieFeeding.sol\":1116:1129  kittyContract */\n      0x06\n      0x00\n      swap1\n      sload\n      swap1\n      0x0100\n      exp\n      swap1\n      div\n      0xffffffffffffffffffffffffffffffffffffffff\n      and\n        /* \"TestKnowledge/ZombieFeeding.sol\":1116:1138  kittyContract.getKitty */\n      0xffffffffffffffffffffffffffffffffffffffff\n      and\n      0xe98b7f4d\n        /* \"TestKnowledge/ZombieFeeding.sol\":1139:1147  _kittyId */\n      dup4\n        /* \"TestKnowledge/ZombieFeeding.sol\":1116:1148  kittyContract.getKitty(_kittyId) */\n      mload(0x40)\n      dup3\n      0xffffffff\n      and\n      0xe0\n      shl\n      dup2\n      mstore\n      0x04\n      add\n      tag_45\n      swap2\n      swap1\n      tag_46\n      jump\t// in\n    tag_45:\n      0x0140\n      mload(0x40)\n      dup1\n      dup4\n      sub\n      dup2\n      dup7\n      gas\n      staticcall\n      iszero\n      dup1\n      iszero\n      tag_48\n      jumpi\n      returndatasize\n      0x00\n      dup1\n      returndatacopy\n      revert(0x00, returndatasize)\n    tag_48:\n      pop\n      pop\n      pop\n      pop\n      mload(0x40)\n      returndatasize\n      not(0x1f)\n      0x1f\n      dup3\n      add\n      and\n      dup3\n      add\n      dup1\n      0x40\n      mstore\n      pop\n      dup2\n      add\n      swap1\n      tag_49\n      swap2\n      swap1\n      tag_50\n      jump\t// in\n    tag_49:\n        /* \"TestKnowledge/ZombieFeeding.sol\":1094:1148  (,,,,,,,,,kittyDna) = kittyContract.getKitty(_kittyId) */\n      swap1\n      swap2\n      swap3\n      swap4\n      swap5\n      swap6\n      swap7\n      swap8\n      swap9\n      pop\n      swap1\n      swap2\n      swap3\n      swap4\n      swap5\n      swap6\n      swap7\n      swap8\n      pop\n      swap1\n      swap2\n      swap3\n      swap4\n      swap5\n      swap6\n      swap7\n      pop\n      swap1\n      swap2\n      swap3\n      swap4\n      swap5\n      swap6\n      pop\n      swap1\n      swap2\n      swap3\n      swap4\n      swap5\n      pop\n      swap1\n      swap2\n      swap3\n      swap4\n      pop\n      swap1\n      swap2\n      swap3\n      pop\n      swap1\n      swap2\n      pop\n      swap1\n      pop\n      dup1\n      swap2\n      pop\n      pop\n        /* \"TestKnowledge/ZombieFeeding.sol\":1194:1230  feedAndMultiply(_zombieId, kittyDna) */\n      tag_51\n        /* \"TestKnowledge/ZombieFeeding.sol\":1210:1219  _zombieId */\n      dup4\n        /* \"TestKnowledge/ZombieFeeding.sol\":1221:1229  kittyDna */\n      dup3\n        /* \"TestKnowledge/ZombieFeeding.sol\":1194:1209  feedAndMultiply */\n      tag_11\n        /* \"TestKnowledge/ZombieFeeding.sol\":1194:1230  feedAndMultiply(_zombieId, kittyDna) */\n      jump\t// in\n    tag_51:\n        /* \"TestKnowledge/ZombieFeeding.sol\":1067:1236  {... */\n      pop\n        /* \"TestKnowledge/ZombieFeeding.sol\":1008:1236  function feedOnKitty(uint _zombieId, uint _kittyId) public {... */\n      pop\n      pop\n      jump\t// out\n        /* \"TestKnowledge/ZombieFactory.sol\":295:318  Zombie[] public zombies */\n    tag_18:\n      0x02\n      dup2\n      dup2\n      sload\n      dup2\n      lt\n      tag_52\n      jumpi\n      0x00\n      dup1\n      revert\n    tag_52:\n      swap1\n      0x00\n      mstore\n      keccak256(0x00, 0x20)\n      swap1\n      0x02\n      mul\n      add\n      0x00\n      swap2\n      pop\n      swap1\n      pop\n      dup1\n      0x00\n      add\n      dup1\n      sload\n      tag_54\n      swap1\n      tag_55\n      jump\t// in\n    tag_54:\n      dup1\n      0x1f\n      add\n      0x20\n      dup1\n      swap2\n      div\n      mul\n      0x20\n      add\n      mload(0x40)\n      swap1\n      dup2\n      add\n      0x40\n      mstore\n      dup1\n      swap3\n      swap2\n      swap1\n      dup2\n      dup2\n      mstore\n      0x20\n      add\n      dup3\n      dup1\n      sload\n      tag_56\n      swap1\n      tag_55\n      jump\t// in\n    tag_56:\n      dup1\n      iszero\n      tag_57\n      jumpi\n      dup1\n      0x1f\n      lt\n      tag_58\n      jumpi\n      0x0100\n      dup1\n      dup4\n      sload\n      div\n      mul\n      dup4\n      mstore\n      swap2\n      0x20\n      add\n      swap2\n      jump(tag_57)\n    tag_58:\n      dup3\n      add\n      swap2\n      swap1\n      0x00\n      mstore\n      keccak256(0x00, 0x20)\n      swap1\n    tag_59:\n      dup2\n      sload\n      dup2\n      mstore\n      swap1\n      0x01\n      add\n      swap1\n      0x20\n      add\n      dup1\n      dup4\n      gt\n      tag_59\n      jumpi\n      dup3\n      swap1\n      sub\n      0x1f\n      and\n      dup3\n      add\n      swap2\n    tag_57:\n      pop\n      pop\n      pop\n      pop\n      pop\n      swap1\n      dup1\n      0x01\n      add\n      sload\n      swap1\n      pop\n      dup3\n      jump\t// out\n        /* \"TestKnowledge/ZombieFactory.sol\":327:373  mapping (uint => address) public zombieToOwner */\n    tag_23:\n      mstore(0x20, 0x03)\n      dup1\n      0x00\n      mstore\n      keccak256(0x00, 0x40)\n      0x00\n      swap2\n      pop\n      sload\n      swap1\n      0x0100\n      exp\n      swap1\n      div\n      0xffffffffffffffffffffffffffffffffffffffff\n      and\n      dup2\n      jump\t// out\n        /* \"TestKnowledge/ZombieFactory.sol\":888:1140  function createRandomZombie(string memory _name) public {... */\n    tag_29:\n        /* \"TestKnowledge/ZombieFactory.sol\":995:996  0 */\n      0x00\n        /* \"TestKnowledge/ZombieFactory.sol\":963:979  ownerZombieCount */\n      0x04\n        /* \"TestKnowledge/ZombieFactory.sol\":963:991  ownerZombieCount[msg.sender] */\n      0x00\n        /* \"TestKnowledge/ZombieFactory.sol\":980:990  msg.sender */\n      caller\n        /* \"TestKnowledge/ZombieFactory.sol\":963:991  ownerZombieCount[msg.sender] */\n      0xffffffffffffffffffffffffffffffffffffffff\n      and\n      0xffffffffffffffffffffffffffffffffffffffff\n      and\n      dup2\n      mstore\n      0x20\n      add\n      swap1\n      dup2\n      mstore\n      0x20\n      add\n      0x00\n      keccak256\n      sload\n        /* \"TestKnowledge/ZombieFactory.sol\":963:996  ownerZombieCount[msg.sender] == 0 */\n      eq\n        /* \"TestKnowledge/ZombieFactory.sol\":955:997  require(ownerZombieCount[msg.sender] == 0) */\n      tag_61\n      jumpi\n      0x00\n      dup1\n      revert\n    tag_61:\n        /* \"TestKnowledge/ZombieFactory.sol\":1008:1020  uint randDna */\n      0x00\n        /* \"TestKnowledge/ZombieFactory.sol\":1023:1048  _generateRandomDna(_name) */\n      tag_62\n        /* \"TestKnowledge/ZombieFactory.sol\":1042:1047  _name */\n      dup3\n        /* \"TestKnowledge/ZombieFactory.sol\":1023:1041  _generateRandomDna */\n      tag_63\n        /* \"TestKnowledge/ZombieFactory.sol\":1023:1048  _generateRandomDna(_name) */\n      jump\t// in\n    tag_62:\n        /* \"TestKnowledge/ZombieFactory.sol\":1008:1048  uint randDna = _generateRandomDna(_name) */\n      swap1\n      pop\n        /* \"TestKnowledge/ZombieFactory.sol\":1089:1092  100 */\n      0x64\n        /* \"TestKnowledge/ZombieFactory.sol\":1079:1086  randDna */\n      dup2\n        /* \"TestKnowledge/ZombieFactory.sol\":1079:1092  randDna % 100 */\n      tag_64\n      swap2\n      swap1\n      tag_37\n      jump\t// in\n    tag_64:\n        /* \"TestKnowledge/ZombieFactory.sol\":1069:1076  randDna */\n      dup2\n        /* \"TestKnowledge/ZombieFactory.sol\":1069:1092  randDna - randDna % 100 */\n      tag_65\n      swap2\n      swap1\n      tag_66\n      jump\t// in\n    tag_65:\n        /* \"TestKnowledge/ZombieFactory.sol\":1059:1092  randDna = randDna - randDna % 100 */\n      swap1\n      pop\n        /* \"TestKnowledge/ZombieFactory.sol\":1103:1132  _createZombie(_name, randDna) */\n      tag_67\n        /* \"TestKnowledge/ZombieFactory.sol\":1117:1122  _name */\n      dup3\n        /* \"TestKnowledge/ZombieFactory.sol\":1124:1131  randDna */\n      dup3\n        /* \"TestKnowledge/ZombieFactory.sol\":1103:1116  _createZombie */\n      tag_43\n        /* \"TestKnowledge/ZombieFactory.sol\":1103:1132  _createZombie(_name, randDna) */\n      jump\t// in\n    tag_67:\n        /* \"TestKnowledge/ZombieFactory.sol\":944:1140  {... */\n      pop\n        /* \"TestKnowledge/ZombieFactory.sol\":888:1140  function createRandomZombie(string memory _name) public {... */\n      pop\n      jump\t// out\n        /* \"TestKnowledge/ZombieFactory.sol\":431:691  function _createZombie(string memory _name, uint _dna) internal {... */\n    tag_43:\n        /* \"TestKnowledge/ZombieFactory.sol\":506:513  uint id */\n      0x00\n        /* \"TestKnowledge/ZombieFactory.sol\":516:523  zombies */\n      0x02\n        /* \"TestKnowledge/ZombieFactory.sol\":516:530  zombies.length */\n      dup1\n      sload\n      swap1\n      pop\n        /* \"TestKnowledge/ZombieFactory.sol\":506:530  uint id = zombies.length */\n      swap1\n      pop\n        /* \"TestKnowledge/ZombieFactory.sol\":558:559  1 */\n      0x01\n        /* \"TestKnowledge/ZombieFactory.sol\":541:548  zombies */\n      0x02\n        /* \"TestKnowledge/ZombieFactory.sol\":541:555  zombies.length */\n      dup1\n      sload\n      swap1\n      pop\n        /* \"TestKnowledge/ZombieFactory.sol\":541:559  zombies.length - 1 */\n      tag_69\n      swap2\n      swap1\n      tag_66\n      jump\t// in\n    tag_69:\n      pop\n        /* \"TestKnowledge/ZombieFactory.sol\":590:600  msg.sender */\n      caller\n        /* \"TestKnowledge/ZombieFactory.sol\":570:583  zombieToOwner */\n      0x03\n        /* \"TestKnowledge/ZombieFactory.sol\":570:587  zombieToOwner[id] */\n      0x00\n        /* \"TestKnowledge/ZombieFactory.sol\":584:586  id */\n      dup4\n        /* \"TestKnowledge/ZombieFactory.sol\":570:587  zombieToOwner[id] */\n      dup2\n      mstore\n      0x20\n      add\n      swap1\n      dup2\n      mstore\n      0x20\n      add\n      0x00\n      keccak256\n      0x00\n        /* \"TestKnowledge/ZombieFactory.sol\":570:600  zombieToOwner[id] = msg.sender */\n      0x0100\n      exp\n      dup2\n      sload\n      dup2\n      0xffffffffffffffffffffffffffffffffffffffff\n      mul\n      not\n      and\n      swap1\n      dup4\n      0xffffffffffffffffffffffffffffffffffffffff\n      and\n      mul\n      or\n      swap1\n      sstore\n      pop\n        /* \"TestKnowledge/ZombieFactory.sol\":611:627  ownerZombieCount */\n      0x04\n        /* \"TestKnowledge/ZombieFactory.sol\":611:639  ownerZombieCount[msg.sender] */\n      0x00\n        /* \"TestKnowledge/ZombieFactory.sol\":628:638  msg.sender */\n      caller\n        /* \"TestKnowledge/ZombieFactory.sol\":611:639  ownerZombieCount[msg.sender] */\n      0xffffffffffffffffffffffffffffffffffffffff\n      and\n      0xffffffffffffffffffffffffffffffffffffffff\n      and\n      dup2\n      mstore\n      0x20\n      add\n      swap1\n      dup2\n      mstore\n      0x20\n      add\n      0x00\n      keccak256\n      0x00\n        /* \"TestKnowledge/ZombieFactory.sol\":611:641  ownerZombieCount[msg.sender]++ */\n      dup2\n      sload\n      dup1\n      swap3\n      swap2\n      swap1\n      tag_70\n      swap1\n      tag_71\n      jump\t// in\n    tag_70:\n      swap2\n      swap1\n      pop\n      sstore\n      pop\n        /* \"TestKnowledge/ZombieFactory.sol\":657:683  NewZombie(id, _name, _dna) */\n      0x88f026aacbbecc90c18411df4b1185fd8d9be2470f1962f192bf84a27d0704b7\n        /* \"TestKnowledge/ZombieFactory.sol\":667:669  id */\n      dup2\n        /* \"TestKnowledge/ZombieFactory.sol\":671:676  _name */\n      dup5\n        /* \"TestKnowledge/ZombieFactory.sol\":678:682  _dna */\n      dup5\n        /* \"TestKnowledge/ZombieFactory.sol\":657:683  NewZombie(id, _name, _dna) */\n      mload(0x40)\n      tag_72\n      swap4\n      swap3\n      swap2\n      swap1\n      tag_73\n      jump\t// in\n    tag_72:\n      mload(0x40)\n      dup1\n      swap2\n      sub\n      swap1\n      log1\n        /* \"TestKnowledge/ZombieFactory.sol\":495:691  {... */\n      pop\n        /* \"TestKnowledge/ZombieFactory.sol\":431:691  function _createZombie(string memory _name, uint _dna) internal {... */\n      pop\n      pop\n      jump\t// out\n        /* \"TestKnowledge/ZombieFactory.sol\":699:880  function _generateRandomDna(string memory _str) private view returns (uint) {... */\n    tag_63:\n        /* \"TestKnowledge/ZombieFactory.sol\":769:773  uint */\n      0x00\n        /* \"TestKnowledge/ZombieFactory.sol\":786:795  uint rand */\n      dup1\n        /* \"TestKnowledge/ZombieFactory.sol\":830:834  _str */\n      dup3\n        /* \"TestKnowledge/ZombieFactory.sol\":813:835  abi.encodePacked(_str) */\n      add(0x20, mload(0x40))\n      tag_75\n      swap2\n      swap1\n      tag_76\n      jump\t// in\n    tag_75:\n      mload(0x40)\n      0x20\n      dup2\n      dup4\n      sub\n      sub\n      dup2\n      mstore\n      swap1\n      0x40\n      mstore\n        /* \"TestKnowledge/ZombieFactory.sol\":803:836  keccak256(abi.encodePacked(_str)) */\n      dup1\n      mload\n      swap1\n      0x20\n      add\n      keccak256\n        /* \"TestKnowledge/ZombieFactory.sol\":798:837  uint(keccak256(abi.encodePacked(_str))) */\n      0x00\n      shr\n        /* \"TestKnowledge/ZombieFactory.sol\":786:837  uint rand = uint(keccak256(abi.encodePacked(_str))) */\n      swap1\n      pop\n        /* \"TestKnowledge/ZombieFactory.sol\":862:872  dnaModulus */\n      sload(0x01)\n        /* \"TestKnowledge/ZombieFactory.sol\":855:859  rand */\n      dup2\n        /* \"TestKnowledge/ZombieFactory.sol\":855:872  rand % dnaModulus */\n      tag_77\n      swap2\n      swap1\n      tag_37\n      jump\t// in\n    tag_77:\n        /* \"TestKnowledge/ZombieFactory.sol\":848:872  return rand % dnaModulus */\n      swap2\n      pop\n      pop\n        /* \"TestKnowledge/ZombieFactory.sol\":699:880  function _generateRandomDna(string memory _str) private view returns (uint) {... */\n      swap2\n      swap1\n      pop\n      jump\t// out\n        /* \"#utility.yul\":7:82   */\n    tag_78:\n        /* \"#utility.yul\":40:46   */\n      0x00\n        /* \"#utility.yul\":73:75   */\n      0x40\n        /* \"#utility.yul\":67:76   */\n      mload\n        /* \"#utility.yul\":57:76   */\n      swap1\n      pop\n        /* \"#utility.yul\":7:82   */\n      swap1\n      jump\t// out\n        /* \"#utility.yul\":88:205   */\n    tag_79:\n        /* \"#utility.yul\":197:198   */\n      0x00\n        /* \"#utility.yul\":194:195   */\n      dup1\n        /* \"#utility.yul\":187:199   */\n      revert\n        /* \"#utility.yul\":211:328   */\n    tag_80:\n        /* \"#utility.yul\":320:321   */\n      0x00\n        /* \"#utility.yul\":317:318   */\n      dup1\n        /* \"#utility.yul\":310:322   */\n      revert\n        /* \"#utility.yul\":334:411   */\n    tag_81:\n        /* \"#utility.yul\":371:378   */\n      0x00\n        /* \"#utility.yul\":400:405   */\n      dup2\n        /* \"#utility.yul\":389:405   */\n      swap1\n      pop\n        /* \"#utility.yul\":334:411   */\n      swap2\n      swap1\n      pop\n      jump\t// out\n        /* \"#utility.yul\":417:539   */\n    tag_82:\n        /* \"#utility.yul\":490:514   */\n      tag_117\n        /* \"#utility.yul\":508:513   */\n      dup2\n        /* \"#utility.yul\":490:514   */\n      tag_81\n      jump\t// in\n    tag_117:\n        /* \"#utility.yul\":483:488   */\n      dup2\n        /* \"#utility.yul\":480:515   */\n      eq\n        /* \"#utility.yul\":470:533   */\n      tag_118\n      jumpi\n        /* \"#utility.yul\":529:530   */\n      0x00\n        /* \"#utility.yul\":526:527   */\n      dup1\n        /* \"#utility.yul\":519:531   */\n      revert\n        /* \"#utility.yul\":470:533   */\n    tag_118:\n        /* \"#utility.yul\":417:539   */\n      pop\n      jump\t// out\n        /* \"#utility.yul\":545:684   */\n    tag_83:\n        /* \"#utility.yul\":591:596   */\n      0x00\n        /* \"#utility.yul\":629:635   */\n      dup2\n        /* \"#utility.yul\":616:636   */\n      calldataload\n        /* \"#utility.yul\":607:636   */\n      swap1\n      pop\n        /* \"#utility.yul\":645:678   */\n      tag_120\n        /* \"#utility.yul\":672:677   */\n      dup2\n        /* \"#utility.yul\":645:678   */\n      tag_82\n      jump\t// in\n    tag_120:\n        /* \"#utility.yul\":545:684   */\n      swap3\n      swap2\n      pop\n      pop\n      jump\t// out\n        /* \"#utility.yul\":690:1164   */\n    tag_10:\n        /* \"#utility.yul\":758:764   */\n      0x00\n        /* \"#utility.yul\":766:772   */\n      dup1\n        /* \"#utility.yul\":815:817   */\n      0x40\n        /* \"#utility.yul\":803:812   */\n      dup4\n        /* \"#utility.yul\":794:801   */\n      dup6\n        /* \"#utility.yul\":790:813   */\n      sub\n        /* \"#utility.yul\":786:818   */\n      slt\n        /* \"#utility.yul\":783:902   */\n      iszero\n      tag_122\n      jumpi\n        /* \"#utility.yul\":821:900   */\n      tag_123\n      tag_79\n      jump\t// in\n    tag_123:\n        /* \"#utility.yul\":783:902   */\n    tag_122:\n        /* \"#utility.yul\":941:942   */\n      0x00\n        /* \"#utility.yul\":966:1019   */\n      tag_124\n        /* \"#utility.yul\":1011:1018   */\n      dup6\n        /* \"#utility.yul\":1002:1008   */\n      dup3\n        /* \"#utility.yul\":991:1000   */\n      dup7\n        /* \"#utility.yul\":987:1009   */\n      add\n        /* \"#utility.yul\":966:1019   */\n      tag_83\n      jump\t// in\n    tag_124:\n        /* \"#utility.yul\":956:1019   */\n      swap3\n      pop\n        /* \"#utility.yul\":912:1029   */\n      pop\n        /* \"#utility.yul\":1068:1070   */\n      0x20\n        /* \"#utility.yul\":1094:1147   */\n      tag_125\n        /* \"#utility.yul\":1139:1146   */\n      dup6\n        /* \"#utility.yul\":1130:1136   */\n      dup3\n        /* \"#utility.yul\":1119:1128   */\n      dup7\n        /* \"#utility.yul\":1115:1137   */\n      add\n        /* \"#utility.yul\":1094:1147   */\n      tag_83\n      jump\t// in\n    tag_125:\n        /* \"#utility.yul\":1084:1147   */\n      swap2\n      pop\n        /* \"#utility.yul\":1039:1157   */\n      pop\n        /* \"#utility.yul\":690:1164   */\n      swap3\n      pop\n      swap3\n      swap1\n      pop\n      jump\t// out\n        /* \"#utility.yul\":1170:1499   */\n    tag_17:\n        /* \"#utility.yul\":1229:1235   */\n      0x00\n        /* \"#utility.yul\":1278:1280   */\n      0x20\n        /* \"#utility.yul\":1266:1275   */\n      dup3\n        /* \"#utility.yul\":1257:1264   */\n      dup5\n        /* \"#utility.yul\":1253:1276   */\n      sub\n        /* \"#utility.yul\":1249:1281   */\n      slt\n        /* \"#utility.yul\":1246:1365   */\n      iszero\n      tag_127\n      jumpi\n        /* \"#utility.yul\":1284:1363   */\n      tag_128\n      tag_79\n      jump\t// in\n    tag_128:\n        /* \"#utility.yul\":1246:1365   */\n    tag_127:\n        /* \"#utility.yul\":1404:1405   */\n      0x00\n        /* \"#utility.yul\":1429:1482   */\n      tag_129\n        /* \"#utility.yul\":1474:1481   */\n      dup5\n        /* \"#utility.yul\":1465:1471   */\n      dup3\n        /* \"#utility.yul\":1454:1463   */\n      dup6\n        /* \"#utility.yul\":1450:1472   */\n      add\n        /* \"#utility.yul\":1429:1482   */\n      tag_83\n      jump\t// in\n    tag_129:\n        /* \"#utility.yul\":1419:1482   */\n      swap2\n      pop\n        /* \"#utility.yul\":1375:1492   */\n      pop\n        /* \"#utility.yul\":1170:1499   */\n      swap3\n      swap2\n      pop\n      pop\n      jump\t// out\n        /* \"#utility.yul\":1505:1604   */\n    tag_84:\n        /* \"#utility.yul\":1557:1563   */\n      0x00\n        /* \"#utility.yul\":1591:1596   */\n      dup2\n        /* \"#utility.yul\":1585:1597   */\n      mload\n        /* \"#utility.yul\":1575:1597   */\n      swap1\n      pop\n        /* \"#utility.yul\":1505:1604   */\n      swap2\n      swap1\n      pop\n      jump\t// out\n        /* \"#utility.yul\":1610:1779   */\n    tag_85:\n        /* \"#utility.yul\":1694:1705   */\n      0x00\n        /* \"#utility.yul\":1728:1734   */\n      dup3\n        /* \"#utility.yul\":1723:1726   */\n      dup3\n        /* \"#utility.yul\":1716:1735   */\n      mstore\n        /* \"#utility.yul\":1768:1772   */\n      0x20\n        /* \"#utility.yul\":1763:1766   */\n      dup3\n        /* \"#utility.yul\":1759:1773   */\n      add\n        /* \"#utility.yul\":1744:1773   */\n      swap1\n      pop\n        /* \"#utility.yul\":1610:1779   */\n      swap3\n      swap2\n      pop\n      pop\n      jump\t// out\n        /* \"#utility.yul\":1785:2031   */\n    tag_86:\n        /* \"#utility.yul\":1866:1867   */\n      0x00\n        /* \"#utility.yul\":1876:1989   */\n    tag_133:\n        /* \"#utility.yul\":1890:1896   */\n      dup4\n        /* \"#utility.yul\":1887:1888   */\n      dup2\n        /* \"#utility.yul\":1884:1897   */\n      lt\n        /* \"#utility.yul\":1876:1989   */\n      iszero\n      tag_135\n      jumpi\n        /* \"#utility.yul\":1975:1976   */\n      dup1\n        /* \"#utility.yul\":1970:1973   */\n      dup3\n        /* \"#utility.yul\":1966:1977   */\n      add\n        /* \"#utility.yul\":1960:1978   */\n      mload\n        /* \"#utility.yul\":1956:1957   */\n      dup2\n        /* \"#utility.yul\":1951:1954   */\n      dup5\n        /* \"#utility.yul\":1947:1958   */\n      add\n        /* \"#utility.yul\":1940:1979   */\n      mstore\n        /* \"#utility.yul\":1912:1914   */\n      0x20\n        /* \"#utility.yul\":1909:1910   */\n      dup2\n        /* \"#utility.yul\":1905:1915   */\n      add\n        /* \"#utility.yul\":1900:1915   */\n      swap1\n      pop\n        /* \"#utility.yul\":1876:1989   */\n      jump(tag_133)\n    tag_135:\n        /* \"#utility.yul\":2023:2024   */\n      0x00\n        /* \"#utility.yul\":2014:2020   */\n      dup5\n        /* \"#utility.yul\":2009:2012   */\n      dup5\n        /* \"#utility.yul\":2005:2021   */\n      add\n        /* \"#utility.yul\":1998:2025   */\n      mstore\n        /* \"#utility.yul\":1847:2031   */\n      pop\n        /* \"#utility.yul\":1785:2031   */\n      pop\n      pop\n      pop\n      jump\t// out\n        /* \"#utility.yul\":2037:2139   */\n    tag_87:\n        /* \"#utility.yul\":2078:2084   */\n      0x00\n        /* \"#utility.yul\":2129:2131   */\n      0x1f\n        /* \"#utility.yul\":2125:2132   */\n      not\n        /* \"#utility.yul\":2120:2122   */\n      0x1f\n        /* \"#utility.yul\":2113:2118   */\n      dup4\n        /* \"#utility.yul\":2109:2123   */\n      add\n        /* \"#utility.yul\":2105:2133   */\n      and\n        /* \"#utility.yul\":2095:2133   */\n      swap1\n      pop\n        /* \"#utility.yul\":2037:2139   */\n      swap2\n      swap1\n      pop\n      jump\t// out\n        /* \"#utility.yul\":2145:2522   */\n    tag_88:\n        /* \"#utility.yul\":2233:2236   */\n      0x00\n        /* \"#utility.yul\":2261:2300   */\n      tag_138\n        /* \"#utility.yul\":2294:2299   */\n      dup3\n        /* \"#utility.yul\":2261:2300   */\n      tag_84\n      jump\t// in\n    tag_138:\n        /* \"#utility.yul\":2316:2387   */\n      tag_139\n        /* \"#utility.yul\":2380:2386   */\n      dup2\n        /* \"#utility.yul\":2375:2378   */\n      dup6\n        /* \"#utility.yul\":2316:2387   */\n      tag_85\n      jump\t// in\n    tag_139:\n        /* \"#utility.yul\":2309:2387   */\n      swap4\n      pop\n        /* \"#utility.yul\":2396:2461   */\n      tag_140\n        /* \"#utility.yul\":2454:2460   */\n      dup2\n        /* \"#utility.yul\":2449:2452   */\n      dup6\n        /* \"#utility.yul\":2442:2446   */\n      0x20\n        /* \"#utility.yul\":2435:2440   */\n      dup7\n        /* \"#utility.yul\":2431:2447   */\n      add\n        /* \"#utility.yul\":2396:2461   */\n      tag_86\n      jump\t// in\n    tag_140:\n        /* \"#utility.yul\":2486:2515   */\n      tag_141\n        /* \"#utility.yul\":2508:2514   */\n      dup2\n        /* \"#utility.yul\":2486:2515   */\n      tag_87\n      jump\t// in\n    tag_141:\n        /* \"#utility.yul\":2481:2484   */\n      dup5\n        /* \"#utility.yul\":2477:2516   */\n      add\n        /* \"#utility.yul\":2470:2516   */\n      swap2\n      pop\n        /* \"#utility.yul\":2237:2522   */\n      pop\n        /* \"#utility.yul\":2145:2522   */\n      swap3\n      swap2\n      pop\n      pop\n      jump\t// out\n        /* \"#utility.yul\":2528:2646   */\n    tag_89:\n        /* \"#utility.yul\":2615:2639   */\n      tag_143\n        /* \"#utility.yul\":2633:2638   */\n      dup2\n        /* \"#utility.yul\":2615:2639   */\n      tag_81\n      jump\t// in\n    tag_143:\n        /* \"#utility.yul\":2610:2613   */\n      dup3\n        /* \"#utility.yul\":2603:2640   */\n      mstore\n        /* \"#utility.yul\":2528:2646   */\n      pop\n      pop\n      jump\t// out\n        /* \"#utility.yul\":2652:3075   */\n    tag_20:\n        /* \"#utility.yul\":2793:2797   */\n      0x00\n        /* \"#utility.yul\":2831:2833   */\n      0x40\n        /* \"#utility.yul\":2820:2829   */\n      dup3\n        /* \"#utility.yul\":2816:2834   */\n      add\n        /* \"#utility.yul\":2808:2834   */\n      swap1\n      pop\n        /* \"#utility.yul\":2880:2889   */\n      dup2\n        /* \"#utility.yul\":2874:2878   */\n      dup2\n        /* \"#utility.yul\":2870:2890   */\n      sub\n        /* \"#utility.yul\":2866:2867   */\n      0x00\n        /* \"#utility.yul\":2855:2864   */\n      dup4\n        /* \"#utility.yul\":2851:2868   */\n      add\n        /* \"#utility.yul\":2844:2891   */\n      mstore\n        /* \"#utility.yul\":2908:2986   */\n      tag_145\n        /* \"#utility.yul\":2981:2985   */\n      dup2\n        /* \"#utility.yul\":2972:2978   */\n      dup6\n        /* \"#utility.yul\":2908:2986   */\n      tag_88\n      jump\t// in\n    tag_145:\n        /* \"#utility.yul\":2900:2986   */\n      swap1\n      pop\n        /* \"#utility.yul\":2996:3068   */\n      tag_146\n        /* \"#utility.yul\":3064:3066   */\n      0x20\n        /* \"#utility.yul\":3053:3062   */\n      dup4\n        /* \"#utility.yul\":3049:3067   */\n      add\n        /* \"#utility.yul\":3040:3046   */\n      dup5\n        /* \"#utility.yul\":2996:3068   */\n      tag_89\n      jump\t// in\n    tag_146:\n        /* \"#utility.yul\":2652:3075   */\n      swap4\n      swap3\n      pop\n      pop\n      pop\n      jump\t// out\n        /* \"#utility.yul\":3081:3207   */\n    tag_90:\n        /* \"#utility.yul\":3118:3125   */\n      0x00\n        /* \"#utility.yul\":3158:3200   */\n      0xffffffffffffffffffffffffffffffffffffffff\n        /* \"#utility.yul\":3151:3156   */\n      dup3\n        /* \"#utility.yul\":3147:3201   */\n      and\n        /* \"#utility.yul\":3136:3201   */\n      swap1\n      pop\n        /* \"#utility.yul\":3081:3207   */\n      swap2\n      swap1\n      pop\n      jump\t// out\n        /* \"#utility.yul\":3213:3309   */\n    tag_91:\n        /* \"#utility.yul\":3250:3257   */\n      0x00\n        /* \"#utility.yul\":3279:3303   */\n      tag_149\n        /* \"#utility.yul\":3297:3302   */\n      dup3\n        /* \"#utility.yul\":3279:3303   */\n      tag_90\n      jump\t// in\n    tag_149:\n        /* \"#utility.yul\":3268:3303   */\n      swap1\n      pop\n        /* \"#utility.yul\":3213:3309   */\n      swap2\n      swap1\n      pop\n      jump\t// out\n        /* \"#utility.yul\":3315:3433   */\n    tag_92:\n        /* \"#utility.yul\":3402:3426   */\n      tag_151\n        /* \"#utility.yul\":3420:3425   */\n      dup2\n        /* \"#utility.yul\":3402:3426   */\n      tag_91\n      jump\t// in\n    tag_151:\n        /* \"#utility.yul\":3397:3400   */\n      dup3\n        /* \"#utility.yul\":3390:3427   */\n      mstore\n        /* \"#utility.yul\":3315:3433   */\n      pop\n      pop\n      jump\t// out\n        /* \"#utility.yul\":3439:3661   */\n    tag_25:\n        /* \"#utility.yul\":3532:3536   */\n      0x00\n        /* \"#utility.yul\":3570:3572   */\n      0x20\n        /* \"#utility.yul\":3559:3568   */\n      dup3\n        /* \"#utility.yul\":3555:3573   */\n      add\n        /* \"#utility.yul\":3547:3573   */\n      swap1\n      pop\n        /* \"#utility.yul\":3583:3654   */\n      tag_153\n        /* \"#utility.yul\":3651:3652   */\n      0x00\n        /* \"#utility.yul\":3640:3649   */\n      dup4\n        /* \"#utility.yul\":3636:3653   */\n      add\n        /* \"#utility.yul\":3627:3633   */\n      dup5\n        /* \"#utility.yul\":3583:3654   */\n      tag_92\n      jump\t// in\n    tag_153:\n        /* \"#utility.yul\":3439:3661   */\n      swap3\n      swap2\n      pop\n      pop\n      jump\t// out\n        /* \"#utility.yul\":3667:3784   */\n    tag_93:\n        /* \"#utility.yul\":3776:3777   */\n      0x00\n        /* \"#utility.yul\":3773:3774   */\n      dup1\n        /* \"#utility.yul\":3766:3778   */\n      revert\n        /* \"#utility.yul\":3790:3907   */\n    tag_94:\n        /* \"#utility.yul\":3899:3900   */\n      0x00\n        /* \"#utility.yul\":3896:3897   */\n      dup1\n        /* \"#utility.yul\":3889:3901   */\n      revert\n        /* \"#utility.yul\":3913:4093   */\n    tag_95:\n        /* \"#utility.yul\":3961:4038   */\n      0x4e487b7100000000000000000000000000000000000000000000000000000000\n        /* \"#utility.yul\":3958:3959   */\n      0x00\n        /* \"#utility.yul\":3951:4039   */\n      mstore\n        /* \"#utility.yul\":4058:4062   */\n      0x41\n        /* \"#utility.yul\":4055:4056   */\n      0x04\n        /* \"#utility.yul\":4048:4063   */\n      mstore\n        /* \"#utility.yul\":4082:4086   */\n      0x24\n        /* \"#utility.yul\":4079:4080   */\n      0x00\n        /* \"#utility.yul\":4072:4087   */\n      revert\n        /* \"#utility.yul\":4099:4380   */\n    tag_96:\n        /* \"#utility.yul\":4182:4209   */\n      tag_158\n        /* \"#utility.yul\":4204:4208   */\n      dup3\n        /* \"#utility.yul\":4182:4209   */\n      tag_87\n      jump\t// in\n    tag_158:\n        /* \"#utility.yul\":4174:4180   */\n      dup2\n        /* \"#utility.yul\":4170:4210   */\n      add\n        /* \"#utility.yul\":4312:4318   */\n      dup2\n        /* \"#utility.yul\":4300:4310   */\n      dup2\n        /* \"#utility.yul\":4297:4319   */\n      lt\n        /* \"#utility.yul\":4276:4294   */\n      0xffffffffffffffff\n        /* \"#utility.yul\":4264:4274   */\n      dup3\n        /* \"#utility.yul\":4261:4295   */\n      gt\n        /* \"#utility.yul\":4258:4320   */\n      or\n        /* \"#utility.yul\":4255:4343   */\n      iszero\n      tag_159\n      jumpi\n        /* \"#utility.yul\":4323:4341   */\n      tag_160\n      tag_95\n      jump\t// in\n    tag_160:\n        /* \"#utility.yul\":4255:4343   */\n    tag_159:\n        /* \"#utility.yul\":4363:4373   */\n      dup1\n        /* \"#utility.yul\":4359:4361   */\n      0x40\n        /* \"#utility.yul\":4352:4374   */\n      mstore\n        /* \"#utility.yul\":4142:4380   */\n      pop\n        /* \"#utility.yul\":4099:4380   */\n      pop\n      pop\n      jump\t// out\n        /* \"#utility.yul\":4386:4515   */\n    tag_97:\n        /* \"#utility.yul\":4420:4426   */\n      0x00\n        /* \"#utility.yul\":4447:4467   */\n      tag_162\n      tag_78\n      jump\t// in\n    tag_162:\n        /* \"#utility.yul\":4437:4467   */\n      swap1\n      pop\n        /* \"#utility.yul\":4476:4509   */\n      tag_163\n        /* \"#utility.yul\":4504:4508   */\n      dup3\n        /* \"#utility.yul\":4496:4502   */\n      dup3\n        /* \"#utility.yul\":4476:4509   */\n      tag_96\n      jump\t// in\n    tag_163:\n        /* \"#utility.yul\":4386:4515   */\n      swap2\n      swap1\n      pop\n      jump\t// out\n        /* \"#utility.yul\":4521:4829   */\n    tag_98:\n        /* \"#utility.yul\":4583:4587   */\n      0x00\n        /* \"#utility.yul\":4673:4691   */\n      0xffffffffffffffff\n        /* \"#utility.yul\":4665:4671   */\n      dup3\n        /* \"#utility.yul\":4662:4692   */\n      gt\n        /* \"#utility.yul\":4659:4715   */\n      iszero\n      tag_165\n      jumpi\n        /* \"#utility.yul\":4695:4713   */\n      tag_166\n      tag_95\n      jump\t// in\n    tag_166:\n        /* \"#utility.yul\":4659:4715   */\n    tag_165:\n        /* \"#utility.yul\":4733:4762   */\n      tag_167\n        /* \"#utility.yul\":4755:4761   */\n      dup3\n        /* \"#utility.yul\":4733:4762   */\n      tag_87\n      jump\t// in\n    tag_167:\n        /* \"#utility.yul\":4725:4762   */\n      swap1\n      pop\n        /* \"#utility.yul\":4817:4821   */\n      0x20\n        /* \"#utility.yul\":4811:4815   */\n      dup2\n        /* \"#utility.yul\":4807:4822   */\n      add\n        /* \"#utility.yul\":4799:4822   */\n      swap1\n      pop\n        /* \"#utility.yul\":4521:4829   */\n      swap2\n      swap1\n      pop\n      jump\t// out\n        /* \"#utility.yul\":4835:4981   */\n    tag_99:\n        /* \"#utility.yul\":4932:4938   */\n      dup3\n        /* \"#utility.yul\":4927:4930   */\n      dup2\n        /* \"#utility.yul\":4922:4925   */\n      dup4\n        /* \"#utility.yul\":4909:4939   */\n      calldatacopy\n        /* \"#utility.yul\":4973:4974   */\n      0x00\n        /* \"#utility.yul\":4964:4970   */\n      dup4\n        /* \"#utility.yul\":4959:4962   */\n      dup4\n        /* \"#utility.yul\":4955:4971   */\n      add\n        /* \"#utility.yul\":4948:4975   */\n      mstore\n        /* \"#utility.yul\":4835:4981   */\n      pop\n      pop\n      pop\n      jump\t// out\n        /* \"#utility.yul\":4987:5412   */\n    tag_100:\n        /* \"#utility.yul\":5065:5070   */\n      0x00\n        /* \"#utility.yul\":5090:5156   */\n      tag_170\n        /* \"#utility.yul\":5106:5155   */\n      tag_171\n        /* \"#utility.yul\":5148:5154   */\n      dup5\n        /* \"#utility.yul\":5106:5155   */\n      tag_98\n      jump\t// in\n    tag_171:\n        /* \"#utility.yul\":5090:5156   */\n      tag_97\n      jump\t// in\n    tag_170:\n        /* \"#utility.yul\":5081:5156   */\n      swap1\n      pop\n        /* \"#utility.yul\":5179:5185   */\n      dup3\n        /* \"#utility.yul\":5172:5177   */\n      dup2\n        /* \"#utility.yul\":5165:5186   */\n      mstore\n        /* \"#utility.yul\":5217:5221   */\n      0x20\n        /* \"#utility.yul\":5210:5215   */\n      dup2\n        /* \"#utility.yul\":5206:5222   */\n      add\n        /* \"#utility.yul\":5255:5258   */\n      dup5\n        /* \"#utility.yul\":5246:5252   */\n      dup5\n        /* \"#utility.yul\":5241:5244   */\n      dup5\n        /* \"#utility.yul\":5237:5253   */\n      add\n        /* \"#utility.yul\":5234:5259   */\n      gt\n        /* \"#utility.yul\":5231:5343   */\n      iszero\n      tag_172\n      jumpi\n        /* \"#utility.yul\":5262:5341   */\n      tag_173\n      tag_94\n      jump\t// in\n    tag_173:\n        /* \"#utility.yul\":5231:5343   */\n    tag_172:\n        /* \"#utility.yul\":5352:5406   */\n      tag_174\n        /* \"#utility.yul\":5399:5405   */\n      dup5\n        /* \"#utility.yul\":5394:5397   */\n      dup3\n        /* \"#utility.yul\":5389:5392   */\n      dup6\n        /* \"#utility.yul\":5352:5406   */\n      tag_99\n      jump\t// in\n    tag_174:\n        /* \"#utility.yul\":5071:5412   */\n      pop\n        /* \"#utility.yul\":4987:5412   */\n      swap4\n      swap3\n      pop\n      pop\n      pop\n      jump\t// out\n        /* \"#utility.yul\":5432:5772   */\n    tag_101:\n        /* \"#utility.yul\":5488:5493   */\n      0x00\n        /* \"#utility.yul\":5537:5540   */\n      dup3\n        /* \"#utility.yul\":5530:5534   */\n      0x1f\n        /* \"#utility.yul\":5522:5528   */\n      dup4\n        /* \"#utility.yul\":5518:5535   */\n      add\n        /* \"#utility.yul\":5514:5541   */\n      slt\n        /* \"#utility.yul\":5504:5626   */\n      tag_176\n      jumpi\n        /* \"#utility.yul\":5545:5624   */\n      tag_177\n      tag_93\n      jump\t// in\n    tag_177:\n        /* \"#utility.yul\":5504:5626   */\n    tag_176:\n        /* \"#utility.yul\":5662:5668   */\n      dup2\n        /* \"#utility.yul\":5649:5669   */\n      calldataload\n        /* \"#utility.yul\":5687:5766   */\n      tag_178\n        /* \"#utility.yul\":5762:5765   */\n      dup5\n        /* \"#utility.yul\":5754:5760   */\n      dup3\n        /* \"#utility.yul\":5747:5751   */\n      0x20\n        /* \"#utility.yul\":5739:5745   */\n      dup7\n        /* \"#utility.yul\":5735:5752   */\n      add\n        /* \"#utility.yul\":5687:5766   */\n      tag_100\n      jump\t// in\n    tag_178:\n        /* \"#utility.yul\":5678:5766   */\n      swap2\n      pop\n        /* \"#utility.yul\":5494:5772   */\n      pop\n        /* \"#utility.yul\":5432:5772   */\n      swap3\n      swap2\n      pop\n      pop\n      jump\t// out\n        /* \"#utility.yul\":5778:6287   */\n    tag_28:\n        /* \"#utility.yul\":5847:5853   */\n      0x00\n        /* \"#utility.yul\":5896:5898   */\n      0x20\n        /* \"#utility.yul\":5884:5893   */\n      dup3\n        /* \"#utility.yul\":5875:5882   */\n      dup5\n        /* \"#utility.yul\":5871:5894   */\n      sub\n        /* \"#utility.yul\":5867:5899   */\n      slt\n        /* \"#utility.yul\":5864:5983   */\n      iszero\n      tag_180\n      jumpi\n        /* \"#utility.yul\":5902:5981   */\n      tag_181\n      tag_79\n      jump\t// in\n    tag_181:\n        /* \"#utility.yul\":5864:5983   */\n    tag_180:\n        /* \"#utility.yul\":6050:6051   */\n      0x00\n        /* \"#utility.yul\":6039:6048   */\n      dup3\n        /* \"#utility.yul\":6035:6052   */\n      add\n        /* \"#utility.yul\":6022:6053   */\n      calldataload\n        /* \"#utility.yul\":6080:6098   */\n      0xffffffffffffffff\n        /* \"#utility.yul\":6072:6078   */\n      dup2\n        /* \"#utility.yul\":6069:6099   */\n      gt\n        /* \"#utility.yul\":6066:6183   */\n      iszero\n      tag_182\n      jumpi\n        /* \"#utility.yul\":6102:6181   */\n      tag_183\n      tag_80\n      jump\t// in\n    tag_183:\n        /* \"#utility.yul\":6066:6183   */\n    tag_182:\n        /* \"#utility.yul\":6207:6270   */\n      tag_184\n        /* \"#utility.yul\":6262:6269   */\n      dup5\n        /* \"#utility.yul\":6253:6259   */\n      dup3\n        /* \"#utility.yul\":6242:6251   */\n      dup6\n        /* \"#utility.yul\":6238:6260   */\n      add\n        /* \"#utility.yul\":6207:6270   */\n      tag_101\n      jump\t// in\n    tag_184:\n        /* \"#utility.yul\":6197:6270   */\n      swap2\n      pop\n        /* \"#utility.yul\":5993:6280   */\n      pop\n        /* \"#utility.yul\":5778:6287   */\n      swap3\n      swap2\n      pop\n      pop\n      jump\t// out\n        /* \"#utility.yul\":6293:6473   */\n    tag_34:\n        /* \"#utility.yul\":6341:6418   */\n      0x4e487b7100000000000000000000000000000000000000000000000000000000\n        /* \"#utility.yul\":6338:6339   */\n      0x00\n        /* \"#utility.yul\":6331:6419   */\n      mstore\n        /* \"#utility.yul\":6438:6442   */\n      0x32\n        /* \"#utility.yul\":6435:6436   */\n      0x04\n        /* \"#utility.yul\":6428:6443   */\n      mstore\n        /* \"#utility.yul\":6462:6466   */\n      0x24\n        /* \"#utility.yul\":6459:6460   */\n      0x00\n        /* \"#utility.yul\":6452:6467   */\n      revert\n        /* \"#utility.yul\":6479:6659   */\n    tag_102:\n        /* \"#utility.yul\":6527:6604   */\n      0x4e487b7100000000000000000000000000000000000000000000000000000000\n        /* \"#utility.yul\":6524:6525   */\n      0x00\n        /* \"#utility.yul\":6517:6605   */\n      mstore\n        /* \"#utility.yul\":6624:6628   */\n      0x12\n        /* \"#utility.yul\":6621:6622   */\n      0x04\n        /* \"#utility.yul\":6614:6629   */\n      mstore\n        /* \"#utility.yul\":6648:6652   */\n      0x24\n        /* \"#utility.yul\":6645:6646   */\n      0x00\n        /* \"#utility.yul\":6638:6653   */\n      revert\n        /* \"#utility.yul\":6665:6841   */\n    tag_37:\n        /* \"#utility.yul\":6697:6698   */\n      0x00\n        /* \"#utility.yul\":6714:6734   */\n      tag_188\n        /* \"#utility.yul\":6732:6733   */\n      dup3\n        /* \"#utility.yul\":6714:6734   */\n      tag_81\n      jump\t// in\n    tag_188:\n        /* \"#utility.yul\":6709:6734   */\n      swap2\n      pop\n        /* \"#utility.yul\":6748:6768   */\n      tag_189\n        /* \"#utility.yul\":6766:6767   */\n      dup4\n        /* \"#utility.yul\":6748:6768   */\n      tag_81\n      jump\t// in\n    tag_189:\n        /* \"#utility.yul\":6743:6768   */\n      swap3\n      pop\n        /* \"#utility.yul\":6787:6788   */\n      dup3\n        /* \"#utility.yul\":6777:6812   */\n      tag_190\n      jumpi\n        /* \"#utility.yul\":6792:6810   */\n      tag_191\n      tag_102\n      jump\t// in\n    tag_191:\n        /* \"#utility.yul\":6777:6812   */\n    tag_190:\n        /* \"#utility.yul\":6833:6834   */\n      dup3\n        /* \"#utility.yul\":6830:6831   */\n      dup3\n        /* \"#utility.yul\":6826:6835   */\n      mod\n        /* \"#utility.yul\":6821:6835   */\n      swap1\n      pop\n        /* \"#utility.yul\":6665:6841   */\n      swap3\n      swap2\n      pop\n      pop\n      jump\t// out\n        /* \"#utility.yul\":6847:7027   */\n    tag_103:\n        /* \"#utility.yul\":6895:6972   */\n      0x4e487b7100000000000000000000000000000000000000000000000000000000\n        /* \"#utility.yul\":6892:6893   */\n      0x00\n        /* \"#utility.yul\":6885:6973   */\n      mstore\n        /* \"#utility.yul\":6992:6996   */\n      0x11\n        /* \"#utility.yul\":6989:6990   */\n      0x04\n        /* \"#utility.yul\":6982:6997   */\n      mstore\n        /* \"#utility.yul\":7016:7020   */\n      0x24\n        /* \"#utility.yul\":7013:7014   */\n      0x00\n        /* \"#utility.yul\":7006:7021   */\n      revert\n        /* \"#utility.yul\":7033:7224   */\n    tag_39:\n        /* \"#utility.yul\":7073:7076   */\n      0x00\n        /* \"#utility.yul\":7092:7112   */\n      tag_194\n        /* \"#utility.yul\":7110:7111   */\n      dup3\n        /* \"#utility.yul\":7092:7112   */\n      tag_81\n      jump\t// in\n    tag_194:\n        /* \"#utility.yul\":7087:7112   */\n      swap2\n      pop\n        /* \"#utility.yul\":7126:7146   */\n      tag_195\n        /* \"#utility.yul\":7144:7145   */\n      dup4\n        /* \"#utility.yul\":7126:7146   */\n      tag_81\n      jump\t// in\n    tag_195:\n        /* \"#utility.yul\":7121:7146   */\n      swap3\n      pop\n        /* \"#utility.yul\":7169:7170   */\n      dup3\n        /* \"#utility.yul\":7166:7167   */\n      dup3\n        /* \"#utility.yul\":7162:7171   */\n      add\n        /* \"#utility.yul\":7155:7171   */\n      swap1\n      pop\n        /* \"#utility.yul\":7190:7193   */\n      dup1\n        /* \"#utility.yul\":7187:7188   */\n      dup3\n        /* \"#utility.yul\":7184:7194   */\n      gt\n        /* \"#utility.yul\":7181:7217   */\n      iszero\n      tag_196\n      jumpi\n        /* \"#utility.yul\":7197:7215   */\n      tag_197\n      tag_103\n      jump\t// in\n    tag_197:\n        /* \"#utility.yul\":7181:7217   */\n    tag_196:\n        /* \"#utility.yul\":7033:7224   */\n      swap3\n      swap2\n      pop\n      pop\n      jump\t// out\n        /* \"#utility.yul\":7230:7415   */\n    tag_41:\n        /* \"#utility.yul\":7270:7271   */\n      0x00\n        /* \"#utility.yul\":7287:7307   */\n      tag_199\n        /* \"#utility.yul\":7305:7306   */\n      dup3\n        /* \"#utility.yul\":7287:7307   */\n      tag_81\n      jump\t// in\n    tag_199:\n        /* \"#utility.yul\":7282:7307   */\n      swap2\n      pop\n        /* \"#utility.yul\":7321:7341   */\n      tag_200\n        /* \"#utility.yul\":7339:7340   */\n      dup4\n        /* \"#utility.yul\":7321:7341   */\n      tag_81\n      jump\t// in\n    tag_200:\n        /* \"#utility.yul\":7316:7341   */\n      swap3\n      pop\n        /* \"#utility.yul\":7360:7361   */\n      dup3\n        /* \"#utility.yul\":7350:7385   */\n      tag_201\n      jumpi\n        /* \"#utility.yul\":7365:7383   */\n      tag_202\n      tag_102\n      jump\t// in\n    tag_202:\n        /* \"#utility.yul\":7350:7385   */\n    tag_201:\n        /* \"#utility.yul\":7407:7408   */\n      dup3\n        /* \"#utility.yul\":7404:7405   */\n      dup3\n        /* \"#utility.yul\":7400:7409   */\n      div\n        /* \"#utility.yul\":7395:7409   */\n      swap1\n      pop\n        /* \"#utility.yul\":7230:7415   */\n      swap3\n      swap2\n      pop\n      pop\n      jump\t// out\n        /* \"#utility.yul\":7421:7643   */\n    tag_46:\n        /* \"#utility.yul\":7514:7518   */\n      0x00\n        /* \"#utility.yul\":7552:7554   */\n      0x20\n        /* \"#utility.yul\":7541:7550   */\n      dup3\n        /* \"#utility.yul\":7537:7555   */\n      add\n        /* \"#utility.yul\":7529:7555   */\n      swap1\n      pop\n        /* \"#utility.yul\":7565:7636   */\n      tag_204\n        /* \"#utility.yul\":7633:7634   */\n      0x00\n        /* \"#utility.yul\":7622:7631   */\n      dup4\n        /* \"#utility.yul\":7618:7635   */\n      add\n        /* \"#utility.yul\":7609:7615   */\n      dup5\n        /* \"#utility.yul\":7565:7636   */\n      tag_89\n      jump\t// in\n    tag_204:\n        /* \"#utility.yul\":7421:7643   */\n      swap3\n      swap2\n      pop\n      pop\n      jump\t// out\n        /* \"#utility.yul\":7649:7739   */\n    tag_104:\n        /* \"#utility.yul\":7683:7690   */\n      0x00\n        /* \"#utility.yul\":7726:7731   */\n      dup2\n        /* \"#utility.yul\":7719:7732   */\n      iszero\n        /* \"#utility.yul\":7712:7733   */\n      iszero\n        /* \"#utility.yul\":7701:7733   */\n      swap1\n      pop\n        /* \"#utility.yul\":7649:7739   */\n      swap2\n      swap1\n      pop\n      jump\t// out\n        /* \"#utility.yul\":7745:7861   */\n    tag_105:\n        /* \"#utility.yul\":7815:7836   */\n      tag_207\n        /* \"#utility.yul\":7830:7835   */\n      dup2\n        /* \"#utility.yul\":7815:7836   */\n      tag_104\n      jump\t// in\n    tag_207:\n        /* \"#utility.yul\":7808:7813   */\n      dup2\n        /* \"#utility.yul\":7805:7837   */\n      eq\n        /* \"#utility.yul\":7795:7855   */\n      tag_208\n      jumpi\n        /* \"#utility.yul\":7851:7852   */\n      0x00\n        /* \"#utility.yul\":7848:7849   */\n      dup1\n        /* \"#utility.yul\":7841:7853   */\n      revert\n        /* \"#utility.yul\":7795:7855   */\n    tag_208:\n        /* \"#utility.yul\":7745:7861   */\n      pop\n      jump\t// out\n        /* \"#utility.yul\":7867:8004   */\n    tag_106:\n        /* \"#utility.yul\":7921:7926   */\n      0x00\n        /* \"#utility.yul\":7952:7958   */\n      dup2\n        /* \"#utility.yul\":7946:7959   */\n      mload\n        /* \"#utility.yul\":7937:7959   */\n      swap1\n      pop\n        /* \"#utility.yul\":7968:7998   */\n      tag_210\n        /* \"#utility.yul\":7992:7997   */\n      dup2\n        /* \"#utility.yul\":7968:7998   */\n      tag_105\n      jump\t// in\n    tag_210:\n        /* \"#utility.yul\":7867:8004   */\n      swap3\n      swap2\n      pop\n      pop\n      jump\t// out\n        /* \"#utility.yul\":8010:8153   */\n    tag_107:\n        /* \"#utility.yul\":8067:8072   */\n      0x00\n        /* \"#utility.yul\":8098:8104   */\n      dup2\n        /* \"#utility.yul\":8092:8105   */\n      mload\n        /* \"#utility.yul\":8083:8105   */\n      swap1\n      pop\n        /* \"#utility.yul\":8114:8147   */\n      tag_212\n        /* \"#utility.yul\":8141:8146   */\n      dup2\n        /* \"#utility.yul\":8114:8147   */\n      tag_82\n      jump\t// in\n    tag_212:\n        /* \"#utility.yul\":8010:8153   */\n      swap3\n      swap2\n      pop\n      pop\n      jump\t// out\n        /* \"#utility.yul\":8159:9909   */\n    tag_50:\n        /* \"#utility.yul\":8304:8310   */\n      0x00\n        /* \"#utility.yul\":8312:8318   */\n      dup1\n        /* \"#utility.yul\":8320:8326   */\n      0x00\n        /* \"#utility.yul\":8328:8334   */\n      dup1\n        /* \"#utility.yul\":8336:8342   */\n      0x00\n        /* \"#utility.yul\":8344:8350   */\n      dup1\n        /* \"#utility.yul\":8352:8358   */\n      0x00\n        /* \"#utility.yul\":8360:8366   */\n      dup1\n        /* \"#utility.yul\":8368:8374   */\n      0x00\n        /* \"#utility.yul\":8376:8382   */\n      dup1\n        /* \"#utility.yul\":8425:8428   */\n      0x0140\n        /* \"#utility.yul\":8413:8422   */\n      dup12\n        /* \"#utility.yul\":8404:8411   */\n      dup14\n        /* \"#utility.yul\":8400:8423   */\n      sub\n        /* \"#utility.yul\":8396:8429   */\n      slt\n        /* \"#utility.yul\":8393:8513   */\n      iszero\n      tag_214\n      jumpi\n        /* \"#utility.yul\":8432:8511   */\n      tag_215\n      tag_79\n      jump\t// in\n    tag_215:\n        /* \"#utility.yul\":8393:8513   */\n    tag_214:\n        /* \"#utility.yul\":8552:8553   */\n      0x00\n        /* \"#utility.yul\":8577:8638   */\n      tag_216\n        /* \"#utility.yul\":8630:8637   */\n      dup14\n        /* \"#utility.yul\":8621:8627   */\n      dup3\n        /* \"#utility.yul\":8610:8619   */\n      dup15\n        /* \"#utility.yul\":8606:8628   */\n      add\n        /* \"#utility.yul\":8577:8638   */\n      tag_106\n      jump\t// in\n    tag_216:\n        /* \"#utility.yul\":8567:8638   */\n      swap11\n      pop\n        /* \"#utility.yul\":8523:8648   */\n      pop\n        /* \"#utility.yul\":8687:8689   */\n      0x20\n        /* \"#utility.yul\":8713:8774   */\n      tag_217\n        /* \"#utility.yul\":8766:8773   */\n      dup14\n        /* \"#utility.yul\":8757:8763   */\n      dup3\n        /* \"#utility.yul\":8746:8755   */\n      dup15\n        /* \"#utility.yul\":8742:8764   */\n      add\n        /* \"#utility.yul\":8713:8774   */\n      tag_106\n      jump\t// in\n    tag_217:\n        /* \"#utility.yul\":8703:8774   */\n      swap10\n      pop\n        /* \"#utility.yul\":8658:8784   */\n      pop\n        /* \"#utility.yul\":8823:8825   */\n      0x40\n        /* \"#utility.yul\":8849:8913   */\n      tag_218\n        /* \"#utility.yul\":8905:8912   */\n      dup14\n        /* \"#utility.yul\":8896:8902   */\n      dup3\n        /* \"#utility.yul\":8885:8894   */\n      dup15\n        /* \"#utility.yul\":8881:8903   */\n      add\n        /* \"#utility.yul\":8849:8913   */\n      tag_107\n      jump\t// in\n    tag_218:\n        /* \"#utility.yul\":8839:8913   */\n      swap9\n      pop\n        /* \"#utility.yul\":8794:8923   */\n      pop\n        /* \"#utility.yul\":8962:8964   */\n      0x60\n        /* \"#utility.yul\":8988:9052   */\n      tag_219\n        /* \"#utility.yul\":9044:9051   */\n      dup14\n        /* \"#utility.yul\":9035:9041   */\n      dup3\n        /* \"#utility.yul\":9024:9033   */\n      dup15\n        /* \"#utility.yul\":9020:9042   */\n      add\n        /* \"#utility.yul\":8988:9052   */\n      tag_107\n      jump\t// in\n    tag_219:\n        /* \"#utility.yul\":8978:9052   */\n      swap8\n      pop\n        /* \"#utility.yul\":8933:9062   */\n      pop\n        /* \"#utility.yul\":9101:9104   */\n      0x80\n        /* \"#utility.yul\":9128:9192   */\n      tag_220\n        /* \"#utility.yul\":9184:9191   */\n      dup14\n        /* \"#utility.yul\":9175:9181   */\n      dup3\n        /* \"#utility.yul\":9164:9173   */\n      dup15\n        /* \"#utility.yul\":9160:9182   */\n      add\n        /* \"#utility.yul\":9128:9192   */\n      tag_107\n      jump\t// in\n    tag_220:\n        /* \"#utility.yul\":9118:9192   */\n      swap7\n      pop\n        /* \"#utility.yul\":9072:9202   */\n      pop\n        /* \"#utility.yul\":9241:9244   */\n      0xa0\n        /* \"#utility.yul\":9268:9332   */\n      tag_221\n        /* \"#utility.yul\":9324:9331   */\n      dup14\n        /* \"#utility.yul\":9315:9321   */\n      dup3\n        /* \"#utility.yul\":9304:9313   */\n      dup15\n        /* \"#utility.yul\":9300:9322   */\n      add\n        /* \"#utility.yul\":9268:9332   */\n      tag_107\n      jump\t// in\n    tag_221:\n        /* \"#utility.yul\":9258:9332   */\n      swap6\n      pop\n        /* \"#utility.yul\":9212:9342   */\n      pop\n        /* \"#utility.yul\":9381:9384   */\n      0xc0\n        /* \"#utility.yul\":9408:9472   */\n      tag_222\n        /* \"#utility.yul\":9464:9471   */\n      dup14\n        /* \"#utility.yul\":9455:9461   */\n      dup3\n        /* \"#utility.yul\":9444:9453   */\n      dup15\n        /* \"#utility.yul\":9440:9462   */\n      add\n        /* \"#utility.yul\":9408:9472   */\n      tag_107\n      jump\t// in\n    tag_222:\n        /* \"#utility.yul\":9398:9472   */\n      swap5\n      pop\n        /* \"#utility.yul\":9352:9482   */\n      pop\n        /* \"#utility.yul\":9521:9524   */\n      0xe0\n        /* \"#utility.yul\":9548:9612   */\n      tag_223\n        /* \"#utility.yul\":9604:9611   */\n      dup14\n        /* \"#utility.yul\":9595:9601   */\n      dup3\n        /* \"#utility.yul\":9584:9593   */\n      dup15\n        /* \"#utility.yul\":9580:9602   */\n      add\n        /* \"#utility.yul\":9548:9612   */\n      tag_107\n      jump\t// in\n    tag_223:\n        /* \"#utility.yul\":9538:9612   */\n      swap4\n      pop\n        /* \"#utility.yul\":9492:9622   */\n      pop\n        /* \"#utility.yul\":9661:9664   */\n      0x0100\n        /* \"#utility.yul\":9688:9752   */\n      tag_224\n        /* \"#utility.yul\":9744:9751   */\n      dup14\n        /* \"#utility.yul\":9735:9741   */\n      dup3\n        /* \"#utility.yul\":9724:9733   */\n      dup15\n        /* \"#utility.yul\":9720:9742   */\n      add\n        /* \"#utility.yul\":9688:9752   */\n      tag_107\n      jump\t// in\n    tag_224:\n        /* \"#utility.yul\":9678:9752   */\n      swap3\n      pop\n        /* \"#utility.yul\":9632:9762   */\n      pop\n        /* \"#utility.yul\":9801:9804   */\n      0x0120\n        /* \"#utility.yul\":9828:9892   */\n      tag_225\n        /* \"#utility.yul\":9884:9891   */\n      dup14\n        /* \"#utility.yul\":9875:9881   */\n      dup3\n        /* \"#utility.yul\":9864:9873   */\n      dup15\n        /* \"#utility.yul\":9860:9882   */\n      add\n        /* \"#utility.yul\":9828:9892   */\n      tag_107\n      jump\t// in\n    tag_225:\n        /* \"#utility.yul\":9818:9892   */\n      swap2\n      pop\n        /* \"#utility.yul\":9772:9902   */\n      pop\n        /* \"#utility.yul\":8159:9909   */\n      swap3\n      swap6\n      swap9\n      swap12\n      swap2\n      swap5\n      swap8\n      swap11\n      pop\n      swap3\n      swap6\n      swap9\n      pop\n      jump\t// out\n        /* \"#utility.yul\":9915:10095   */\n    tag_108:\n        /* \"#utility.yul\":9963:10040   */\n      0x4e487b7100000000000000000000000000000000000000000000000000000000\n        /* \"#utility.yul\":9960:9961   */\n      0x00\n        /* \"#utility.yul\":9953:10041   */\n      mstore\n        /* \"#utility.yul\":10060:10064   */\n      0x22\n        /* \"#utility.yul\":10057:10058   */\n      0x04\n        /* \"#utility.yul\":10050:10065   */\n      mstore\n        /* \"#utility.yul\":10084:10088   */\n      0x24\n        /* \"#utility.yul\":10081:10082   */\n      0x00\n        /* \"#utility.yul\":10074:10089   */\n      revert\n        /* \"#utility.yul\":10101:10421   */\n    tag_55:\n        /* \"#utility.yul\":10145:10151   */\n      0x00\n        /* \"#utility.yul\":10182:10183   */\n      0x02\n        /* \"#utility.yul\":10176:10180   */\n      dup3\n        /* \"#utility.yul\":10172:10184   */\n      div\n        /* \"#utility.yul\":10162:10184   */\n      swap1\n      pop\n        /* \"#utility.yul\":10229:10230   */\n      0x01\n        /* \"#utility.yul\":10223:10227   */\n      dup3\n        /* \"#utility.yul\":10219:10231   */\n      and\n        /* \"#utility.yul\":10250:10268   */\n      dup1\n        /* \"#utility.yul\":10240:10321   */\n      tag_228\n      jumpi\n        /* \"#utility.yul\":10306:10310   */\n      0x7f\n        /* \"#utility.yul\":10298:10304   */\n      dup3\n        /* \"#utility.yul\":10294:10311   */\n      and\n        /* \"#utility.yul\":10284:10311   */\n      swap2\n      pop\n        /* \"#utility.yul\":10240:10321   */\n    tag_228:\n        /* \"#utility.yul\":10368:10370   */\n      0x20\n        /* \"#utility.yul\":10360:10366   */\n      dup3\n        /* \"#utility.yul\":10357:10371   */\n      lt\n        /* \"#utility.yul\":10337:10355   */\n      dup2\n        /* \"#utility.yul\":10334:10372   */\n      sub\n        /* \"#utility.yul\":10331:10415   */\n      tag_229\n      jumpi\n        /* \"#utility.yul\":10387:10405   */\n      tag_230\n      tag_108\n      jump\t// in\n    tag_230:\n        /* \"#utility.yul\":10331:10415   */\n    tag_229:\n        /* \"#utility.yul\":10152:10421   */\n      pop\n        /* \"#utility.yul\":10101:10421   */\n      swap2\n      swap1\n      pop\n      jump\t// out\n        /* \"#utility.yul\":10427:10621   */\n    tag_66:\n        /* \"#utility.yul\":10467:10471   */\n      0x00\n        /* \"#utility.yul\":10487:10507   */\n      tag_232\n        /* \"#utility.yul\":10505:10506   */\n      dup3\n        /* \"#utility.yul\":10487:10507   */\n      tag_81\n      jump\t// in\n    tag_232:\n        /* \"#utility.yul\":10482:10507   */\n      swap2\n      pop\n        /* \"#utility.yul\":10521:10541   */\n      tag_233\n        /* \"#utility.yul\":10539:10540   */\n      dup4\n        /* \"#utility.yul\":10521:10541   */\n      tag_81\n      jump\t// in\n    tag_233:\n        /* \"#utility.yul\":10516:10541   */\n      swap3\n      pop\n        /* \"#utility.yul\":10565:10566   */\n      dup3\n        /* \"#utility.yul\":10562:10563   */\n      dup3\n        /* \"#utility.yul\":10558:10567   */\n      sub\n        /* \"#utility.yul\":10550:10567   */\n      swap1\n      pop\n        /* \"#utility.yul\":10589:10590   */\n      dup2\n        /* \"#utility.yul\":10583:10587   */\n      dup2\n        /* \"#utility.yul\":10580:10591   */\n      gt\n        /* \"#utility.yul\":10577:10614   */\n      iszero\n      tag_234\n      jumpi\n        /* \"#utility.yul\":10594:10612   */\n      tag_235\n      tag_103\n      jump\t// in\n    tag_235:\n        /* \"#utility.yul\":10577:10614   */\n    tag_234:\n        /* \"#utility.yul\":10427:10621   */\n      swap3\n      swap2\n      pop\n      pop\n      jump\t// out\n        /* \"#utility.yul\":10627:10860   */\n    tag_71:\n        /* \"#utility.yul\":10666:10669   */\n      0x00\n        /* \"#utility.yul\":10689:10713   */\n      tag_237\n        /* \"#utility.yul\":10707:10712   */\n      dup3\n        /* \"#utility.yul\":10689:10713   */\n      tag_81\n      jump\t// in\n    tag_237:\n        /* \"#utility.yul\":10680:10713   */\n      swap2\n      pop\n        /* \"#utility.yul\":10735:10801   */\n      0xffffffffffffffffffffffffffffffffffffffffffffffffffffffffffffffff\n        /* \"#utility.yul\":10728:10733   */\n      dup3\n        /* \"#utility.yul\":10725:10802   */\n      sub\n        /* \"#utility.yul\":10722:10825   */\n      tag_238\n      jumpi\n        /* \"#utility.yul\":10805:10823   */\n      tag_239\n      tag_103\n      jump\t// in\n    tag_239:\n        /* \"#utility.yul\":10722:10825   */\n    tag_238:\n        /* \"#utility.yul\":10852:10853   */\n      0x01\n        /* \"#utility.yul\":10845:10850   */\n      dup3\n        /* \"#utility.yul\":10841:10854   */\n      add\n        /* \"#utility.yul\":10834:10854   */\n      swap1\n      pop\n        /* \"#utility.yul\":10627:10860   */\n      swap2\n      swap1\n      pop\n      jump\t// out\n        /* \"#utility.yul\":10866:11399   */\n    tag_73:\n        /* \"#utility.yul\":11035:11039   */\n      0x00\n        /* \"#utility.yul\":11073:11075   */\n      0x60\n        /* \"#utility.yul\":11062:11071   */\n      dup3\n        /* \"#utility.yul\":11058:11076   */\n      add\n        /* \"#utility.yul\":11050:11076   */\n      swap1\n      pop\n        /* \"#utility.yul\":11086:11157   */\n      tag_241\n        /* \"#utility.yul\":11154:11155   */\n      0x00\n        /* \"#utility.yul\":11143:11152   */\n      dup4\n        /* \"#utility.yul\":11139:11156   */\n      add\n        /* \"#utility.yul\":11130:11136   */\n      dup7\n        /* \"#utility.yul\":11086:11157   */\n      tag_89\n      jump\t// in\n    tag_241:\n        /* \"#utility.yul\":11204:11213   */\n      dup2\n        /* \"#utility.yul\":11198:11202   */\n      dup2\n        /* \"#utility.yul\":11194:11214   */\n      sub\n        /* \"#utility.yul\":11189:11191   */\n      0x20\n        /* \"#utility.yul\":11178:11187   */\n      dup4\n        /* \"#utility.yul\":11174:11192   */\n      add\n        /* \"#utility.yul\":11167:11215   */\n      mstore\n        /* \"#utility.yul\":11232:11310   */\n      tag_242\n        /* \"#utility.yul\":11305:11309   */\n      dup2\n        /* \"#utility.yul\":11296:11302   */\n      dup6\n        /* \"#utility.yul\":11232:11310   */\n      tag_88\n      jump\t// in\n    tag_242:\n        /* \"#utility.yul\":11224:11310   */\n      swap1\n      pop\n        /* \"#utility.yul\":11320:11392   */\n      tag_243\n        /* \"#utility.yul\":11388:11390   */\n      0x40\n        /* \"#utility.yul\":11377:11386   */\n      dup4\n        /* \"#utility.yul\":11373:11391   */\n      add\n        /* \"#utility.yul\":11364:11370   */\n      dup5\n        /* \"#utility.yul\":11320:11392   */\n      tag_89\n      jump\t// in\n    tag_243:\n        /* \"#utility.yul\":10866:11399   */\n      swap5\n      swap4\n      pop\n      pop\n      pop\n      pop\n      jump\t// out\n        /* \"#utility.yul\":11405:11553   */\n    tag_109:\n        /* \"#utility.yul\":11507:11518   */\n      0x00\n        /* \"#utility.yul\":11544:11547   */\n      dup2\n        /* \"#utility.yul\":11529:11547   */\n      swap1\n      pop\n        /* \"#utility.yul\":11405:11553   */\n      swap3\n      swap2\n      pop\n      pop\n      jump\t// out\n        /* \"#utility.yul\":11559:11949   */\n    tag_110:\n        /* \"#utility.yul\":11665:11668   */\n      0x00\n        /* \"#utility.yul\":11693:11732   */\n      tag_246\n        /* \"#utility.yul\":11726:11731   */\n      dup3\n        /* \"#utility.yul\":11693:11732   */\n      tag_84\n      jump\t// in\n    tag_246:\n        /* \"#utility.yul\":11748:11837   */\n      tag_247\n        /* \"#utility.yul\":11830:11836   */\n      dup2\n        /* \"#utility.yul\":11825:11828   */\n      dup6\n        /* \"#utility.yul\":11748:11837   */\n      tag_109\n      jump\t// in\n    tag_247:\n        /* \"#utility.yul\":11741:11837   */\n      swap4\n      pop\n        /* \"#utility.yul\":11846:11911   */\n      tag_248\n        /* \"#utility.yul\":11904:11910   */\n      dup2\n        /* \"#utility.yul\":11899:11902   */\n      dup6\n        /* \"#utility.yul\":11892:11896   */\n      0x20\n        /* \"#utility.yul\":11885:11890   */\n      dup7\n        /* \"#utility.yul\":11881:11897   */\n      add\n        /* \"#utility.yul\":11846:11911   */\n      tag_86\n      jump\t// in\n    tag_248:\n        /* \"#utility.yul\":11936:11942   */\n      dup1\n        /* \"#utility.yul\":11931:11934   */\n      dup5\n        /* \"#utility.yul\":11927:11943   */\n      add\n        /* \"#utility.yul\":11920:11943   */\n      swap2\n      pop\n        /* \"#utility.yul\":11669:11949   */\n      pop\n        /* \"#utility.yul\":11559:11949   */\n      swap3\n      swap2\n      pop\n      pop\n      jump\t// out\n        /* \"#utility.yul\":11955:12230   */\n    tag_76:\n        /* \"#utility.yul\":12087:12090   */\n      0x00\n        /* \"#utility.yul\":12109:12204   */\n      tag_250\n        /* \"#utility.yul\":12200:12203   */\n      dup3\n        /* \"#utility.yul\":12191:12197   */\n      dup5\n        /* \"#utility.yul\":12109:12204   */\n      tag_110\n      jump\t// in\n    tag_250:\n        /* \"#utility.yul\":12102:12204   */\n      swap2\n      pop\n        /* \"#utility.yul\":12221:12224   */\n      dup2\n        /* \"#utility.yul\":12214:12224   */\n      swap1\n      pop\n        /* \"#utility.yul\":11955:12230   */\n      swap3\n      swap2\n      pop\n      pop\n      jump\t// out\n\n    auxdata: 0xa26469706673582212208016ced85035dcc63e0db2b120a8bafbda925a1ff3fcb9dd887b3897ee1f5a2264736f6c63430008180033\n}\n",
				"bytecode": {
					"linkReferences": {},
					"object": "608060405260105f555f54600a62000018919062000269565b6001557306012c8cf97bead5deae237070f9587f8e7a266d60055f6101000a81548173ffffffffffffffffffffffffffffffffffffffff021916908373ffffffffffffffffffffffffffffffffffffffff16021790555060055f9054906101000a900473ffffffffffffffffffffffffffffffffffffffff1660065f6101000a81548173ffffffffffffffffffffffffffffffffffffffff021916908373ffffffffffffffffffffffffffffffffffffffff160217905550348015620000dc575f80fd5b50620002b9565b7f4e487b71000000000000000000000000000000000000000000000000000000005f52601160045260245ffd5b5f8160011c9050919050565b5f808291508390505b60018511156200016d57808604811115620001455762000144620000e3565b5b6001851615620001555780820291505b8081029050620001658562000110565b945062000125565b94509492505050565b5f8262000187576001905062000259565b8162000196575f905062000259565b8160018114620001af5760028114620001ba57620001f0565b600191505062000259565b60ff841115620001cf57620001ce620000e3565b5b8360020a915084821115620001e957620001e8620000e3565b5b5062000259565b5060208310610133831016604e8410600b84101617156200022a5782820a905083811115620002245762000223620000e3565b5b62000259565b6200023984848460016200011c565b92509050818404811115620002535762000252620000e3565b5b81810290505b9392505050565b5f819050919050565b5f620002758262000260565b9150620002828362000260565b9250620002b17fffffffffffffffffffffffffffffffffffffffffffffffffffffffffffffffff848462000176565b905092915050565b610cbe80620002c75f395ff3fe608060405234801561000f575f80fd5b5060043610610055575f3560e01c80630dedffb81461005957806317a7f4cc146100755780632052465e14610091578063528b7b8f146100c25780637bff0a01146100f2575b5f80fd5b610073600480360381019061006e91906105d5565b61010e565b005b61008f600480360381019061008a91906105d5565b61020c565b005b6100ab60048036038101906100a69190610613565b6102f0565b6040516100b99291906106d7565b60405180910390f35b6100dc60048036038101906100d79190610613565b6103a5565b6040516100e99190610744565b60405180910390f35b61010c60048036038101906101079190610889565b6103d5565b005b60035f8381526020019081526020015f205f9054906101000a900473ffffffffffffffffffffffffffffffffffffffff1673ffffffffffffffffffffffffffffffffffffffff163373ffffffffffffffffffffffffffffffffffffffff1614610175575f80fd5b5f6002838154811061018a576101896108d0565b5b905f5260205f2090600202019050600154826101a6919061092a565b91505f60028383600101546101bb9190610987565b6101c591906109ba565b90506102066040518060400160405280600681526020017f4e6f4e616d65000000000000000000000000000000000000000000000000000081525082610451565b50505050565b5f60065f9054906101000a900473ffffffffffffffffffffffffffffffffffffffff1673ffffffffffffffffffffffffffffffffffffffff1663e98b7f4d836040518263ffffffff1660e01b815260040161026791906109ea565b61014060405180830381865afa158015610283573d5f803e3d5ffd5b505050506040513d601f19601f820116820180604052508101906102a79190610a4c565b909192939495969798509091929394959697509091929394959650909192939495509091929394509091929350909192509091509050809150506102eb838261010e565b505050565b600281815481106102ff575f80fd5b905f5260205f2090600202015f91509050805f01805461031e90610b52565b80601f016020809104026020016040519081016040528092919081815260200182805461034a90610b52565b80156103955780601f1061036c57610100808354040283529160200191610395565b820191905f5260205f20905b81548152906001019060200180831161037857829003601f168201915b5050505050908060010154905082565b6003602052805f5260405f205f915054906101000a900473ffffffffffffffffffffffffffffffffffffffff1681565b5f60045f3373ffffffffffffffffffffffffffffffffffffffff1673ffffffffffffffffffffffffffffffffffffffff1681526020019081526020015f20541461041d575f80fd5b5f6104278261054e565b9050606481610436919061092a565b816104419190610b82565b905061044d8282610451565b5050565b5f6002805490509050600160028054905061046c9190610b82565b503360035f8381526020019081526020015f205f6101000a81548173ffffffffffffffffffffffffffffffffffffffff021916908373ffffffffffffffffffffffffffffffffffffffff16021790555060045f3373ffffffffffffffffffffffffffffffffffffffff1673ffffffffffffffffffffffffffffffffffffffff1681526020019081526020015f205f81548092919061050990610bb5565b91905055507f88f026aacbbecc90c18411df4b1185fd8d9be2470f1962f192bf84a27d0704b781848460405161054193929190610bfc565b60405180910390a1505050565b5f80826040516020016105619190610c72565b604051602081830303815290604052805190602001205f1c905060015481610589919061092a565b915050919050565b5f604051905090565b5f80fd5b5f80fd5b5f819050919050565b6105b4816105a2565b81146105be575f80fd5b50565b5f813590506105cf816105ab565b92915050565b5f80604083850312156105eb576105ea61059a565b5b5f6105f8858286016105c1565b9250506020610609858286016105c1565b9150509250929050565b5f602082840312156106285761062761059a565b5b5f610635848285016105c1565b91505092915050565b5f81519050919050565b5f82825260208201905092915050565b5f5b8381101561067557808201518184015260208101905061065a565b5f8484015250505050565b5f601f19601f8301169050919050565b5f61069a8261063e565b6106a48185610648565b93506106b4818560208601610658565b6106bd81610680565b840191505092915050565b6106d1816105a2565b82525050565b5f6040820190508181035f8301526106ef8185610690565b90506106fe60208301846106c8565b9392505050565b5f73ffffffffffffffffffffffffffffffffffffffff82169050919050565b5f61072e82610705565b9050919050565b61073e81610724565b82525050565b5f6020820190506107575f830184610735565b92915050565b5f80fd5b5f80fd5b7f4e487b71000000000000000000000000000000000000000000000000000000005f52604160045260245ffd5b61079b82610680565b810181811067ffffffffffffffff821117156107ba576107b9610765565b5b80604052505050565b5f6107cc610591565b90506107d88282610792565b919050565b5f67ffffffffffffffff8211156107f7576107f6610765565b5b61080082610680565b9050602081019050919050565b828183375f83830152505050565b5f61082d610828846107dd565b6107c3565b90508281526020810184848401111561084957610848610761565b5b61085484828561080d565b509392505050565b5f82601f8301126108705761086f61075d565b5b813561088084826020860161081b565b91505092915050565b5f6020828403121561089e5761089d61059a565b5b5f82013567ffffffffffffffff8111156108bb576108ba61059e565b5b6108c78482850161085c565b91505092915050565b7f4e487b71000000000000000000000000000000000000000000000000000000005f52603260045260245ffd5b7f4e487b71000000000000000000000000000000000000000000000000000000005f52601260045260245ffd5b5f610934826105a2565b915061093f836105a2565b92508261094f5761094e6108fd565b5b828206905092915050565b7f4e487b71000000000000000000000000000000000000000000000000000000005f52601160045260245ffd5b5f610991826105a2565b915061099c836105a2565b92508282019050808211156109b4576109b361095a565b5b92915050565b5f6109c4826105a2565b91506109cf836105a2565b9250826109df576109de6108fd565b5b828204905092915050565b5f6020820190506109fd5f8301846106c8565b92915050565b5f8115159050919050565b610a1781610a03565b8114610a21575f80fd5b50565b5f81519050610a3281610a0e565b92915050565b5f81519050610a46816105ab565b92915050565b5f805f805f805f805f806101408b8d031215610a6b57610a6a61059a565b5b5f610a788d828e01610a24565b9a50506020610a898d828e01610a24565b9950506040610a9a8d828e01610a38565b9850506060610aab8d828e01610a38565b9750506080610abc8d828e01610a38565b96505060a0610acd8d828e01610a38565b95505060c0610ade8d828e01610a38565b94505060e0610aef8d828e01610a38565b935050610100610b018d828e01610a38565b925050610120610b138d828e01610a38565b9150509295989b9194979a5092959850565b7f4e487b71000000000000000000000000000000000000000000000000000000005f52602260045260245ffd5b5f6002820490506001821680610b6957607f821691505b602082108103610b7c57610b7b610b25565b5b50919050565b5f610b8c826105a2565b9150610b97836105a2565b9250828203905081811115610baf57610bae61095a565b5b92915050565b5f610bbf826105a2565b91507fffffffffffffffffffffffffffffffffffffffffffffffffffffffffffffffff8203610bf157610bf061095a565b5b600182019050919050565b5f606082019050610c0f5f8301866106c8565b8181036020830152610c218185610690565b9050610c3060408301846106c8565b949350505050565b5f81905092915050565b5f610c4c8261063e565b610c568185610c38565b9350610c66818560208601610658565b80840191505092915050565b5f610c7d8284610c42565b91508190509291505056fea26469706673582212208016ced85035dcc63e0db2b120a8bafbda925a1ff3fcb9dd887b3897ee1f5a2264736f6c63430008180033",
					"opcodes": "PUSH1 0x80 PUSH1 0x40 MSTORE PUSH1 0x10 PUSH0 SSTORE PUSH0 SLOAD PUSH1 0xA PUSH3 0x18 SWAP2 SWAP1 PUSH3 0x269 JUMP JUMPDEST PUSH1 0x1 SSTORE PUSH20 0x6012C8CF97BEAD5DEAE237070F9587F8E7A266D PUSH1 0x5 PUSH0 PUSH2 0x100 EXP DUP2 SLOAD DUP2 PUSH20 0xFFFFFFFFFFFFFFFFFFFFFFFFFFFFFFFFFFFFFFFF MUL NOT AND SWAP1 DUP4 PUSH20 0xFFFFFFFFFFFFFFFFFFFFFFFFFFFFFFFFFFFFFFFF AND MUL OR SWAP1 SSTORE POP PUSH1 0x5 PUSH0 SWAP1 SLOAD SWAP1 PUSH2 0x100 EXP SWAP1 DIV PUSH20 0xFFFFFFFFFFFFFFFFFFFFFFFFFFFFFFFFFFFFFFFF AND PUSH1 0x6 PUSH0 PUSH2 0x100 EXP DUP2 SLOAD DUP2 PUSH20 0xFFFFFFFFFFFFFFFFFFFFFFFFFFFFFFFFFFFFFFFF MUL NOT AND SWAP1 DUP4 PUSH20 0xFFFFFFFFFFFFFFFFFFFFFFFFFFFFFFFFFFFFFFFF AND MUL OR SWAP1 SSTORE POP CALLVALUE DUP1 ISZERO PUSH3 0xDC JUMPI PUSH0 DUP1 REVERT JUMPDEST POP PUSH3 0x2B9 JUMP JUMPDEST PUSH32 0x4E487B7100000000000000000000000000000000000000000000000000000000 PUSH0 MSTORE PUSH1 0x11 PUSH1 0x4 MSTORE PUSH1 0x24 PUSH0 REVERT JUMPDEST PUSH0 DUP2 PUSH1 0x1 SHR SWAP1 POP SWAP2 SWAP1 POP JUMP JUMPDEST PUSH0 DUP1 DUP3 SWAP2 POP DUP4 SWAP1 POP JUMPDEST PUSH1 0x1 DUP6 GT ISZERO PUSH3 0x16D JUMPI DUP1 DUP7 DIV DUP2 GT ISZERO PUSH3 0x145 JUMPI PUSH3 0x144 PUSH3 0xE3 JUMP JUMPDEST JUMPDEST PUSH1 0x1 DUP6 AND ISZERO PUSH3 0x155 JUMPI DUP1 DUP3 MUL SWAP2 POP JUMPDEST DUP1 DUP2 MUL SWAP1 POP PUSH3 0x165 DUP6 PUSH3 0x110 JUMP JUMPDEST SWAP5 POP PUSH3 0x125 JUMP JUMPDEST SWAP5 POP SWAP5 SWAP3 POP POP POP JUMP JUMPDEST PUSH0 DUP3 PUSH3 0x187 JUMPI PUSH1 0x1 SWAP1 POP PUSH3 0x259 JUMP JUMPDEST DUP2 PUSH3 0x196 JUMPI PUSH0 SWAP1 POP PUSH3 0x259 JUMP JUMPDEST DUP2 PUSH1 0x1 DUP2 EQ PUSH3 0x1AF JUMPI PUSH1 0x2 DUP2 EQ PUSH3 0x1BA JUMPI PUSH3 0x1F0 JUMP JUMPDEST PUSH1 0x1 SWAP2 POP POP PUSH3 0x259 JUMP JUMPDEST PUSH1 0xFF DUP5 GT ISZERO PUSH3 0x1CF JUMPI PUSH3 0x1CE PUSH3 0xE3 JUMP JUMPDEST JUMPDEST DUP4 PUSH1 0x2 EXP SWAP2 POP DUP5 DUP3 GT ISZERO PUSH3 0x1E9 JUMPI PUSH3 0x1E8 PUSH3 0xE3 JUMP JUMPDEST JUMPDEST POP PUSH3 0x259 JUMP JUMPDEST POP PUSH1 0x20 DUP4 LT PUSH2 0x133 DUP4 LT AND PUSH1 0x4E DUP5 LT PUSH1 0xB DUP5 LT AND OR ISZERO PUSH3 0x22A JUMPI DUP3 DUP3 EXP SWAP1 POP DUP4 DUP2 GT ISZERO PUSH3 0x224 JUMPI PUSH3 0x223 PUSH3 0xE3 JUMP JUMPDEST JUMPDEST PUSH3 0x259 JUMP JUMPDEST PUSH3 0x239 DUP5 DUP5 DUP5 PUSH1 0x1 PUSH3 0x11C JUMP JUMPDEST SWAP3 POP SWAP1 POP DUP2 DUP5 DIV DUP2 GT ISZERO PUSH3 0x253 JUMPI PUSH3 0x252 PUSH3 0xE3 JUMP JUMPDEST JUMPDEST DUP2 DUP2 MUL SWAP1 POP JUMPDEST SWAP4 SWAP3 POP POP POP JUMP JUMPDEST PUSH0 DUP2 SWAP1 POP SWAP2 SWAP1 POP JUMP JUMPDEST PUSH0 PUSH3 0x275 DUP3 PUSH3 0x260 JUMP JUMPDEST SWAP2 POP PUSH3 0x282 DUP4 PUSH3 0x260 JUMP JUMPDEST SWAP3 POP PUSH3 0x2B1 PUSH32 0xFFFFFFFFFFFFFFFFFFFFFFFFFFFFFFFFFFFFFFFFFFFFFFFFFFFFFFFFFFFFFFFF DUP5 DUP5 PUSH3 0x176 JUMP JUMPDEST SWAP1 POP SWAP3 SWAP2 POP POP JUMP JUMPDEST PUSH2 0xCBE DUP1 PUSH3 0x2C7 PUSH0 CODECOPY PUSH0 RETURN INVALID PUSH1 0x80 PUSH1 0x40 MSTORE CALLVALUE DUP1 ISZERO PUSH2 0xF JUMPI PUSH0 DUP1 REVERT JUMPDEST POP PUSH1 0x4 CALLDATASIZE LT PUSH2 0x55 JUMPI PUSH0 CALLDATALOAD PUSH1 0xE0 SHR DUP1 PUSH4 0xDEDFFB8 EQ PUSH2 0x59 JUMPI DUP1 PUSH4 0x17A7F4CC EQ PUSH2 0x75 JUMPI DUP1 PUSH4 0x2052465E EQ PUSH2 0x91 JUMPI DUP1 PUSH4 0x528B7B8F EQ PUSH2 0xC2 JUMPI DUP1 PUSH4 0x7BFF0A01 EQ PUSH2 0xF2 JUMPI JUMPDEST PUSH0 DUP1 REVERT JUMPDEST PUSH2 0x73 PUSH1 0x4 DUP1 CALLDATASIZE SUB DUP2 ADD SWAP1 PUSH2 0x6E SWAP2 SWAP1 PUSH2 0x5D5 JUMP JUMPDEST PUSH2 0x10E JUMP JUMPDEST STOP JUMPDEST PUSH2 0x8F PUSH1 0x4 DUP1 CALLDATASIZE SUB DUP2 ADD SWAP1 PUSH2 0x8A SWAP2 SWAP1 PUSH2 0x5D5 JUMP JUMPDEST PUSH2 0x20C JUMP JUMPDEST STOP JUMPDEST PUSH2 0xAB PUSH1 0x4 DUP1 CALLDATASIZE SUB DUP2 ADD SWAP1 PUSH2 0xA6 SWAP2 SWAP1 PUSH2 0x613 JUMP JUMPDEST PUSH2 0x2F0 JUMP JUMPDEST PUSH1 0x40 MLOAD PUSH2 0xB9 SWAP3 SWAP2 SWAP1 PUSH2 0x6D7 JUMP JUMPDEST PUSH1 0x40 MLOAD DUP1 SWAP2 SUB SWAP1 RETURN JUMPDEST PUSH2 0xDC PUSH1 0x4 DUP1 CALLDATASIZE SUB DUP2 ADD SWAP1 PUSH2 0xD7 SWAP2 SWAP1 PUSH2 0x613 JUMP JUMPDEST PUSH2 0x3A5 JUMP JUMPDEST PUSH1 0x40 MLOAD PUSH2 0xE9 SWAP2 SWAP1 PUSH2 0x744 JUMP JUMPDEST PUSH1 0x40 MLOAD DUP1 SWAP2 SUB SWAP1 RETURN JUMPDEST PUSH2 0x10C PUSH1 0x4 DUP1 CALLDATASIZE SUB DUP2 ADD SWAP1 PUSH2 0x107 SWAP2 SWAP1 PUSH2 0x889 JUMP JUMPDEST PUSH2 0x3D5 JUMP JUMPDEST STOP JUMPDEST PUSH1 0x3 PUSH0 DUP4 DUP2 MSTORE PUSH1 0x20 ADD SWAP1 DUP2 MSTORE PUSH1 0x20 ADD PUSH0 KECCAK256 PUSH0 SWAP1 SLOAD SWAP1 PUSH2 0x100 EXP SWAP1 DIV PUSH20 0xFFFFFFFFFFFFFFFFFFFFFFFFFFFFFFFFFFFFFFFF AND PUSH20 0xFFFFFFFFFFFFFFFFFFFFFFFFFFFFFFFFFFFFFFFF AND CALLER PUSH20 0xFFFFFFFFFFFFFFFFFFFFFFFFFFFFFFFFFFFFFFFF AND EQ PUSH2 0x175 JUMPI PUSH0 DUP1 REVERT JUMPDEST PUSH0 PUSH1 0x2 DUP4 DUP2 SLOAD DUP2 LT PUSH2 0x18A JUMPI PUSH2 0x189 PUSH2 0x8D0 JUMP JUMPDEST JUMPDEST SWAP1 PUSH0 MSTORE PUSH1 0x20 PUSH0 KECCAK256 SWAP1 PUSH1 0x2 MUL ADD SWAP1 POP PUSH1 0x1 SLOAD DUP3 PUSH2 0x1A6 SWAP2 SWAP1 PUSH2 0x92A JUMP JUMPDEST SWAP2 POP PUSH0 PUSH1 0x2 DUP4 DUP4 PUSH1 0x1 ADD SLOAD PUSH2 0x1BB SWAP2 SWAP1 PUSH2 0x987 JUMP JUMPDEST PUSH2 0x1C5 SWAP2 SWAP1 PUSH2 0x9BA JUMP JUMPDEST SWAP1 POP PUSH2 0x206 PUSH1 0x40 MLOAD DUP1 PUSH1 0x40 ADD PUSH1 0x40 MSTORE DUP1 PUSH1 0x6 DUP2 MSTORE PUSH1 0x20 ADD PUSH32 0x4E6F4E616D650000000000000000000000000000000000000000000000000000 DUP2 MSTORE POP DUP3 PUSH2 0x451 JUMP JUMPDEST POP POP POP POP JUMP JUMPDEST PUSH0 PUSH1 0x6 PUSH0 SWAP1 SLOAD SWAP1 PUSH2 0x100 EXP SWAP1 DIV PUSH20 0xFFFFFFFFFFFFFFFFFFFFFFFFFFFFFFFFFFFFFFFF AND PUSH20 0xFFFFFFFFFFFFFFFFFFFFFFFFFFFFFFFFFFFFFFFF AND PUSH4 0xE98B7F4D DUP4 PUSH1 0x40 MLOAD DUP3 PUSH4 0xFFFFFFFF AND PUSH1 0xE0 SHL DUP2 MSTORE PUSH1 0x4 ADD PUSH2 0x267 SWAP2 SWAP1 PUSH2 0x9EA JUMP JUMPDEST PUSH2 0x140 PUSH1 0x40 MLOAD DUP1 DUP4 SUB DUP2 DUP7 GAS STATICCALL ISZERO DUP1 ISZERO PUSH2 0x283 JUMPI RETURNDATASIZE PUSH0 DUP1 RETURNDATACOPY RETURNDATASIZE PUSH0 REVERT JUMPDEST POP POP POP POP PUSH1 0x40 MLOAD RETURNDATASIZE PUSH1 0x1F NOT PUSH1 0x1F DUP3 ADD AND DUP3 ADD DUP1 PUSH1 0x40 MSTORE POP DUP2 ADD SWAP1 PUSH2 0x2A7 SWAP2 SWAP1 PUSH2 0xA4C JUMP JUMPDEST SWAP1 SWAP2 SWAP3 SWAP4 SWAP5 SWAP6 SWAP7 SWAP8 SWAP9 POP SWAP1 SWAP2 SWAP3 SWAP4 SWAP5 SWAP6 SWAP7 SWAP8 POP SWAP1 SWAP2 SWAP3 SWAP4 SWAP5 SWAP6 SWAP7 POP SWAP1 SWAP2 SWAP3 SWAP4 SWAP5 SWAP6 POP SWAP1 SWAP2 SWAP3 SWAP4 SWAP5 POP SWAP1 SWAP2 SWAP3 SWAP4 POP SWAP1 SWAP2 SWAP3 POP SWAP1 SWAP2 POP SWAP1 POP DUP1 SWAP2 POP POP PUSH2 0x2EB DUP4 DUP3 PUSH2 0x10E JUMP JUMPDEST POP POP POP JUMP JUMPDEST PUSH1 0x2 DUP2 DUP2 SLOAD DUP2 LT PUSH2 0x2FF JUMPI PUSH0 DUP1 REVERT JUMPDEST SWAP1 PUSH0 MSTORE PUSH1 0x20 PUSH0 KECCAK256 SWAP1 PUSH1 0x2 MUL ADD PUSH0 SWAP2 POP SWAP1 POP DUP1 PUSH0 ADD DUP1 SLOAD PUSH2 0x31E SWAP1 PUSH2 0xB52 JUMP JUMPDEST DUP1 PUSH1 0x1F ADD PUSH1 0x20 DUP1 SWAP2 DIV MUL PUSH1 0x20 ADD PUSH1 0x40 MLOAD SWAP1 DUP2 ADD PUSH1 0x40 MSTORE DUP1 SWAP3 SWAP2 SWAP1 DUP2 DUP2 MSTORE PUSH1 0x20 ADD DUP3 DUP1 SLOAD PUSH2 0x34A SWAP1 PUSH2 0xB52 JUMP JUMPDEST DUP1 ISZERO PUSH2 0x395 JUMPI DUP1 PUSH1 0x1F LT PUSH2 0x36C JUMPI PUSH2 0x100 DUP1 DUP4 SLOAD DIV MUL DUP4 MSTORE SWAP2 PUSH1 0x20 ADD SWAP2 PUSH2 0x395 JUMP JUMPDEST DUP3 ADD SWAP2 SWAP1 PUSH0 MSTORE PUSH1 0x20 PUSH0 KECCAK256 SWAP1 JUMPDEST DUP2 SLOAD DUP2 MSTORE SWAP1 PUSH1 0x1 ADD SWAP1 PUSH1 0x20 ADD DUP1 DUP4 GT PUSH2 0x378 JUMPI DUP3 SWAP1 SUB PUSH1 0x1F AND DUP3 ADD SWAP2 JUMPDEST POP POP POP POP POP SWAP1 DUP1 PUSH1 0x1 ADD SLOAD SWAP1 POP DUP3 JUMP JUMPDEST PUSH1 0x3 PUSH1 0x20 MSTORE DUP1 PUSH0 MSTORE PUSH1 0x40 PUSH0 KECCAK256 PUSH0 SWAP2 POP SLOAD SWAP1 PUSH2 0x100 EXP SWAP1 DIV PUSH20 0xFFFFFFFFFFFFFFFFFFFFFFFFFFFFFFFFFFFFFFFF AND DUP2 JUMP JUMPDEST PUSH0 PUSH1 0x4 PUSH0 CALLER PUSH20 0xFFFFFFFFFFFFFFFFFFFFFFFFFFFFFFFFFFFFFFFF AND PUSH20 0xFFFFFFFFFFFFFFFFFFFFFFFFFFFFFFFFFFFFFFFF AND DUP2 MSTORE PUSH1 0x20 ADD SWAP1 DUP2 MSTORE PUSH1 0x20 ADD PUSH0 KECCAK256 SLOAD EQ PUSH2 0x41D JUMPI PUSH0 DUP1 REVERT JUMPDEST PUSH0 PUSH2 0x427 DUP3 PUSH2 0x54E JUMP JUMPDEST SWAP1 POP PUSH1 0x64 DUP2 PUSH2 0x436 SWAP2 SWAP1 PUSH2 0x92A JUMP JUMPDEST DUP2 PUSH2 0x441 SWAP2 SWAP1 PUSH2 0xB82 JUMP JUMPDEST SWAP1 POP PUSH2 0x44D DUP3 DUP3 PUSH2 0x451 JUMP JUMPDEST POP POP JUMP JUMPDEST PUSH0 PUSH1 0x2 DUP1 SLOAD SWAP1 POP SWAP1 POP PUSH1 0x1 PUSH1 0x2 DUP1 SLOAD SWAP1 POP PUSH2 0x46C SWAP2 SWAP1 PUSH2 0xB82 JUMP JUMPDEST POP CALLER PUSH1 0x3 PUSH0 DUP4 DUP2 MSTORE PUSH1 0x20 ADD SWAP1 DUP2 MSTORE PUSH1 0x20 ADD PUSH0 KECCAK256 PUSH0 PUSH2 0x100 EXP DUP2 SLOAD DUP2 PUSH20 0xFFFFFFFFFFFFFFFFFFFFFFFFFFFFFFFFFFFFFFFF MUL NOT AND SWAP1 DUP4 PUSH20 0xFFFFFFFFFFFFFFFFFFFFFFFFFFFFFFFFFFFFFFFF AND MUL OR SWAP1 SSTORE POP PUSH1 0x4 PUSH0 CALLER PUSH20 0xFFFFFFFFFFFFFFFFFFFFFFFFFFFFFFFFFFFFFFFF AND PUSH20 0xFFFFFFFFFFFFFFFFFFFFFFFFFFFFFFFFFFFFFFFF AND DUP2 MSTORE PUSH1 0x20 ADD SWAP1 DUP2 MSTORE PUSH1 0x20 ADD PUSH0 KECCAK256 PUSH0 DUP2 SLOAD DUP1 SWAP3 SWAP2 SWAP1 PUSH2 0x509 SWAP1 PUSH2 0xBB5 JUMP JUMPDEST SWAP2 SWAP1 POP SSTORE POP PUSH32 0x88F026AACBBECC90C18411DF4B1185FD8D9BE2470F1962F192BF84A27D0704B7 DUP2 DUP5 DUP5 PUSH1 0x40 MLOAD PUSH2 0x541 SWAP4 SWAP3 SWAP2 SWAP1 PUSH2 0xBFC JUMP JUMPDEST PUSH1 0x40 MLOAD DUP1 SWAP2 SUB SWAP1 LOG1 POP POP POP JUMP JUMPDEST PUSH0 DUP1 DUP3 PUSH1 0x40 MLOAD PUSH1 0x20 ADD PUSH2 0x561 SWAP2 SWAP1 PUSH2 0xC72 JUMP JUMPDEST PUSH1 0x40 MLOAD PUSH1 0x20 DUP2 DUP4 SUB SUB DUP2 MSTORE SWAP1 PUSH1 0x40 MSTORE DUP1 MLOAD SWAP1 PUSH1 0x20 ADD KECCAK256 PUSH0 SHR SWAP1 POP PUSH1 0x1 SLOAD DUP2 PUSH2 0x589 SWAP2 SWAP1 PUSH2 0x92A JUMP JUMPDEST SWAP2 POP POP SWAP2 SWAP1 POP JUMP JUMPDEST PUSH0 PUSH1 0x40 MLOAD SWAP1 POP SWAP1 JUMP JUMPDEST PUSH0 DUP1 REVERT JUMPDEST PUSH0 DUP1 REVERT JUMPDEST PUSH0 DUP2 SWAP1 POP SWAP2 SWAP1 POP JUMP JUMPDEST PUSH2 0x5B4 DUP2 PUSH2 0x5A2 JUMP JUMPDEST DUP2 EQ PUSH2 0x5BE JUMPI PUSH0 DUP1 REVERT JUMPDEST POP JUMP JUMPDEST PUSH0 DUP2 CALLDATALOAD SWAP1 POP PUSH2 0x5CF DUP2 PUSH2 0x5AB JUMP JUMPDEST SWAP3 SWAP2 POP POP JUMP JUMPDEST PUSH0 DUP1 PUSH1 0x40 DUP4 DUP6 SUB SLT ISZERO PUSH2 0x5EB JUMPI PUSH2 0x5EA PUSH2 0x59A JUMP JUMPDEST JUMPDEST PUSH0 PUSH2 0x5F8 DUP6 DUP3 DUP7 ADD PUSH2 0x5C1 JUMP JUMPDEST SWAP3 POP POP PUSH1 0x20 PUSH2 0x609 DUP6 DUP3 DUP7 ADD PUSH2 0x5C1 JUMP JUMPDEST SWAP2 POP POP SWAP3 POP SWAP3 SWAP1 POP JUMP JUMPDEST PUSH0 PUSH1 0x20 DUP3 DUP5 SUB SLT ISZERO PUSH2 0x628 JUMPI PUSH2 0x627 PUSH2 0x59A JUMP JUMPDEST JUMPDEST PUSH0 PUSH2 0x635 DUP5 DUP3 DUP6 ADD PUSH2 0x5C1 JUMP JUMPDEST SWAP2 POP POP SWAP3 SWAP2 POP POP JUMP JUMPDEST PUSH0 DUP2 MLOAD SWAP1 POP SWAP2 SWAP1 POP JUMP JUMPDEST PUSH0 DUP3 DUP3 MSTORE PUSH1 0x20 DUP3 ADD SWAP1 POP SWAP3 SWAP2 POP POP JUMP JUMPDEST PUSH0 JUMPDEST DUP4 DUP2 LT ISZERO PUSH2 0x675 JUMPI DUP1 DUP3 ADD MLOAD DUP2 DUP5 ADD MSTORE PUSH1 0x20 DUP2 ADD SWAP1 POP PUSH2 0x65A JUMP JUMPDEST PUSH0 DUP5 DUP5 ADD MSTORE POP POP POP POP JUMP JUMPDEST PUSH0 PUSH1 0x1F NOT PUSH1 0x1F DUP4 ADD AND SWAP1 POP SWAP2 SWAP1 POP JUMP JUMPDEST PUSH0 PUSH2 0x69A DUP3 PUSH2 0x63E JUMP JUMPDEST PUSH2 0x6A4 DUP2 DUP6 PUSH2 0x648 JUMP JUMPDEST SWAP4 POP PUSH2 0x6B4 DUP2 DUP6 PUSH1 0x20 DUP7 ADD PUSH2 0x658 JUMP JUMPDEST PUSH2 0x6BD DUP2 PUSH2 0x680 JUMP JUMPDEST DUP5 ADD SWAP2 POP POP SWAP3 SWAP2 POP POP JUMP JUMPDEST PUSH2 0x6D1 DUP2 PUSH2 0x5A2 JUMP JUMPDEST DUP3 MSTORE POP POP JUMP JUMPDEST PUSH0 PUSH1 0x40 DUP3 ADD SWAP1 POP DUP2 DUP2 SUB PUSH0 DUP4 ADD MSTORE PUSH2 0x6EF DUP2 DUP6 PUSH2 0x690 JUMP JUMPDEST SWAP1 POP PUSH2 0x6FE PUSH1 0x20 DUP4 ADD DUP5 PUSH2 0x6C8 JUMP JUMPDEST SWAP4 SWAP3 POP POP POP JUMP JUMPDEST PUSH0 PUSH20 0xFFFFFFFFFFFFFFFFFFFFFFFFFFFFFFFFFFFFFFFF DUP3 AND SWAP1 POP SWAP2 SWAP1 POP JUMP JUMPDEST PUSH0 PUSH2 0x72E DUP3 PUSH2 0x705 JUMP JUMPDEST SWAP1 POP SWAP2 SWAP1 POP JUMP JUMPDEST PUSH2 0x73E DUP2 PUSH2 0x724 JUMP JUMPDEST DUP3 MSTORE POP POP JUMP JUMPDEST PUSH0 PUSH1 0x20 DUP3 ADD SWAP1 POP PUSH2 0x757 PUSH0 DUP4 ADD DUP5 PUSH2 0x735 JUMP JUMPDEST SWAP3 SWAP2 POP POP JUMP JUMPDEST PUSH0 DUP1 REVERT JUMPDEST PUSH0 DUP1 REVERT JUMPDEST PUSH32 0x4E487B7100000000000000000000000000000000000000000000000000000000 PUSH0 MSTORE PUSH1 0x41 PUSH1 0x4 MSTORE PUSH1 0x24 PUSH0 REVERT JUMPDEST PUSH2 0x79B DUP3 PUSH2 0x680 JUMP JUMPDEST DUP2 ADD DUP2 DUP2 LT PUSH8 0xFFFFFFFFFFFFFFFF DUP3 GT OR ISZERO PUSH2 0x7BA JUMPI PUSH2 0x7B9 PUSH2 0x765 JUMP JUMPDEST JUMPDEST DUP1 PUSH1 0x40 MSTORE POP POP POP JUMP JUMPDEST PUSH0 PUSH2 0x7CC PUSH2 0x591 JUMP JUMPDEST SWAP1 POP PUSH2 0x7D8 DUP3 DUP3 PUSH2 0x792 JUMP JUMPDEST SWAP2 SWAP1 POP JUMP JUMPDEST PUSH0 PUSH8 0xFFFFFFFFFFFFFFFF DUP3 GT ISZERO PUSH2 0x7F7 JUMPI PUSH2 0x7F6 PUSH2 0x765 JUMP JUMPDEST JUMPDEST PUSH2 0x800 DUP3 PUSH2 0x680 JUMP JUMPDEST SWAP1 POP PUSH1 0x20 DUP2 ADD SWAP1 POP SWAP2 SWAP1 POP JUMP JUMPDEST DUP3 DUP2 DUP4 CALLDATACOPY PUSH0 DUP4 DUP4 ADD MSTORE POP POP POP JUMP JUMPDEST PUSH0 PUSH2 0x82D PUSH2 0x828 DUP5 PUSH2 0x7DD JUMP JUMPDEST PUSH2 0x7C3 JUMP JUMPDEST SWAP1 POP DUP3 DUP2 MSTORE PUSH1 0x20 DUP2 ADD DUP5 DUP5 DUP5 ADD GT ISZERO PUSH2 0x849 JUMPI PUSH2 0x848 PUSH2 0x761 JUMP JUMPDEST JUMPDEST PUSH2 0x854 DUP5 DUP3 DUP6 PUSH2 0x80D JUMP JUMPDEST POP SWAP4 SWAP3 POP POP POP JUMP JUMPDEST PUSH0 DUP3 PUSH1 0x1F DUP4 ADD SLT PUSH2 0x870 JUMPI PUSH2 0x86F PUSH2 0x75D JUMP JUMPDEST JUMPDEST DUP2 CALLDATALOAD PUSH2 0x880 DUP5 DUP3 PUSH1 0x20 DUP7 ADD PUSH2 0x81B JUMP JUMPDEST SWAP2 POP POP SWAP3 SWAP2 POP POP JUMP JUMPDEST PUSH0 PUSH1 0x20 DUP3 DUP5 SUB SLT ISZERO PUSH2 0x89E JUMPI PUSH2 0x89D PUSH2 0x59A JUMP JUMPDEST JUMPDEST PUSH0 DUP3 ADD CALLDATALOAD PUSH8 0xFFFFFFFFFFFFFFFF DUP2 GT ISZERO PUSH2 0x8BB JUMPI PUSH2 0x8BA PUSH2 0x59E JUMP JUMPDEST JUMPDEST PUSH2 0x8C7 DUP5 DUP3 DUP6 ADD PUSH2 0x85C JUMP JUMPDEST SWAP2 POP POP SWAP3 SWAP2 POP POP JUMP JUMPDEST PUSH32 0x4E487B7100000000000000000000000000000000000000000000000000000000 PUSH0 MSTORE PUSH1 0x32 PUSH1 0x4 MSTORE PUSH1 0x24 PUSH0 REVERT JUMPDEST PUSH32 0x4E487B7100000000000000000000000000000000000000000000000000000000 PUSH0 MSTORE PUSH1 0x12 PUSH1 0x4 MSTORE PUSH1 0x24 PUSH0 REVERT JUMPDEST PUSH0 PUSH2 0x934 DUP3 PUSH2 0x5A2 JUMP JUMPDEST SWAP2 POP PUSH2 0x93F DUP4 PUSH2 0x5A2 JUMP JUMPDEST SWAP3 POP DUP3 PUSH2 0x94F JUMPI PUSH2 0x94E PUSH2 0x8FD JUMP JUMPDEST JUMPDEST DUP3 DUP3 MOD SWAP1 POP SWAP3 SWAP2 POP POP JUMP JUMPDEST PUSH32 0x4E487B7100000000000000000000000000000000000000000000000000000000 PUSH0 MSTORE PUSH1 0x11 PUSH1 0x4 MSTORE PUSH1 0x24 PUSH0 REVERT JUMPDEST PUSH0 PUSH2 0x991 DUP3 PUSH2 0x5A2 JUMP JUMPDEST SWAP2 POP PUSH2 0x99C DUP4 PUSH2 0x5A2 JUMP JUMPDEST SWAP3 POP DUP3 DUP3 ADD SWAP1 POP DUP1 DUP3 GT ISZERO PUSH2 0x9B4 JUMPI PUSH2 0x9B3 PUSH2 0x95A JUMP JUMPDEST JUMPDEST SWAP3 SWAP2 POP POP JUMP JUMPDEST PUSH0 PUSH2 0x9C4 DUP3 PUSH2 0x5A2 JUMP JUMPDEST SWAP2 POP PUSH2 0x9CF DUP4 PUSH2 0x5A2 JUMP JUMPDEST SWAP3 POP DUP3 PUSH2 0x9DF JUMPI PUSH2 0x9DE PUSH2 0x8FD JUMP JUMPDEST JUMPDEST DUP3 DUP3 DIV SWAP1 POP SWAP3 SWAP2 POP POP JUMP JUMPDEST PUSH0 PUSH1 0x20 DUP3 ADD SWAP1 POP PUSH2 0x9FD PUSH0 DUP4 ADD DUP5 PUSH2 0x6C8 JUMP JUMPDEST SWAP3 SWAP2 POP POP JUMP JUMPDEST PUSH0 DUP2 ISZERO ISZERO SWAP1 POP SWAP2 SWAP1 POP JUMP JUMPDEST PUSH2 0xA17 DUP2 PUSH2 0xA03 JUMP JUMPDEST DUP2 EQ PUSH2 0xA21 JUMPI PUSH0 DUP1 REVERT JUMPDEST POP JUMP JUMPDEST PUSH0 DUP2 MLOAD SWAP1 POP PUSH2 0xA32 DUP2 PUSH2 0xA0E JUMP JUMPDEST SWAP3 SWAP2 POP POP JUMP JUMPDEST PUSH0 DUP2 MLOAD SWAP1 POP PUSH2 0xA46 DUP2 PUSH2 0x5AB JUMP JUMPDEST SWAP3 SWAP2 POP POP JUMP JUMPDEST PUSH0 DUP1 PUSH0 DUP1 PUSH0 DUP1 PUSH0 DUP1 PUSH0 DUP1 PUSH2 0x140 DUP12 DUP14 SUB SLT ISZERO PUSH2 0xA6B JUMPI PUSH2 0xA6A PUSH2 0x59A JUMP JUMPDEST JUMPDEST PUSH0 PUSH2 0xA78 DUP14 DUP3 DUP15 ADD PUSH2 0xA24 JUMP JUMPDEST SWAP11 POP POP PUSH1 0x20 PUSH2 0xA89 DUP14 DUP3 DUP15 ADD PUSH2 0xA24 JUMP JUMPDEST SWAP10 POP POP PUSH1 0x40 PUSH2 0xA9A DUP14 DUP3 DUP15 ADD PUSH2 0xA38 JUMP JUMPDEST SWAP9 POP POP PUSH1 0x60 PUSH2 0xAAB DUP14 DUP3 DUP15 ADD PUSH2 0xA38 JUMP JUMPDEST SWAP8 POP POP PUSH1 0x80 PUSH2 0xABC DUP14 DUP3 DUP15 ADD PUSH2 0xA38 JUMP JUMPDEST SWAP7 POP POP PUSH1 0xA0 PUSH2 0xACD DUP14 DUP3 DUP15 ADD PUSH2 0xA38 JUMP JUMPDEST SWAP6 POP POP PUSH1 0xC0 PUSH2 0xADE DUP14 DUP3 DUP15 ADD PUSH2 0xA38 JUMP JUMPDEST SWAP5 POP POP PUSH1 0xE0 PUSH2 0xAEF DUP14 DUP3 DUP15 ADD PUSH2 0xA38 JUMP JUMPDEST SWAP4 POP POP PUSH2 0x100 PUSH2 0xB01 DUP14 DUP3 DUP15 ADD PUSH2 0xA38 JUMP JUMPDEST SWAP3 POP POP PUSH2 0x120 PUSH2 0xB13 DUP14 DUP3 DUP15 ADD PUSH2 0xA38 JUMP JUMPDEST SWAP2 POP POP SWAP3 SWAP6 SWAP9 SWAP12 SWAP2 SWAP5 SWAP8 SWAP11 POP SWAP3 SWAP6 SWAP9 POP JUMP JUMPDEST PUSH32 0x4E487B7100000000000000000000000000000000000000000000000000000000 PUSH0 MSTORE PUSH1 0x22 PUSH1 0x4 MSTORE PUSH1 0x24 PUSH0 REVERT JUMPDEST PUSH0 PUSH1 0x2 DUP3 DIV SWAP1 POP PUSH1 0x1 DUP3 AND DUP1 PUSH2 0xB69 JUMPI PUSH1 0x7F DUP3 AND SWAP2 POP JUMPDEST PUSH1 0x20 DUP3 LT DUP2 SUB PUSH2 0xB7C JUMPI PUSH2 0xB7B PUSH2 0xB25 JUMP JUMPDEST JUMPDEST POP SWAP2 SWAP1 POP JUMP JUMPDEST PUSH0 PUSH2 0xB8C DUP3 PUSH2 0x5A2 JUMP JUMPDEST SWAP2 POP PUSH2 0xB97 DUP4 PUSH2 0x5A2 JUMP JUMPDEST SWAP3 POP DUP3 DUP3 SUB SWAP1 POP DUP2 DUP2 GT ISZERO PUSH2 0xBAF JUMPI PUSH2 0xBAE PUSH2 0x95A JUMP JUMPDEST JUMPDEST SWAP3 SWAP2 POP POP JUMP JUMPDEST PUSH0 PUSH2 0xBBF DUP3 PUSH2 0x5A2 JUMP JUMPDEST SWAP2 POP PUSH32 0xFFFFFFFFFFFFFFFFFFFFFFFFFFFFFFFFFFFFFFFFFFFFFFFFFFFFFFFFFFFFFFFF DUP3 SUB PUSH2 0xBF1 JUMPI PUSH2 0xBF0 PUSH2 0x95A JUMP JUMPDEST JUMPDEST PUSH1 0x1 DUP3 ADD SWAP1 POP SWAP2 SWAP1 POP JUMP JUMPDEST PUSH0 PUSH1 0x60 DUP3 ADD SWAP1 POP PUSH2 0xC0F PUSH0 DUP4 ADD DUP7 PUSH2 0x6C8 JUMP JUMPDEST DUP2 DUP2 SUB PUSH1 0x20 DUP4 ADD MSTORE PUSH2 0xC21 DUP2 DUP6 PUSH2 0x690 JUMP JUMPDEST SWAP1 POP PUSH2 0xC30 PUSH1 0x40 DUP4 ADD DUP5 PUSH2 0x6C8 JUMP JUMPDEST SWAP5 SWAP4 POP POP POP POP JUMP JUMPDEST PUSH0 DUP2 SWAP1 POP SWAP3 SWAP2 POP POP JUMP JUMPDEST PUSH0 PUSH2 0xC4C DUP3 PUSH2 0x63E JUMP JUMPDEST PUSH2 0xC56 DUP2 DUP6 PUSH2 0xC38 JUMP JUMPDEST SWAP4 POP PUSH2 0xC66 DUP2 DUP6 PUSH1 0x20 DUP7 ADD PUSH2 0x658 JUMP JUMPDEST DUP1 DUP5 ADD SWAP2 POP POP SWAP3 SWAP2 POP POP JUMP JUMPDEST PUSH0 PUSH2 0xC7D DUP3 DUP5 PUSH2 0xC42 JUMP JUMPDEST SWAP2 POP DUP2 SWAP1 POP SWAP3 SWAP2 POP POP JUMP INVALID LOG2 PUSH5 0x6970667358 0x22 SLT KECCAK256 DUP1 AND 0xCE 0xD8 POP CALLDATALOAD 0xDC 0xC6 RETURNDATACOPY 0xD 0xB2 0xB1 KECCAK256 0xA8 0xBA 0xFB 0xDA SWAP3 GAS 0x1F RETURN 0xFC 0xB9 0xDD DUP9 PUSH28 0x3897EE1F5A2264736F6C634300081800330000000000000000000000 "
				},
				"gasEstimates": {
					"creation": {
						"codeDepositCost": "652400",
						"executionCost": "infinite",
						"totalCost": "infinite"
					},
					"external": {
						"createRandomZombie(string)": "infinite",
						"feedAndMultiply(uint256,uint256)": "infinite",
						"feedOnKitty(uint256,uint256)": "infinite",
						"zombieToOwner(uint256)": "2871",
						"zombies(uint256)": "infinite"
					}
				},
				"methodIdentifiers": {
					"createRandomZombie(string)": "7bff0a01",
					"feedAndMultiply(uint256,uint256)": "0dedffb8",
					"feedOnKitty(uint256,uint256)": "17a7f4cc",
					"zombieToOwner(uint256)": "528b7b8f",
					"zombies(uint256)": "2052465e"
				}
			},
			"storageLayout": {
				"storage": [
					{
						"astId": 12,
						"contract": "TestKnowledge/ZombieFeeding.sol:ZombieFeeding",
						"label": "dnaDigits",
						"offset": 0,
						"slot": "0",
						"type": "t_uint256"
					},
					{
						"astId": 17,
						"contract": "TestKnowledge/ZombieFeeding.sol:ZombieFeeding",
						"label": "dnaModulus",
						"offset": 0,
						"slot": "1",
						"type": "t_uint256"
					},
					{
						"astId": 26,
						"contract": "TestKnowledge/ZombieFeeding.sol:ZombieFeeding",
						"label": "zombies",
						"offset": 0,
						"slot": "2",
						"type": "t_array(t_struct(Zombie)22_storage)dyn_storage"
					},
					{
						"astId": 30,
						"contract": "TestKnowledge/ZombieFeeding.sol:ZombieFeeding",
						"label": "zombieToOwner",
						"offset": 0,
						"slot": "3",
						"type": "t_mapping(t_uint256,t_address)"
					},
					{
						"astId": 34,
						"contract": "TestKnowledge/ZombieFeeding.sol:ZombieFeeding",
						"label": "ownerZombieCount",
						"offset": 0,
						"slot": "4",
						"type": "t_mapping(t_address,t_uint256)"
					},
					{
						"astId": 165,
						"contract": "TestKnowledge/ZombieFeeding.sol:ZombieFeeding",
						"label": "ckAddress",
						"offset": 0,
						"slot": "5",
						"type": "t_address"
					},
					{
						"astId": 171,
						"contract": "TestKnowledge/ZombieFeeding.sol:ZombieFeeding",
						"label": "kittyContract",
						"offset": 0,
						"slot": "6",
						"type": "t_contract(KittyInterface)160"
					}
				],
				"types": {
					"t_address": {
						"encoding": "inplace",
						"label": "address",
						"numberOfBytes": "20"
					},
					"t_array(t_struct(Zombie)22_storage)dyn_storage": {
						"base": "t_struct(Zombie)22_storage",
						"encoding": "dynamic_array",
						"label": "struct ZombieFactory.Zombie[]",
						"numberOfBytes": "32"
					},
					"t_contract(KittyInterface)160": {
						"encoding": "inplace",
						"label": "contract KittyInterface",
						"numberOfBytes": "20"
					},
					"t_mapping(t_address,t_uint256)": {
						"encoding": "mapping",
						"key": "t_address",
						"label": "mapping(address => uint256)",
						"numberOfBytes": "32",
						"value": "t_uint256"
					},
					"t_mapping(t_uint256,t_address)": {
						"encoding": "mapping",
						"key": "t_uint256",
						"label": "mapping(uint256 => address)",
						"numberOfBytes": "32",
						"value": "t_address"
					},
					"t_string_storage": {
						"encoding": "bytes",
						"label": "string",
						"numberOfBytes": "32"
					},
					"t_struct(Zombie)22_storage": {
						"encoding": "inplace",
						"label": "struct ZombieFactory.Zombie",
						"members": [
							{
								"astId": 19,
								"contract": "TestKnowledge/ZombieFeeding.sol:ZombieFeeding",
								"label": "name",
								"offset": 0,
								"slot": "0",
								"type": "t_string_storage"
							},
							{
								"astId": 21,
								"contract": "TestKnowledge/ZombieFeeding.sol:ZombieFeeding",
								"label": "dna",
								"offset": 0,
								"slot": "1",
								"type": "t_uint256"
							}
						],
						"numberOfBytes": "64"
					},
					"t_uint256": {
						"encoding": "inplace",
						"label": "uint256",
						"numberOfBytes": "32"
					}
				}
			},
			"userdoc": {
				"kind": "user",
				"methods": {},
				"version": 1
			}
		}
	}
}