{
	"TestKnowledge/RedoZombieFactory.sol": {
		"RedoZombieFactory": {
			"abi": [
				{
					"anonymous": false,
					"inputs": [
						{
							"indexed": false,
							"internalType": "uint256",
							"name": "zombieId",
							"type": "uint256"
						},
						{
							"indexed": false,
							"internalType": "string",
							"name": "name",
							"type": "string"
						},
						{
							"indexed": false,
							"internalType": "uint256",
							"name": "dna",
							"type": "uint256"
						}
					],
					"name": "NewZombie",
					"type": "event"
				},
				{
					"inputs": [
						{
							"internalType": "string",
							"name": "_name",
							"type": "string"
						}
					],
					"name": "createRandomZombie",
					"outputs": [],
					"stateMutability": "nonpayable",
					"type": "function"
				},
				{
					"inputs": [
						{
							"internalType": "uint256",
							"name": "",
							"type": "uint256"
						}
					],
					"name": "zombies",
					"outputs": [
						{
							"internalType": "string",
							"name": "name",
							"type": "string"
						},
						{
							"internalType": "uint256",
							"name": "dna",
							"type": "uint256"
						}
					],
					"stateMutability": "view",
					"type": "function"
				}
			],
			"devdoc": {
				"kind": "dev",
				"methods": {},
				"version": 1
			},
			"evm": {
				"assembly": "    /* \"TestKnowledge/RedoZombieFactory.sol\":62:895  contract RedoZombieFactory {... */\n  mstore(0x40, 0x80)\n    /* \"TestKnowledge/RedoZombieFactory.sol\":177:179  16 */\n  0x10\n    /* \"TestKnowledge/RedoZombieFactory.sol\":160:179  uint dnaDigits = 16 */\n  0x00\n  sstore\n    /* \"TestKnowledge/RedoZombieFactory.sol\":210:219  dnaDigits */\n  sload(0x00)\n    /* \"TestKnowledge/RedoZombieFactory.sol\":204:206  10 */\n  0x0a\n    /* \"TestKnowledge/RedoZombieFactory.sol\":204:219  10 ** dnaDigits */\n  tag_1\n  swap2\n  swap1\n  tag_2\n  jump\t// in\ntag_1:\n    /* \"TestKnowledge/RedoZombieFactory.sol\":186:219  uint dnaModulus = 10 ** dnaDigits */\n  0x01\n  sstore\n    /* \"TestKnowledge/RedoZombieFactory.sol\":62:895  contract RedoZombieFactory {... */\n  callvalue\n  dup1\n  iszero\n  tag_3\n  jumpi\n  0x00\n  dup1\n  revert\ntag_3:\n  pop\n  jump(tag_4)\n    /* \"#utility.yul\":7:187   */\ntag_5:\n    /* \"#utility.yul\":55:132   */\n  0x4e487b7100000000000000000000000000000000000000000000000000000000\n    /* \"#utility.yul\":52:53   */\n  0x00\n    /* \"#utility.yul\":45:133   */\n  mstore\n    /* \"#utility.yul\":152:156   */\n  0x11\n    /* \"#utility.yul\":149:150   */\n  0x04\n    /* \"#utility.yul\":142:157   */\n  mstore\n    /* \"#utility.yul\":176:180   */\n  0x24\n    /* \"#utility.yul\":173:174   */\n  0x00\n    /* \"#utility.yul\":166:181   */\n  revert\n    /* \"#utility.yul\":193:295   */\ntag_6:\n    /* \"#utility.yul\":235:243   */\n  0x00\n    /* \"#utility.yul\":282:287   */\n  dup2\n    /* \"#utility.yul\":279:280   */\n  0x01\n    /* \"#utility.yul\":275:288   */\n  shr\n    /* \"#utility.yul\":254:288   */\n  swap1\n  pop\n    /* \"#utility.yul\":193:295   */\n  swap2\n  swap1\n  pop\n  jump\t// out\n    /* \"#utility.yul\":301:1149   */\ntag_7:\n    /* \"#utility.yul\":362:367   */\n  0x00\n    /* \"#utility.yul\":369:373   */\n  dup1\n    /* \"#utility.yul\":393:399   */\n  dup3\n    /* \"#utility.yul\":384:399   */\n  swap2\n  pop\n    /* \"#utility.yul\":417:422   */\n  dup4\n    /* \"#utility.yul\":408:422   */\n  swap1\n  pop\n    /* \"#utility.yul\":431:1143   */\ntag_14:\n    /* \"#utility.yul\":452:453   */\n  0x01\n    /* \"#utility.yul\":442:450   */\n  dup6\n    /* \"#utility.yul\":439:454   */\n  gt\n    /* \"#utility.yul\":431:1143   */\n  iszero\n  tag_16\n  jumpi\n    /* \"#utility.yul\":547:551   */\n  dup1\n    /* \"#utility.yul\":542:545   */\n  dup7\n    /* \"#utility.yul\":538:552   */\n  div\n    /* \"#utility.yul\":532:536   */\n  dup2\n    /* \"#utility.yul\":529:553   */\n  gt\n    /* \"#utility.yul\":526:576   */\n  iszero\n  tag_17\n  jumpi\n    /* \"#utility.yul\":556:574   */\n  tag_18\n  tag_5\n  jump\t// in\ntag_18:\n    /* \"#utility.yul\":526:576   */\ntag_17:\n    /* \"#utility.yul\":606:607   */\n  0x01\n    /* \"#utility.yul\":596:604   */\n  dup6\n    /* \"#utility.yul\":592:608   */\n  and\n    /* \"#utility.yul\":589:1040   */\n  iszero\n  tag_19\n  jumpi\n    /* \"#utility.yul\":1021:1025   */\n  dup1\n    /* \"#utility.yul\":1014:1019   */\n  dup3\n    /* \"#utility.yul\":1010:1026   */\n  mul\n    /* \"#utility.yul\":1001:1026   */\n  swap2\n  pop\n    /* \"#utility.yul\":589:1040   */\ntag_19:\n    /* \"#utility.yul\":1071:1075   */\n  dup1\n    /* \"#utility.yul\":1065:1069   */\n  dup2\n    /* \"#utility.yul\":1061:1076   */\n  mul\n    /* \"#utility.yul\":1053:1076   */\n  swap1\n  pop\n    /* \"#utility.yul\":1101:1133   */\n  tag_20\n    /* \"#utility.yul\":1124:1132   */\n  dup6\n    /* \"#utility.yul\":1101:1133   */\n  tag_6\n  jump\t// in\ntag_20:\n    /* \"#utility.yul\":1089:1133   */\n  swap5\n  pop\n    /* \"#utility.yul\":431:1143   */\n  jump(tag_14)\ntag_16:\n    /* \"#utility.yul\":301:1149   */\n  swap5\n  pop\n  swap5\n  swap3\n  pop\n  pop\n  pop\n  jump\t// out\n    /* \"#utility.yul\":1155:2228   */\ntag_8:\n    /* \"#utility.yul\":1209:1214   */\n  0x00\n    /* \"#utility.yul\":1400:1408   */\n  dup3\n    /* \"#utility.yul\":1390:1430   */\n  tag_22\n  jumpi\n    /* \"#utility.yul\":1421:1422   */\n  0x01\n    /* \"#utility.yul\":1412:1422   */\n  swap1\n  pop\n    /* \"#utility.yul\":1423:1428   */\n  jump(tag_21)\n    /* \"#utility.yul\":1390:1430   */\ntag_22:\n    /* \"#utility.yul\":1449:1453   */\n  dup2\n    /* \"#utility.yul\":1439:1475   */\n  tag_23\n  jumpi\n    /* \"#utility.yul\":1466:1467   */\n  0x00\n    /* \"#utility.yul\":1457:1467   */\n  swap1\n  pop\n    /* \"#utility.yul\":1468:1473   */\n  jump(tag_21)\n    /* \"#utility.yul\":1439:1475   */\ntag_23:\n    /* \"#utility.yul\":1535:1539   */\n  dup2\n    /* \"#utility.yul\":1583:1584   */\n  0x01\n    /* \"#utility.yul\":1578:1605   */\n  dup2\n  eq\n  tag_25\n  jumpi\n    /* \"#utility.yul\":1619:1620   */\n  0x02\n    /* \"#utility.yul\":1614:1805   */\n  dup2\n  eq\n  tag_26\n  jumpi\n    /* \"#utility.yul\":1528:1805   */\n  jump(tag_24)\n    /* \"#utility.yul\":1578:1605   */\ntag_25:\n    /* \"#utility.yul\":1596:1597   */\n  0x01\n    /* \"#utility.yul\":1587:1597   */\n  swap2\n  pop\n    /* \"#utility.yul\":1598:1603   */\n  pop\n  jump(tag_21)\n    /* \"#utility.yul\":1614:1805   */\ntag_26:\n    /* \"#utility.yul\":1659:1662   */\n  0xff\n    /* \"#utility.yul\":1649:1657   */\n  dup5\n    /* \"#utility.yul\":1646:1663   */\n  gt\n    /* \"#utility.yul\":1643:1686   */\n  iszero\n  tag_27\n  jumpi\n    /* \"#utility.yul\":1666:1684   */\n  tag_28\n  tag_5\n  jump\t// in\ntag_28:\n    /* \"#utility.yul\":1643:1686   */\ntag_27:\n    /* \"#utility.yul\":1715:1723   */\n  dup4\n    /* \"#utility.yul\":1712:1713   */\n  0x02\n    /* \"#utility.yul\":1708:1724   */\n  exp\n    /* \"#utility.yul\":1699:1724   */\n  swap2\n  pop\n    /* \"#utility.yul\":1750:1753   */\n  dup5\n    /* \"#utility.yul\":1743:1748   */\n  dup3\n    /* \"#utility.yul\":1740:1754   */\n  gt\n    /* \"#utility.yul\":1737:1777   */\n  iszero\n  tag_29\n  jumpi\n    /* \"#utility.yul\":1757:1775   */\n  tag_30\n  tag_5\n  jump\t// in\ntag_30:\n    /* \"#utility.yul\":1737:1777   */\ntag_29:\n    /* \"#utility.yul\":1790:1795   */\n  pop\n  jump(tag_21)\n    /* \"#utility.yul\":1528:1805   */\ntag_24:\n  pop\n    /* \"#utility.yul\":1914:1916   */\n  0x20\n    /* \"#utility.yul\":1904:1912   */\n  dup4\n    /* \"#utility.yul\":1901:1917   */\n  lt\n    /* \"#utility.yul\":1895:1898   */\n  0x0133\n    /* \"#utility.yul\":1889:1893   */\n  dup4\n    /* \"#utility.yul\":1886:1899   */\n  lt\n    /* \"#utility.yul\":1882:1918   */\n  and\n    /* \"#utility.yul\":1864:1866   */\n  0x4e\n    /* \"#utility.yul\":1854:1862   */\n  dup5\n    /* \"#utility.yul\":1851:1867   */\n  lt\n    /* \"#utility.yul\":1846:1848   */\n  0x0b\n    /* \"#utility.yul\":1840:1844   */\n  dup5\n    /* \"#utility.yul\":1837:1849   */\n  lt\n    /* \"#utility.yul\":1833:1868   */\n  and\n    /* \"#utility.yul\":1817:1928   */\n  or\n    /* \"#utility.yul\":1814:2060   */\n  iszero\n  tag_31\n  jumpi\n    /* \"#utility.yul\":1970:1978   */\n  dup3\n    /* \"#utility.yul\":1964:1968   */\n  dup3\n    /* \"#utility.yul\":1960:1979   */\n  exp\n    /* \"#utility.yul\":1951:1979   */\n  swap1\n  pop\n    /* \"#utility.yul\":2005:2008   */\n  dup4\n    /* \"#utility.yul\":1998:2003   */\n  dup2\n    /* \"#utility.yul\":1995:2009   */\n  gt\n    /* \"#utility.yul\":1992:2032   */\n  iszero\n  tag_32\n  jumpi\n    /* \"#utility.yul\":2012:2030   */\n  tag_33\n  tag_5\n  jump\t// in\ntag_33:\n    /* \"#utility.yul\":1992:2032   */\ntag_32:\n    /* \"#utility.yul\":2045:2050   */\n  jump(tag_21)\n    /* \"#utility.yul\":1814:2060   */\ntag_31:\n    /* \"#utility.yul\":2085:2127   */\n  tag_34\n    /* \"#utility.yul\":2123:2126   */\n  dup5\n    /* \"#utility.yul\":2113:2121   */\n  dup5\n    /* \"#utility.yul\":2107:2111   */\n  dup5\n    /* \"#utility.yul\":2104:2105   */\n  0x01\n    /* \"#utility.yul\":2085:2127   */\n  tag_7\n  jump\t// in\ntag_34:\n    /* \"#utility.yul\":2070:2127   */\n  swap3\n  pop\n  swap1\n  pop\n    /* \"#utility.yul\":2159:2163   */\n  dup2\n    /* \"#utility.yul\":2154:2157   */\n  dup5\n    /* \"#utility.yul\":2150:2164   */\n  div\n    /* \"#utility.yul\":2143:2148   */\n  dup2\n    /* \"#utility.yul\":2140:2165   */\n  gt\n    /* \"#utility.yul\":2137:2188   */\n  iszero\n  tag_35\n  jumpi\n    /* \"#utility.yul\":2168:2186   */\n  tag_36\n  tag_5\n  jump\t// in\ntag_36:\n    /* \"#utility.yul\":2137:2188   */\ntag_35:\n    /* \"#utility.yul\":2217:2221   */\n  dup2\n    /* \"#utility.yul\":2210:2215   */\n  dup2\n    /* \"#utility.yul\":2206:2222   */\n  mul\n    /* \"#utility.yul\":2197:2222   */\n  swap1\n  pop\n    /* \"#utility.yul\":1155:2228   */\ntag_21:\n  swap4\n  swap3\n  pop\n  pop\n  pop\n  jump\t// out\n    /* \"#utility.yul\":2234:2311   */\ntag_9:\n    /* \"#utility.yul\":2271:2278   */\n  0x00\n    /* \"#utility.yul\":2300:2305   */\n  dup2\n    /* \"#utility.yul\":2289:2305   */\n  swap1\n  pop\n    /* \"#utility.yul\":2234:2311   */\n  swap2\n  swap1\n  pop\n  jump\t// out\n    /* \"#utility.yul\":2317:2602   */\ntag_2:\n    /* \"#utility.yul\":2377:2382   */\n  0x00\n    /* \"#utility.yul\":2401:2424   */\n  tag_39\n    /* \"#utility.yul\":2419:2423   */\n  dup3\n    /* \"#utility.yul\":2401:2424   */\n  tag_9\n  jump\t// in\ntag_39:\n    /* \"#utility.yul\":2393:2424   */\n  swap2\n  pop\n    /* \"#utility.yul\":2445:2472   */\n  tag_40\n    /* \"#utility.yul\":2463:2471   */\n  dup4\n    /* \"#utility.yul\":2445:2472   */\n  tag_9\n  jump\t// in\ntag_40:\n    /* \"#utility.yul\":2433:2472   */\n  swap3\n  pop\n    /* \"#utility.yul\":2491:2595   */\n  tag_41\n    /* \"#utility.yul\":2528:2594   */\n  0xffffffffffffffffffffffffffffffffffffffffffffffffffffffffffffffff\n    /* \"#utility.yul\":2518:2526   */\n  dup5\n    /* \"#utility.yul\":2512:2516   */\n  dup5\n    /* \"#utility.yul\":2491:2595   */\n  tag_8\n  jump\t// in\ntag_41:\n    /* \"#utility.yul\":2482:2595   */\n  swap1\n  pop\n    /* \"#utility.yul\":2317:2602   */\n  swap3\n  swap2\n  pop\n  pop\n  jump\t// out\n    /* \"TestKnowledge/RedoZombieFactory.sol\":62:895  contract RedoZombieFactory {... */\ntag_4:\n  dataSize(sub_0)\n  dup1\n  dataOffset(sub_0)\n  0x00\n  codecopy\n  0x00\n  return\nstop\n\nsub_0: assembly {\n        /* \"TestKnowledge/RedoZombieFactory.sol\":62:895  contract RedoZombieFactory {... */\n      mstore(0x40, 0x80)\n      callvalue\n      dup1\n      iszero\n      tag_1\n      jumpi\n      0x00\n      dup1\n      revert\n    tag_1:\n      pop\n      jumpi(tag_2, lt(calldatasize, 0x04))\n      shr(0xe0, calldataload(0x00))\n      dup1\n      0x2052465e\n      eq\n      tag_3\n      jumpi\n      dup1\n      0x7bff0a01\n      eq\n      tag_4\n      jumpi\n    tag_2:\n      0x00\n      dup1\n      revert\n        /* \"TestKnowledge/RedoZombieFactory.sol\":228:251  Zombie[] public zombies */\n    tag_3:\n      tag_5\n      0x04\n      dup1\n      calldatasize\n      sub\n      dup2\n      add\n      swap1\n      tag_6\n      swap2\n      swap1\n      tag_7\n      jump\t// in\n    tag_6:\n      tag_8\n      jump\t// in\n    tag_5:\n      mload(0x40)\n      tag_9\n      swap3\n      swap2\n      swap1\n      tag_10\n      jump\t// in\n    tag_9:\n      mload(0x40)\n      dup1\n      swap2\n      sub\n      swap1\n      return\n        /* \"TestKnowledge/RedoZombieFactory.sol\":731:892  function createRandomZombie(string memory _name) public {... */\n    tag_4:\n      tag_11\n      0x04\n      dup1\n      calldatasize\n      sub\n      dup2\n      add\n      swap1\n      tag_12\n      swap2\n      swap1\n      tag_13\n      jump\t// in\n    tag_12:\n      tag_14\n      jump\t// in\n    tag_11:\n      stop\n        /* \"TestKnowledge/RedoZombieFactory.sol\":228:251  Zombie[] public zombies */\n    tag_8:\n      0x02\n      dup2\n      dup2\n      sload\n      dup2\n      lt\n      tag_15\n      jumpi\n      0x00\n      dup1\n      revert\n    tag_15:\n      swap1\n      0x00\n      mstore\n      keccak256(0x00, 0x20)\n      swap1\n      0x02\n      mul\n      add\n      0x00\n      swap2\n      pop\n      swap1\n      pop\n      dup1\n      0x00\n      add\n      dup1\n      sload\n      tag_17\n      swap1\n      tag_18\n      jump\t// in\n    tag_17:\n      dup1\n      0x1f\n      add\n      0x20\n      dup1\n      swap2\n      div\n      mul\n      0x20\n      add\n      mload(0x40)\n      swap1\n      dup2\n      add\n      0x40\n      mstore\n      dup1\n      swap3\n      swap2\n      swap1\n      dup2\n      dup2\n      mstore\n      0x20\n      add\n      dup3\n      dup1\n      sload\n      tag_19\n      swap1\n      tag_18\n      jump\t// in\n    tag_19:\n      dup1\n      iszero\n      tag_20\n      jumpi\n      dup1\n      0x1f\n      lt\n      tag_21\n      jumpi\n      0x0100\n      dup1\n      dup4\n      sload\n      div\n      mul\n      dup4\n      mstore\n      swap2\n      0x20\n      add\n      swap2\n      jump(tag_20)\n    tag_21:\n      dup3\n      add\n      swap2\n      swap1\n      0x00\n      mstore\n      keccak256(0x00, 0x20)\n      swap1\n    tag_22:\n      dup2\n      sload\n      dup2\n      mstore\n      swap1\n      0x01\n      add\n      swap1\n      0x20\n      add\n      dup1\n      dup4\n      gt\n      tag_22\n      jumpi\n      dup3\n      swap1\n      sub\n      0x1f\n      and\n      dup3\n      add\n      swap2\n    tag_20:\n      pop\n      pop\n      pop\n      pop\n      pop\n      swap1\n      dup1\n      0x01\n      add\n      sload\n      swap1\n      pop\n      dup3\n      jump\t// out\n        /* \"TestKnowledge/RedoZombieFactory.sol\":731:892  function createRandomZombie(string memory _name) public {... */\n    tag_14:\n        /* \"TestKnowledge/RedoZombieFactory.sol\":798:810  uint randDna */\n      0x00\n        /* \"TestKnowledge/RedoZombieFactory.sol\":818:843  _generateRandomDna(_name) */\n      tag_24\n        /* \"TestKnowledge/RedoZombieFactory.sol\":837:842  _name */\n      dup3\n        /* \"TestKnowledge/RedoZombieFactory.sol\":818:836  _generateRandomDna */\n      tag_25\n        /* \"TestKnowledge/RedoZombieFactory.sol\":818:843  _generateRandomDna(_name) */\n      jump\t// in\n    tag_24:\n        /* \"TestKnowledge/RedoZombieFactory.sol\":798:844  uint randDna = uint(_generateRandomDna(_name)) */\n      swap1\n      pop\n        /* \"TestKnowledge/RedoZombieFactory.sol\":855:884  _createZombie(_name, randDna) */\n      tag_26\n        /* \"TestKnowledge/RedoZombieFactory.sol\":869:874  _name */\n      dup3\n        /* \"TestKnowledge/RedoZombieFactory.sol\":876:883  randDna */\n      dup3\n        /* \"TestKnowledge/RedoZombieFactory.sol\":855:868  _createZombie */\n      tag_27\n        /* \"TestKnowledge/RedoZombieFactory.sol\":855:884  _createZombie(_name, randDna) */\n      jump\t// in\n    tag_26:\n        /* \"TestKnowledge/RedoZombieFactory.sol\":787:892  {... */\n      pop\n        /* \"TestKnowledge/RedoZombieFactory.sol\":731:892  function createRandomZombie(string memory _name) public {... */\n      pop\n      jump\t// out\n        /* \"TestKnowledge/RedoZombieFactory.sol\":536:723  function _generateRandomDna(string memory _str) private view returns(uint) {... */\n    tag_25:\n        /* \"TestKnowledge/RedoZombieFactory.sol\":605:609  uint */\n      0x00\n        /* \"TestKnowledge/RedoZombieFactory.sol\":622:631  uint rand */\n      dup1\n        /* \"TestKnowledge/RedoZombieFactory.sol\":666:670  _str */\n      dup3\n        /* \"TestKnowledge/RedoZombieFactory.sol\":649:671  abi.encodePacked(_str) */\n      add(0x20, mload(0x40))\n      tag_29\n      swap2\n      swap1\n      tag_30\n      jump\t// in\n    tag_29:\n      mload(0x40)\n      0x20\n      dup2\n      dup4\n      sub\n      sub\n      dup2\n      mstore\n      swap1\n      0x40\n      mstore\n        /* \"TestKnowledge/RedoZombieFactory.sol\":639:672  keccak256(abi.encodePacked(_str)) */\n      dup1\n      mload\n      swap1\n      0x20\n      add\n      keccak256\n        /* \"TestKnowledge/RedoZombieFactory.sol\":634:673  uint(keccak256(abi.encodePacked(_str))) */\n      0x00\n      shr\n        /* \"TestKnowledge/RedoZombieFactory.sol\":622:673  uint rand = uint(keccak256(abi.encodePacked(_str))) */\n      swap1\n      pop\n        /* \"TestKnowledge/RedoZombieFactory.sol\":705:715  dnaModulus */\n      sload(0x01)\n        /* \"TestKnowledge/RedoZombieFactory.sol\":698:702  rand */\n      dup2\n        /* \"TestKnowledge/RedoZombieFactory.sol\":698:715  rand % dnaModulus */\n      tag_31\n      swap2\n      swap1\n      tag_32\n      jump\t// in\n    tag_31:\n        /* \"TestKnowledge/RedoZombieFactory.sol\":691:715  rand = rand % dnaModulus */\n      swap1\n      pop\n      dup1\n        /* \"TestKnowledge/RedoZombieFactory.sol\":684:715  return rand = rand % dnaModulus */\n      swap2\n      pop\n      pop\n        /* \"TestKnowledge/RedoZombieFactory.sol\":536:723  function _generateRandomDna(string memory _str) private view returns(uint) {... */\n      swap2\n      swap1\n      pop\n      jump\t// out\n        /* \"TestKnowledge/RedoZombieFactory.sol\":332:528  function _createZombie(string memory _name, uint _dna) private {... */\n    tag_27:\n        /* \"TestKnowledge/RedoZombieFactory.sol\":406:413  zombies */\n      0x02\n        /* \"TestKnowledge/RedoZombieFactory.sol\":419:438  Zombie(_name, _dna) */\n      mload(0x40)\n      dup1\n      0x40\n      add\n      0x40\n      mstore\n      dup1\n        /* \"TestKnowledge/RedoZombieFactory.sol\":426:431  _name */\n      dup5\n        /* \"TestKnowledge/RedoZombieFactory.sol\":419:438  Zombie(_name, _dna) */\n      dup2\n      mstore\n      0x20\n      add\n        /* \"TestKnowledge/RedoZombieFactory.sol\":433:437  _dna */\n      dup4\n        /* \"TestKnowledge/RedoZombieFactory.sol\":419:438  Zombie(_name, _dna) */\n      dup2\n      mstore\n      pop\n        /* \"TestKnowledge/RedoZombieFactory.sol\":406:439  zombies.push(Zombie(_name, _dna)) */\n      swap1\n      dup1\n      0x01\n      dup2\n      sload\n      add\n      dup1\n      dup3\n      sstore\n      dup1\n      swap2\n      pop\n      pop\n      0x01\n      swap1\n      sub\n      swap1\n      0x00\n      mstore\n      keccak256(0x00, 0x20)\n      swap1\n      0x02\n      mul\n      add\n      0x00\n      swap1\n      swap2\n      swap1\n      swap2\n      swap1\n      swap2\n      pop\n      0x00\n      dup3\n      add\n      mload\n      dup2\n      0x00\n      add\n      swap1\n      dup2\n      tag_35\n      swap2\n      swap1\n      tag_36\n      jump\t// in\n    tag_35:\n      pop\n      0x20\n      dup3\n      add\n      mload\n      dup2\n      0x01\n      add\n      sstore\n      pop\n      pop\n        /* \"TestKnowledge/RedoZombieFactory.sol\":450:457  uint id */\n      0x00\n        /* \"TestKnowledge/RedoZombieFactory.sol\":477:478  1 */\n      0x01\n        /* \"TestKnowledge/RedoZombieFactory.sol\":460:467  zombies */\n      0x02\n        /* \"TestKnowledge/RedoZombieFactory.sol\":460:474  zombies.length */\n      dup1\n      sload\n      swap1\n      pop\n        /* \"TestKnowledge/RedoZombieFactory.sol\":460:478  zombies.length - 1 */\n      tag_37\n      swap2\n      swap1\n      tag_38\n      jump\t// in\n    tag_37:\n        /* \"TestKnowledge/RedoZombieFactory.sol\":450:478  uint id = zombies.length - 1 */\n      swap1\n      pop\n        /* \"TestKnowledge/RedoZombieFactory.sol\":494:520  NewZombie(id, _name, _dna) */\n      0x88f026aacbbecc90c18411df4b1185fd8d9be2470f1962f192bf84a27d0704b7\n        /* \"TestKnowledge/RedoZombieFactory.sol\":504:506  id */\n      dup2\n        /* \"TestKnowledge/RedoZombieFactory.sol\":508:513  _name */\n      dup5\n        /* \"TestKnowledge/RedoZombieFactory.sol\":515:519  _dna */\n      dup5\n        /* \"TestKnowledge/RedoZombieFactory.sol\":494:520  NewZombie(id, _name, _dna) */\n      mload(0x40)\n      tag_39\n      swap4\n      swap3\n      swap2\n      swap1\n      tag_40\n      jump\t// in\n    tag_39:\n      mload(0x40)\n      dup1\n      swap2\n      sub\n      swap1\n      log1\n        /* \"TestKnowledge/RedoZombieFactory.sol\":395:528  {... */\n      pop\n        /* \"TestKnowledge/RedoZombieFactory.sol\":332:528  function _createZombie(string memory _name, uint _dna) private {... */\n      pop\n      pop\n      jump\t// out\n        /* \"#utility.yul\":7:82   */\n    tag_41:\n        /* \"#utility.yul\":40:46   */\n      0x00\n        /* \"#utility.yul\":73:75   */\n      0x40\n        /* \"#utility.yul\":67:76   */\n      mload\n        /* \"#utility.yul\":57:76   */\n      swap1\n      pop\n        /* \"#utility.yul\":7:82   */\n      swap1\n      jump\t// out\n        /* \"#utility.yul\":88:205   */\n    tag_42:\n        /* \"#utility.yul\":197:198   */\n      0x00\n        /* \"#utility.yul\":194:195   */\n      dup1\n        /* \"#utility.yul\":187:199   */\n      revert\n        /* \"#utility.yul\":211:328   */\n    tag_43:\n        /* \"#utility.yul\":320:321   */\n      0x00\n        /* \"#utility.yul\":317:318   */\n      dup1\n        /* \"#utility.yul\":310:322   */\n      revert\n        /* \"#utility.yul\":334:411   */\n    tag_44:\n        /* \"#utility.yul\":371:378   */\n      0x00\n        /* \"#utility.yul\":400:405   */\n      dup2\n        /* \"#utility.yul\":389:405   */\n      swap1\n      pop\n        /* \"#utility.yul\":334:411   */\n      swap2\n      swap1\n      pop\n      jump\t// out\n        /* \"#utility.yul\":417:539   */\n    tag_45:\n        /* \"#utility.yul\":490:514   */\n      tag_88\n        /* \"#utility.yul\":508:513   */\n      dup2\n        /* \"#utility.yul\":490:514   */\n      tag_44\n      jump\t// in\n    tag_88:\n        /* \"#utility.yul\":483:488   */\n      dup2\n        /* \"#utility.yul\":480:515   */\n      eq\n        /* \"#utility.yul\":470:533   */\n      tag_89\n      jumpi\n        /* \"#utility.yul\":529:530   */\n      0x00\n        /* \"#utility.yul\":526:527   */\n      dup1\n        /* \"#utility.yul\":519:531   */\n      revert\n        /* \"#utility.yul\":470:533   */\n    tag_89:\n        /* \"#utility.yul\":417:539   */\n      pop\n      jump\t// out\n        /* \"#utility.yul\":545:684   */\n    tag_46:\n        /* \"#utility.yul\":591:596   */\n      0x00\n        /* \"#utility.yul\":629:635   */\n      dup2\n        /* \"#utility.yul\":616:636   */\n      calldataload\n        /* \"#utility.yul\":607:636   */\n      swap1\n      pop\n        /* \"#utility.yul\":645:678   */\n      tag_91\n        /* \"#utility.yul\":672:677   */\n      dup2\n        /* \"#utility.yul\":645:678   */\n      tag_45\n      jump\t// in\n    tag_91:\n        /* \"#utility.yul\":545:684   */\n      swap3\n      swap2\n      pop\n      pop\n      jump\t// out\n        /* \"#utility.yul\":690:1019   */\n    tag_7:\n        /* \"#utility.yul\":749:755   */\n      0x00\n        /* \"#utility.yul\":798:800   */\n      0x20\n        /* \"#utility.yul\":786:795   */\n      dup3\n        /* \"#utility.yul\":777:784   */\n      dup5\n        /* \"#utility.yul\":773:796   */\n      sub\n        /* \"#utility.yul\":769:801   */\n      slt\n        /* \"#utility.yul\":766:885   */\n      iszero\n      tag_93\n      jumpi\n        /* \"#utility.yul\":804:883   */\n      tag_94\n      tag_42\n      jump\t// in\n    tag_94:\n        /* \"#utility.yul\":766:885   */\n    tag_93:\n        /* \"#utility.yul\":924:925   */\n      0x00\n        /* \"#utility.yul\":949:1002   */\n      tag_95\n        /* \"#utility.yul\":994:1001   */\n      dup5\n        /* \"#utility.yul\":985:991   */\n      dup3\n        /* \"#utility.yul\":974:983   */\n      dup6\n        /* \"#utility.yul\":970:992   */\n      add\n        /* \"#utility.yul\":949:1002   */\n      tag_46\n      jump\t// in\n    tag_95:\n        /* \"#utility.yul\":939:1002   */\n      swap2\n      pop\n        /* \"#utility.yul\":895:1012   */\n      pop\n        /* \"#utility.yul\":690:1019   */\n      swap3\n      swap2\n      pop\n      pop\n      jump\t// out\n        /* \"#utility.yul\":1025:1124   */\n    tag_47:\n        /* \"#utility.yul\":1077:1083   */\n      0x00\n        /* \"#utility.yul\":1111:1116   */\n      dup2\n        /* \"#utility.yul\":1105:1117   */\n      mload\n        /* \"#utility.yul\":1095:1117   */\n      swap1\n      pop\n        /* \"#utility.yul\":1025:1124   */\n      swap2\n      swap1\n      pop\n      jump\t// out\n        /* \"#utility.yul\":1130:1299   */\n    tag_48:\n        /* \"#utility.yul\":1214:1225   */\n      0x00\n        /* \"#utility.yul\":1248:1254   */\n      dup3\n        /* \"#utility.yul\":1243:1246   */\n      dup3\n        /* \"#utility.yul\":1236:1255   */\n      mstore\n        /* \"#utility.yul\":1288:1292   */\n      0x20\n        /* \"#utility.yul\":1283:1286   */\n      dup3\n        /* \"#utility.yul\":1279:1293   */\n      add\n        /* \"#utility.yul\":1264:1293   */\n      swap1\n      pop\n        /* \"#utility.yul\":1130:1299   */\n      swap3\n      swap2\n      pop\n      pop\n      jump\t// out\n        /* \"#utility.yul\":1305:1551   */\n    tag_49:\n        /* \"#utility.yul\":1386:1387   */\n      0x00\n        /* \"#utility.yul\":1396:1509   */\n    tag_99:\n        /* \"#utility.yul\":1410:1416   */\n      dup4\n        /* \"#utility.yul\":1407:1408   */\n      dup2\n        /* \"#utility.yul\":1404:1417   */\n      lt\n        /* \"#utility.yul\":1396:1509   */\n      iszero\n      tag_101\n      jumpi\n        /* \"#utility.yul\":1495:1496   */\n      dup1\n        /* \"#utility.yul\":1490:1493   */\n      dup3\n        /* \"#utility.yul\":1486:1497   */\n      add\n        /* \"#utility.yul\":1480:1498   */\n      mload\n        /* \"#utility.yul\":1476:1477   */\n      dup2\n        /* \"#utility.yul\":1471:1474   */\n      dup5\n        /* \"#utility.yul\":1467:1478   */\n      add\n        /* \"#utility.yul\":1460:1499   */\n      mstore\n        /* \"#utility.yul\":1432:1434   */\n      0x20\n        /* \"#utility.yul\":1429:1430   */\n      dup2\n        /* \"#utility.yul\":1425:1435   */\n      add\n        /* \"#utility.yul\":1420:1435   */\n      swap1\n      pop\n        /* \"#utility.yul\":1396:1509   */\n      jump(tag_99)\n    tag_101:\n        /* \"#utility.yul\":1543:1544   */\n      0x00\n        /* \"#utility.yul\":1534:1540   */\n      dup5\n        /* \"#utility.yul\":1529:1532   */\n      dup5\n        /* \"#utility.yul\":1525:1541   */\n      add\n        /* \"#utility.yul\":1518:1545   */\n      mstore\n        /* \"#utility.yul\":1367:1551   */\n      pop\n        /* \"#utility.yul\":1305:1551   */\n      pop\n      pop\n      pop\n      jump\t// out\n        /* \"#utility.yul\":1557:1659   */\n    tag_50:\n        /* \"#utility.yul\":1598:1604   */\n      0x00\n        /* \"#utility.yul\":1649:1651   */\n      0x1f\n        /* \"#utility.yul\":1645:1652   */\n      not\n        /* \"#utility.yul\":1640:1642   */\n      0x1f\n        /* \"#utility.yul\":1633:1638   */\n      dup4\n        /* \"#utility.yul\":1629:1643   */\n      add\n        /* \"#utility.yul\":1625:1653   */\n      and\n        /* \"#utility.yul\":1615:1653   */\n      swap1\n      pop\n        /* \"#utility.yul\":1557:1659   */\n      swap2\n      swap1\n      pop\n      jump\t// out\n        /* \"#utility.yul\":1665:2042   */\n    tag_51:\n        /* \"#utility.yul\":1753:1756   */\n      0x00\n        /* \"#utility.yul\":1781:1820   */\n      tag_104\n        /* \"#utility.yul\":1814:1819   */\n      dup3\n        /* \"#utility.yul\":1781:1820   */\n      tag_47\n      jump\t// in\n    tag_104:\n        /* \"#utility.yul\":1836:1907   */\n      tag_105\n        /* \"#utility.yul\":1900:1906   */\n      dup2\n        /* \"#utility.yul\":1895:1898   */\n      dup6\n        /* \"#utility.yul\":1836:1907   */\n      tag_48\n      jump\t// in\n    tag_105:\n        /* \"#utility.yul\":1829:1907   */\n      swap4\n      pop\n        /* \"#utility.yul\":1916:1981   */\n      tag_106\n        /* \"#utility.yul\":1974:1980   */\n      dup2\n        /* \"#utility.yul\":1969:1972   */\n      dup6\n        /* \"#utility.yul\":1962:1966   */\n      0x20\n        /* \"#utility.yul\":1955:1960   */\n      dup7\n        /* \"#utility.yul\":1951:1967   */\n      add\n        /* \"#utility.yul\":1916:1981   */\n      tag_49\n      jump\t// in\n    tag_106:\n        /* \"#utility.yul\":2006:2035   */\n      tag_107\n        /* \"#utility.yul\":2028:2034   */\n      dup2\n        /* \"#utility.yul\":2006:2035   */\n      tag_50\n      jump\t// in\n    tag_107:\n        /* \"#utility.yul\":2001:2004   */\n      dup5\n        /* \"#utility.yul\":1997:2036   */\n      add\n        /* \"#utility.yul\":1990:2036   */\n      swap2\n      pop\n        /* \"#utility.yul\":1757:2042   */\n      pop\n        /* \"#utility.yul\":1665:2042   */\n      swap3\n      swap2\n      pop\n      pop\n      jump\t// out\n        /* \"#utility.yul\":2048:2166   */\n    tag_52:\n        /* \"#utility.yul\":2135:2159   */\n      tag_109\n        /* \"#utility.yul\":2153:2158   */\n      dup2\n        /* \"#utility.yul\":2135:2159   */\n      tag_44\n      jump\t// in\n    tag_109:\n        /* \"#utility.yul\":2130:2133   */\n      dup3\n        /* \"#utility.yul\":2123:2160   */\n      mstore\n        /* \"#utility.yul\":2048:2166   */\n      pop\n      pop\n      jump\t// out\n        /* \"#utility.yul\":2172:2595   */\n    tag_10:\n        /* \"#utility.yul\":2313:2317   */\n      0x00\n        /* \"#utility.yul\":2351:2353   */\n      0x40\n        /* \"#utility.yul\":2340:2349   */\n      dup3\n        /* \"#utility.yul\":2336:2354   */\n      add\n        /* \"#utility.yul\":2328:2354   */\n      swap1\n      pop\n        /* \"#utility.yul\":2400:2409   */\n      dup2\n        /* \"#utility.yul\":2394:2398   */\n      dup2\n        /* \"#utility.yul\":2390:2410   */\n      sub\n        /* \"#utility.yul\":2386:2387   */\n      0x00\n        /* \"#utility.yul\":2375:2384   */\n      dup4\n        /* \"#utility.yul\":2371:2388   */\n      add\n        /* \"#utility.yul\":2364:2411   */\n      mstore\n        /* \"#utility.yul\":2428:2506   */\n      tag_111\n        /* \"#utility.yul\":2501:2505   */\n      dup2\n        /* \"#utility.yul\":2492:2498   */\n      dup6\n        /* \"#utility.yul\":2428:2506   */\n      tag_51\n      jump\t// in\n    tag_111:\n        /* \"#utility.yul\":2420:2506   */\n      swap1\n      pop\n        /* \"#utility.yul\":2516:2588   */\n      tag_112\n        /* \"#utility.yul\":2584:2586   */\n      0x20\n        /* \"#utility.yul\":2573:2582   */\n      dup4\n        /* \"#utility.yul\":2569:2587   */\n      add\n        /* \"#utility.yul\":2560:2566   */\n      dup5\n        /* \"#utility.yul\":2516:2588   */\n      tag_52\n      jump\t// in\n    tag_112:\n        /* \"#utility.yul\":2172:2595   */\n      swap4\n      swap3\n      pop\n      pop\n      pop\n      jump\t// out\n        /* \"#utility.yul\":2601:2718   */\n    tag_53:\n        /* \"#utility.yul\":2710:2711   */\n      0x00\n        /* \"#utility.yul\":2707:2708   */\n      dup1\n        /* \"#utility.yul\":2700:2712   */\n      revert\n        /* \"#utility.yul\":2724:2841   */\n    tag_54:\n        /* \"#utility.yul\":2833:2834   */\n      0x00\n        /* \"#utility.yul\":2830:2831   */\n      dup1\n        /* \"#utility.yul\":2823:2835   */\n      revert\n        /* \"#utility.yul\":2847:3027   */\n    tag_55:\n        /* \"#utility.yul\":2895:2972   */\n      0x4e487b7100000000000000000000000000000000000000000000000000000000\n        /* \"#utility.yul\":2892:2893   */\n      0x00\n        /* \"#utility.yul\":2885:2973   */\n      mstore\n        /* \"#utility.yul\":2992:2996   */\n      0x41\n        /* \"#utility.yul\":2989:2990   */\n      0x04\n        /* \"#utility.yul\":2982:2997   */\n      mstore\n        /* \"#utility.yul\":3016:3020   */\n      0x24\n        /* \"#utility.yul\":3013:3014   */\n      0x00\n        /* \"#utility.yul\":3006:3021   */\n      revert\n        /* \"#utility.yul\":3033:3314   */\n    tag_56:\n        /* \"#utility.yul\":3116:3143   */\n      tag_117\n        /* \"#utility.yul\":3138:3142   */\n      dup3\n        /* \"#utility.yul\":3116:3143   */\n      tag_50\n      jump\t// in\n    tag_117:\n        /* \"#utility.yul\":3108:3114   */\n      dup2\n        /* \"#utility.yul\":3104:3144   */\n      add\n        /* \"#utility.yul\":3246:3252   */\n      dup2\n        /* \"#utility.yul\":3234:3244   */\n      dup2\n        /* \"#utility.yul\":3231:3253   */\n      lt\n        /* \"#utility.yul\":3210:3228   */\n      0xffffffffffffffff\n        /* \"#utility.yul\":3198:3208   */\n      dup3\n        /* \"#utility.yul\":3195:3229   */\n      gt\n        /* \"#utility.yul\":3192:3254   */\n      or\n        /* \"#utility.yul\":3189:3277   */\n      iszero\n      tag_118\n      jumpi\n        /* \"#utility.yul\":3257:3275   */\n      tag_119\n      tag_55\n      jump\t// in\n    tag_119:\n        /* \"#utility.yul\":3189:3277   */\n    tag_118:\n        /* \"#utility.yul\":3297:3307   */\n      dup1\n        /* \"#utility.yul\":3293:3295   */\n      0x40\n        /* \"#utility.yul\":3286:3308   */\n      mstore\n        /* \"#utility.yul\":3076:3314   */\n      pop\n        /* \"#utility.yul\":3033:3314   */\n      pop\n      pop\n      jump\t// out\n        /* \"#utility.yul\":3320:3449   */\n    tag_57:\n        /* \"#utility.yul\":3354:3360   */\n      0x00\n        /* \"#utility.yul\":3381:3401   */\n      tag_121\n      tag_41\n      jump\t// in\n    tag_121:\n        /* \"#utility.yul\":3371:3401   */\n      swap1\n      pop\n        /* \"#utility.yul\":3410:3443   */\n      tag_122\n        /* \"#utility.yul\":3438:3442   */\n      dup3\n        /* \"#utility.yul\":3430:3436   */\n      dup3\n        /* \"#utility.yul\":3410:3443   */\n      tag_56\n      jump\t// in\n    tag_122:\n        /* \"#utility.yul\":3320:3449   */\n      swap2\n      swap1\n      pop\n      jump\t// out\n        /* \"#utility.yul\":3455:3763   */\n    tag_58:\n        /* \"#utility.yul\":3517:3521   */\n      0x00\n        /* \"#utility.yul\":3607:3625   */\n      0xffffffffffffffff\n        /* \"#utility.yul\":3599:3605   */\n      dup3\n        /* \"#utility.yul\":3596:3626   */\n      gt\n        /* \"#utility.yul\":3593:3649   */\n      iszero\n      tag_124\n      jumpi\n        /* \"#utility.yul\":3629:3647   */\n      tag_125\n      tag_55\n      jump\t// in\n    tag_125:\n        /* \"#utility.yul\":3593:3649   */\n    tag_124:\n        /* \"#utility.yul\":3667:3696   */\n      tag_126\n        /* \"#utility.yul\":3689:3695   */\n      dup3\n        /* \"#utility.yul\":3667:3696   */\n      tag_50\n      jump\t// in\n    tag_126:\n        /* \"#utility.yul\":3659:3696   */\n      swap1\n      pop\n        /* \"#utility.yul\":3751:3755   */\n      0x20\n        /* \"#utility.yul\":3745:3749   */\n      dup2\n        /* \"#utility.yul\":3741:3756   */\n      add\n        /* \"#utility.yul\":3733:3756   */\n      swap1\n      pop\n        /* \"#utility.yul\":3455:3763   */\n      swap2\n      swap1\n      pop\n      jump\t// out\n        /* \"#utility.yul\":3769:3915   */\n    tag_59:\n        /* \"#utility.yul\":3866:3872   */\n      dup3\n        /* \"#utility.yul\":3861:3864   */\n      dup2\n        /* \"#utility.yul\":3856:3859   */\n      dup4\n        /* \"#utility.yul\":3843:3873   */\n      calldatacopy\n        /* \"#utility.yul\":3907:3908   */\n      0x00\n        /* \"#utility.yul\":3898:3904   */\n      dup4\n        /* \"#utility.yul\":3893:3896   */\n      dup4\n        /* \"#utility.yul\":3889:3905   */\n      add\n        /* \"#utility.yul\":3882:3909   */\n      mstore\n        /* \"#utility.yul\":3769:3915   */\n      pop\n      pop\n      pop\n      jump\t// out\n        /* \"#utility.yul\":3921:4346   */\n    tag_60:\n        /* \"#utility.yul\":3999:4004   */\n      0x00\n        /* \"#utility.yul\":4024:4090   */\n      tag_129\n        /* \"#utility.yul\":4040:4089   */\n      tag_130\n        /* \"#utility.yul\":4082:4088   */\n      dup5\n        /* \"#utility.yul\":4040:4089   */\n      tag_58\n      jump\t// in\n    tag_130:\n        /* \"#utility.yul\":4024:4090   */\n      tag_57\n      jump\t// in\n    tag_129:\n        /* \"#utility.yul\":4015:4090   */\n      swap1\n      pop\n        /* \"#utility.yul\":4113:4119   */\n      dup3\n        /* \"#utility.yul\":4106:4111   */\n      dup2\n        /* \"#utility.yul\":4099:4120   */\n      mstore\n        /* \"#utility.yul\":4151:4155   */\n      0x20\n        /* \"#utility.yul\":4144:4149   */\n      dup2\n        /* \"#utility.yul\":4140:4156   */\n      add\n        /* \"#utility.yul\":4189:4192   */\n      dup5\n        /* \"#utility.yul\":4180:4186   */\n      dup5\n        /* \"#utility.yul\":4175:4178   */\n      dup5\n        /* \"#utility.yul\":4171:4187   */\n      add\n        /* \"#utility.yul\":4168:4193   */\n      gt\n        /* \"#utility.yul\":4165:4277   */\n      iszero\n      tag_131\n      jumpi\n        /* \"#utility.yul\":4196:4275   */\n      tag_132\n      tag_54\n      jump\t// in\n    tag_132:\n        /* \"#utility.yul\":4165:4277   */\n    tag_131:\n        /* \"#utility.yul\":4286:4340   */\n      tag_133\n        /* \"#utility.yul\":4333:4339   */\n      dup5\n        /* \"#utility.yul\":4328:4331   */\n      dup3\n        /* \"#utility.yul\":4323:4326   */\n      dup6\n        /* \"#utility.yul\":4286:4340   */\n      tag_59\n      jump\t// in\n    tag_133:\n        /* \"#utility.yul\":4005:4346   */\n      pop\n        /* \"#utility.yul\":3921:4346   */\n      swap4\n      swap3\n      pop\n      pop\n      pop\n      jump\t// out\n        /* \"#utility.yul\":4366:4706   */\n    tag_61:\n        /* \"#utility.yul\":4422:4427   */\n      0x00\n        /* \"#utility.yul\":4471:4474   */\n      dup3\n        /* \"#utility.yul\":4464:4468   */\n      0x1f\n        /* \"#utility.yul\":4456:4462   */\n      dup4\n        /* \"#utility.yul\":4452:4469   */\n      add\n        /* \"#utility.yul\":4448:4475   */\n      slt\n        /* \"#utility.yul\":4438:4560   */\n      tag_135\n      jumpi\n        /* \"#utility.yul\":4479:4558   */\n      tag_136\n      tag_53\n      jump\t// in\n    tag_136:\n        /* \"#utility.yul\":4438:4560   */\n    tag_135:\n        /* \"#utility.yul\":4596:4602   */\n      dup2\n        /* \"#utility.yul\":4583:4603   */\n      calldataload\n        /* \"#utility.yul\":4621:4700   */\n      tag_137\n        /* \"#utility.yul\":4696:4699   */\n      dup5\n        /* \"#utility.yul\":4688:4694   */\n      dup3\n        /* \"#utility.yul\":4681:4685   */\n      0x20\n        /* \"#utility.yul\":4673:4679   */\n      dup7\n        /* \"#utility.yul\":4669:4686   */\n      add\n        /* \"#utility.yul\":4621:4700   */\n      tag_60\n      jump\t// in\n    tag_137:\n        /* \"#utility.yul\":4612:4700   */\n      swap2\n      pop\n        /* \"#utility.yul\":4428:4706   */\n      pop\n        /* \"#utility.yul\":4366:4706   */\n      swap3\n      swap2\n      pop\n      pop\n      jump\t// out\n        /* \"#utility.yul\":4712:5221   */\n    tag_13:\n        /* \"#utility.yul\":4781:4787   */\n      0x00\n        /* \"#utility.yul\":4830:4832   */\n      0x20\n        /* \"#utility.yul\":4818:4827   */\n      dup3\n        /* \"#utility.yul\":4809:4816   */\n      dup5\n        /* \"#utility.yul\":4805:4828   */\n      sub\n        /* \"#utility.yul\":4801:4833   */\n      slt\n        /* \"#utility.yul\":4798:4917   */\n      iszero\n      tag_139\n      jumpi\n        /* \"#utility.yul\":4836:4915   */\n      tag_140\n      tag_42\n      jump\t// in\n    tag_140:\n        /* \"#utility.yul\":4798:4917   */\n    tag_139:\n        /* \"#utility.yul\":4984:4985   */\n      0x00\n        /* \"#utility.yul\":4973:4982   */\n      dup3\n        /* \"#utility.yul\":4969:4986   */\n      add\n        /* \"#utility.yul\":4956:4987   */\n      calldataload\n        /* \"#utility.yul\":5014:5032   */\n      0xffffffffffffffff\n        /* \"#utility.yul\":5006:5012   */\n      dup2\n        /* \"#utility.yul\":5003:5033   */\n      gt\n        /* \"#utility.yul\":5000:5117   */\n      iszero\n      tag_141\n      jumpi\n        /* \"#utility.yul\":5036:5115   */\n      tag_142\n      tag_43\n      jump\t// in\n    tag_142:\n        /* \"#utility.yul\":5000:5117   */\n    tag_141:\n        /* \"#utility.yul\":5141:5204   */\n      tag_143\n        /* \"#utility.yul\":5196:5203   */\n      dup5\n        /* \"#utility.yul\":5187:5193   */\n      dup3\n        /* \"#utility.yul\":5176:5185   */\n      dup6\n        /* \"#utility.yul\":5172:5194   */\n      add\n        /* \"#utility.yul\":5141:5204   */\n      tag_61\n      jump\t// in\n    tag_143:\n        /* \"#utility.yul\":5131:5204   */\n      swap2\n      pop\n        /* \"#utility.yul\":4927:5214   */\n      pop\n        /* \"#utility.yul\":4712:5221   */\n      swap3\n      swap2\n      pop\n      pop\n      jump\t// out\n        /* \"#utility.yul\":5227:5407   */\n    tag_62:\n        /* \"#utility.yul\":5275:5352   */\n      0x4e487b7100000000000000000000000000000000000000000000000000000000\n        /* \"#utility.yul\":5272:5273   */\n      0x00\n        /* \"#utility.yul\":5265:5353   */\n      mstore\n        /* \"#utility.yul\":5372:5376   */\n      0x22\n        /* \"#utility.yul\":5369:5370   */\n      0x04\n        /* \"#utility.yul\":5362:5377   */\n      mstore\n        /* \"#utility.yul\":5396:5400   */\n      0x24\n        /* \"#utility.yul\":5393:5394   */\n      0x00\n        /* \"#utility.yul\":5386:5401   */\n      revert\n        /* \"#utility.yul\":5413:5733   */\n    tag_18:\n        /* \"#utility.yul\":5457:5463   */\n      0x00\n        /* \"#utility.yul\":5494:5495   */\n      0x02\n        /* \"#utility.yul\":5488:5492   */\n      dup3\n        /* \"#utility.yul\":5484:5496   */\n      div\n        /* \"#utility.yul\":5474:5496   */\n      swap1\n      pop\n        /* \"#utility.yul\":5541:5542   */\n      0x01\n        /* \"#utility.yul\":5535:5539   */\n      dup3\n        /* \"#utility.yul\":5531:5543   */\n      and\n        /* \"#utility.yul\":5562:5580   */\n      dup1\n        /* \"#utility.yul\":5552:5633   */\n      tag_146\n      jumpi\n        /* \"#utility.yul\":5618:5622   */\n      0x7f\n        /* \"#utility.yul\":5610:5616   */\n      dup3\n        /* \"#utility.yul\":5606:5623   */\n      and\n        /* \"#utility.yul\":5596:5623   */\n      swap2\n      pop\n        /* \"#utility.yul\":5552:5633   */\n    tag_146:\n        /* \"#utility.yul\":5680:5682   */\n      0x20\n        /* \"#utility.yul\":5672:5678   */\n      dup3\n        /* \"#utility.yul\":5669:5683   */\n      lt\n        /* \"#utility.yul\":5649:5667   */\n      dup2\n        /* \"#utility.yul\":5646:5684   */\n      sub\n        /* \"#utility.yul\":5643:5727   */\n      tag_147\n      jumpi\n        /* \"#utility.yul\":5699:5717   */\n      tag_148\n      tag_62\n      jump\t// in\n    tag_148:\n        /* \"#utility.yul\":5643:5727   */\n    tag_147:\n        /* \"#utility.yul\":5464:5733   */\n      pop\n        /* \"#utility.yul\":5413:5733   */\n      swap2\n      swap1\n      pop\n      jump\t// out\n        /* \"#utility.yul\":5739:5887   */\n    tag_63:\n        /* \"#utility.yul\":5841:5852   */\n      0x00\n        /* \"#utility.yul\":5878:5881   */\n      dup2\n        /* \"#utility.yul\":5863:5881   */\n      swap1\n      pop\n        /* \"#utility.yul\":5739:5887   */\n      swap3\n      swap2\n      pop\n      pop\n      jump\t// out\n        /* \"#utility.yul\":5893:6283   */\n    tag_64:\n        /* \"#utility.yul\":5999:6002   */\n      0x00\n        /* \"#utility.yul\":6027:6066   */\n      tag_151\n        /* \"#utility.yul\":6060:6065   */\n      dup3\n        /* \"#utility.yul\":6027:6066   */\n      tag_47\n      jump\t// in\n    tag_151:\n        /* \"#utility.yul\":6082:6171   */\n      tag_152\n        /* \"#utility.yul\":6164:6170   */\n      dup2\n        /* \"#utility.yul\":6159:6162   */\n      dup6\n        /* \"#utility.yul\":6082:6171   */\n      tag_63\n      jump\t// in\n    tag_152:\n        /* \"#utility.yul\":6075:6171   */\n      swap4\n      pop\n        /* \"#utility.yul\":6180:6245   */\n      tag_153\n        /* \"#utility.yul\":6238:6244   */\n      dup2\n        /* \"#utility.yul\":6233:6236   */\n      dup6\n        /* \"#utility.yul\":6226:6230   */\n      0x20\n        /* \"#utility.yul\":6219:6224   */\n      dup7\n        /* \"#utility.yul\":6215:6231   */\n      add\n        /* \"#utility.yul\":6180:6245   */\n      tag_49\n      jump\t// in\n    tag_153:\n        /* \"#utility.yul\":6270:6276   */\n      dup1\n        /* \"#utility.yul\":6265:6268   */\n      dup5\n        /* \"#utility.yul\":6261:6277   */\n      add\n        /* \"#utility.yul\":6254:6277   */\n      swap2\n      pop\n        /* \"#utility.yul\":6003:6283   */\n      pop\n        /* \"#utility.yul\":5893:6283   */\n      swap3\n      swap2\n      pop\n      pop\n      jump\t// out\n        /* \"#utility.yul\":6289:6564   */\n    tag_30:\n        /* \"#utility.yul\":6421:6424   */\n      0x00\n        /* \"#utility.yul\":6443:6538   */\n      tag_155\n        /* \"#utility.yul\":6534:6537   */\n      dup3\n        /* \"#utility.yul\":6525:6531   */\n      dup5\n        /* \"#utility.yul\":6443:6538   */\n      tag_64\n      jump\t// in\n    tag_155:\n        /* \"#utility.yul\":6436:6538   */\n      swap2\n      pop\n        /* \"#utility.yul\":6555:6558   */\n      dup2\n        /* \"#utility.yul\":6548:6558   */\n      swap1\n      pop\n        /* \"#utility.yul\":6289:6564   */\n      swap3\n      swap2\n      pop\n      pop\n      jump\t// out\n        /* \"#utility.yul\":6570:6750   */\n    tag_65:\n        /* \"#utility.yul\":6618:6695   */\n      0x4e487b7100000000000000000000000000000000000000000000000000000000\n        /* \"#utility.yul\":6615:6616   */\n      0x00\n        /* \"#utility.yul\":6608:6696   */\n      mstore\n        /* \"#utility.yul\":6715:6719   */\n      0x12\n        /* \"#utility.yul\":6712:6713   */\n      0x04\n        /* \"#utility.yul\":6705:6720   */\n      mstore\n        /* \"#utility.yul\":6739:6743   */\n      0x24\n        /* \"#utility.yul\":6736:6737   */\n      0x00\n        /* \"#utility.yul\":6729:6744   */\n      revert\n        /* \"#utility.yul\":6756:6932   */\n    tag_32:\n        /* \"#utility.yul\":6788:6789   */\n      0x00\n        /* \"#utility.yul\":6805:6825   */\n      tag_158\n        /* \"#utility.yul\":6823:6824   */\n      dup3\n        /* \"#utility.yul\":6805:6825   */\n      tag_44\n      jump\t// in\n    tag_158:\n        /* \"#utility.yul\":6800:6825   */\n      swap2\n      pop\n        /* \"#utility.yul\":6839:6859   */\n      tag_159\n        /* \"#utility.yul\":6857:6858   */\n      dup4\n        /* \"#utility.yul\":6839:6859   */\n      tag_44\n      jump\t// in\n    tag_159:\n        /* \"#utility.yul\":6834:6859   */\n      swap3\n      pop\n        /* \"#utility.yul\":6878:6879   */\n      dup3\n        /* \"#utility.yul\":6868:6903   */\n      tag_160\n      jumpi\n        /* \"#utility.yul\":6883:6901   */\n      tag_161\n      tag_65\n      jump\t// in\n    tag_161:\n        /* \"#utility.yul\":6868:6903   */\n    tag_160:\n        /* \"#utility.yul\":6924:6925   */\n      dup3\n        /* \"#utility.yul\":6921:6922   */\n      dup3\n        /* \"#utility.yul\":6917:6926   */\n      mod\n        /* \"#utility.yul\":6912:6926   */\n      swap1\n      pop\n        /* \"#utility.yul\":6756:6932   */\n      swap3\n      swap2\n      pop\n      pop\n      jump\t// out\n        /* \"#utility.yul\":6938:7079   */\n    tag_66:\n        /* \"#utility.yul\":6987:6991   */\n      0x00\n        /* \"#utility.yul\":7010:7013   */\n      dup2\n        /* \"#utility.yul\":7002:7013   */\n      swap1\n      pop\n        /* \"#utility.yul\":7033:7036   */\n      dup2\n        /* \"#utility.yul\":7030:7031   */\n      0x00\n        /* \"#utility.yul\":7023:7037   */\n      mstore\n        /* \"#utility.yul\":7067:7071   */\n      0x20\n        /* \"#utility.yul\":7064:7065   */\n      0x00\n        /* \"#utility.yul\":7054:7072   */\n      keccak256\n        /* \"#utility.yul\":7046:7072   */\n      swap1\n      pop\n        /* \"#utility.yul\":6938:7079   */\n      swap2\n      swap1\n      pop\n      jump\t// out\n        /* \"#utility.yul\":7085:7178   */\n    tag_67:\n        /* \"#utility.yul\":7122:7128   */\n      0x00\n        /* \"#utility.yul\":7169:7171   */\n      0x20\n        /* \"#utility.yul\":7164:7166   */\n      0x1f\n        /* \"#utility.yul\":7157:7162   */\n      dup4\n        /* \"#utility.yul\":7153:7167   */\n      add\n        /* \"#utility.yul\":7149:7172   */\n      div\n        /* \"#utility.yul\":7139:7172   */\n      swap1\n      pop\n        /* \"#utility.yul\":7085:7178   */\n      swap2\n      swap1\n      pop\n      jump\t// out\n        /* \"#utility.yul\":7184:7291   */\n    tag_68:\n        /* \"#utility.yul\":7228:7236   */\n      0x00\n        /* \"#utility.yul\":7278:7283   */\n      dup3\n        /* \"#utility.yul\":7272:7276   */\n      dup3\n        /* \"#utility.yul\":7268:7284   */\n      shl\n        /* \"#utility.yul\":7247:7284   */\n      swap1\n      pop\n        /* \"#utility.yul\":7184:7291   */\n      swap3\n      swap2\n      pop\n      pop\n      jump\t// out\n        /* \"#utility.yul\":7297:7690   */\n    tag_69:\n        /* \"#utility.yul\":7366:7372   */\n      0x00\n        /* \"#utility.yul\":7416:7417   */\n      0x08\n        /* \"#utility.yul\":7404:7414   */\n      dup4\n        /* \"#utility.yul\":7400:7418   */\n      mul\n        /* \"#utility.yul\":7439:7536   */\n      tag_166\n        /* \"#utility.yul\":7469:7535   */\n      0xffffffffffffffffffffffffffffffffffffffffffffffffffffffffffffffff\n        /* \"#utility.yul\":7458:7467   */\n      dup3\n        /* \"#utility.yul\":7439:7536   */\n      tag_68\n      jump\t// in\n    tag_166:\n        /* \"#utility.yul\":7557:7596   */\n      tag_167\n        /* \"#utility.yul\":7587:7595   */\n      dup7\n        /* \"#utility.yul\":7576:7585   */\n      dup4\n        /* \"#utility.yul\":7557:7596   */\n      tag_68\n      jump\t// in\n    tag_167:\n        /* \"#utility.yul\":7545:7596   */\n      swap6\n      pop\n        /* \"#utility.yul\":7629:7633   */\n      dup1\n        /* \"#utility.yul\":7625:7634   */\n      not\n        /* \"#utility.yul\":7618:7623   */\n      dup5\n        /* \"#utility.yul\":7614:7635   */\n      and\n        /* \"#utility.yul\":7605:7635   */\n      swap4\n      pop\n        /* \"#utility.yul\":7678:7682   */\n      dup1\n        /* \"#utility.yul\":7668:7676   */\n      dup7\n        /* \"#utility.yul\":7664:7683   */\n      and\n        /* \"#utility.yul\":7657:7662   */\n      dup5\n        /* \"#utility.yul\":7654:7684   */\n      or\n        /* \"#utility.yul\":7644:7684   */\n      swap3\n      pop\n        /* \"#utility.yul\":7373:7690   */\n      pop\n      pop\n        /* \"#utility.yul\":7297:7690   */\n      swap4\n      swap3\n      pop\n      pop\n      pop\n      jump\t// out\n        /* \"#utility.yul\":7696:7756   */\n    tag_70:\n        /* \"#utility.yul\":7724:7727   */\n      0x00\n        /* \"#utility.yul\":7745:7750   */\n      dup2\n        /* \"#utility.yul\":7738:7750   */\n      swap1\n      pop\n        /* \"#utility.yul\":7696:7756   */\n      swap2\n      swap1\n      pop\n      jump\t// out\n        /* \"#utility.yul\":7762:7904   */\n    tag_71:\n        /* \"#utility.yul\":7812:7821   */\n      0x00\n        /* \"#utility.yul\":7845:7898   */\n      tag_170\n        /* \"#utility.yul\":7863:7897   */\n      tag_171\n        /* \"#utility.yul\":7872:7896   */\n      tag_172\n        /* \"#utility.yul\":7890:7895   */\n      dup5\n        /* \"#utility.yul\":7872:7896   */\n      tag_44\n      jump\t// in\n    tag_172:\n        /* \"#utility.yul\":7863:7897   */\n      tag_70\n      jump\t// in\n    tag_171:\n        /* \"#utility.yul\":7845:7898   */\n      tag_44\n      jump\t// in\n    tag_170:\n        /* \"#utility.yul\":7832:7898   */\n      swap1\n      pop\n        /* \"#utility.yul\":7762:7904   */\n      swap2\n      swap1\n      pop\n      jump\t// out\n        /* \"#utility.yul\":7910:7985   */\n    tag_72:\n        /* \"#utility.yul\":7953:7956   */\n      0x00\n        /* \"#utility.yul\":7974:7979   */\n      dup2\n        /* \"#utility.yul\":7967:7979   */\n      swap1\n      pop\n        /* \"#utility.yul\":7910:7985   */\n      swap2\n      swap1\n      pop\n      jump\t// out\n        /* \"#utility.yul\":7991:8260   */\n    tag_73:\n        /* \"#utility.yul\":8101:8140   */\n      tag_175\n        /* \"#utility.yul\":8132:8139   */\n      dup4\n        /* \"#utility.yul\":8101:8140   */\n      tag_71\n      jump\t// in\n    tag_175:\n        /* \"#utility.yul\":8162:8253   */\n      tag_176\n        /* \"#utility.yul\":8211:8252   */\n      tag_177\n        /* \"#utility.yul\":8235:8251   */\n      dup3\n        /* \"#utility.yul\":8211:8252   */\n      tag_72\n      jump\t// in\n    tag_177:\n        /* \"#utility.yul\":8203:8209   */\n      dup5\n        /* \"#utility.yul\":8196:8200   */\n      dup5\n        /* \"#utility.yul\":8190:8201   */\n      sload\n        /* \"#utility.yul\":8162:8253   */\n      tag_69\n      jump\t// in\n    tag_176:\n        /* \"#utility.yul\":8156:8160   */\n      dup3\n        /* \"#utility.yul\":8149:8254   */\n      sstore\n        /* \"#utility.yul\":8067:8260   */\n      pop\n        /* \"#utility.yul\":7991:8260   */\n      pop\n      pop\n      pop\n      jump\t// out\n        /* \"#utility.yul\":8266:8339   */\n    tag_74:\n        /* \"#utility.yul\":8311:8314   */\n      0x00\n        /* \"#utility.yul\":8266:8339   */\n      swap1\n      jump\t// out\n        /* \"#utility.yul\":8345:8534   */\n    tag_75:\n        /* \"#utility.yul\":8422:8454   */\n      tag_180\n      tag_74\n      jump\t// in\n    tag_180:\n        /* \"#utility.yul\":8463:8528   */\n      tag_181\n        /* \"#utility.yul\":8521:8527   */\n      dup2\n        /* \"#utility.yul\":8513:8519   */\n      dup5\n        /* \"#utility.yul\":8507:8511   */\n      dup5\n        /* \"#utility.yul\":8463:8528   */\n      tag_73\n      jump\t// in\n    tag_181:\n        /* \"#utility.yul\":8398:8534   */\n      pop\n        /* \"#utility.yul\":8345:8534   */\n      pop\n      pop\n      jump\t// out\n        /* \"#utility.yul\":8540:8726   */\n    tag_76:\n        /* \"#utility.yul\":8600:8720   */\n    tag_183:\n        /* \"#utility.yul\":8617:8620   */\n      dup2\n        /* \"#utility.yul\":8610:8615   */\n      dup2\n        /* \"#utility.yul\":8607:8621   */\n      lt\n        /* \"#utility.yul\":8600:8720   */\n      iszero\n      tag_185\n      jumpi\n        /* \"#utility.yul\":8671:8710   */\n      tag_186\n        /* \"#utility.yul\":8708:8709   */\n      0x00\n        /* \"#utility.yul\":8701:8706   */\n      dup3\n        /* \"#utility.yul\":8671:8710   */\n      tag_75\n      jump\t// in\n    tag_186:\n        /* \"#utility.yul\":8644:8645   */\n      0x01\n        /* \"#utility.yul\":8637:8642   */\n      dup2\n        /* \"#utility.yul\":8633:8646   */\n      add\n        /* \"#utility.yul\":8624:8646   */\n      swap1\n      pop\n        /* \"#utility.yul\":8600:8720   */\n      jump(tag_183)\n    tag_185:\n        /* \"#utility.yul\":8540:8726   */\n      pop\n      pop\n      jump\t// out\n        /* \"#utility.yul\":8732:9275   */\n    tag_77:\n        /* \"#utility.yul\":8833:8835   */\n      0x1f\n        /* \"#utility.yul\":8828:8831   */\n      dup3\n        /* \"#utility.yul\":8825:8836   */\n      gt\n        /* \"#utility.yul\":8822:9268   */\n      iszero\n      tag_188\n      jumpi\n        /* \"#utility.yul\":8867:8905   */\n      tag_189\n        /* \"#utility.yul\":8899:8904   */\n      dup2\n        /* \"#utility.yul\":8867:8905   */\n      tag_66\n      jump\t// in\n    tag_189:\n        /* \"#utility.yul\":8951:8980   */\n      tag_190\n        /* \"#utility.yul\":8969:8979   */\n      dup5\n        /* \"#utility.yul\":8951:8980   */\n      tag_67\n      jump\t// in\n    tag_190:\n        /* \"#utility.yul\":8941:8949   */\n      dup2\n        /* \"#utility.yul\":8937:8981   */\n      add\n        /* \"#utility.yul\":9134:9136   */\n      0x20\n        /* \"#utility.yul\":9122:9132   */\n      dup6\n        /* \"#utility.yul\":9119:9137   */\n      lt\n        /* \"#utility.yul\":9116:9165   */\n      iszero\n      tag_191\n      jumpi\n        /* \"#utility.yul\":9155:9163   */\n      dup2\n        /* \"#utility.yul\":9140:9163   */\n      swap1\n      pop\n        /* \"#utility.yul\":9116:9165   */\n    tag_191:\n        /* \"#utility.yul\":9178:9258   */\n      tag_192\n        /* \"#utility.yul\":9234:9256   */\n      tag_193\n        /* \"#utility.yul\":9252:9255   */\n      dup6\n        /* \"#utility.yul\":9234:9256   */\n      tag_67\n      jump\t// in\n    tag_193:\n        /* \"#utility.yul\":9224:9232   */\n      dup4\n        /* \"#utility.yul\":9220:9257   */\n      add\n        /* \"#utility.yul\":9207:9218   */\n      dup3\n        /* \"#utility.yul\":9178:9258   */\n      tag_76\n      jump\t// in\n    tag_192:\n        /* \"#utility.yul\":8837:9268   */\n      pop\n      pop\n        /* \"#utility.yul\":8822:9268   */\n    tag_188:\n        /* \"#utility.yul\":8732:9275   */\n      pop\n      pop\n      pop\n      jump\t// out\n        /* \"#utility.yul\":9281:9398   */\n    tag_78:\n        /* \"#utility.yul\":9335:9343   */\n      0x00\n        /* \"#utility.yul\":9385:9390   */\n      dup3\n        /* \"#utility.yul\":9379:9383   */\n      dup3\n        /* \"#utility.yul\":9375:9391   */\n      shr\n        /* \"#utility.yul\":9354:9391   */\n      swap1\n      pop\n        /* \"#utility.yul\":9281:9398   */\n      swap3\n      swap2\n      pop\n      pop\n      jump\t// out\n        /* \"#utility.yul\":9404:9573   */\n    tag_79:\n        /* \"#utility.yul\":9448:9454   */\n      0x00\n        /* \"#utility.yul\":9481:9532   */\n      tag_196\n        /* \"#utility.yul\":9529:9530   */\n      0x00\n        /* \"#utility.yul\":9525:9531   */\n      not\n        /* \"#utility.yul\":9517:9522   */\n      dup5\n        /* \"#utility.yul\":9514:9515   */\n      0x08\n        /* \"#utility.yul\":9510:9523   */\n      mul\n        /* \"#utility.yul\":9481:9532   */\n      tag_78\n      jump\t// in\n    tag_196:\n        /* \"#utility.yul\":9477:9533   */\n      not\n        /* \"#utility.yul\":9562:9566   */\n      dup1\n        /* \"#utility.yul\":9556:9560   */\n      dup4\n        /* \"#utility.yul\":9552:9567   */\n      and\n        /* \"#utility.yul\":9542:9567   */\n      swap2\n      pop\n        /* \"#utility.yul\":9455:9573   */\n      pop\n        /* \"#utility.yul\":9404:9573   */\n      swap3\n      swap2\n      pop\n      pop\n      jump\t// out\n        /* \"#utility.yul\":9578:9873   */\n    tag_80:\n        /* \"#utility.yul\":9654:9658   */\n      0x00\n        /* \"#utility.yul\":9800:9829   */\n      tag_198\n        /* \"#utility.yul\":9825:9828   */\n      dup4\n        /* \"#utility.yul\":9819:9823   */\n      dup4\n        /* \"#utility.yul\":9800:9829   */\n      tag_79\n      jump\t// in\n    tag_198:\n        /* \"#utility.yul\":9792:9829   */\n      swap2\n      pop\n        /* \"#utility.yul\":9862:9865   */\n      dup3\n        /* \"#utility.yul\":9859:9860   */\n      0x02\n        /* \"#utility.yul\":9855:9866   */\n      mul\n        /* \"#utility.yul\":9849:9853   */\n      dup3\n        /* \"#utility.yul\":9846:9867   */\n      or\n        /* \"#utility.yul\":9838:9867   */\n      swap1\n      pop\n        /* \"#utility.yul\":9578:9873   */\n      swap3\n      swap2\n      pop\n      pop\n      jump\t// out\n        /* \"#utility.yul\":9878:11273   */\n    tag_36:\n        /* \"#utility.yul\":9995:10032   */\n      tag_200\n        /* \"#utility.yul\":10028:10031   */\n      dup3\n        /* \"#utility.yul\":9995:10032   */\n      tag_47\n      jump\t// in\n    tag_200:\n        /* \"#utility.yul\":10097:10115   */\n      0xffffffffffffffff\n        /* \"#utility.yul\":10089:10095   */\n      dup2\n        /* \"#utility.yul\":10086:10116   */\n      gt\n        /* \"#utility.yul\":10083:10139   */\n      iszero\n      tag_201\n      jumpi\n        /* \"#utility.yul\":10119:10137   */\n      tag_202\n      tag_55\n      jump\t// in\n    tag_202:\n        /* \"#utility.yul\":10083:10139   */\n    tag_201:\n        /* \"#utility.yul\":10163:10201   */\n      tag_203\n        /* \"#utility.yul\":10195:10199   */\n      dup3\n        /* \"#utility.yul\":10189:10200   */\n      sload\n        /* \"#utility.yul\":10163:10201   */\n      tag_18\n      jump\t// in\n    tag_203:\n        /* \"#utility.yul\":10248:10315   */\n      tag_204\n        /* \"#utility.yul\":10308:10314   */\n      dup3\n        /* \"#utility.yul\":10300:10306   */\n      dup3\n        /* \"#utility.yul\":10294:10298   */\n      dup6\n        /* \"#utility.yul\":10248:10315   */\n      tag_77\n      jump\t// in\n    tag_204:\n        /* \"#utility.yul\":10342:10343   */\n      0x00\n        /* \"#utility.yul\":10366:10370   */\n      0x20\n        /* \"#utility.yul\":10353:10370   */\n      swap1\n      pop\n        /* \"#utility.yul\":10398:10400   */\n      0x1f\n        /* \"#utility.yul\":10390:10396   */\n      dup4\n        /* \"#utility.yul\":10387:10401   */\n      gt\n        /* \"#utility.yul\":10415:10416   */\n      0x01\n        /* \"#utility.yul\":10410:11028   */\n      dup2\n      eq\n      tag_206\n      jumpi\n        /* \"#utility.yul\":11072:11073   */\n      0x00\n        /* \"#utility.yul\":11089:11095   */\n      dup5\n        /* \"#utility.yul\":11086:11163   */\n      iszero\n      tag_207\n      jumpi\n        /* \"#utility.yul\":11138:11147   */\n      dup3\n        /* \"#utility.yul\":11133:11136   */\n      dup8\n        /* \"#utility.yul\":11129:11148   */\n      add\n        /* \"#utility.yul\":11123:11149   */\n      mload\n        /* \"#utility.yul\":11114:11149   */\n      swap1\n      pop\n        /* \"#utility.yul\":11086:11163   */\n    tag_207:\n        /* \"#utility.yul\":11189:11256   */\n      tag_208\n        /* \"#utility.yul\":11249:11255   */\n      dup6\n        /* \"#utility.yul\":11242:11247   */\n      dup3\n        /* \"#utility.yul\":11189:11256   */\n      tag_80\n      jump\t// in\n    tag_208:\n        /* \"#utility.yul\":11183:11187   */\n      dup7\n        /* \"#utility.yul\":11176:11257   */\n      sstore\n        /* \"#utility.yul\":11045:11267   */\n      pop\n        /* \"#utility.yul\":10380:11267   */\n      jump(tag_205)\n        /* \"#utility.yul\":10410:11028   */\n    tag_206:\n        /* \"#utility.yul\":10462:10466   */\n      0x1f\n        /* \"#utility.yul\":10458:10467   */\n      not\n        /* \"#utility.yul\":10450:10456   */\n      dup5\n        /* \"#utility.yul\":10446:10468   */\n      and\n        /* \"#utility.yul\":10496:10533   */\n      tag_209\n        /* \"#utility.yul\":10528:10532   */\n      dup7\n        /* \"#utility.yul\":10496:10533   */\n      tag_66\n      jump\t// in\n    tag_209:\n        /* \"#utility.yul\":10555:10556   */\n      0x00\n        /* \"#utility.yul\":10569:10777   */\n    tag_210:\n        /* \"#utility.yul\":10583:10590   */\n      dup3\n        /* \"#utility.yul\":10580:10581   */\n      dup2\n        /* \"#utility.yul\":10577:10591   */\n      lt\n        /* \"#utility.yul\":10569:10777   */\n      iszero\n      tag_212\n      jumpi\n        /* \"#utility.yul\":10662:10671   */\n      dup5\n        /* \"#utility.yul\":10657:10660   */\n      dup10\n        /* \"#utility.yul\":10653:10672   */\n      add\n        /* \"#utility.yul\":10647:10673   */\n      mload\n        /* \"#utility.yul\":10639:10645   */\n      dup3\n        /* \"#utility.yul\":10632:10674   */\n      sstore\n        /* \"#utility.yul\":10713:10714   */\n      0x01\n        /* \"#utility.yul\":10705:10711   */\n      dup3\n        /* \"#utility.yul\":10701:10715   */\n      add\n        /* \"#utility.yul\":10691:10715   */\n      swap2\n      pop\n        /* \"#utility.yul\":10760:10762   */\n      0x20\n        /* \"#utility.yul\":10749:10758   */\n      dup6\n        /* \"#utility.yul\":10745:10763   */\n      add\n        /* \"#utility.yul\":10732:10763   */\n      swap5\n      pop\n        /* \"#utility.yul\":10606:10610   */\n      0x20\n        /* \"#utility.yul\":10603:10604   */\n      dup2\n        /* \"#utility.yul\":10599:10611   */\n      add\n        /* \"#utility.yul\":10594:10611   */\n      swap1\n      pop\n        /* \"#utility.yul\":10569:10777   */\n      jump(tag_210)\n    tag_212:\n        /* \"#utility.yul\":10805:10811   */\n      dup7\n        /* \"#utility.yul\":10796:10803   */\n      dup4\n        /* \"#utility.yul\":10793:10812   */\n      lt\n        /* \"#utility.yul\":10790:10969   */\n      iszero\n      tag_213\n      jumpi\n        /* \"#utility.yul\":10863:10872   */\n      dup5\n        /* \"#utility.yul\":10858:10861   */\n      dup10\n        /* \"#utility.yul\":10854:10873   */\n      add\n        /* \"#utility.yul\":10848:10874   */\n      mload\n        /* \"#utility.yul\":10906:10954   */\n      tag_214\n        /* \"#utility.yul\":10948:10952   */\n      0x1f\n        /* \"#utility.yul\":10940:10946   */\n      dup10\n        /* \"#utility.yul\":10936:10953   */\n      and\n        /* \"#utility.yul\":10925:10934   */\n      dup3\n        /* \"#utility.yul\":10906:10954   */\n      tag_79\n      jump\t// in\n    tag_214:\n        /* \"#utility.yul\":10898:10904   */\n      dup4\n        /* \"#utility.yul\":10891:10955   */\n      sstore\n        /* \"#utility.yul\":10813:10969   */\n      pop\n        /* \"#utility.yul\":10790:10969   */\n    tag_213:\n        /* \"#utility.yul\":11015:11016   */\n      0x01\n        /* \"#utility.yul\":11011:11012   */\n      0x02\n        /* \"#utility.yul\":11003:11009   */\n      dup9\n        /* \"#utility.yul\":10999:11013   */\n      mul\n        /* \"#utility.yul\":10995:11017   */\n      add\n        /* \"#utility.yul\":10989:10993   */\n      dup9\n        /* \"#utility.yul\":10982:11018   */\n      sstore\n        /* \"#utility.yul\":10417:11028   */\n      pop\n      pop\n      pop\n        /* \"#utility.yul\":10380:11267   */\n    tag_205:\n      pop\n        /* \"#utility.yul\":9970:11273   */\n      pop\n      pop\n      pop\n        /* \"#utility.yul\":9878:11273   */\n      pop\n      pop\n      jump\t// out\n        /* \"#utility.yul\":11279:11459   */\n    tag_81:\n        /* \"#utility.yul\":11327:11404   */\n      0x4e487b7100000000000000000000000000000000000000000000000000000000\n        /* \"#utility.yul\":11324:11325   */\n      0x00\n        /* \"#utility.yul\":11317:11405   */\n      mstore\n        /* \"#utility.yul\":11424:11428   */\n      0x11\n        /* \"#utility.yul\":11421:11422   */\n      0x04\n        /* \"#utility.yul\":11414:11429   */\n      mstore\n        /* \"#utility.yul\":11448:11452   */\n      0x24\n        /* \"#utility.yul\":11445:11446   */\n      0x00\n        /* \"#utility.yul\":11438:11453   */\n      revert\n        /* \"#utility.yul\":11465:11659   */\n    tag_38:\n        /* \"#utility.yul\":11505:11509   */\n      0x00\n        /* \"#utility.yul\":11525:11545   */\n      tag_217\n        /* \"#utility.yul\":11543:11544   */\n      dup3\n        /* \"#utility.yul\":11525:11545   */\n      tag_44\n      jump\t// in\n    tag_217:\n        /* \"#utility.yul\":11520:11545   */\n      swap2\n      pop\n        /* \"#utility.yul\":11559:11579   */\n      tag_218\n        /* \"#utility.yul\":11577:11578   */\n      dup4\n        /* \"#utility.yul\":11559:11579   */\n      tag_44\n      jump\t// in\n    tag_218:\n        /* \"#utility.yul\":11554:11579   */\n      swap3\n      pop\n        /* \"#utility.yul\":11603:11604   */\n      dup3\n        /* \"#utility.yul\":11600:11601   */\n      dup3\n        /* \"#utility.yul\":11596:11605   */\n      sub\n        /* \"#utility.yul\":11588:11605   */\n      swap1\n      pop\n        /* \"#utility.yul\":11627:11628   */\n      dup2\n        /* \"#utility.yul\":11621:11625   */\n      dup2\n        /* \"#utility.yul\":11618:11629   */\n      gt\n        /* \"#utility.yul\":11615:11652   */\n      iszero\n      tag_219\n      jumpi\n        /* \"#utility.yul\":11632:11650   */\n      tag_220\n      tag_81\n      jump\t// in\n    tag_220:\n        /* \"#utility.yul\":11615:11652   */\n    tag_219:\n        /* \"#utility.yul\":11465:11659   */\n      swap3\n      swap2\n      pop\n      pop\n      jump\t// out\n        /* \"#utility.yul\":11665:12198   */\n    tag_40:\n        /* \"#utility.yul\":11834:11838   */\n      0x00\n        /* \"#utility.yul\":11872:11874   */\n      0x60\n        /* \"#utility.yul\":11861:11870   */\n      dup3\n        /* \"#utility.yul\":11857:11875   */\n      add\n        /* \"#utility.yul\":11849:11875   */\n      swap1\n      pop\n        /* \"#utility.yul\":11885:11956   */\n      tag_222\n        /* \"#utility.yul\":11953:11954   */\n      0x00\n        /* \"#utility.yul\":11942:11951   */\n      dup4\n        /* \"#utility.yul\":11938:11955   */\n      add\n        /* \"#utility.yul\":11929:11935   */\n      dup7\n        /* \"#utility.yul\":11885:11956   */\n      tag_52\n      jump\t// in\n    tag_222:\n        /* \"#utility.yul\":12003:12012   */\n      dup2\n        /* \"#utility.yul\":11997:12001   */\n      dup2\n        /* \"#utility.yul\":11993:12013   */\n      sub\n        /* \"#utility.yul\":11988:11990   */\n      0x20\n        /* \"#utility.yul\":11977:11986   */\n      dup4\n        /* \"#utility.yul\":11973:11991   */\n      add\n        /* \"#utility.yul\":11966:12014   */\n      mstore\n        /* \"#utility.yul\":12031:12109   */\n      tag_223\n        /* \"#utility.yul\":12104:12108   */\n      dup2\n        /* \"#utility.yul\":12095:12101   */\n      dup6\n        /* \"#utility.yul\":12031:12109   */\n      tag_51\n      jump\t// in\n    tag_223:\n        /* \"#utility.yul\":12023:12109   */\n      swap1\n      pop\n        /* \"#utility.yul\":12119:12191   */\n      tag_224\n        /* \"#utility.yul\":12187:12189   */\n      0x40\n        /* \"#utility.yul\":12176:12185   */\n      dup4\n        /* \"#utility.yul\":12172:12190   */\n      add\n        /* \"#utility.yul\":12163:12169   */\n      dup5\n        /* \"#utility.yul\":12119:12191   */\n      tag_52\n      jump\t// in\n    tag_224:\n        /* \"#utility.yul\":11665:12198   */\n      swap5\n      swap4\n      pop\n      pop\n      pop\n      pop\n      jump\t// out\n\n    auxdata: 0xa26469706673582212207b21668c0e33db29aadf7eccf4919854457d8e0fe757c1e944e9f4a151e71c2064736f6c63430008180033\n}\n",
				"bytecode": {
					"linkReferences": {},
					"object": "608060405260105f555f54600a620000189190620001b4565b60015534801562000027575f80fd5b5062000204565b7f4e487b71000000000000000000000000000000000000000000000000000000005f52601160045260245ffd5b5f8160011c9050919050565b5f808291508390505b6001851115620000b85780860481111562000090576200008f6200002e565b5b6001851615620000a05780820291505b8081029050620000b0856200005b565b945062000070565b94509492505050565b5f82620000d25760019050620001a4565b81620000e1575f9050620001a4565b8160018114620000fa576002811462000105576200013b565b6001915050620001a4565b60ff8411156200011a57620001196200002e565b5b8360020a9150848211156200013457620001336200002e565b5b50620001a4565b5060208310610133831016604e8410600b8410161715620001755782820a9050838111156200016f576200016e6200002e565b5b620001a4565b62000184848484600162000067565b925090508184048111156200019e576200019d6200002e565b5b81810290505b9392505050565b5f819050919050565b5f620001c082620001ab565b9150620001cd83620001ab565b9250620001fc7fffffffffffffffffffffffffffffffffffffffffffffffffffffffffffffffff8484620000c1565b905092915050565b61093d80620002125f395ff3fe608060405234801561000f575f80fd5b5060043610610034575f3560e01c80632052465e146100385780637bff0a0114610069575b5f80fd5b610052600480360381019061004d9190610290565b610085565b604051610060929190610354565b60405180910390f35b610083600480360381019061007e91906104ae565b61013a565b005b60028181548110610094575f80fd5b905f5260205f2090600202015f91509050805f0180546100b390610522565b80601f01602080910402602001604051908101604052809291908181526020018280546100df90610522565b801561012a5780601f106101015761010080835404028352916020019161012a565b820191905f5260205f20905b81548152906001019060200180831161010d57829003601f168201915b5050505050908060010154905082565b5f61014482610154565b9050610150828261019a565b5050565b5f8082604051602001610167919061058c565b604051602081830303815290604052805190602001205f1c90506001548161018f91906105cf565b905080915050919050565b6002604051806040016040528084815260200183815250908060018154018082558091505060019003905f5260205f2090600202015f909190919091505f820151815f0190816101ea919061079c565b506020820151816001015550505f600160028054905061020a9190610898565b90507f88f026aacbbecc90c18411df4b1185fd8d9be2470f1962f192bf84a27d0704b781848460405161023f939291906108cb565b60405180910390a1505050565b5f604051905090565b5f80fd5b5f80fd5b5f819050919050565b61026f8161025d565b8114610279575f80fd5b50565b5f8135905061028a81610266565b92915050565b5f602082840312156102a5576102a4610255565b5b5f6102b28482850161027c565b91505092915050565b5f81519050919050565b5f82825260208201905092915050565b5f5b838110156102f25780820151818401526020810190506102d7565b5f8484015250505050565b5f601f19601f8301169050919050565b5f610317826102bb565b61032181856102c5565b93506103318185602086016102d5565b61033a816102fd565b840191505092915050565b61034e8161025d565b82525050565b5f6040820190508181035f83015261036c818561030d565b905061037b6020830184610345565b9392505050565b5f80fd5b5f80fd5b7f4e487b71000000000000000000000000000000000000000000000000000000005f52604160045260245ffd5b6103c0826102fd565b810181811067ffffffffffffffff821117156103df576103de61038a565b5b80604052505050565b5f6103f161024c565b90506103fd82826103b7565b919050565b5f67ffffffffffffffff82111561041c5761041b61038a565b5b610425826102fd565b9050602081019050919050565b828183375f83830152505050565b5f61045261044d84610402565b6103e8565b90508281526020810184848401111561046e5761046d610386565b5b610479848285610432565b509392505050565b5f82601f83011261049557610494610382565b5b81356104a5848260208601610440565b91505092915050565b5f602082840312156104c3576104c2610255565b5b5f82013567ffffffffffffffff8111156104e0576104df610259565b5b6104ec84828501610481565b91505092915050565b7f4e487b71000000000000000000000000000000000000000000000000000000005f52602260045260245ffd5b5f600282049050600182168061053957607f821691505b60208210810361054c5761054b6104f5565b5b50919050565b5f81905092915050565b5f610566826102bb565b6105708185610552565b93506105808185602086016102d5565b80840191505092915050565b5f610597828461055c565b915081905092915050565b7f4e487b71000000000000000000000000000000000000000000000000000000005f52601260045260245ffd5b5f6105d98261025d565b91506105e48361025d565b9250826105f4576105f36105a2565b5b828206905092915050565b5f819050815f5260205f209050919050565b5f6020601f8301049050919050565b5f82821b905092915050565b5f6008830261065b7fffffffffffffffffffffffffffffffffffffffffffffffffffffffffffffffff82610620565b6106658683610620565b95508019841693508086168417925050509392505050565b5f819050919050565b5f6106a061069b6106968461025d565b61067d565b61025d565b9050919050565b5f819050919050565b6106b983610686565b6106cd6106c5826106a7565b84845461062c565b825550505050565b5f90565b6106e16106d5565b6106ec8184846106b0565b505050565b5b8181101561070f576107045f826106d9565b6001810190506106f2565b5050565b601f82111561075457610725816105ff565b61072e84610611565b8101602085101561073d578190505b61075161074985610611565b8301826106f1565b50505b505050565b5f82821c905092915050565b5f6107745f1984600802610759565b1980831691505092915050565b5f61078c8383610765565b9150826002028217905092915050565b6107a5826102bb565b67ffffffffffffffff8111156107be576107bd61038a565b5b6107c88254610522565b6107d3828285610713565b5f60209050601f831160018114610804575f84156107f2578287015190505b6107fc8582610781565b865550610863565b601f198416610812866105ff565b5f5b8281101561083957848901518255600182019150602085019450602081019050610814565b868310156108565784890151610852601f891682610765565b8355505b6001600288020188555050505b505050505050565b7f4e487b71000000000000000000000000000000000000000000000000000000005f52601160045260245ffd5b5f6108a28261025d565b91506108ad8361025d565b92508282039050818111156108c5576108c461086b565b5b92915050565b5f6060820190506108de5f830186610345565b81810360208301526108f0818561030d565b90506108ff6040830184610345565b94935050505056fea26469706673582212207b21668c0e33db29aadf7eccf4919854457d8e0fe757c1e944e9f4a151e71c2064736f6c63430008180033",
					"opcodes": "PUSH1 0x80 PUSH1 0x40 MSTORE PUSH1 0x10 PUSH0 SSTORE PUSH0 SLOAD PUSH1 0xA PUSH3 0x18 SWAP2 SWAP1 PUSH3 0x1B4 JUMP JUMPDEST PUSH1 0x1 SSTORE CALLVALUE DUP1 ISZERO PUSH3 0x27 JUMPI PUSH0 DUP1 REVERT JUMPDEST POP PUSH3 0x204 JUMP JUMPDEST PUSH32 0x4E487B7100000000000000000000000000000000000000000000000000000000 PUSH0 MSTORE PUSH1 0x11 PUSH1 0x4 MSTORE PUSH1 0x24 PUSH0 REVERT JUMPDEST PUSH0 DUP2 PUSH1 0x1 SHR SWAP1 POP SWAP2 SWAP1 POP JUMP JUMPDEST PUSH0 DUP1 DUP3 SWAP2 POP DUP4 SWAP1 POP JUMPDEST PUSH1 0x1 DUP6 GT ISZERO PUSH3 0xB8 JUMPI DUP1 DUP7 DIV DUP2 GT ISZERO PUSH3 0x90 JUMPI PUSH3 0x8F PUSH3 0x2E JUMP JUMPDEST JUMPDEST PUSH1 0x1 DUP6 AND ISZERO PUSH3 0xA0 JUMPI DUP1 DUP3 MUL SWAP2 POP JUMPDEST DUP1 DUP2 MUL SWAP1 POP PUSH3 0xB0 DUP6 PUSH3 0x5B JUMP JUMPDEST SWAP5 POP PUSH3 0x70 JUMP JUMPDEST SWAP5 POP SWAP5 SWAP3 POP POP POP JUMP JUMPDEST PUSH0 DUP3 PUSH3 0xD2 JUMPI PUSH1 0x1 SWAP1 POP PUSH3 0x1A4 JUMP JUMPDEST DUP2 PUSH3 0xE1 JUMPI PUSH0 SWAP1 POP PUSH3 0x1A4 JUMP JUMPDEST DUP2 PUSH1 0x1 DUP2 EQ PUSH3 0xFA JUMPI PUSH1 0x2 DUP2 EQ PUSH3 0x105 JUMPI PUSH3 0x13B JUMP JUMPDEST PUSH1 0x1 SWAP2 POP POP PUSH3 0x1A4 JUMP JUMPDEST PUSH1 0xFF DUP5 GT ISZERO PUSH3 0x11A JUMPI PUSH3 0x119 PUSH3 0x2E JUMP JUMPDEST JUMPDEST DUP4 PUSH1 0x2 EXP SWAP2 POP DUP5 DUP3 GT ISZERO PUSH3 0x134 JUMPI PUSH3 0x133 PUSH3 0x2E JUMP JUMPDEST JUMPDEST POP PUSH3 0x1A4 JUMP JUMPDEST POP PUSH1 0x20 DUP4 LT PUSH2 0x133 DUP4 LT AND PUSH1 0x4E DUP5 LT PUSH1 0xB DUP5 LT AND OR ISZERO PUSH3 0x175 JUMPI DUP3 DUP3 EXP SWAP1 POP DUP4 DUP2 GT ISZERO PUSH3 0x16F JUMPI PUSH3 0x16E PUSH3 0x2E JUMP JUMPDEST JUMPDEST PUSH3 0x1A4 JUMP JUMPDEST PUSH3 0x184 DUP5 DUP5 DUP5 PUSH1 0x1 PUSH3 0x67 JUMP JUMPDEST SWAP3 POP SWAP1 POP DUP2 DUP5 DIV DUP2 GT ISZERO PUSH3 0x19E JUMPI PUSH3 0x19D PUSH3 0x2E JUMP JUMPDEST JUMPDEST DUP2 DUP2 MUL SWAP1 POP JUMPDEST SWAP4 SWAP3 POP POP POP JUMP JUMPDEST PUSH0 DUP2 SWAP1 POP SWAP2 SWAP1 POP JUMP JUMPDEST PUSH0 PUSH3 0x1C0 DUP3 PUSH3 0x1AB JUMP JUMPDEST SWAP2 POP PUSH3 0x1CD DUP4 PUSH3 0x1AB JUMP JUMPDEST SWAP3 POP PUSH3 0x1FC PUSH32 0xFFFFFFFFFFFFFFFFFFFFFFFFFFFFFFFFFFFFFFFFFFFFFFFFFFFFFFFFFFFFFFFF DUP5 DUP5 PUSH3 0xC1 JUMP JUMPDEST SWAP1 POP SWAP3 SWAP2 POP POP JUMP JUMPDEST PUSH2 0x93D DUP1 PUSH3 0x212 PUSH0 CODECOPY PUSH0 RETURN INVALID PUSH1 0x80 PUSH1 0x40 MSTORE CALLVALUE DUP1 ISZERO PUSH2 0xF JUMPI PUSH0 DUP1 REVERT JUMPDEST POP PUSH1 0x4 CALLDATASIZE LT PUSH2 0x34 JUMPI PUSH0 CALLDATALOAD PUSH1 0xE0 SHR DUP1 PUSH4 0x2052465E EQ PUSH2 0x38 JUMPI DUP1 PUSH4 0x7BFF0A01 EQ PUSH2 0x69 JUMPI JUMPDEST PUSH0 DUP1 REVERT JUMPDEST PUSH2 0x52 PUSH1 0x4 DUP1 CALLDATASIZE SUB DUP2 ADD SWAP1 PUSH2 0x4D SWAP2 SWAP1 PUSH2 0x290 JUMP JUMPDEST PUSH2 0x85 JUMP JUMPDEST PUSH1 0x40 MLOAD PUSH2 0x60 SWAP3 SWAP2 SWAP1 PUSH2 0x354 JUMP JUMPDEST PUSH1 0x40 MLOAD DUP1 SWAP2 SUB SWAP1 RETURN JUMPDEST PUSH2 0x83 PUSH1 0x4 DUP1 CALLDATASIZE SUB DUP2 ADD SWAP1 PUSH2 0x7E SWAP2 SWAP1 PUSH2 0x4AE JUMP JUMPDEST PUSH2 0x13A JUMP JUMPDEST STOP JUMPDEST PUSH1 0x2 DUP2 DUP2 SLOAD DUP2 LT PUSH2 0x94 JUMPI PUSH0 DUP1 REVERT JUMPDEST SWAP1 PUSH0 MSTORE PUSH1 0x20 PUSH0 KECCAK256 SWAP1 PUSH1 0x2 MUL ADD PUSH0 SWAP2 POP SWAP1 POP DUP1 PUSH0 ADD DUP1 SLOAD PUSH2 0xB3 SWAP1 PUSH2 0x522 JUMP JUMPDEST DUP1 PUSH1 0x1F ADD PUSH1 0x20 DUP1 SWAP2 DIV MUL PUSH1 0x20 ADD PUSH1 0x40 MLOAD SWAP1 DUP2 ADD PUSH1 0x40 MSTORE DUP1 SWAP3 SWAP2 SWAP1 DUP2 DUP2 MSTORE PUSH1 0x20 ADD DUP3 DUP1 SLOAD PUSH2 0xDF SWAP1 PUSH2 0x522 JUMP JUMPDEST DUP1 ISZERO PUSH2 0x12A JUMPI DUP1 PUSH1 0x1F LT PUSH2 0x101 JUMPI PUSH2 0x100 DUP1 DUP4 SLOAD DIV MUL DUP4 MSTORE SWAP2 PUSH1 0x20 ADD SWAP2 PUSH2 0x12A JUMP JUMPDEST DUP3 ADD SWAP2 SWAP1 PUSH0 MSTORE PUSH1 0x20 PUSH0 KECCAK256 SWAP1 JUMPDEST DUP2 SLOAD DUP2 MSTORE SWAP1 PUSH1 0x1 ADD SWAP1 PUSH1 0x20 ADD DUP1 DUP4 GT PUSH2 0x10D JUMPI DUP3 SWAP1 SUB PUSH1 0x1F AND DUP3 ADD SWAP2 JUMPDEST POP POP POP POP POP SWAP1 DUP1 PUSH1 0x1 ADD SLOAD SWAP1 POP DUP3 JUMP JUMPDEST PUSH0 PUSH2 0x144 DUP3 PUSH2 0x154 JUMP JUMPDEST SWAP1 POP PUSH2 0x150 DUP3 DUP3 PUSH2 0x19A JUMP JUMPDEST POP POP JUMP JUMPDEST PUSH0 DUP1 DUP3 PUSH1 0x40 MLOAD PUSH1 0x20 ADD PUSH2 0x167 SWAP2 SWAP1 PUSH2 0x58C JUMP JUMPDEST PUSH1 0x40 MLOAD PUSH1 0x20 DUP2 DUP4 SUB SUB DUP2 MSTORE SWAP1 PUSH1 0x40 MSTORE DUP1 MLOAD SWAP1 PUSH1 0x20 ADD KECCAK256 PUSH0 SHR SWAP1 POP PUSH1 0x1 SLOAD DUP2 PUSH2 0x18F SWAP2 SWAP1 PUSH2 0x5CF JUMP JUMPDEST SWAP1 POP DUP1 SWAP2 POP POP SWAP2 SWAP1 POP JUMP JUMPDEST PUSH1 0x2 PUSH1 0x40 MLOAD DUP1 PUSH1 0x40 ADD PUSH1 0x40 MSTORE DUP1 DUP5 DUP2 MSTORE PUSH1 0x20 ADD DUP4 DUP2 MSTORE POP SWAP1 DUP1 PUSH1 0x1 DUP2 SLOAD ADD DUP1 DUP3 SSTORE DUP1 SWAP2 POP POP PUSH1 0x1 SWAP1 SUB SWAP1 PUSH0 MSTORE PUSH1 0x20 PUSH0 KECCAK256 SWAP1 PUSH1 0x2 MUL ADD PUSH0 SWAP1 SWAP2 SWAP1 SWAP2 SWAP1 SWAP2 POP PUSH0 DUP3 ADD MLOAD DUP2 PUSH0 ADD SWAP1 DUP2 PUSH2 0x1EA SWAP2 SWAP1 PUSH2 0x79C JUMP JUMPDEST POP PUSH1 0x20 DUP3 ADD MLOAD DUP2 PUSH1 0x1 ADD SSTORE POP POP PUSH0 PUSH1 0x1 PUSH1 0x2 DUP1 SLOAD SWAP1 POP PUSH2 0x20A SWAP2 SWAP1 PUSH2 0x898 JUMP JUMPDEST SWAP1 POP PUSH32 0x88F026AACBBECC90C18411DF4B1185FD8D9BE2470F1962F192BF84A27D0704B7 DUP2 DUP5 DUP5 PUSH1 0x40 MLOAD PUSH2 0x23F SWAP4 SWAP3 SWAP2 SWAP1 PUSH2 0x8CB JUMP JUMPDEST PUSH1 0x40 MLOAD DUP1 SWAP2 SUB SWAP1 LOG1 POP POP POP JUMP JUMPDEST PUSH0 PUSH1 0x40 MLOAD SWAP1 POP SWAP1 JUMP JUMPDEST PUSH0 DUP1 REVERT JUMPDEST PUSH0 DUP1 REVERT JUMPDEST PUSH0 DUP2 SWAP1 POP SWAP2 SWAP1 POP JUMP JUMPDEST PUSH2 0x26F DUP2 PUSH2 0x25D JUMP JUMPDEST DUP2 EQ PUSH2 0x279 JUMPI PUSH0 DUP1 REVERT JUMPDEST POP JUMP JUMPDEST PUSH0 DUP2 CALLDATALOAD SWAP1 POP PUSH2 0x28A DUP2 PUSH2 0x266 JUMP JUMPDEST SWAP3 SWAP2 POP POP JUMP JUMPDEST PUSH0 PUSH1 0x20 DUP3 DUP5 SUB SLT ISZERO PUSH2 0x2A5 JUMPI PUSH2 0x2A4 PUSH2 0x255 JUMP JUMPDEST JUMPDEST PUSH0 PUSH2 0x2B2 DUP5 DUP3 DUP6 ADD PUSH2 0x27C JUMP JUMPDEST SWAP2 POP POP SWAP3 SWAP2 POP POP JUMP JUMPDEST PUSH0 DUP2 MLOAD SWAP1 POP SWAP2 SWAP1 POP JUMP JUMPDEST PUSH0 DUP3 DUP3 MSTORE PUSH1 0x20 DUP3 ADD SWAP1 POP SWAP3 SWAP2 POP POP JUMP JUMPDEST PUSH0 JUMPDEST DUP4 DUP2 LT ISZERO PUSH2 0x2F2 JUMPI DUP1 DUP3 ADD MLOAD DUP2 DUP5 ADD MSTORE PUSH1 0x20 DUP2 ADD SWAP1 POP PUSH2 0x2D7 JUMP JUMPDEST PUSH0 DUP5 DUP5 ADD MSTORE POP POP POP POP JUMP JUMPDEST PUSH0 PUSH1 0x1F NOT PUSH1 0x1F DUP4 ADD AND SWAP1 POP SWAP2 SWAP1 POP JUMP JUMPDEST PUSH0 PUSH2 0x317 DUP3 PUSH2 0x2BB JUMP JUMPDEST PUSH2 0x321 DUP2 DUP6 PUSH2 0x2C5 JUMP JUMPDEST SWAP4 POP PUSH2 0x331 DUP2 DUP6 PUSH1 0x20 DUP7 ADD PUSH2 0x2D5 JUMP JUMPDEST PUSH2 0x33A DUP2 PUSH2 0x2FD JUMP JUMPDEST DUP5 ADD SWAP2 POP POP SWAP3 SWAP2 POP POP JUMP JUMPDEST PUSH2 0x34E DUP2 PUSH2 0x25D JUMP JUMPDEST DUP3 MSTORE POP POP JUMP JUMPDEST PUSH0 PUSH1 0x40 DUP3 ADD SWAP1 POP DUP2 DUP2 SUB PUSH0 DUP4 ADD MSTORE PUSH2 0x36C DUP2 DUP6 PUSH2 0x30D JUMP JUMPDEST SWAP1 POP PUSH2 0x37B PUSH1 0x20 DUP4 ADD DUP5 PUSH2 0x345 JUMP JUMPDEST SWAP4 SWAP3 POP POP POP JUMP JUMPDEST PUSH0 DUP1 REVERT JUMPDEST PUSH0 DUP1 REVERT JUMPDEST PUSH32 0x4E487B7100000000000000000000000000000000000000000000000000000000 PUSH0 MSTORE PUSH1 0x41 PUSH1 0x4 MSTORE PUSH1 0x24 PUSH0 REVERT JUMPDEST PUSH2 0x3C0 DUP3 PUSH2 0x2FD JUMP JUMPDEST DUP2 ADD DUP2 DUP2 LT PUSH8 0xFFFFFFFFFFFFFFFF DUP3 GT OR ISZERO PUSH2 0x3DF JUMPI PUSH2 0x3DE PUSH2 0x38A JUMP JUMPDEST JUMPDEST DUP1 PUSH1 0x40 MSTORE POP POP POP JUMP JUMPDEST PUSH0 PUSH2 0x3F1 PUSH2 0x24C JUMP JUMPDEST SWAP1 POP PUSH2 0x3FD DUP3 DUP3 PUSH2 0x3B7 JUMP JUMPDEST SWAP2 SWAP1 POP JUMP JUMPDEST PUSH0 PUSH8 0xFFFFFFFFFFFFFFFF DUP3 GT ISZERO PUSH2 0x41C JUMPI PUSH2 0x41B PUSH2 0x38A JUMP JUMPDEST JUMPDEST PUSH2 0x425 DUP3 PUSH2 0x2FD JUMP JUMPDEST SWAP1 POP PUSH1 0x20 DUP2 ADD SWAP1 POP SWAP2 SWAP1 POP JUMP JUMPDEST DUP3 DUP2 DUP4 CALLDATACOPY PUSH0 DUP4 DUP4 ADD MSTORE POP POP POP JUMP JUMPDEST PUSH0 PUSH2 0x452 PUSH2 0x44D DUP5 PUSH2 0x402 JUMP JUMPDEST PUSH2 0x3E8 JUMP JUMPDEST SWAP1 POP DUP3 DUP2 MSTORE PUSH1 0x20 DUP2 ADD DUP5 DUP5 DUP5 ADD GT ISZERO PUSH2 0x46E JUMPI PUSH2 0x46D PUSH2 0x386 JUMP JUMPDEST JUMPDEST PUSH2 0x479 DUP5 DUP3 DUP6 PUSH2 0x432 JUMP JUMPDEST POP SWAP4 SWAP3 POP POP POP JUMP JUMPDEST PUSH0 DUP3 PUSH1 0x1F DUP4 ADD SLT PUSH2 0x495 JUMPI PUSH2 0x494 PUSH2 0x382 JUMP JUMPDEST JUMPDEST DUP2 CALLDATALOAD PUSH2 0x4A5 DUP5 DUP3 PUSH1 0x20 DUP7 ADD PUSH2 0x440 JUMP JUMPDEST SWAP2 POP POP SWAP3 SWAP2 POP POP JUMP JUMPDEST PUSH0 PUSH1 0x20 DUP3 DUP5 SUB SLT ISZERO PUSH2 0x4C3 JUMPI PUSH2 0x4C2 PUSH2 0x255 JUMP JUMPDEST JUMPDEST PUSH0 DUP3 ADD CALLDATALOAD PUSH8 0xFFFFFFFFFFFFFFFF DUP2 GT ISZERO PUSH2 0x4E0 JUMPI PUSH2 0x4DF PUSH2 0x259 JUMP JUMPDEST JUMPDEST PUSH2 0x4EC DUP5 DUP3 DUP6 ADD PUSH2 0x481 JUMP JUMPDEST SWAP2 POP POP SWAP3 SWAP2 POP POP JUMP JUMPDEST PUSH32 0x4E487B7100000000000000000000000000000000000000000000000000000000 PUSH0 MSTORE PUSH1 0x22 PUSH1 0x4 MSTORE PUSH1 0x24 PUSH0 REVERT JUMPDEST PUSH0 PUSH1 0x2 DUP3 DIV SWAP1 POP PUSH1 0x1 DUP3 AND DUP1 PUSH2 0x539 JUMPI PUSH1 0x7F DUP3 AND SWAP2 POP JUMPDEST PUSH1 0x20 DUP3 LT DUP2 SUB PUSH2 0x54C JUMPI PUSH2 0x54B PUSH2 0x4F5 JUMP JUMPDEST JUMPDEST POP SWAP2 SWAP1 POP JUMP JUMPDEST PUSH0 DUP2 SWAP1 POP SWAP3 SWAP2 POP POP JUMP JUMPDEST PUSH0 PUSH2 0x566 DUP3 PUSH2 0x2BB JUMP JUMPDEST PUSH2 0x570 DUP2 DUP6 PUSH2 0x552 JUMP JUMPDEST SWAP4 POP PUSH2 0x580 DUP2 DUP6 PUSH1 0x20 DUP7 ADD PUSH2 0x2D5 JUMP JUMPDEST DUP1 DUP5 ADD SWAP2 POP POP SWAP3 SWAP2 POP POP JUMP JUMPDEST PUSH0 PUSH2 0x597 DUP3 DUP5 PUSH2 0x55C JUMP JUMPDEST SWAP2 POP DUP2 SWAP1 POP SWAP3 SWAP2 POP POP JUMP JUMPDEST PUSH32 0x4E487B7100000000000000000000000000000000000000000000000000000000 PUSH0 MSTORE PUSH1 0x12 PUSH1 0x4 MSTORE PUSH1 0x24 PUSH0 REVERT JUMPDEST PUSH0 PUSH2 0x5D9 DUP3 PUSH2 0x25D JUMP JUMPDEST SWAP2 POP PUSH2 0x5E4 DUP4 PUSH2 0x25D JUMP JUMPDEST SWAP3 POP DUP3 PUSH2 0x5F4 JUMPI PUSH2 0x5F3 PUSH2 0x5A2 JUMP JUMPDEST JUMPDEST DUP3 DUP3 MOD SWAP1 POP SWAP3 SWAP2 POP POP JUMP JUMPDEST PUSH0 DUP2 SWAP1 POP DUP2 PUSH0 MSTORE PUSH1 0x20 PUSH0 KECCAK256 SWAP1 POP SWAP2 SWAP1 POP JUMP JUMPDEST PUSH0 PUSH1 0x20 PUSH1 0x1F DUP4 ADD DIV SWAP1 POP SWAP2 SWAP1 POP JUMP JUMPDEST PUSH0 DUP3 DUP3 SHL SWAP1 POP SWAP3 SWAP2 POP POP JUMP JUMPDEST PUSH0 PUSH1 0x8 DUP4 MUL PUSH2 0x65B PUSH32 0xFFFFFFFFFFFFFFFFFFFFFFFFFFFFFFFFFFFFFFFFFFFFFFFFFFFFFFFFFFFFFFFF DUP3 PUSH2 0x620 JUMP JUMPDEST PUSH2 0x665 DUP7 DUP4 PUSH2 0x620 JUMP JUMPDEST SWAP6 POP DUP1 NOT DUP5 AND SWAP4 POP DUP1 DUP7 AND DUP5 OR SWAP3 POP POP POP SWAP4 SWAP3 POP POP POP JUMP JUMPDEST PUSH0 DUP2 SWAP1 POP SWAP2 SWAP1 POP JUMP JUMPDEST PUSH0 PUSH2 0x6A0 PUSH2 0x69B PUSH2 0x696 DUP5 PUSH2 0x25D JUMP JUMPDEST PUSH2 0x67D JUMP JUMPDEST PUSH2 0x25D JUMP JUMPDEST SWAP1 POP SWAP2 SWAP1 POP JUMP JUMPDEST PUSH0 DUP2 SWAP1 POP SWAP2 SWAP1 POP JUMP JUMPDEST PUSH2 0x6B9 DUP4 PUSH2 0x686 JUMP JUMPDEST PUSH2 0x6CD PUSH2 0x6C5 DUP3 PUSH2 0x6A7 JUMP JUMPDEST DUP5 DUP5 SLOAD PUSH2 0x62C JUMP JUMPDEST DUP3 SSTORE POP POP POP POP JUMP JUMPDEST PUSH0 SWAP1 JUMP JUMPDEST PUSH2 0x6E1 PUSH2 0x6D5 JUMP JUMPDEST PUSH2 0x6EC DUP2 DUP5 DUP5 PUSH2 0x6B0 JUMP JUMPDEST POP POP POP JUMP JUMPDEST JUMPDEST DUP2 DUP2 LT ISZERO PUSH2 0x70F JUMPI PUSH2 0x704 PUSH0 DUP3 PUSH2 0x6D9 JUMP JUMPDEST PUSH1 0x1 DUP2 ADD SWAP1 POP PUSH2 0x6F2 JUMP JUMPDEST POP POP JUMP JUMPDEST PUSH1 0x1F DUP3 GT ISZERO PUSH2 0x754 JUMPI PUSH2 0x725 DUP2 PUSH2 0x5FF JUMP JUMPDEST PUSH2 0x72E DUP5 PUSH2 0x611 JUMP JUMPDEST DUP2 ADD PUSH1 0x20 DUP6 LT ISZERO PUSH2 0x73D JUMPI DUP2 SWAP1 POP JUMPDEST PUSH2 0x751 PUSH2 0x749 DUP6 PUSH2 0x611 JUMP JUMPDEST DUP4 ADD DUP3 PUSH2 0x6F1 JUMP JUMPDEST POP POP JUMPDEST POP POP POP JUMP JUMPDEST PUSH0 DUP3 DUP3 SHR SWAP1 POP SWAP3 SWAP2 POP POP JUMP JUMPDEST PUSH0 PUSH2 0x774 PUSH0 NOT DUP5 PUSH1 0x8 MUL PUSH2 0x759 JUMP JUMPDEST NOT DUP1 DUP4 AND SWAP2 POP POP SWAP3 SWAP2 POP POP JUMP JUMPDEST PUSH0 PUSH2 0x78C DUP4 DUP4 PUSH2 0x765 JUMP JUMPDEST SWAP2 POP DUP3 PUSH1 0x2 MUL DUP3 OR SWAP1 POP SWAP3 SWAP2 POP POP JUMP JUMPDEST PUSH2 0x7A5 DUP3 PUSH2 0x2BB JUMP JUMPDEST PUSH8 0xFFFFFFFFFFFFFFFF DUP2 GT ISZERO PUSH2 0x7BE JUMPI PUSH2 0x7BD PUSH2 0x38A JUMP JUMPDEST JUMPDEST PUSH2 0x7C8 DUP3 SLOAD PUSH2 0x522 JUMP JUMPDEST PUSH2 0x7D3 DUP3 DUP3 DUP6 PUSH2 0x713 JUMP JUMPDEST PUSH0 PUSH1 0x20 SWAP1 POP PUSH1 0x1F DUP4 GT PUSH1 0x1 DUP2 EQ PUSH2 0x804 JUMPI PUSH0 DUP5 ISZERO PUSH2 0x7F2 JUMPI DUP3 DUP8 ADD MLOAD SWAP1 POP JUMPDEST PUSH2 0x7FC DUP6 DUP3 PUSH2 0x781 JUMP JUMPDEST DUP7 SSTORE POP PUSH2 0x863 JUMP JUMPDEST PUSH1 0x1F NOT DUP5 AND PUSH2 0x812 DUP7 PUSH2 0x5FF JUMP JUMPDEST PUSH0 JUMPDEST DUP3 DUP2 LT ISZERO PUSH2 0x839 JUMPI DUP5 DUP10 ADD MLOAD DUP3 SSTORE PUSH1 0x1 DUP3 ADD SWAP2 POP PUSH1 0x20 DUP6 ADD SWAP5 POP PUSH1 0x20 DUP2 ADD SWAP1 POP PUSH2 0x814 JUMP JUMPDEST DUP7 DUP4 LT ISZERO PUSH2 0x856 JUMPI DUP5 DUP10 ADD MLOAD PUSH2 0x852 PUSH1 0x1F DUP10 AND DUP3 PUSH2 0x765 JUMP JUMPDEST DUP4 SSTORE POP JUMPDEST PUSH1 0x1 PUSH1 0x2 DUP9 MUL ADD DUP9 SSTORE POP POP POP JUMPDEST POP POP POP POP POP POP JUMP JUMPDEST PUSH32 0x4E487B7100000000000000000000000000000000000000000000000000000000 PUSH0 MSTORE PUSH1 0x11 PUSH1 0x4 MSTORE PUSH1 0x24 PUSH0 REVERT JUMPDEST PUSH0 PUSH2 0x8A2 DUP3 PUSH2 0x25D JUMP JUMPDEST SWAP2 POP PUSH2 0x8AD DUP4 PUSH2 0x25D JUMP JUMPDEST SWAP3 POP DUP3 DUP3 SUB SWAP1 POP DUP2 DUP2 GT ISZERO PUSH2 0x8C5 JUMPI PUSH2 0x8C4 PUSH2 0x86B JUMP JUMPDEST JUMPDEST SWAP3 SWAP2 POP POP JUMP JUMPDEST PUSH0 PUSH1 0x60 DUP3 ADD SWAP1 POP PUSH2 0x8DE PUSH0 DUP4 ADD DUP7 PUSH2 0x345 JUMP JUMPDEST DUP2 DUP2 SUB PUSH1 0x20 DUP4 ADD MSTORE PUSH2 0x8F0 DUP2 DUP6 PUSH2 0x30D JUMP JUMPDEST SWAP1 POP PUSH2 0x8FF PUSH1 0x40 DUP4 ADD DUP5 PUSH2 0x345 JUMP JUMPDEST SWAP5 SWAP4 POP POP POP POP JUMP INVALID LOG2 PUSH5 0x6970667358 0x22 SLT KECCAK256 PUSH28 0x21668C0E33DB29AADF7ECCF4919854457D8E0FE757C1E944E9F4A151 0xE7 SHR KECCAK256 PUSH5 0x736F6C6343 STOP ADDMOD XOR STOP CALLER "
				},
				"gasEstimates": {
					"creation": {
						"codeDepositCost": "473000",
						"executionCost": "infinite",
						"totalCost": "infinite"
					},
					"external": {
						"createRandomZombie(string)": "infinite",
						"zombies(uint256)": "infinite"
					},
					"internal": {
						"_createZombie(string memory,uint256)": "infinite",
						"_generateRandomDna(string memory)": "infinite"
					}
				},
				"methodIdentifiers": {
					"createRandomZombie(string)": "7bff0a01",
					"zombies(uint256)": "2052465e"
				}
			},
			"storageLayout": {
				"storage": [
					{
						"astId": 12,
						"contract": "TestKnowledge/RedoZombieFactory.sol:RedoZombieFactory",
						"label": "dnaDigits",
						"offset": 0,
						"slot": "0",
						"type": "t_uint256"
					},
					{
						"astId": 17,
						"contract": "TestKnowledge/RedoZombieFactory.sol:RedoZombieFactory",
						"label": "dnaModulus",
						"offset": 0,
						"slot": "1",
						"type": "t_uint256"
					},
					{
						"astId": 21,
						"contract": "TestKnowledge/RedoZombieFactory.sol:RedoZombieFactory",
						"label": "zombies",
						"offset": 0,
						"slot": "2",
						"type": "t_array(t_struct(Zombie)26_storage)dyn_storage"
					}
				],
				"types": {
					"t_array(t_struct(Zombie)26_storage)dyn_storage": {
						"base": "t_struct(Zombie)26_storage",
						"encoding": "dynamic_array",
						"label": "struct RedoZombieFactory.Zombie[]",
						"numberOfBytes": "32"
					},
					"t_string_storage": {
						"encoding": "bytes",
						"label": "string",
						"numberOfBytes": "32"
					},
					"t_struct(Zombie)26_storage": {
						"encoding": "inplace",
						"label": "struct RedoZombieFactory.Zombie",
						"members": [
							{
								"astId": 23,
								"contract": "TestKnowledge/RedoZombieFactory.sol:RedoZombieFactory",
								"label": "name",
								"offset": 0,
								"slot": "0",
								"type": "t_string_storage"
							},
							{
								"astId": 25,
								"contract": "TestKnowledge/RedoZombieFactory.sol:RedoZombieFactory",
								"label": "dna",
								"offset": 0,
								"slot": "1",
								"type": "t_uint256"
							}
						],
						"numberOfBytes": "64"
					},
					"t_uint256": {
						"encoding": "inplace",
						"label": "uint256",
						"numberOfBytes": "32"
					}
				}
			},
			"userdoc": {
				"kind": "user",
				"methods": {},
				"version": 1
			}
		}
	}
}